{
	"firstPriceAuction.sol": {
		"firstPriceAuction": {
			"abi": [
				{
					"inputs": [
						{
							"internalType": "uint256",
							"name": "biddingTime",
							"type": "uint256"
						},
						{
							"internalType": "address",
							"name": "thenft",
							"type": "address"
						},
						{
							"internalType": "uint256",
							"name": "thenftid",
							"type": "uint256"
						}
					],
					"stateMutability": "nonpayable",
					"type": "constructor"
				},
				{
					"inputs": [],
					"name": "auctionEndTime",
					"outputs": [
						{
							"internalType": "uint256",
							"name": "",
							"type": "uint256"
						}
					],
					"stateMutability": "view",
					"type": "function"
				},
				{
					"inputs": [],
					"name": "auctionOwner",
					"outputs": [
						{
							"internalType": "address payable",
							"name": "",
							"type": "address"
						}
					],
					"stateMutability": "view",
					"type": "function"
				},
				{
					"inputs": [
						{
							"internalType": "uint256",
							"name": "thebid",
							"type": "uint256"
						}
					],
					"name": "bid",
					"outputs": [],
					"stateMutability": "nonpayable",
					"type": "function"
				},
				{
					"inputs": [
						{
							"internalType": "address",
							"name": "",
							"type": "address"
						}
					],
					"name": "hasBid",
					"outputs": [
						{
							"internalType": "bool",
							"name": "",
							"type": "bool"
						}
					],
					"stateMutability": "view",
					"type": "function"
				},
				{
					"inputs": [],
					"name": "hasPaid",
					"outputs": [
						{
							"internalType": "bool",
							"name": "",
							"type": "bool"
						}
					],
					"stateMutability": "view",
					"type": "function"
				},
				{
					"inputs": [],
					"name": "highestBid",
					"outputs": [
						{
							"internalType": "uint256",
							"name": "",
							"type": "uint256"
						}
					],
					"stateMutability": "view",
					"type": "function"
				},
				{
					"inputs": [],
					"name": "highestBidder",
					"outputs": [
						{
							"internalType": "address payable",
							"name": "",
							"type": "address"
						}
					],
					"stateMutability": "view",
					"type": "function"
				},
				{
					"inputs": [],
					"name": "nft",
					"outputs": [
						{
							"internalType": "contract IERC721",
							"name": "",
							"type": "address"
						}
					],
					"stateMutability": "view",
					"type": "function"
				},
				{
					"inputs": [],
					"name": "nftId",
					"outputs": [
						{
							"internalType": "uint256",
							"name": "",
							"type": "uint256"
						}
					],
					"stateMutability": "view",
					"type": "function"
				},
				{
					"inputs": [],
					"name": "pay",
					"outputs": [],
					"stateMutability": "payable",
					"type": "function"
				}
			],
			"devdoc": {
				"kind": "dev",
				"methods": {},
				"version": 1
			},
			"evm": {
				"assembly": "    /* \"firstPriceAuction.sol\":116:1888  contract firstPriceAuction {... */\n  mstore(0x40, 0x80)\n    /* \"firstPriceAuction.sol\":613:1034  constructor(uint biddingTime, address thenft, uint thenftid) {... */\n  callvalue\n  dup1\n  iszero\n  tag_1\n  jumpi\n  0x00\n  dup1\n  revert\ntag_1:\n  pop\n  mload(0x40)\n  sub(codesize, bytecodeSize)\n  dup1\n  bytecodeSize\n  dup4\n  codecopy\n  dup2\n  dup2\n  add\n  0x40\n  mstore\n  dup2\n  add\n  swap1\n  tag_2\n  swap2\n  swap1\n  tag_3\n  jump\t// in\ntag_2:\n    /* \"firstPriceAuction.sol\":828:838  msg.sender */\n  caller\n    /* \"firstPriceAuction.sol\":791:838  IERC721(thenft).ownerOf(thenftid) == msg.sender */\n  0xffffffffffffffffffffffffffffffffffffffff\n  and\n    /* \"firstPriceAuction.sol\":799:805  thenft */\n  dup3\n    /* \"firstPriceAuction.sol\":791:814  IERC721(thenft).ownerOf */\n  0xffffffffffffffffffffffffffffffffffffffff\n  and\n  0x6352211e\n    /* \"firstPriceAuction.sol\":815:823  thenftid */\n  dup4\n    /* \"firstPriceAuction.sol\":791:824  IERC721(thenft).ownerOf(thenftid) */\n  mload(0x40)\n  dup3\n  0xffffffff\n  and\n  0xe0\n  shl\n  dup2\n  mstore\n  0x04\n  add\n  tag_6\n  swap2\n  swap1\n  tag_7\n  jump\t// in\ntag_6:\n  0x20\n  mload(0x40)\n  dup1\n  dup4\n  sub\n  dup2\n  dup7\n  gas\n  staticcall\n  iszero\n  dup1\n  iszero\n  tag_9\n  jumpi\n  returndatasize\n  0x00\n  dup1\n  returndatacopy\n  revert(0x00, returndatasize)\ntag_9:\n  pop\n  pop\n  pop\n  pop\n  mload(0x40)\n  returndatasize\n  not(0x1f)\n  0x1f\n  dup3\n  add\n  and\n  dup3\n  add\n  dup1\n  0x40\n  mstore\n  pop\n  dup2\n  add\n  swap1\n  tag_10\n  swap2\n  swap1\n  tag_11\n  jump\t// in\ntag_10:\n    /* \"firstPriceAuction.sol\":791:838  IERC721(thenft).ownerOf(thenftid) == msg.sender */\n  0xffffffffffffffffffffffffffffffffffffffff\n  and\n  eq\n    /* \"firstPriceAuction.sol\":783:870  require(IERC721(thenft).ownerOf(thenftid) == msg.sender, \"Auctioneer does not own NFT\") */\n  tag_12\n  jumpi\n  mload(0x40)\n  0x08c379a000000000000000000000000000000000000000000000000000000000\n  dup2\n  mstore\n  0x04\n  add\n  tag_13\n  swap1\n  tag_14\n  jump\t// in\ntag_13:\n  mload(0x40)\n  dup1\n  swap2\n  sub\n  swap1\n  revert\ntag_12:\n    /* \"firstPriceAuction.sol\":903:913  msg.sender */\n  caller\n    /* \"firstPriceAuction.sol\":880:892  auctionOwner */\n  0x00\n  dup1\n    /* \"firstPriceAuction.sol\":880:914  auctionOwner = payable(msg.sender) */\n  0x0100\n  exp\n  dup2\n  sload\n  dup2\n  0xffffffffffffffffffffffffffffffffffffffff\n  mul\n  not\n  and\n  swap1\n  dup4\n  0xffffffffffffffffffffffffffffffffffffffff\n  and\n  mul\n  or\n  swap1\n  sstore\n  pop\n    /* \"firstPriceAuction.sol\":959:970  biddingTime */\n  dup3\n    /* \"firstPriceAuction.sol\":941:956  block.timestamp */\n  timestamp\n    /* \"firstPriceAuction.sol\":941:970  block.timestamp + biddingTime */\n  tag_15\n  swap2\n  swap1\n  tag_16\n  jump\t// in\ntag_15:\n    /* \"firstPriceAuction.sol\":924:938  auctionEndTime */\n  0x01\n    /* \"firstPriceAuction.sol\":924:970  auctionEndTime = block.timestamp + biddingTime */\n  dup2\n  swap1\n  sstore\n  pop\n    /* \"firstPriceAuction.sol\":994:1000  thenft */\n  dup2\n    /* \"firstPriceAuction.sol\":980:983  nft */\n  0x04\n  0x00\n    /* \"firstPriceAuction.sol\":980:1001  nft = IERC721(thenft) */\n  0x0100\n  exp\n  dup2\n  sload\n  dup2\n  0xffffffffffffffffffffffffffffffffffffffff\n  mul\n  not\n  and\n  swap1\n  dup4\n  0xffffffffffffffffffffffffffffffffffffffff\n  and\n  mul\n  or\n  swap1\n  sstore\n  pop\n    /* \"firstPriceAuction.sol\":1019:1027  thenftid */\n  dup1\n    /* \"firstPriceAuction.sol\":1011:1016  nftId */\n  0x05\n    /* \"firstPriceAuction.sol\":1011:1027  nftId = thenftid */\n  dup2\n  swap1\n  sstore\n  pop\n    /* \"firstPriceAuction.sol\":613:1034  constructor(uint biddingTime, address thenft, uint thenftid) {... */\n  pop\n  pop\n  pop\n    /* \"firstPriceAuction.sol\":116:1888  contract firstPriceAuction {... */\n  jump(tag_17)\n    /* \"#utility.yul\":88:205   */\ntag_19:\n    /* \"#utility.yul\":197:198   */\n  0x00\n    /* \"#utility.yul\":194:195   */\n  dup1\n    /* \"#utility.yul\":187:199   */\n  revert\n    /* \"#utility.yul\":334:411   */\ntag_21:\n    /* \"#utility.yul\":371:378   */\n  0x00\n    /* \"#utility.yul\":400:405   */\n  dup2\n    /* \"#utility.yul\":389:405   */\n  swap1\n  pop\n    /* \"#utility.yul\":334:411   */\n  swap2\n  swap1\n  pop\n  jump\t// out\n    /* \"#utility.yul\":417:539   */\ntag_22:\n    /* \"#utility.yul\":490:514   */\n  tag_39\n    /* \"#utility.yul\":508:513   */\n  dup2\n    /* \"#utility.yul\":490:514   */\n  tag_21\n  jump\t// in\ntag_39:\n    /* \"#utility.yul\":483:488   */\n  dup2\n    /* \"#utility.yul\":480:515   */\n  eq\n    /* \"#utility.yul\":470:533   */\n  tag_40\n  jumpi\n    /* \"#utility.yul\":529:530   */\n  0x00\n    /* \"#utility.yul\":526:527   */\n  dup1\n    /* \"#utility.yul\":519:531   */\n  revert\n    /* \"#utility.yul\":470:533   */\ntag_40:\n    /* \"#utility.yul\":417:539   */\n  pop\n  jump\t// out\n    /* \"#utility.yul\":545:688   */\ntag_23:\n    /* \"#utility.yul\":602:607   */\n  0x00\n    /* \"#utility.yul\":633:639   */\n  dup2\n    /* \"#utility.yul\":627:640   */\n  mload\n    /* \"#utility.yul\":618:640   */\n  swap1\n  pop\n    /* \"#utility.yul\":649:682   */\n  tag_42\n    /* \"#utility.yul\":676:681   */\n  dup2\n    /* \"#utility.yul\":649:682   */\n  tag_22\n  jump\t// in\ntag_42:\n    /* \"#utility.yul\":545:688   */\n  swap3\n  swap2\n  pop\n  pop\n  jump\t// out\n    /* \"#utility.yul\":694:820   */\ntag_24:\n    /* \"#utility.yul\":731:738   */\n  0x00\n    /* \"#utility.yul\":771:813   */\n  0xffffffffffffffffffffffffffffffffffffffff\n    /* \"#utility.yul\":764:769   */\n  dup3\n    /* \"#utility.yul\":760:814   */\n  and\n    /* \"#utility.yul\":749:814   */\n  swap1\n  pop\n    /* \"#utility.yul\":694:820   */\n  swap2\n  swap1\n  pop\n  jump\t// out\n    /* \"#utility.yul\":826:922   */\ntag_25:\n    /* \"#utility.yul\":863:870   */\n  0x00\n    /* \"#utility.yul\":892:916   */\n  tag_45\n    /* \"#utility.yul\":910:915   */\n  dup3\n    /* \"#utility.yul\":892:916   */\n  tag_24\n  jump\t// in\ntag_45:\n    /* \"#utility.yul\":881:916   */\n  swap1\n  pop\n    /* \"#utility.yul\":826:922   */\n  swap2\n  swap1\n  pop\n  jump\t// out\n    /* \"#utility.yul\":928:1050   */\ntag_26:\n    /* \"#utility.yul\":1001:1025   */\n  tag_47\n    /* \"#utility.yul\":1019:1024   */\n  dup2\n    /* \"#utility.yul\":1001:1025   */\n  tag_25\n  jump\t// in\ntag_47:\n    /* \"#utility.yul\":994:999   */\n  dup2\n    /* \"#utility.yul\":991:1026   */\n  eq\n    /* \"#utility.yul\":981:1044   */\n  tag_48\n  jumpi\n    /* \"#utility.yul\":1040:1041   */\n  0x00\n    /* \"#utility.yul\":1037:1038   */\n  dup1\n    /* \"#utility.yul\":1030:1042   */\n  revert\n    /* \"#utility.yul\":981:1044   */\ntag_48:\n    /* \"#utility.yul\":928:1050   */\n  pop\n  jump\t// out\n    /* \"#utility.yul\":1056:1199   */\ntag_27:\n    /* \"#utility.yul\":1113:1118   */\n  0x00\n    /* \"#utility.yul\":1144:1150   */\n  dup2\n    /* \"#utility.yul\":1138:1151   */\n  mload\n    /* \"#utility.yul\":1129:1151   */\n  swap1\n  pop\n    /* \"#utility.yul\":1160:1193   */\n  tag_50\n    /* \"#utility.yul\":1187:1192   */\n  dup2\n    /* \"#utility.yul\":1160:1193   */\n  tag_26\n  jump\t// in\ntag_50:\n    /* \"#utility.yul\":1056:1199   */\n  swap3\n  swap2\n  pop\n  pop\n  jump\t// out\n    /* \"#utility.yul\":1205:1868   */\ntag_3:\n    /* \"#utility.yul\":1293:1299   */\n  0x00\n    /* \"#utility.yul\":1301:1307   */\n  dup1\n    /* \"#utility.yul\":1309:1315   */\n  0x00\n    /* \"#utility.yul\":1358:1360   */\n  0x60\n    /* \"#utility.yul\":1346:1355   */\n  dup5\n    /* \"#utility.yul\":1337:1344   */\n  dup7\n    /* \"#utility.yul\":1333:1356   */\n  sub\n    /* \"#utility.yul\":1329:1361   */\n  slt\n    /* \"#utility.yul\":1326:1445   */\n  iszero\n  tag_52\n  jumpi\n    /* \"#utility.yul\":1364:1443   */\n  tag_53\n  tag_19\n  jump\t// in\ntag_53:\n    /* \"#utility.yul\":1326:1445   */\ntag_52:\n    /* \"#utility.yul\":1484:1485   */\n  0x00\n    /* \"#utility.yul\":1509:1573   */\n  tag_54\n    /* \"#utility.yul\":1565:1572   */\n  dup7\n    /* \"#utility.yul\":1556:1562   */\n  dup3\n    /* \"#utility.yul\":1545:1554   */\n  dup8\n    /* \"#utility.yul\":1541:1563   */\n  add\n    /* \"#utility.yul\":1509:1573   */\n  tag_23\n  jump\t// in\ntag_54:\n    /* \"#utility.yul\":1499:1573   */\n  swap4\n  pop\n    /* \"#utility.yul\":1455:1583   */\n  pop\n    /* \"#utility.yul\":1622:1624   */\n  0x20\n    /* \"#utility.yul\":1648:1712   */\n  tag_55\n    /* \"#utility.yul\":1704:1711   */\n  dup7\n    /* \"#utility.yul\":1695:1701   */\n  dup3\n    /* \"#utility.yul\":1684:1693   */\n  dup8\n    /* \"#utility.yul\":1680:1702   */\n  add\n    /* \"#utility.yul\":1648:1712   */\n  tag_27\n  jump\t// in\ntag_55:\n    /* \"#utility.yul\":1638:1712   */\n  swap3\n  pop\n    /* \"#utility.yul\":1593:1722   */\n  pop\n    /* \"#utility.yul\":1761:1763   */\n  0x40\n    /* \"#utility.yul\":1787:1851   */\n  tag_56\n    /* \"#utility.yul\":1843:1850   */\n  dup7\n    /* \"#utility.yul\":1834:1840   */\n  dup3\n    /* \"#utility.yul\":1823:1832   */\n  dup8\n    /* \"#utility.yul\":1819:1841   */\n  add\n    /* \"#utility.yul\":1787:1851   */\n  tag_23\n  jump\t// in\ntag_56:\n    /* \"#utility.yul\":1777:1851   */\n  swap2\n  pop\n    /* \"#utility.yul\":1732:1861   */\n  pop\n    /* \"#utility.yul\":1205:1868   */\n  swap3\n  pop\n  swap3\n  pop\n  swap3\n  jump\t// out\n    /* \"#utility.yul\":1874:1992   */\ntag_28:\n    /* \"#utility.yul\":1961:1985   */\n  tag_58\n    /* \"#utility.yul\":1979:1984   */\n  dup2\n    /* \"#utility.yul\":1961:1985   */\n  tag_21\n  jump\t// in\ntag_58:\n    /* \"#utility.yul\":1956:1959   */\n  dup3\n    /* \"#utility.yul\":1949:1986   */\n  mstore\n    /* \"#utility.yul\":1874:1992   */\n  pop\n  pop\n  jump\t// out\n    /* \"#utility.yul\":1998:2220   */\ntag_7:\n    /* \"#utility.yul\":2091:2095   */\n  0x00\n    /* \"#utility.yul\":2129:2131   */\n  0x20\n    /* \"#utility.yul\":2118:2127   */\n  dup3\n    /* \"#utility.yul\":2114:2132   */\n  add\n    /* \"#utility.yul\":2106:2132   */\n  swap1\n  pop\n    /* \"#utility.yul\":2142:2213   */\n  tag_60\n    /* \"#utility.yul\":2210:2211   */\n  0x00\n    /* \"#utility.yul\":2199:2208   */\n  dup4\n    /* \"#utility.yul\":2195:2212   */\n  add\n    /* \"#utility.yul\":2186:2192   */\n  dup5\n    /* \"#utility.yul\":2142:2213   */\n  tag_28\n  jump\t// in\ntag_60:\n    /* \"#utility.yul\":1998:2220   */\n  swap3\n  swap2\n  pop\n  pop\n  jump\t// out\n    /* \"#utility.yul\":2226:2577   */\ntag_11:\n    /* \"#utility.yul\":2296:2302   */\n  0x00\n    /* \"#utility.yul\":2345:2347   */\n  0x20\n    /* \"#utility.yul\":2333:2342   */\n  dup3\n    /* \"#utility.yul\":2324:2331   */\n  dup5\n    /* \"#utility.yul\":2320:2343   */\n  sub\n    /* \"#utility.yul\":2316:2348   */\n  slt\n    /* \"#utility.yul\":2313:2432   */\n  iszero\n  tag_62\n  jumpi\n    /* \"#utility.yul\":2351:2430   */\n  tag_63\n  tag_19\n  jump\t// in\ntag_63:\n    /* \"#utility.yul\":2313:2432   */\ntag_62:\n    /* \"#utility.yul\":2471:2472   */\n  0x00\n    /* \"#utility.yul\":2496:2560   */\n  tag_64\n    /* \"#utility.yul\":2552:2559   */\n  dup5\n    /* \"#utility.yul\":2543:2549   */\n  dup3\n    /* \"#utility.yul\":2532:2541   */\n  dup6\n    /* \"#utility.yul\":2528:2550   */\n  add\n    /* \"#utility.yul\":2496:2560   */\n  tag_27\n  jump\t// in\ntag_64:\n    /* \"#utility.yul\":2486:2560   */\n  swap2\n  pop\n    /* \"#utility.yul\":2442:2570   */\n  pop\n    /* \"#utility.yul\":2226:2577   */\n  swap3\n  swap2\n  pop\n  pop\n  jump\t// out\n    /* \"#utility.yul\":2583:2752   */\ntag_29:\n    /* \"#utility.yul\":2667:2678   */\n  0x00\n    /* \"#utility.yul\":2701:2707   */\n  dup3\n    /* \"#utility.yul\":2696:2699   */\n  dup3\n    /* \"#utility.yul\":2689:2708   */\n  mstore\n    /* \"#utility.yul\":2741:2745   */\n  0x20\n    /* \"#utility.yul\":2736:2739   */\n  dup3\n    /* \"#utility.yul\":2732:2746   */\n  add\n    /* \"#utility.yul\":2717:2746   */\n  swap1\n  pop\n    /* \"#utility.yul\":2583:2752   */\n  swap3\n  swap2\n  pop\n  pop\n  jump\t// out\n    /* \"#utility.yul\":2758:2935   */\ntag_30:\n    /* \"#utility.yul\":2898:2927   */\n  0x41756374696f6e65657220646f6573206e6f74206f776e204e46540000000000\n    /* \"#utility.yul\":2894:2895   */\n  0x00\n    /* \"#utility.yul\":2886:2892   */\n  dup3\n    /* \"#utility.yul\":2882:2896   */\n  add\n    /* \"#utility.yul\":2875:2928   */\n  mstore\n    /* \"#utility.yul\":2758:2935   */\n  pop\n  jump\t// out\n    /* \"#utility.yul\":2941:3307   */\ntag_31:\n    /* \"#utility.yul\":3083:3086   */\n  0x00\n    /* \"#utility.yul\":3104:3171   */\n  tag_68\n    /* \"#utility.yul\":3168:3170   */\n  0x1b\n    /* \"#utility.yul\":3163:3166   */\n  dup4\n    /* \"#utility.yul\":3104:3171   */\n  tag_29\n  jump\t// in\ntag_68:\n    /* \"#utility.yul\":3097:3171   */\n  swap2\n  pop\n    /* \"#utility.yul\":3180:3273   */\n  tag_69\n    /* \"#utility.yul\":3269:3272   */\n  dup3\n    /* \"#utility.yul\":3180:3273   */\n  tag_30\n  jump\t// in\ntag_69:\n    /* \"#utility.yul\":3298:3300   */\n  0x20\n    /* \"#utility.yul\":3293:3296   */\n  dup3\n    /* \"#utility.yul\":3289:3301   */\n  add\n    /* \"#utility.yul\":3282:3301   */\n  swap1\n  pop\n    /* \"#utility.yul\":2941:3307   */\n  swap2\n  swap1\n  pop\n  jump\t// out\n    /* \"#utility.yul\":3313:3732   */\ntag_14:\n    /* \"#utility.yul\":3479:3483   */\n  0x00\n    /* \"#utility.yul\":3517:3519   */\n  0x20\n    /* \"#utility.yul\":3506:3515   */\n  dup3\n    /* \"#utility.yul\":3502:3520   */\n  add\n    /* \"#utility.yul\":3494:3520   */\n  swap1\n  pop\n    /* \"#utility.yul\":3566:3575   */\n  dup2\n    /* \"#utility.yul\":3560:3564   */\n  dup2\n    /* \"#utility.yul\":3556:3576   */\n  sub\n    /* \"#utility.yul\":3552:3553   */\n  0x00\n    /* \"#utility.yul\":3541:3550   */\n  dup4\n    /* \"#utility.yul\":3537:3554   */\n  add\n    /* \"#utility.yul\":3530:3577   */\n  mstore\n    /* \"#utility.yul\":3594:3725   */\n  tag_71\n    /* \"#utility.yul\":3720:3724   */\n  dup2\n    /* \"#utility.yul\":3594:3725   */\n  tag_31\n  jump\t// in\ntag_71:\n    /* \"#utility.yul\":3586:3725   */\n  swap1\n  pop\n    /* \"#utility.yul\":3313:3732   */\n  swap2\n  swap1\n  pop\n  jump\t// out\n    /* \"#utility.yul\":3738:3918   */\ntag_32:\n    /* \"#utility.yul\":3786:3863   */\n  0x4e487b7100000000000000000000000000000000000000000000000000000000\n    /* \"#utility.yul\":3783:3784   */\n  0x00\n    /* \"#utility.yul\":3776:3864   */\n  mstore\n    /* \"#utility.yul\":3883:3887   */\n  0x11\n    /* \"#utility.yul\":3880:3881   */\n  0x04\n    /* \"#utility.yul\":3873:3888   */\n  mstore\n    /* \"#utility.yul\":3907:3911   */\n  0x24\n    /* \"#utility.yul\":3904:3905   */\n  0x00\n    /* \"#utility.yul\":3897:3912   */\n  revert\n    /* \"#utility.yul\":3924:4115   */\ntag_16:\n    /* \"#utility.yul\":3964:3967   */\n  0x00\n    /* \"#utility.yul\":3983:4003   */\n  tag_74\n    /* \"#utility.yul\":4001:4002   */\n  dup3\n    /* \"#utility.yul\":3983:4003   */\n  tag_21\n  jump\t// in\ntag_74:\n    /* \"#utility.yul\":3978:4003   */\n  swap2\n  pop\n    /* \"#utility.yul\":4017:4037   */\n  tag_75\n    /* \"#utility.yul\":4035:4036   */\n  dup4\n    /* \"#utility.yul\":4017:4037   */\n  tag_21\n  jump\t// in\ntag_75:\n    /* \"#utility.yul\":4012:4037   */\n  swap3\n  pop\n    /* \"#utility.yul\":4060:4061   */\n  dup3\n    /* \"#utility.yul\":4057:4058   */\n  dup3\n    /* \"#utility.yul\":4053:4062   */\n  add\n    /* \"#utility.yul\":4046:4062   */\n  swap1\n  pop\n    /* \"#utility.yul\":4081:4084   */\n  dup1\n    /* \"#utility.yul\":4078:4079   */\n  dup3\n    /* \"#utility.yul\":4075:4085   */\n  gt\n    /* \"#utility.yul\":4072:4108   */\n  iszero\n  tag_76\n  jumpi\n    /* \"#utility.yul\":4088:4106   */\n  tag_77\n  tag_32\n  jump\t// in\ntag_77:\n    /* \"#utility.yul\":4072:4108   */\ntag_76:\n    /* \"#utility.yul\":3924:4115   */\n  swap3\n  swap2\n  pop\n  pop\n  jump\t// out\n    /* \"firstPriceAuction.sol\":116:1888  contract firstPriceAuction {... */\ntag_17:\n  dataSize(sub_0)\n  dup1\n  dataOffset(sub_0)\n  0x00\n  codecopy\n  0x00\n  return\nstop\n\nsub_0: assembly {\n        /* \"firstPriceAuction.sol\":116:1888  contract firstPriceAuction {... */\n      mstore(0x40, 0x80)\n      jumpi(tag_1, lt(calldatasize, 0x04))\n      shr(0xe0, calldataload(0x00))\n      dup1\n      0xc6bc5182\n      gt\n      tag_12\n      jumpi\n      dup1\n      0xc6bc5182\n      eq\n      tag_7\n      jumpi\n      dup1\n      0xc810af81\n      eq\n      tag_8\n      jumpi\n      dup1\n      0xd2639dbf\n      eq\n      tag_9\n      jumpi\n      dup1\n      0xd3924aaf\n      eq\n      tag_10\n      jumpi\n      dup1\n      0xd57bde79\n      eq\n      tag_11\n      jumpi\n      jump(tag_1)\n    tag_12:\n      dup1\n      0x1b9265b8\n      eq\n      tag_2\n      jumpi\n      dup1\n      0x454a2ab3\n      eq\n      tag_3\n      jumpi\n      dup1\n      0x47ccca02\n      eq\n      tag_4\n      jumpi\n      dup1\n      0x4b449cba\n      eq\n      tag_5\n      jumpi\n      dup1\n      0x91f90157\n      eq\n      tag_6\n      jumpi\n    tag_1:\n      0x00\n      dup1\n      revert\n        /* \"firstPriceAuction.sol\":1433:1886  function pay() public payable {... */\n    tag_2:\n      tag_13\n      tag_14\n      jump\t// in\n    tag_13:\n      stop\n        /* \"firstPriceAuction.sol\":1040:1427  function bid(uint thebid) public {... */\n    tag_3:\n      callvalue\n      dup1\n      iszero\n      tag_15\n      jumpi\n      0x00\n      dup1\n      revert\n    tag_15:\n      pop\n      tag_16\n      0x04\n      dup1\n      calldatasize\n      sub\n      dup2\n      add\n      swap1\n      tag_17\n      swap2\n      swap1\n      tag_18\n      jump\t// in\n    tag_17:\n      tag_19\n      jump\t// in\n    tag_16:\n      stop\n        /* \"firstPriceAuction.sol\":408:426  IERC721 public nft */\n    tag_4:\n      callvalue\n      dup1\n      iszero\n      tag_20\n      jumpi\n      0x00\n      dup1\n      revert\n    tag_20:\n      pop\n      tag_21\n      tag_22\n      jump\t// in\n    tag_21:\n      mload(0x40)\n      tag_23\n      swap2\n      swap1\n      tag_24\n      jump\t// in\n    tag_23:\n      mload(0x40)\n      dup1\n      swap2\n      sub\n      swap1\n      return\n        /* \"firstPriceAuction.sol\":190:216  uint public auctionEndTime */\n    tag_5:\n      callvalue\n      dup1\n      iszero\n      tag_25\n      jumpi\n      0x00\n      dup1\n      revert\n    tag_25:\n      pop\n      tag_26\n      tag_27\n      jump\t// in\n    tag_26:\n      mload(0x40)\n      tag_28\n      swap2\n      swap1\n      tag_29\n      jump\t// in\n    tag_28:\n      mload(0x40)\n      dup1\n      swap2\n      sub\n      swap1\n      return\n        /* \"firstPriceAuction.sol\":315:351  address payable public highestBidder */\n    tag_6:\n      callvalue\n      dup1\n      iszero\n      tag_30\n      jumpi\n      0x00\n      dup1\n      revert\n    tag_30:\n      pop\n      tag_31\n      tag_32\n      jump\t// in\n    tag_31:\n      mload(0x40)\n      tag_33\n      swap2\n      swap1\n      tag_34\n      jump\t// in\n    tag_33:\n      mload(0x40)\n      dup1\n      swap2\n      sub\n      swap1\n      return\n        /* \"firstPriceAuction.sol\":432:449  uint public nftId */\n    tag_7:\n      callvalue\n      dup1\n      iszero\n      tag_35\n      jumpi\n      0x00\n      dup1\n      revert\n    tag_35:\n      pop\n      tag_36\n      tag_37\n      jump\t// in\n    tag_36:\n      mload(0x40)\n      tag_38\n      swap2\n      swap1\n      tag_29\n      jump\t// in\n    tag_38:\n      mload(0x40)\n      dup1\n      swap2\n      sub\n      swap1\n      return\n        /* \"firstPriceAuction.sol\":357:376  bool public hasPaid */\n    tag_8:\n      callvalue\n      dup1\n      iszero\n      tag_39\n      jumpi\n      0x00\n      dup1\n      revert\n    tag_39:\n      pop\n      tag_40\n      tag_41\n      jump\t// in\n    tag_40:\n      mload(0x40)\n      tag_42\n      swap2\n      swap1\n      tag_43\n      jump\t// in\n    tag_42:\n      mload(0x40)\n      dup1\n      swap2\n      sub\n      swap1\n      return\n        /* \"firstPriceAuction.sol\":500:538  mapping(address => bool) public hasBid */\n    tag_9:\n      callvalue\n      dup1\n      iszero\n      tag_44\n      jumpi\n      0x00\n      dup1\n      revert\n    tag_44:\n      pop\n      tag_45\n      0x04\n      dup1\n      calldatasize\n      sub\n      dup2\n      add\n      swap1\n      tag_46\n      swap2\n      swap1\n      tag_47\n      jump\t// in\n    tag_46:\n      tag_48\n      jump\t// in\n    tag_45:\n      mload(0x40)\n      tag_49\n      swap2\n      swap1\n      tag_43\n      jump\t// in\n    tag_49:\n      mload(0x40)\n      dup1\n      swap2\n      sub\n      swap1\n      return\n        /* \"firstPriceAuction.sol\":149:184  address payable public auctionOwner */\n    tag_10:\n      callvalue\n      dup1\n      iszero\n      tag_50\n      jumpi\n      0x00\n      dup1\n      revert\n    tag_50:\n      pop\n      tag_51\n      tag_52\n      jump\t// in\n    tag_51:\n      mload(0x40)\n      tag_53\n      swap2\n      swap1\n      tag_34\n      jump\t// in\n    tag_53:\n      mload(0x40)\n      dup1\n      swap2\n      sub\n      swap1\n      return\n        /* \"firstPriceAuction.sol\":222:244  uint public highestBid */\n    tag_11:\n      callvalue\n      dup1\n      iszero\n      tag_54\n      jumpi\n      0x00\n      dup1\n      revert\n    tag_54:\n      pop\n      tag_55\n      tag_56\n      jump\t// in\n    tag_55:\n      mload(0x40)\n      tag_57\n      swap2\n      swap1\n      tag_29\n      jump\t// in\n    tag_57:\n      mload(0x40)\n      dup1\n      swap2\n      sub\n      swap1\n      return\n        /* \"firstPriceAuction.sol\":1433:1886  function pay() public payable {... */\n    tag_14:\n        /* \"firstPriceAuction.sol\":1500:1514  auctionEndTime */\n      sload(0x01)\n        /* \"firstPriceAuction.sol\":1481:1496  block.timestamp */\n      timestamp\n        /* \"firstPriceAuction.sol\":1481:1514  block.timestamp >= auctionEndTime */\n      lt\n      iszero\n        /* \"firstPriceAuction.sol\":1473:1544  require(block.timestamp >= auctionEndTime, \"Auction has not ended yet\") */\n      tag_59\n      jumpi\n      mload(0x40)\n      0x08c379a000000000000000000000000000000000000000000000000000000000\n      dup2\n      mstore\n      0x04\n      add\n      tag_60\n      swap1\n      tag_61\n      jump\t// in\n    tag_60:\n      mload(0x40)\n      dup1\n      swap2\n      sub\n      swap1\n      revert\n    tag_59:\n        /* \"firstPriceAuction.sol\":1576:1589  highestBidder */\n      0x03\n      0x00\n      swap1\n      sload\n      swap1\n      0x0100\n      exp\n      swap1\n      div\n      0xffffffffffffffffffffffffffffffffffffffff\n      and\n        /* \"firstPriceAuction.sol\":1562:1589  msg.sender == highestBidder */\n      0xffffffffffffffffffffffffffffffffffffffff\n      and\n        /* \"firstPriceAuction.sol\":1562:1572  msg.sender */\n      caller\n        /* \"firstPriceAuction.sol\":1562:1589  msg.sender == highestBidder */\n      0xffffffffffffffffffffffffffffffffffffffff\n      and\n      eq\n        /* \"firstPriceAuction.sol\":1554:1624  require(msg.sender == highestBidder, \"You are not the highest bidder\") */\n      tag_62\n      jumpi\n      mload(0x40)\n      0x08c379a000000000000000000000000000000000000000000000000000000000\n      dup2\n      mstore\n      0x04\n      add\n      tag_63\n      swap1\n      tag_64\n      jump\t// in\n    tag_63:\n      mload(0x40)\n      dup1\n      swap2\n      sub\n      swap1\n      revert\n    tag_62:\n        /* \"firstPriceAuction.sol\":1655:1665  highestBid */\n      sload(0x02)\n        /* \"firstPriceAuction.sol\":1642:1651  msg.value */\n      callvalue\n        /* \"firstPriceAuction.sol\":1642:1665  msg.value == highestBid */\n      eq\n        /* \"firstPriceAuction.sol\":1634:1698  require(msg.value == highestBid, \"Insufficient Eth Transferred\") */\n      tag_65\n      jumpi\n      mload(0x40)\n      0x08c379a000000000000000000000000000000000000000000000000000000000\n      dup2\n      mstore\n      0x04\n      add\n      tag_66\n      swap1\n      tag_67\n      jump\t// in\n    tag_66:\n      mload(0x40)\n      dup1\n      swap2\n      sub\n      swap1\n      revert\n    tag_65:\n        /* \"firstPriceAuction.sol\":1717:1724  hasPaid */\n      0x03\n      0x14\n      swap1\n      sload\n      swap1\n      0x0100\n      exp\n      swap1\n      div\n      0xff\n      and\n        /* \"firstPriceAuction.sol\":1716:1724  !hasPaid */\n      iszero\n        /* \"firstPriceAuction.sol\":1708:1749  require(!hasPaid, \"Payment already made\") */\n      tag_68\n      jumpi\n      mload(0x40)\n      0x08c379a000000000000000000000000000000000000000000000000000000000\n      dup2\n      mstore\n      0x04\n      add\n      tag_69\n      swap1\n      tag_70\n      jump\t// in\n    tag_69:\n      mload(0x40)\n      dup1\n      swap2\n      sub\n      swap1\n      revert\n    tag_68:\n        /* \"firstPriceAuction.sol\":1769:1773  true */\n      0x01\n        /* \"firstPriceAuction.sol\":1759:1766  hasPaid */\n      0x03\n      0x14\n        /* \"firstPriceAuction.sol\":1759:1773  hasPaid = true */\n      0x0100\n      exp\n      dup2\n      sload\n      dup2\n      0xff\n      mul\n      not\n      and\n      swap1\n      dup4\n      iszero\n      iszero\n      mul\n      or\n      swap1\n      sstore\n      pop\n        /* \"firstPriceAuction.sol\":1783:1795  auctionOwner */\n      0x00\n      dup1\n      sload\n      swap1\n      0x0100\n      exp\n      swap1\n      div\n      0xffffffffffffffffffffffffffffffffffffffff\n      and\n        /* \"firstPriceAuction.sol\":1783:1804  auctionOwner.transfer */\n      0xffffffffffffffffffffffffffffffffffffffff\n      and\n        /* \"firstPriceAuction.sol\":1783:1816  auctionOwner.transfer(highestBid) */\n      0x08fc\n        /* \"firstPriceAuction.sol\":1805:1815  highestBid */\n      sload(0x02)\n        /* \"firstPriceAuction.sol\":1783:1816  auctionOwner.transfer(highestBid) */\n      swap1\n      dup2\n      iszero\n      mul\n      swap1\n      mload(0x40)\n      0x00\n      mload(0x40)\n      dup1\n      dup4\n      sub\n      dup2\n      dup6\n      dup9\n      dup9\n      call\n      swap4\n      pop\n      pop\n      pop\n      pop\n      iszero\n      dup1\n      iszero\n      tag_72\n      jumpi\n      returndatasize\n      0x00\n      dup1\n      returndatacopy\n      revert(0x00, returndatasize)\n    tag_72:\n      pop\n        /* \"firstPriceAuction.sol\":1826:1829  nft */\n      0x04\n      0x00\n      swap1\n      sload\n      swap1\n      0x0100\n      exp\n      swap1\n      div\n      0xffffffffffffffffffffffffffffffffffffffff\n      and\n        /* \"firstPriceAuction.sol\":1826:1846  nft.safeTransferFrom */\n      0xffffffffffffffffffffffffffffffffffffffff\n      and\n      0x42842e0e\n        /* \"firstPriceAuction.sol\":1847:1859  auctionOwner */\n      0x00\n      dup1\n      sload\n      swap1\n      0x0100\n      exp\n      swap1\n      div\n      0xffffffffffffffffffffffffffffffffffffffff\n      and\n        /* \"firstPriceAuction.sol\":1861:1871  msg.sender */\n      caller\n        /* \"firstPriceAuction.sol\":1873:1878  nftId */\n      sload(0x05)\n        /* \"firstPriceAuction.sol\":1826:1879  nft.safeTransferFrom(auctionOwner, msg.sender, nftId) */\n      mload(0x40)\n      dup5\n      0xffffffff\n      and\n      0xe0\n      shl\n      dup2\n      mstore\n      0x04\n      add\n      tag_73\n      swap4\n      swap3\n      swap2\n      swap1\n      tag_74\n      jump\t// in\n    tag_73:\n      0x00\n      mload(0x40)\n      dup1\n      dup4\n      sub\n      dup2\n      0x00\n      dup8\n      dup1\n      extcodesize\n      iszero\n      dup1\n      iszero\n      tag_75\n      jumpi\n      0x00\n      dup1\n      revert\n    tag_75:\n      pop\n      gas\n      call\n      iszero\n      dup1\n      iszero\n      tag_77\n      jumpi\n      returndatasize\n      0x00\n      dup1\n      returndatacopy\n      revert(0x00, returndatasize)\n    tag_77:\n      pop\n      pop\n      pop\n      pop\n        /* \"firstPriceAuction.sol\":1433:1886  function pay() public payable {... */\n      jump\t// out\n        /* \"firstPriceAuction.sol\":1040:1427  function bid(uint thebid) public {... */\n    tag_19:\n        /* \"firstPriceAuction.sol\":1110:1124  auctionEndTime */\n      sload(0x01)\n        /* \"firstPriceAuction.sol\":1091:1106  block.timestamp */\n      timestamp\n        /* \"firstPriceAuction.sol\":1091:1124  block.timestamp <= auctionEndTime */\n      gt\n      iszero\n        /* \"firstPriceAuction.sol\":1083:1146  require(block.timestamp <= auctionEndTime, \"Auction has ended\") */\n      tag_79\n      jumpi\n      mload(0x40)\n      0x08c379a000000000000000000000000000000000000000000000000000000000\n      dup2\n      mstore\n      0x04\n      add\n      tag_80\n      swap1\n      tag_81\n      jump\t// in\n    tag_80:\n      mload(0x40)\n      dup1\n      swap2\n      sub\n      swap1\n      revert\n    tag_79:\n        /* \"firstPriceAuction.sol\":1173:1174  0 */\n      0x00\n        /* \"firstPriceAuction.sol\":1164:1170  thebid */\n      dup2\n        /* \"firstPriceAuction.sol\":1164:1174  thebid > 0 */\n      gt\n        /* \"firstPriceAuction.sol\":1156:1205  require(thebid > 0, \"Only Positive Bids Allowed\") */\n      tag_82\n      jumpi\n      mload(0x40)\n      0x08c379a000000000000000000000000000000000000000000000000000000000\n      dup2\n      mstore\n      0x04\n      add\n      tag_83\n      swap1\n      tag_84\n      jump\t// in\n    tag_83:\n      mload(0x40)\n      dup1\n      swap2\n      sub\n      swap1\n      revert\n    tag_82:\n        /* \"firstPriceAuction.sol\":1224:1230  hasBid */\n      0x06\n        /* \"firstPriceAuction.sol\":1224:1242  hasBid[msg.sender] */\n      0x00\n        /* \"firstPriceAuction.sol\":1231:1241  msg.sender */\n      caller\n        /* \"firstPriceAuction.sol\":1224:1242  hasBid[msg.sender] */\n      0xffffffffffffffffffffffffffffffffffffffff\n      and\n      0xffffffffffffffffffffffffffffffffffffffff\n      and\n      dup2\n      mstore\n      0x20\n      add\n      swap1\n      dup2\n      mstore\n      0x20\n      add\n      0x00\n      keccak256\n      0x00\n      swap1\n      sload\n      swap1\n      0x0100\n      exp\n      swap1\n      div\n      0xff\n      and\n        /* \"firstPriceAuction.sol\":1223:1242  !hasBid[msg.sender] */\n      iszero\n        /* \"firstPriceAuction.sol\":1215:1258  require(!hasBid[msg.sender], \"Already Bid\") */\n      tag_85\n      jumpi\n      mload(0x40)\n      0x08c379a000000000000000000000000000000000000000000000000000000000\n      dup2\n      mstore\n      0x04\n      add\n      tag_86\n      swap1\n      tag_87\n      jump\t// in\n    tag_86:\n      mload(0x40)\n      dup1\n      swap2\n      sub\n      swap1\n      revert\n    tag_85:\n        /* \"firstPriceAuction.sol\":1289:1293  true */\n      0x01\n        /* \"firstPriceAuction.sol\":1268:1274  hasBid */\n      0x06\n        /* \"firstPriceAuction.sol\":1268:1286  hasBid[msg.sender] */\n      0x00\n        /* \"firstPriceAuction.sol\":1275:1285  msg.sender */\n      caller\n        /* \"firstPriceAuction.sol\":1268:1286  hasBid[msg.sender] */\n      0xffffffffffffffffffffffffffffffffffffffff\n      and\n      0xffffffffffffffffffffffffffffffffffffffff\n      and\n      dup2\n      mstore\n      0x20\n      add\n      swap1\n      dup2\n      mstore\n      0x20\n      add\n      0x00\n      keccak256\n      0x00\n        /* \"firstPriceAuction.sol\":1268:1293  hasBid[msg.sender] = true */\n      0x0100\n      exp\n      dup2\n      sload\n      dup2\n      0xff\n      mul\n      not\n      and\n      swap1\n      dup4\n      iszero\n      iszero\n      mul\n      or\n      swap1\n      sstore\n      pop\n        /* \"firstPriceAuction.sol\":1316:1326  highestBid */\n      sload(0x02)\n        /* \"firstPriceAuction.sol\":1307:1313  thebid */\n      dup2\n        /* \"firstPriceAuction.sol\":1307:1326  thebid > highestBid */\n      gt\n        /* \"firstPriceAuction.sol\":1303:1421  if (thebid > highestBid) {... */\n      iszero\n      tag_88\n      jumpi\n        /* \"firstPriceAuction.sol\":1355:1361  thebid */\n      dup1\n        /* \"firstPriceAuction.sol\":1342:1352  highestBid */\n      0x02\n        /* \"firstPriceAuction.sol\":1342:1361  highestBid = thebid */\n      dup2\n      swap1\n      sstore\n      pop\n        /* \"firstPriceAuction.sol\":1399:1409  msg.sender */\n      caller\n        /* \"firstPriceAuction.sol\":1375:1388  highestBidder */\n      0x03\n      0x00\n        /* \"firstPriceAuction.sol\":1375:1410  highestBidder = payable(msg.sender) */\n      0x0100\n      exp\n      dup2\n      sload\n      dup2\n      0xffffffffffffffffffffffffffffffffffffffff\n      mul\n      not\n      and\n      swap1\n      dup4\n      0xffffffffffffffffffffffffffffffffffffffff\n      and\n      mul\n      or\n      swap1\n      sstore\n      pop\n        /* \"firstPriceAuction.sol\":1303:1421  if (thebid > highestBid) {... */\n    tag_88:\n        /* \"firstPriceAuction.sol\":1040:1427  function bid(uint thebid) public {... */\n      pop\n      jump\t// out\n        /* \"firstPriceAuction.sol\":408:426  IERC721 public nft */\n    tag_22:\n      0x04\n      0x00\n      swap1\n      sload\n      swap1\n      0x0100\n      exp\n      swap1\n      div\n      0xffffffffffffffffffffffffffffffffffffffff\n      and\n      dup2\n      jump\t// out\n        /* \"firstPriceAuction.sol\":190:216  uint public auctionEndTime */\n    tag_27:\n      sload(0x01)\n      dup2\n      jump\t// out\n        /* \"firstPriceAuction.sol\":315:351  address payable public highestBidder */\n    tag_32:\n      0x03\n      0x00\n      swap1\n      sload\n      swap1\n      0x0100\n      exp\n      swap1\n      div\n      0xffffffffffffffffffffffffffffffffffffffff\n      and\n      dup2\n      jump\t// out\n        /* \"firstPriceAuction.sol\":432:449  uint public nftId */\n    tag_37:\n      sload(0x05)\n      dup2\n      jump\t// out\n        /* \"firstPriceAuction.sol\":357:376  bool public hasPaid */\n    tag_41:\n      0x03\n      0x14\n      swap1\n      sload\n      swap1\n      0x0100\n      exp\n      swap1\n      div\n      0xff\n      and\n      dup2\n      jump\t// out\n        /* \"firstPriceAuction.sol\":500:538  mapping(address => bool) public hasBid */\n    tag_48:\n      mstore(0x20, 0x06)\n      dup1\n      0x00\n      mstore\n      keccak256(0x00, 0x40)\n      0x00\n      swap2\n      pop\n      sload\n      swap1\n      0x0100\n      exp\n      swap1\n      div\n      0xff\n      and\n      dup2\n      jump\t// out\n        /* \"firstPriceAuction.sol\":149:184  address payable public auctionOwner */\n    tag_52:\n      0x00\n      dup1\n      sload\n      swap1\n      0x0100\n      exp\n      swap1\n      div\n      0xffffffffffffffffffffffffffffffffffffffff\n      and\n      dup2\n      jump\t// out\n        /* \"firstPriceAuction.sol\":222:244  uint public highestBid */\n    tag_56:\n      sload(0x02)\n      dup2\n      jump\t// out\n        /* \"#utility.yul\":88:205   */\n    tag_90:\n        /* \"#utility.yul\":197:198   */\n      0x00\n        /* \"#utility.yul\":194:195   */\n      dup1\n        /* \"#utility.yul\":187:199   */\n      revert\n        /* \"#utility.yul\":334:411   */\n    tag_92:\n        /* \"#utility.yul\":371:378   */\n      0x00\n        /* \"#utility.yul\":400:405   */\n      dup2\n        /* \"#utility.yul\":389:405   */\n      swap1\n      pop\n        /* \"#utility.yul\":334:411   */\n      swap2\n      swap1\n      pop\n      jump\t// out\n        /* \"#utility.yul\":417:539   */\n    tag_93:\n        /* \"#utility.yul\":490:514   */\n      tag_133\n        /* \"#utility.yul\":508:513   */\n      dup2\n        /* \"#utility.yul\":490:514   */\n      tag_92\n      jump\t// in\n    tag_133:\n        /* \"#utility.yul\":483:488   */\n      dup2\n        /* \"#utility.yul\":480:515   */\n      eq\n        /* \"#utility.yul\":470:533   */\n      tag_134\n      jumpi\n        /* \"#utility.yul\":529:530   */\n      0x00\n        /* \"#utility.yul\":526:527   */\n      dup1\n        /* \"#utility.yul\":519:531   */\n      revert\n        /* \"#utility.yul\":470:533   */\n    tag_134:\n        /* \"#utility.yul\":417:539   */\n      pop\n      jump\t// out\n        /* \"#utility.yul\":545:684   */\n    tag_94:\n        /* \"#utility.yul\":591:596   */\n      0x00\n        /* \"#utility.yul\":629:635   */\n      dup2\n        /* \"#utility.yul\":616:636   */\n      calldataload\n        /* \"#utility.yul\":607:636   */\n      swap1\n      pop\n        /* \"#utility.yul\":645:678   */\n      tag_136\n        /* \"#utility.yul\":672:677   */\n      dup2\n        /* \"#utility.yul\":645:678   */\n      tag_93\n      jump\t// in\n    tag_136:\n        /* \"#utility.yul\":545:684   */\n      swap3\n      swap2\n      pop\n      pop\n      jump\t// out\n        /* \"#utility.yul\":690:1019   */\n    tag_18:\n        /* \"#utility.yul\":749:755   */\n      0x00\n        /* \"#utility.yul\":798:800   */\n      0x20\n        /* \"#utility.yul\":786:795   */\n      dup3\n        /* \"#utility.yul\":777:784   */\n      dup5\n        /* \"#utility.yul\":773:796   */\n      sub\n        /* \"#utility.yul\":769:801   */\n      slt\n        /* \"#utility.yul\":766:885   */\n      iszero\n      tag_138\n      jumpi\n        /* \"#utility.yul\":804:883   */\n      tag_139\n      tag_90\n      jump\t// in\n    tag_139:\n        /* \"#utility.yul\":766:885   */\n    tag_138:\n        /* \"#utility.yul\":924:925   */\n      0x00\n        /* \"#utility.yul\":949:1002   */\n      tag_140\n        /* \"#utility.yul\":994:1001   */\n      dup5\n        /* \"#utility.yul\":985:991   */\n      dup3\n        /* \"#utility.yul\":974:983   */\n      dup6\n        /* \"#utility.yul\":970:992   */\n      add\n        /* \"#utility.yul\":949:1002   */\n      tag_94\n      jump\t// in\n    tag_140:\n        /* \"#utility.yul\":939:1002   */\n      swap2\n      pop\n        /* \"#utility.yul\":895:1012   */\n      pop\n        /* \"#utility.yul\":690:1019   */\n      swap3\n      swap2\n      pop\n      pop\n      jump\t// out\n        /* \"#utility.yul\":1025:1151   */\n    tag_95:\n        /* \"#utility.yul\":1062:1069   */\n      0x00\n        /* \"#utility.yul\":1102:1144   */\n      0xffffffffffffffffffffffffffffffffffffffff\n        /* \"#utility.yul\":1095:1100   */\n      dup3\n        /* \"#utility.yul\":1091:1145   */\n      and\n        /* \"#utility.yul\":1080:1145   */\n      swap1\n      pop\n        /* \"#utility.yul\":1025:1151   */\n      swap2\n      swap1\n      pop\n      jump\t// out\n        /* \"#utility.yul\":1157:1217   */\n    tag_96:\n        /* \"#utility.yul\":1185:1188   */\n      0x00\n        /* \"#utility.yul\":1206:1211   */\n      dup2\n        /* \"#utility.yul\":1199:1211   */\n      swap1\n      pop\n        /* \"#utility.yul\":1157:1217   */\n      swap2\n      swap1\n      pop\n      jump\t// out\n        /* \"#utility.yul\":1223:1365   */\n    tag_97:\n        /* \"#utility.yul\":1273:1282   */\n      0x00\n        /* \"#utility.yul\":1306:1359   */\n      tag_144\n        /* \"#utility.yul\":1324:1358   */\n      tag_145\n        /* \"#utility.yul\":1333:1357   */\n      tag_146\n        /* \"#utility.yul\":1351:1356   */\n      dup5\n        /* \"#utility.yul\":1333:1357   */\n      tag_95\n      jump\t// in\n    tag_146:\n        /* \"#utility.yul\":1324:1358   */\n      tag_96\n      jump\t// in\n    tag_145:\n        /* \"#utility.yul\":1306:1359   */\n      tag_95\n      jump\t// in\n    tag_144:\n        /* \"#utility.yul\":1293:1359   */\n      swap1\n      pop\n        /* \"#utility.yul\":1223:1365   */\n      swap2\n      swap1\n      pop\n      jump\t// out\n        /* \"#utility.yul\":1371:1497   */\n    tag_98:\n        /* \"#utility.yul\":1421:1430   */\n      0x00\n        /* \"#utility.yul\":1454:1491   */\n      tag_148\n        /* \"#utility.yul\":1485:1490   */\n      dup3\n        /* \"#utility.yul\":1454:1491   */\n      tag_97\n      jump\t// in\n    tag_148:\n        /* \"#utility.yul\":1441:1491   */\n      swap1\n      pop\n        /* \"#utility.yul\":1371:1497   */\n      swap2\n      swap1\n      pop\n      jump\t// out\n        /* \"#utility.yul\":1503:1644   */\n    tag_99:\n        /* \"#utility.yul\":1568:1577   */\n      0x00\n        /* \"#utility.yul\":1601:1638   */\n      tag_150\n        /* \"#utility.yul\":1632:1637   */\n      dup3\n        /* \"#utility.yul\":1601:1638   */\n      tag_98\n      jump\t// in\n    tag_150:\n        /* \"#utility.yul\":1588:1638   */\n      swap1\n      pop\n        /* \"#utility.yul\":1503:1644   */\n      swap2\n      swap1\n      pop\n      jump\t// out\n        /* \"#utility.yul\":1650:1811   */\n    tag_100:\n        /* \"#utility.yul\":1752:1804   */\n      tag_152\n        /* \"#utility.yul\":1798:1803   */\n      dup2\n        /* \"#utility.yul\":1752:1804   */\n      tag_99\n      jump\t// in\n    tag_152:\n        /* \"#utility.yul\":1747:1750   */\n      dup3\n        /* \"#utility.yul\":1740:1805   */\n      mstore\n        /* \"#utility.yul\":1650:1811   */\n      pop\n      pop\n      jump\t// out\n        /* \"#utility.yul\":1817:2069   */\n    tag_24:\n        /* \"#utility.yul\":1925:1929   */\n      0x00\n        /* \"#utility.yul\":1963:1965   */\n      0x20\n        /* \"#utility.yul\":1952:1961   */\n      dup3\n        /* \"#utility.yul\":1948:1966   */\n      add\n        /* \"#utility.yul\":1940:1966   */\n      swap1\n      pop\n        /* \"#utility.yul\":1976:2062   */\n      tag_154\n        /* \"#utility.yul\":2059:2060   */\n      0x00\n        /* \"#utility.yul\":2048:2057   */\n      dup4\n        /* \"#utility.yul\":2044:2061   */\n      add\n        /* \"#utility.yul\":2035:2041   */\n      dup5\n        /* \"#utility.yul\":1976:2062   */\n      tag_100\n      jump\t// in\n    tag_154:\n        /* \"#utility.yul\":1817:2069   */\n      swap3\n      swap2\n      pop\n      pop\n      jump\t// out\n        /* \"#utility.yul\":2075:2193   */\n    tag_101:\n        /* \"#utility.yul\":2162:2186   */\n      tag_156\n        /* \"#utility.yul\":2180:2185   */\n      dup2\n        /* \"#utility.yul\":2162:2186   */\n      tag_92\n      jump\t// in\n    tag_156:\n        /* \"#utility.yul\":2157:2160   */\n      dup3\n        /* \"#utility.yul\":2150:2187   */\n      mstore\n        /* \"#utility.yul\":2075:2193   */\n      pop\n      pop\n      jump\t// out\n        /* \"#utility.yul\":2199:2421   */\n    tag_29:\n        /* \"#utility.yul\":2292:2296   */\n      0x00\n        /* \"#utility.yul\":2330:2332   */\n      0x20\n        /* \"#utility.yul\":2319:2328   */\n      dup3\n        /* \"#utility.yul\":2315:2333   */\n      add\n        /* \"#utility.yul\":2307:2333   */\n      swap1\n      pop\n        /* \"#utility.yul\":2343:2414   */\n      tag_158\n        /* \"#utility.yul\":2411:2412   */\n      0x00\n        /* \"#utility.yul\":2400:2409   */\n      dup4\n        /* \"#utility.yul\":2396:2413   */\n      add\n        /* \"#utility.yul\":2387:2393   */\n      dup5\n        /* \"#utility.yul\":2343:2414   */\n      tag_101\n      jump\t// in\n    tag_158:\n        /* \"#utility.yul\":2199:2421   */\n      swap3\n      swap2\n      pop\n      pop\n      jump\t// out\n        /* \"#utility.yul\":2427:2531   */\n    tag_102:\n        /* \"#utility.yul\":2472:2479   */\n      0x00\n        /* \"#utility.yul\":2501:2525   */\n      tag_160\n        /* \"#utility.yul\":2519:2524   */\n      dup3\n        /* \"#utility.yul\":2501:2525   */\n      tag_95\n      jump\t// in\n    tag_160:\n        /* \"#utility.yul\":2490:2525   */\n      swap1\n      pop\n        /* \"#utility.yul\":2427:2531   */\n      swap2\n      swap1\n      pop\n      jump\t// out\n        /* \"#utility.yul\":2537:2679   */\n    tag_103:\n        /* \"#utility.yul\":2640:2672   */\n      tag_162\n        /* \"#utility.yul\":2666:2671   */\n      dup2\n        /* \"#utility.yul\":2640:2672   */\n      tag_102\n      jump\t// in\n    tag_162:\n        /* \"#utility.yul\":2635:2638   */\n      dup3\n        /* \"#utility.yul\":2628:2673   */\n      mstore\n        /* \"#utility.yul\":2537:2679   */\n      pop\n      pop\n      jump\t// out\n        /* \"#utility.yul\":2685:2939   */\n    tag_34:\n        /* \"#utility.yul\":2794:2798   */\n      0x00\n        /* \"#utility.yul\":2832:2834   */\n      0x20\n        /* \"#utility.yul\":2821:2830   */\n      dup3\n        /* \"#utility.yul\":2817:2835   */\n      add\n        /* \"#utility.yul\":2809:2835   */\n      swap1\n      pop\n        /* \"#utility.yul\":2845:2932   */\n      tag_164\n        /* \"#utility.yul\":2929:2930   */\n      0x00\n        /* \"#utility.yul\":2918:2927   */\n      dup4\n        /* \"#utility.yul\":2914:2931   */\n      add\n        /* \"#utility.yul\":2905:2911   */\n      dup5\n        /* \"#utility.yul\":2845:2932   */\n      tag_103\n      jump\t// in\n    tag_164:\n        /* \"#utility.yul\":2685:2939   */\n      swap3\n      swap2\n      pop\n      pop\n      jump\t// out\n        /* \"#utility.yul\":2945:3035   */\n    tag_104:\n        /* \"#utility.yul\":2979:2986   */\n      0x00\n        /* \"#utility.yul\":3022:3027   */\n      dup2\n        /* \"#utility.yul\":3015:3028   */\n      iszero\n        /* \"#utility.yul\":3008:3029   */\n      iszero\n        /* \"#utility.yul\":2997:3029   */\n      swap1\n      pop\n        /* \"#utility.yul\":2945:3035   */\n      swap2\n      swap1\n      pop\n      jump\t// out\n        /* \"#utility.yul\":3041:3150   */\n    tag_105:\n        /* \"#utility.yul\":3122:3143   */\n      tag_167\n        /* \"#utility.yul\":3137:3142   */\n      dup2\n        /* \"#utility.yul\":3122:3143   */\n      tag_104\n      jump\t// in\n    tag_167:\n        /* \"#utility.yul\":3117:3120   */\n      dup3\n        /* \"#utility.yul\":3110:3144   */\n      mstore\n        /* \"#utility.yul\":3041:3150   */\n      pop\n      pop\n      jump\t// out\n        /* \"#utility.yul\":3156:3366   */\n    tag_43:\n        /* \"#utility.yul\":3243:3247   */\n      0x00\n        /* \"#utility.yul\":3281:3283   */\n      0x20\n        /* \"#utility.yul\":3270:3279   */\n      dup3\n        /* \"#utility.yul\":3266:3284   */\n      add\n        /* \"#utility.yul\":3258:3284   */\n      swap1\n      pop\n        /* \"#utility.yul\":3294:3359   */\n      tag_169\n        /* \"#utility.yul\":3356:3357   */\n      0x00\n        /* \"#utility.yul\":3345:3354   */\n      dup4\n        /* \"#utility.yul\":3341:3358   */\n      add\n        /* \"#utility.yul\":3332:3338   */\n      dup5\n        /* \"#utility.yul\":3294:3359   */\n      tag_105\n      jump\t// in\n    tag_169:\n        /* \"#utility.yul\":3156:3366   */\n      swap3\n      swap2\n      pop\n      pop\n      jump\t// out\n        /* \"#utility.yul\":3372:3468   */\n    tag_106:\n        /* \"#utility.yul\":3409:3416   */\n      0x00\n        /* \"#utility.yul\":3438:3462   */\n      tag_171\n        /* \"#utility.yul\":3456:3461   */\n      dup3\n        /* \"#utility.yul\":3438:3462   */\n      tag_95\n      jump\t// in\n    tag_171:\n        /* \"#utility.yul\":3427:3462   */\n      swap1\n      pop\n        /* \"#utility.yul\":3372:3468   */\n      swap2\n      swap1\n      pop\n      jump\t// out\n        /* \"#utility.yul\":3474:3596   */\n    tag_107:\n        /* \"#utility.yul\":3547:3571   */\n      tag_173\n        /* \"#utility.yul\":3565:3570   */\n      dup2\n        /* \"#utility.yul\":3547:3571   */\n      tag_106\n      jump\t// in\n    tag_173:\n        /* \"#utility.yul\":3540:3545   */\n      dup2\n        /* \"#utility.yul\":3537:3572   */\n      eq\n        /* \"#utility.yul\":3527:3590   */\n      tag_174\n      jumpi\n        /* \"#utility.yul\":3586:3587   */\n      0x00\n        /* \"#utility.yul\":3583:3584   */\n      dup1\n        /* \"#utility.yul\":3576:3588   */\n      revert\n        /* \"#utility.yul\":3527:3590   */\n    tag_174:\n        /* \"#utility.yul\":3474:3596   */\n      pop\n      jump\t// out\n        /* \"#utility.yul\":3602:3741   */\n    tag_108:\n        /* \"#utility.yul\":3648:3653   */\n      0x00\n        /* \"#utility.yul\":3686:3692   */\n      dup2\n        /* \"#utility.yul\":3673:3693   */\n      calldataload\n        /* \"#utility.yul\":3664:3693   */\n      swap1\n      pop\n        /* \"#utility.yul\":3702:3735   */\n      tag_176\n        /* \"#utility.yul\":3729:3734   */\n      dup2\n        /* \"#utility.yul\":3702:3735   */\n      tag_107\n      jump\t// in\n    tag_176:\n        /* \"#utility.yul\":3602:3741   */\n      swap3\n      swap2\n      pop\n      pop\n      jump\t// out\n        /* \"#utility.yul\":3747:4076   */\n    tag_47:\n        /* \"#utility.yul\":3806:3812   */\n      0x00\n        /* \"#utility.yul\":3855:3857   */\n      0x20\n        /* \"#utility.yul\":3843:3852   */\n      dup3\n        /* \"#utility.yul\":3834:3841   */\n      dup5\n        /* \"#utility.yul\":3830:3853   */\n      sub\n        /* \"#utility.yul\":3826:3858   */\n      slt\n        /* \"#utility.yul\":3823:3942   */\n      iszero\n      tag_178\n      jumpi\n        /* \"#utility.yul\":3861:3940   */\n      tag_179\n      tag_90\n      jump\t// in\n    tag_179:\n        /* \"#utility.yul\":3823:3942   */\n    tag_178:\n        /* \"#utility.yul\":3981:3982   */\n      0x00\n        /* \"#utility.yul\":4006:4059   */\n      tag_180\n        /* \"#utility.yul\":4051:4058   */\n      dup5\n        /* \"#utility.yul\":4042:4048   */\n      dup3\n        /* \"#utility.yul\":4031:4040   */\n      dup6\n        /* \"#utility.yul\":4027:4049   */\n      add\n        /* \"#utility.yul\":4006:4059   */\n      tag_108\n      jump\t// in\n    tag_180:\n        /* \"#utility.yul\":3996:4059   */\n      swap2\n      pop\n        /* \"#utility.yul\":3952:4069   */\n      pop\n        /* \"#utility.yul\":3747:4076   */\n      swap3\n      swap2\n      pop\n      pop\n      jump\t// out\n        /* \"#utility.yul\":4082:4251   */\n    tag_109:\n        /* \"#utility.yul\":4166:4177   */\n      0x00\n        /* \"#utility.yul\":4200:4206   */\n      dup3\n        /* \"#utility.yul\":4195:4198   */\n      dup3\n        /* \"#utility.yul\":4188:4207   */\n      mstore\n        /* \"#utility.yul\":4240:4244   */\n      0x20\n        /* \"#utility.yul\":4235:4238   */\n      dup3\n        /* \"#utility.yul\":4231:4245   */\n      add\n        /* \"#utility.yul\":4216:4245   */\n      swap1\n      pop\n        /* \"#utility.yul\":4082:4251   */\n      swap3\n      swap2\n      pop\n      pop\n      jump\t// out\n        /* \"#utility.yul\":4257:4432   */\n    tag_110:\n        /* \"#utility.yul\":4397:4424   */\n      0x41756374696f6e20686173206e6f7420656e6465642079657400000000000000\n        /* \"#utility.yul\":4393:4394   */\n      0x00\n        /* \"#utility.yul\":4385:4391   */\n      dup3\n        /* \"#utility.yul\":4381:4395   */\n      add\n        /* \"#utility.yul\":4374:4425   */\n      mstore\n        /* \"#utility.yul\":4257:4432   */\n      pop\n      jump\t// out\n        /* \"#utility.yul\":4438:4804   */\n    tag_111:\n        /* \"#utility.yul\":4580:4583   */\n      0x00\n        /* \"#utility.yul\":4601:4668   */\n      tag_184\n        /* \"#utility.yul\":4665:4667   */\n      0x19\n        /* \"#utility.yul\":4660:4663   */\n      dup4\n        /* \"#utility.yul\":4601:4668   */\n      tag_109\n      jump\t// in\n    tag_184:\n        /* \"#utility.yul\":4594:4668   */\n      swap2\n      pop\n        /* \"#utility.yul\":4677:4770   */\n      tag_185\n        /* \"#utility.yul\":4766:4769   */\n      dup3\n        /* \"#utility.yul\":4677:4770   */\n      tag_110\n      jump\t// in\n    tag_185:\n        /* \"#utility.yul\":4795:4797   */\n      0x20\n        /* \"#utility.yul\":4790:4793   */\n      dup3\n        /* \"#utility.yul\":4786:4798   */\n      add\n        /* \"#utility.yul\":4779:4798   */\n      swap1\n      pop\n        /* \"#utility.yul\":4438:4804   */\n      swap2\n      swap1\n      pop\n      jump\t// out\n        /* \"#utility.yul\":4810:5229   */\n    tag_61:\n        /* \"#utility.yul\":4976:4980   */\n      0x00\n        /* \"#utility.yul\":5014:5016   */\n      0x20\n        /* \"#utility.yul\":5003:5012   */\n      dup3\n        /* \"#utility.yul\":4999:5017   */\n      add\n        /* \"#utility.yul\":4991:5017   */\n      swap1\n      pop\n        /* \"#utility.yul\":5063:5072   */\n      dup2\n        /* \"#utility.yul\":5057:5061   */\n      dup2\n        /* \"#utility.yul\":5053:5073   */\n      sub\n        /* \"#utility.yul\":5049:5050   */\n      0x00\n        /* \"#utility.yul\":5038:5047   */\n      dup4\n        /* \"#utility.yul\":5034:5051   */\n      add\n        /* \"#utility.yul\":5027:5074   */\n      mstore\n        /* \"#utility.yul\":5091:5222   */\n      tag_187\n        /* \"#utility.yul\":5217:5221   */\n      dup2\n        /* \"#utility.yul\":5091:5222   */\n      tag_111\n      jump\t// in\n    tag_187:\n        /* \"#utility.yul\":5083:5222   */\n      swap1\n      pop\n        /* \"#utility.yul\":4810:5229   */\n      swap2\n      swap1\n      pop\n      jump\t// out\n        /* \"#utility.yul\":5235:5415   */\n    tag_112:\n        /* \"#utility.yul\":5375:5407   */\n      0x596f7520617265206e6f74207468652068696768657374206269646465720000\n        /* \"#utility.yul\":5371:5372   */\n      0x00\n        /* \"#utility.yul\":5363:5369   */\n      dup3\n        /* \"#utility.yul\":5359:5373   */\n      add\n        /* \"#utility.yul\":5352:5408   */\n      mstore\n        /* \"#utility.yul\":5235:5415   */\n      pop\n      jump\t// out\n        /* \"#utility.yul\":5421:5787   */\n    tag_113:\n        /* \"#utility.yul\":5563:5566   */\n      0x00\n        /* \"#utility.yul\":5584:5651   */\n      tag_190\n        /* \"#utility.yul\":5648:5650   */\n      0x1e\n        /* \"#utility.yul\":5643:5646   */\n      dup4\n        /* \"#utility.yul\":5584:5651   */\n      tag_109\n      jump\t// in\n    tag_190:\n        /* \"#utility.yul\":5577:5651   */\n      swap2\n      pop\n        /* \"#utility.yul\":5660:5753   */\n      tag_191\n        /* \"#utility.yul\":5749:5752   */\n      dup3\n        /* \"#utility.yul\":5660:5753   */\n      tag_112\n      jump\t// in\n    tag_191:\n        /* \"#utility.yul\":5778:5780   */\n      0x20\n        /* \"#utility.yul\":5773:5776   */\n      dup3\n        /* \"#utility.yul\":5769:5781   */\n      add\n        /* \"#utility.yul\":5762:5781   */\n      swap1\n      pop\n        /* \"#utility.yul\":5421:5787   */\n      swap2\n      swap1\n      pop\n      jump\t// out\n        /* \"#utility.yul\":5793:6212   */\n    tag_64:\n        /* \"#utility.yul\":5959:5963   */\n      0x00\n        /* \"#utility.yul\":5997:5999   */\n      0x20\n        /* \"#utility.yul\":5986:5995   */\n      dup3\n        /* \"#utility.yul\":5982:6000   */\n      add\n        /* \"#utility.yul\":5974:6000   */\n      swap1\n      pop\n        /* \"#utility.yul\":6046:6055   */\n      dup2\n        /* \"#utility.yul\":6040:6044   */\n      dup2\n        /* \"#utility.yul\":6036:6056   */\n      sub\n        /* \"#utility.yul\":6032:6033   */\n      0x00\n        /* \"#utility.yul\":6021:6030   */\n      dup4\n        /* \"#utility.yul\":6017:6034   */\n      add\n        /* \"#utility.yul\":6010:6057   */\n      mstore\n        /* \"#utility.yul\":6074:6205   */\n      tag_193\n        /* \"#utility.yul\":6200:6204   */\n      dup2\n        /* \"#utility.yul\":6074:6205   */\n      tag_113\n      jump\t// in\n    tag_193:\n        /* \"#utility.yul\":6066:6205   */\n      swap1\n      pop\n        /* \"#utility.yul\":5793:6212   */\n      swap2\n      swap1\n      pop\n      jump\t// out\n        /* \"#utility.yul\":6218:6396   */\n    tag_114:\n        /* \"#utility.yul\":6358:6388   */\n      0x496e73756666696369656e7420457468205472616e7366657272656400000000\n        /* \"#utility.yul\":6354:6355   */\n      0x00\n        /* \"#utility.yul\":6346:6352   */\n      dup3\n        /* \"#utility.yul\":6342:6356   */\n      add\n        /* \"#utility.yul\":6335:6389   */\n      mstore\n        /* \"#utility.yul\":6218:6396   */\n      pop\n      jump\t// out\n        /* \"#utility.yul\":6402:6768   */\n    tag_115:\n        /* \"#utility.yul\":6544:6547   */\n      0x00\n        /* \"#utility.yul\":6565:6632   */\n      tag_196\n        /* \"#utility.yul\":6629:6631   */\n      0x1c\n        /* \"#utility.yul\":6624:6627   */\n      dup4\n        /* \"#utility.yul\":6565:6632   */\n      tag_109\n      jump\t// in\n    tag_196:\n        /* \"#utility.yul\":6558:6632   */\n      swap2\n      pop\n        /* \"#utility.yul\":6641:6734   */\n      tag_197\n        /* \"#utility.yul\":6730:6733   */\n      dup3\n        /* \"#utility.yul\":6641:6734   */\n      tag_114\n      jump\t// in\n    tag_197:\n        /* \"#utility.yul\":6759:6761   */\n      0x20\n        /* \"#utility.yul\":6754:6757   */\n      dup3\n        /* \"#utility.yul\":6750:6762   */\n      add\n        /* \"#utility.yul\":6743:6762   */\n      swap1\n      pop\n        /* \"#utility.yul\":6402:6768   */\n      swap2\n      swap1\n      pop\n      jump\t// out\n        /* \"#utility.yul\":6774:7193   */\n    tag_67:\n        /* \"#utility.yul\":6940:6944   */\n      0x00\n        /* \"#utility.yul\":6978:6980   */\n      0x20\n        /* \"#utility.yul\":6967:6976   */\n      dup3\n        /* \"#utility.yul\":6963:6981   */\n      add\n        /* \"#utility.yul\":6955:6981   */\n      swap1\n      pop\n        /* \"#utility.yul\":7027:7036   */\n      dup2\n        /* \"#utility.yul\":7021:7025   */\n      dup2\n        /* \"#utility.yul\":7017:7037   */\n      sub\n        /* \"#utility.yul\":7013:7014   */\n      0x00\n        /* \"#utility.yul\":7002:7011   */\n      dup4\n        /* \"#utility.yul\":6998:7015   */\n      add\n        /* \"#utility.yul\":6991:7038   */\n      mstore\n        /* \"#utility.yul\":7055:7186   */\n      tag_199\n        /* \"#utility.yul\":7181:7185   */\n      dup2\n        /* \"#utility.yul\":7055:7186   */\n      tag_115\n      jump\t// in\n    tag_199:\n        /* \"#utility.yul\":7047:7186   */\n      swap1\n      pop\n        /* \"#utility.yul\":6774:7193   */\n      swap2\n      swap1\n      pop\n      jump\t// out\n        /* \"#utility.yul\":7199:7369   */\n    tag_116:\n        /* \"#utility.yul\":7339:7361   */\n      0x5061796d656e7420616c7265616479206d616465000000000000000000000000\n        /* \"#utility.yul\":7335:7336   */\n      0x00\n        /* \"#utility.yul\":7327:7333   */\n      dup3\n        /* \"#utility.yul\":7323:7337   */\n      add\n        /* \"#utility.yul\":7316:7362   */\n      mstore\n        /* \"#utility.yul\":7199:7369   */\n      pop\n      jump\t// out\n        /* \"#utility.yul\":7375:7741   */\n    tag_117:\n        /* \"#utility.yul\":7517:7520   */\n      0x00\n        /* \"#utility.yul\":7538:7605   */\n      tag_202\n        /* \"#utility.yul\":7602:7604   */\n      0x14\n        /* \"#utility.yul\":7597:7600   */\n      dup4\n        /* \"#utility.yul\":7538:7605   */\n      tag_109\n      jump\t// in\n    tag_202:\n        /* \"#utility.yul\":7531:7605   */\n      swap2\n      pop\n        /* \"#utility.yul\":7614:7707   */\n      tag_203\n        /* \"#utility.yul\":7703:7706   */\n      dup3\n        /* \"#utility.yul\":7614:7707   */\n      tag_116\n      jump\t// in\n    tag_203:\n        /* \"#utility.yul\":7732:7734   */\n      0x20\n        /* \"#utility.yul\":7727:7730   */\n      dup3\n        /* \"#utility.yul\":7723:7735   */\n      add\n        /* \"#utility.yul\":7716:7735   */\n      swap1\n      pop\n        /* \"#utility.yul\":7375:7741   */\n      swap2\n      swap1\n      pop\n      jump\t// out\n        /* \"#utility.yul\":7747:8166   */\n    tag_70:\n        /* \"#utility.yul\":7913:7917   */\n      0x00\n        /* \"#utility.yul\":7951:7953   */\n      0x20\n        /* \"#utility.yul\":7940:7949   */\n      dup3\n        /* \"#utility.yul\":7936:7954   */\n      add\n        /* \"#utility.yul\":7928:7954   */\n      swap1\n      pop\n        /* \"#utility.yul\":8000:8009   */\n      dup2\n        /* \"#utility.yul\":7994:7998   */\n      dup2\n        /* \"#utility.yul\":7990:8010   */\n      sub\n        /* \"#utility.yul\":7986:7987   */\n      0x00\n        /* \"#utility.yul\":7975:7984   */\n      dup4\n        /* \"#utility.yul\":7971:7988   */\n      add\n        /* \"#utility.yul\":7964:8011   */\n      mstore\n        /* \"#utility.yul\":8028:8159   */\n      tag_205\n        /* \"#utility.yul\":8154:8158   */\n      dup2\n        /* \"#utility.yul\":8028:8159   */\n      tag_117\n      jump\t// in\n    tag_205:\n        /* \"#utility.yul\":8020:8159   */\n      swap1\n      pop\n        /* \"#utility.yul\":7747:8166   */\n      swap2\n      swap1\n      pop\n      jump\t// out\n        /* \"#utility.yul\":8172:8306   */\n    tag_118:\n        /* \"#utility.yul\":8230:8239   */\n      0x00\n        /* \"#utility.yul\":8263:8300   */\n      tag_207\n        /* \"#utility.yul\":8294:8299   */\n      dup3\n        /* \"#utility.yul\":8263:8300   */\n      tag_98\n      jump\t// in\n    tag_207:\n        /* \"#utility.yul\":8250:8300   */\n      swap1\n      pop\n        /* \"#utility.yul\":8172:8306   */\n      swap2\n      swap1\n      pop\n      jump\t// out\n        /* \"#utility.yul\":8312:8459   */\n    tag_119:\n        /* \"#utility.yul\":8407:8452   */\n      tag_209\n        /* \"#utility.yul\":8446:8451   */\n      dup2\n        /* \"#utility.yul\":8407:8452   */\n      tag_118\n      jump\t// in\n    tag_209:\n        /* \"#utility.yul\":8402:8405   */\n      dup3\n        /* \"#utility.yul\":8395:8453   */\n      mstore\n        /* \"#utility.yul\":8312:8459   */\n      pop\n      pop\n      jump\t// out\n        /* \"#utility.yul\":8465:8583   */\n    tag_120:\n        /* \"#utility.yul\":8552:8576   */\n      tag_211\n        /* \"#utility.yul\":8570:8575   */\n      dup2\n        /* \"#utility.yul\":8552:8576   */\n      tag_106\n      jump\t// in\n    tag_211:\n        /* \"#utility.yul\":8547:8550   */\n      dup3\n        /* \"#utility.yul\":8540:8577   */\n      mstore\n        /* \"#utility.yul\":8465:8583   */\n      pop\n      pop\n      jump\t// out\n        /* \"#utility.yul\":8589:9047   */\n    tag_74:\n        /* \"#utility.yul\":8746:8750   */\n      0x00\n        /* \"#utility.yul\":8784:8786   */\n      0x60\n        /* \"#utility.yul\":8773:8782   */\n      dup3\n        /* \"#utility.yul\":8769:8787   */\n      add\n        /* \"#utility.yul\":8761:8787   */\n      swap1\n      pop\n        /* \"#utility.yul\":8797:8876   */\n      tag_213\n        /* \"#utility.yul\":8873:8874   */\n      0x00\n        /* \"#utility.yul\":8862:8871   */\n      dup4\n        /* \"#utility.yul\":8858:8875   */\n      add\n        /* \"#utility.yul\":8849:8855   */\n      dup7\n        /* \"#utility.yul\":8797:8876   */\n      tag_119\n      jump\t// in\n    tag_213:\n        /* \"#utility.yul\":8886:8958   */\n      tag_214\n        /* \"#utility.yul\":8954:8956   */\n      0x20\n        /* \"#utility.yul\":8943:8952   */\n      dup4\n        /* \"#utility.yul\":8939:8957   */\n      add\n        /* \"#utility.yul\":8930:8936   */\n      dup6\n        /* \"#utility.yul\":8886:8958   */\n      tag_120\n      jump\t// in\n    tag_214:\n        /* \"#utility.yul\":8968:9040   */\n      tag_215\n        /* \"#utility.yul\":9036:9038   */\n      0x40\n        /* \"#utility.yul\":9025:9034   */\n      dup4\n        /* \"#utility.yul\":9021:9039   */\n      add\n        /* \"#utility.yul\":9012:9018   */\n      dup5\n        /* \"#utility.yul\":8968:9040   */\n      tag_101\n      jump\t// in\n    tag_215:\n        /* \"#utility.yul\":8589:9047   */\n      swap5\n      swap4\n      pop\n      pop\n      pop\n      pop\n      jump\t// out\n        /* \"#utility.yul\":9053:9220   */\n    tag_121:\n        /* \"#utility.yul\":9193:9212   */\n      0x41756374696f6e2068617320656e646564000000000000000000000000000000\n        /* \"#utility.yul\":9189:9190   */\n      0x00\n        /* \"#utility.yul\":9181:9187   */\n      dup3\n        /* \"#utility.yul\":9177:9191   */\n      add\n        /* \"#utility.yul\":9170:9213   */\n      mstore\n        /* \"#utility.yul\":9053:9220   */\n      pop\n      jump\t// out\n        /* \"#utility.yul\":9226:9592   */\n    tag_122:\n        /* \"#utility.yul\":9368:9371   */\n      0x00\n        /* \"#utility.yul\":9389:9456   */\n      tag_218\n        /* \"#utility.yul\":9453:9455   */\n      0x11\n        /* \"#utility.yul\":9448:9451   */\n      dup4\n        /* \"#utility.yul\":9389:9456   */\n      tag_109\n      jump\t// in\n    tag_218:\n        /* \"#utility.yul\":9382:9456   */\n      swap2\n      pop\n        /* \"#utility.yul\":9465:9558   */\n      tag_219\n        /* \"#utility.yul\":9554:9557   */\n      dup3\n        /* \"#utility.yul\":9465:9558   */\n      tag_121\n      jump\t// in\n    tag_219:\n        /* \"#utility.yul\":9583:9585   */\n      0x20\n        /* \"#utility.yul\":9578:9581   */\n      dup3\n        /* \"#utility.yul\":9574:9586   */\n      add\n        /* \"#utility.yul\":9567:9586   */\n      swap1\n      pop\n        /* \"#utility.yul\":9226:9592   */\n      swap2\n      swap1\n      pop\n      jump\t// out\n        /* \"#utility.yul\":9598:10017   */\n    tag_81:\n        /* \"#utility.yul\":9764:9768   */\n      0x00\n        /* \"#utility.yul\":9802:9804   */\n      0x20\n        /* \"#utility.yul\":9791:9800   */\n      dup3\n        /* \"#utility.yul\":9787:9805   */\n      add\n        /* \"#utility.yul\":9779:9805   */\n      swap1\n      pop\n        /* \"#utility.yul\":9851:9860   */\n      dup2\n        /* \"#utility.yul\":9845:9849   */\n      dup2\n        /* \"#utility.yul\":9841:9861   */\n      sub\n        /* \"#utility.yul\":9837:9838   */\n      0x00\n        /* \"#utility.yul\":9826:9835   */\n      dup4\n        /* \"#utility.yul\":9822:9839   */\n      add\n        /* \"#utility.yul\":9815:9862   */\n      mstore\n        /* \"#utility.yul\":9879:10010   */\n      tag_221\n        /* \"#utility.yul\":10005:10009   */\n      dup2\n        /* \"#utility.yul\":9879:10010   */\n      tag_122\n      jump\t// in\n    tag_221:\n        /* \"#utility.yul\":9871:10010   */\n      swap1\n      pop\n        /* \"#utility.yul\":9598:10017   */\n      swap2\n      swap1\n      pop\n      jump\t// out\n        /* \"#utility.yul\":10023:10199   */\n    tag_123:\n        /* \"#utility.yul\":10163:10191   */\n      0x4f6e6c7920506f736974697665204269647320416c6c6f776564000000000000\n        /* \"#utility.yul\":10159:10160   */\n      0x00\n        /* \"#utility.yul\":10151:10157   */\n      dup3\n        /* \"#utility.yul\":10147:10161   */\n      add\n        /* \"#utility.yul\":10140:10192   */\n      mstore\n        /* \"#utility.yul\":10023:10199   */\n      pop\n      jump\t// out\n        /* \"#utility.yul\":10205:10571   */\n    tag_124:\n        /* \"#utility.yul\":10347:10350   */\n      0x00\n        /* \"#utility.yul\":10368:10435   */\n      tag_224\n        /* \"#utility.yul\":10432:10434   */\n      0x1a\n        /* \"#utility.yul\":10427:10430   */\n      dup4\n        /* \"#utility.yul\":10368:10435   */\n      tag_109\n      jump\t// in\n    tag_224:\n        /* \"#utility.yul\":10361:10435   */\n      swap2\n      pop\n        /* \"#utility.yul\":10444:10537   */\n      tag_225\n        /* \"#utility.yul\":10533:10536   */\n      dup3\n        /* \"#utility.yul\":10444:10537   */\n      tag_123\n      jump\t// in\n    tag_225:\n        /* \"#utility.yul\":10562:10564   */\n      0x20\n        /* \"#utility.yul\":10557:10560   */\n      dup3\n        /* \"#utility.yul\":10553:10565   */\n      add\n        /* \"#utility.yul\":10546:10565   */\n      swap1\n      pop\n        /* \"#utility.yul\":10205:10571   */\n      swap2\n      swap1\n      pop\n      jump\t// out\n        /* \"#utility.yul\":10577:10996   */\n    tag_84:\n        /* \"#utility.yul\":10743:10747   */\n      0x00\n        /* \"#utility.yul\":10781:10783   */\n      0x20\n        /* \"#utility.yul\":10770:10779   */\n      dup3\n        /* \"#utility.yul\":10766:10784   */\n      add\n        /* \"#utility.yul\":10758:10784   */\n      swap1\n      pop\n        /* \"#utility.yul\":10830:10839   */\n      dup2\n        /* \"#utility.yul\":10824:10828   */\n      dup2\n        /* \"#utility.yul\":10820:10840   */\n      sub\n        /* \"#utility.yul\":10816:10817   */\n      0x00\n        /* \"#utility.yul\":10805:10814   */\n      dup4\n        /* \"#utility.yul\":10801:10818   */\n      add\n        /* \"#utility.yul\":10794:10841   */\n      mstore\n        /* \"#utility.yul\":10858:10989   */\n      tag_227\n        /* \"#utility.yul\":10984:10988   */\n      dup2\n        /* \"#utility.yul\":10858:10989   */\n      tag_124\n      jump\t// in\n    tag_227:\n        /* \"#utility.yul\":10850:10989   */\n      swap1\n      pop\n        /* \"#utility.yul\":10577:10996   */\n      swap2\n      swap1\n      pop\n      jump\t// out\n        /* \"#utility.yul\":11002:11163   */\n    tag_125:\n        /* \"#utility.yul\":11142:11155   */\n      0x416c726561647920426964000000000000000000000000000000000000000000\n        /* \"#utility.yul\":11138:11139   */\n      0x00\n        /* \"#utility.yul\":11130:11136   */\n      dup3\n        /* \"#utility.yul\":11126:11140   */\n      add\n        /* \"#utility.yul\":11119:11156   */\n      mstore\n        /* \"#utility.yul\":11002:11163   */\n      pop\n      jump\t// out\n        /* \"#utility.yul\":11169:11535   */\n    tag_126:\n        /* \"#utility.yul\":11311:11314   */\n      0x00\n        /* \"#utility.yul\":11332:11399   */\n      tag_230\n        /* \"#utility.yul\":11396:11398   */\n      0x0b\n        /* \"#utility.yul\":11391:11394   */\n      dup4\n        /* \"#utility.yul\":11332:11399   */\n      tag_109\n      jump\t// in\n    tag_230:\n        /* \"#utility.yul\":11325:11399   */\n      swap2\n      pop\n        /* \"#utility.yul\":11408:11501   */\n      tag_231\n        /* \"#utility.yul\":11497:11500   */\n      dup3\n        /* \"#utility.yul\":11408:11501   */\n      tag_125\n      jump\t// in\n    tag_231:\n        /* \"#utility.yul\":11526:11528   */\n      0x20\n        /* \"#utility.yul\":11521:11524   */\n      dup3\n        /* \"#utility.yul\":11517:11529   */\n      add\n        /* \"#utility.yul\":11510:11529   */\n      swap1\n      pop\n        /* \"#utility.yul\":11169:11535   */\n      swap2\n      swap1\n      pop\n      jump\t// out\n        /* \"#utility.yul\":11541:11960   */\n    tag_87:\n        /* \"#utility.yul\":11707:11711   */\n      0x00\n        /* \"#utility.yul\":11745:11747   */\n      0x20\n        /* \"#utility.yul\":11734:11743   */\n      dup3\n        /* \"#utility.yul\":11730:11748   */\n      add\n        /* \"#utility.yul\":11722:11748   */\n      swap1\n      pop\n        /* \"#utility.yul\":11794:11803   */\n      dup2\n        /* \"#utility.yul\":11788:11792   */\n      dup2\n        /* \"#utility.yul\":11784:11804   */\n      sub\n        /* \"#utility.yul\":11780:11781   */\n      0x00\n        /* \"#utility.yul\":11769:11778   */\n      dup4\n        /* \"#utility.yul\":11765:11782   */\n      add\n        /* \"#utility.yul\":11758:11805   */\n      mstore\n        /* \"#utility.yul\":11822:11953   */\n      tag_233\n        /* \"#utility.yul\":11948:11952   */\n      dup2\n        /* \"#utility.yul\":11822:11953   */\n      tag_126\n      jump\t// in\n    tag_233:\n        /* \"#utility.yul\":11814:11953   */\n      swap1\n      pop\n        /* \"#utility.yul\":11541:11960   */\n      swap2\n      swap1\n      pop\n      jump\t// out\n\n    auxdata: 0xa2646970667358221220a51bf71831f7940006269276ba4ab2917b8edd2fc133c4e344bab098b655110964736f6c63430008110033\n}\n",
				"bytecode": {
					"linkReferences": {},
					"object": "60806040523480156200001157600080fd5b506040516200112138038062001121833981810160405281019062000037919062000270565b3373ffffffffffffffffffffffffffffffffffffffff168273ffffffffffffffffffffffffffffffffffffffff16636352211e836040518263ffffffff1660e01b8152600401620000899190620002dd565b602060405180830381865afa158015620000a7573d6000803e3d6000fd5b505050506040513d601f19601f82011682018060405250810190620000cd9190620002fa565b73ffffffffffffffffffffffffffffffffffffffff161462000126576040517f08c379a00000000000000000000000000000000000000000000000000000000081526004016200011d906200038d565b60405180910390fd5b336000806101000a81548173ffffffffffffffffffffffffffffffffffffffff021916908373ffffffffffffffffffffffffffffffffffffffff1602179055508242620001749190620003de565b60018190555081600460006101000a81548173ffffffffffffffffffffffffffffffffffffffff021916908373ffffffffffffffffffffffffffffffffffffffff1602179055508060058190555050505062000419565b600080fd5b6000819050919050565b620001e581620001d0565b8114620001f157600080fd5b50565b6000815190506200020581620001da565b92915050565b600073ffffffffffffffffffffffffffffffffffffffff82169050919050565b600062000238826200020b565b9050919050565b6200024a816200022b565b81146200025657600080fd5b50565b6000815190506200026a816200023f565b92915050565b6000806000606084860312156200028c576200028b620001cb565b5b60006200029c86828701620001f4565b9350506020620002af8682870162000259565b9250506040620002c286828701620001f4565b9150509250925092565b620002d781620001d0565b82525050565b6000602082019050620002f46000830184620002cc565b92915050565b600060208284031215620003135762000312620001cb565b5b6000620003238482850162000259565b91505092915050565b600082825260208201905092915050565b7f41756374696f6e65657220646f6573206e6f74206f776e204e46540000000000600082015250565b600062000375601b836200032c565b915062000382826200033d565b602082019050919050565b60006020820190508181036000830152620003a88162000366565b9050919050565b7f4e487b7100000000000000000000000000000000000000000000000000000000600052601160045260246000fd5b6000620003eb82620001d0565b9150620003f883620001d0565b9250828201905080821115620004135762000412620003af565b5b92915050565b610cf880620004296000396000f3fe6080604052600436106100915760003560e01c8063c6bc518211610059578063c6bc51821461014a578063c810af8114610175578063d2639dbf146101a0578063d3924aaf146101dd578063d57bde791461020857610091565b80631b9265b814610096578063454a2ab3146100a057806347ccca02146100c95780634b449cba146100f457806391f901571461011f575b600080fd5b61009e610233565b005b3480156100ac57600080fd5b506100c760048036038101906100c29190610788565b6104d5565b005b3480156100d557600080fd5b506100de610698565b6040516100eb9190610834565b60405180910390f35b34801561010057600080fd5b506101096106be565b604051610116919061085e565b60405180910390f35b34801561012b57600080fd5b506101346106c4565b604051610141919061089a565b60405180910390f35b34801561015657600080fd5b5061015f6106ea565b60405161016c919061085e565b60405180910390f35b34801561018157600080fd5b5061018a6106f0565b60405161019791906108d0565b60405180910390f35b3480156101ac57600080fd5b506101c760048036038101906101c29190610929565b610703565b6040516101d491906108d0565b60405180910390f35b3480156101e957600080fd5b506101f2610723565b6040516101ff919061089a565b60405180910390f35b34801561021457600080fd5b5061021d610747565b60405161022a919061085e565b60405180910390f35b600154421015610278576040517f08c379a000000000000000000000000000000000000000000000000000000000815260040161026f906109b3565b60405180910390fd5b600360009054906101000a900473ffffffffffffffffffffffffffffffffffffffff1673ffffffffffffffffffffffffffffffffffffffff163373ffffffffffffffffffffffffffffffffffffffff1614610308576040517f08c379a00000000000000000000000000000000000000000000000000000000081526004016102ff90610a1f565b60405180910390fd5b600254341461034c576040517f08c379a000000000000000000000000000000000000000000000000000000000815260040161034390610a8b565b60405180910390fd5b600360149054906101000a900460ff161561039c576040517f08c379a000000000000000000000000000000000000000000000000000000000815260040161039390610af7565b60405180910390fd5b6001600360146101000a81548160ff02191690831515021790555060008054906101000a900473ffffffffffffffffffffffffffffffffffffffff1673ffffffffffffffffffffffffffffffffffffffff166108fc6002549081150290604051600060405180830381858888f1935050505015801561041f573d6000803e3d6000fd5b50600460009054906101000a900473ffffffffffffffffffffffffffffffffffffffff1673ffffffffffffffffffffffffffffffffffffffff166342842e0e60008054906101000a900473ffffffffffffffffffffffffffffffffffffffff16336005546040518463ffffffff1660e01b81526004016104a193929190610b47565b600060405180830381600087803b1580156104bb57600080fd5b505af11580156104cf573d6000803e3d6000fd5b50505050565b60015442111561051a576040517f08c379a000000000000000000000000000000000000000000000000000000000815260040161051190610bca565b60405180910390fd5b6000811161055d576040517f08c379a000000000000000000000000000000000000000000000000000000000815260040161055490610c36565b60405180910390fd5b600660003373ffffffffffffffffffffffffffffffffffffffff1673ffffffffffffffffffffffffffffffffffffffff16815260200190815260200160002060009054906101000a900460ff16156105ea576040517f08c379a00000000000000000000000000000000000000000000000000000000081526004016105e190610ca2565b60405180910390fd5b6001600660003373ffffffffffffffffffffffffffffffffffffffff1673ffffffffffffffffffffffffffffffffffffffff16815260200190815260200160002060006101000a81548160ff021916908315150217905550600254811115610695578060028190555033600360006101000a81548173ffffffffffffffffffffffffffffffffffffffff021916908373ffffffffffffffffffffffffffffffffffffffff1602179055505b50565b600460009054906101000a900473ffffffffffffffffffffffffffffffffffffffff1681565b60015481565b600360009054906101000a900473ffffffffffffffffffffffffffffffffffffffff1681565b60055481565b600360149054906101000a900460ff1681565b60066020528060005260406000206000915054906101000a900460ff1681565b60008054906101000a900473ffffffffffffffffffffffffffffffffffffffff1681565b60025481565b600080fd5b6000819050919050565b61076581610752565b811461077057600080fd5b50565b6000813590506107828161075c565b92915050565b60006020828403121561079e5761079d61074d565b5b60006107ac84828501610773565b91505092915050565b600073ffffffffffffffffffffffffffffffffffffffff82169050919050565b6000819050919050565b60006107fa6107f56107f0846107b5565b6107d5565b6107b5565b9050919050565b600061080c826107df565b9050919050565b600061081e82610801565b9050919050565b61082e81610813565b82525050565b60006020820190506108496000830184610825565b92915050565b61085881610752565b82525050565b6000602082019050610873600083018461084f565b92915050565b6000610884826107b5565b9050919050565b61089481610879565b82525050565b60006020820190506108af600083018461088b565b92915050565b60008115159050919050565b6108ca816108b5565b82525050565b60006020820190506108e560008301846108c1565b92915050565b60006108f6826107b5565b9050919050565b610906816108eb565b811461091157600080fd5b50565b600081359050610923816108fd565b92915050565b60006020828403121561093f5761093e61074d565b5b600061094d84828501610914565b91505092915050565b600082825260208201905092915050565b7f41756374696f6e20686173206e6f7420656e6465642079657400000000000000600082015250565b600061099d601983610956565b91506109a882610967565b602082019050919050565b600060208201905081810360008301526109cc81610990565b9050919050565b7f596f7520617265206e6f74207468652068696768657374206269646465720000600082015250565b6000610a09601e83610956565b9150610a14826109d3565b602082019050919050565b60006020820190508181036000830152610a38816109fc565b9050919050565b7f496e73756666696369656e7420457468205472616e7366657272656400000000600082015250565b6000610a75601c83610956565b9150610a8082610a3f565b602082019050919050565b60006020820190508181036000830152610aa481610a68565b9050919050565b7f5061796d656e7420616c7265616479206d616465000000000000000000000000600082015250565b6000610ae1601483610956565b9150610aec82610aab565b602082019050919050565b60006020820190508181036000830152610b1081610ad4565b9050919050565b6000610b2282610801565b9050919050565b610b3281610b17565b82525050565b610b41816108eb565b82525050565b6000606082019050610b5c6000830186610b29565b610b696020830185610b38565b610b76604083018461084f565b949350505050565b7f41756374696f6e2068617320656e646564000000000000000000000000000000600082015250565b6000610bb4601183610956565b9150610bbf82610b7e565b602082019050919050565b60006020820190508181036000830152610be381610ba7565b9050919050565b7f4f6e6c7920506f736974697665204269647320416c6c6f776564000000000000600082015250565b6000610c20601a83610956565b9150610c2b82610bea565b602082019050919050565b60006020820190508181036000830152610c4f81610c13565b9050919050565b7f416c726561647920426964000000000000000000000000000000000000000000600082015250565b6000610c8c600b83610956565b9150610c9782610c56565b602082019050919050565b60006020820190508181036000830152610cbb81610c7f565b905091905056fea2646970667358221220a51bf71831f7940006269276ba4ab2917b8edd2fc133c4e344bab098b655110964736f6c63430008110033",
					"opcodes": "PUSH1 0x80 PUSH1 0x40 MSTORE CALLVALUE DUP1 ISZERO PUSH3 0x11 JUMPI PUSH1 0x0 DUP1 REVERT JUMPDEST POP PUSH1 0x40 MLOAD PUSH3 0x1121 CODESIZE SUB DUP1 PUSH3 0x1121 DUP4 CODECOPY DUP2 DUP2 ADD PUSH1 0x40 MSTORE DUP2 ADD SWAP1 PUSH3 0x37 SWAP2 SWAP1 PUSH3 0x270 JUMP JUMPDEST CALLER PUSH20 0xFFFFFFFFFFFFFFFFFFFFFFFFFFFFFFFFFFFFFFFF AND DUP3 PUSH20 0xFFFFFFFFFFFFFFFFFFFFFFFFFFFFFFFFFFFFFFFF AND PUSH4 0x6352211E DUP4 PUSH1 0x40 MLOAD DUP3 PUSH4 0xFFFFFFFF AND PUSH1 0xE0 SHL DUP2 MSTORE PUSH1 0x4 ADD PUSH3 0x89 SWAP2 SWAP1 PUSH3 0x2DD JUMP JUMPDEST PUSH1 0x20 PUSH1 0x40 MLOAD DUP1 DUP4 SUB DUP2 DUP7 GAS STATICCALL ISZERO DUP1 ISZERO PUSH3 0xA7 JUMPI RETURNDATASIZE PUSH1 0x0 DUP1 RETURNDATACOPY RETURNDATASIZE PUSH1 0x0 REVERT JUMPDEST POP POP POP POP PUSH1 0x40 MLOAD RETURNDATASIZE PUSH1 0x1F NOT PUSH1 0x1F DUP3 ADD AND DUP3 ADD DUP1 PUSH1 0x40 MSTORE POP DUP2 ADD SWAP1 PUSH3 0xCD SWAP2 SWAP1 PUSH3 0x2FA JUMP JUMPDEST PUSH20 0xFFFFFFFFFFFFFFFFFFFFFFFFFFFFFFFFFFFFFFFF AND EQ PUSH3 0x126 JUMPI PUSH1 0x40 MLOAD PUSH32 0x8C379A000000000000000000000000000000000000000000000000000000000 DUP2 MSTORE PUSH1 0x4 ADD PUSH3 0x11D SWAP1 PUSH3 0x38D JUMP JUMPDEST PUSH1 0x40 MLOAD DUP1 SWAP2 SUB SWAP1 REVERT JUMPDEST CALLER PUSH1 0x0 DUP1 PUSH2 0x100 EXP DUP2 SLOAD DUP2 PUSH20 0xFFFFFFFFFFFFFFFFFFFFFFFFFFFFFFFFFFFFFFFF MUL NOT AND SWAP1 DUP4 PUSH20 0xFFFFFFFFFFFFFFFFFFFFFFFFFFFFFFFFFFFFFFFF AND MUL OR SWAP1 SSTORE POP DUP3 TIMESTAMP PUSH3 0x174 SWAP2 SWAP1 PUSH3 0x3DE JUMP JUMPDEST PUSH1 0x1 DUP2 SWAP1 SSTORE POP DUP2 PUSH1 0x4 PUSH1 0x0 PUSH2 0x100 EXP DUP2 SLOAD DUP2 PUSH20 0xFFFFFFFFFFFFFFFFFFFFFFFFFFFFFFFFFFFFFFFF MUL NOT AND SWAP1 DUP4 PUSH20 0xFFFFFFFFFFFFFFFFFFFFFFFFFFFFFFFFFFFFFFFF AND MUL OR SWAP1 SSTORE POP DUP1 PUSH1 0x5 DUP2 SWAP1 SSTORE POP POP POP POP PUSH3 0x419 JUMP JUMPDEST PUSH1 0x0 DUP1 REVERT JUMPDEST PUSH1 0x0 DUP2 SWAP1 POP SWAP2 SWAP1 POP JUMP JUMPDEST PUSH3 0x1E5 DUP2 PUSH3 0x1D0 JUMP JUMPDEST DUP2 EQ PUSH3 0x1F1 JUMPI PUSH1 0x0 DUP1 REVERT JUMPDEST POP JUMP JUMPDEST PUSH1 0x0 DUP2 MLOAD SWAP1 POP PUSH3 0x205 DUP2 PUSH3 0x1DA JUMP JUMPDEST SWAP3 SWAP2 POP POP JUMP JUMPDEST PUSH1 0x0 PUSH20 0xFFFFFFFFFFFFFFFFFFFFFFFFFFFFFFFFFFFFFFFF DUP3 AND SWAP1 POP SWAP2 SWAP1 POP JUMP JUMPDEST PUSH1 0x0 PUSH3 0x238 DUP3 PUSH3 0x20B JUMP JUMPDEST SWAP1 POP SWAP2 SWAP1 POP JUMP JUMPDEST PUSH3 0x24A DUP2 PUSH3 0x22B JUMP JUMPDEST DUP2 EQ PUSH3 0x256 JUMPI PUSH1 0x0 DUP1 REVERT JUMPDEST POP JUMP JUMPDEST PUSH1 0x0 DUP2 MLOAD SWAP1 POP PUSH3 0x26A DUP2 PUSH3 0x23F JUMP JUMPDEST SWAP3 SWAP2 POP POP JUMP JUMPDEST PUSH1 0x0 DUP1 PUSH1 0x0 PUSH1 0x60 DUP5 DUP7 SUB SLT ISZERO PUSH3 0x28C JUMPI PUSH3 0x28B PUSH3 0x1CB JUMP JUMPDEST JUMPDEST PUSH1 0x0 PUSH3 0x29C DUP7 DUP3 DUP8 ADD PUSH3 0x1F4 JUMP JUMPDEST SWAP4 POP POP PUSH1 0x20 PUSH3 0x2AF DUP7 DUP3 DUP8 ADD PUSH3 0x259 JUMP JUMPDEST SWAP3 POP POP PUSH1 0x40 PUSH3 0x2C2 DUP7 DUP3 DUP8 ADD PUSH3 0x1F4 JUMP JUMPDEST SWAP2 POP POP SWAP3 POP SWAP3 POP SWAP3 JUMP JUMPDEST PUSH3 0x2D7 DUP2 PUSH3 0x1D0 JUMP JUMPDEST DUP3 MSTORE POP POP JUMP JUMPDEST PUSH1 0x0 PUSH1 0x20 DUP3 ADD SWAP1 POP PUSH3 0x2F4 PUSH1 0x0 DUP4 ADD DUP5 PUSH3 0x2CC JUMP JUMPDEST SWAP3 SWAP2 POP POP JUMP JUMPDEST PUSH1 0x0 PUSH1 0x20 DUP3 DUP5 SUB SLT ISZERO PUSH3 0x313 JUMPI PUSH3 0x312 PUSH3 0x1CB JUMP JUMPDEST JUMPDEST PUSH1 0x0 PUSH3 0x323 DUP5 DUP3 DUP6 ADD PUSH3 0x259 JUMP JUMPDEST SWAP2 POP POP SWAP3 SWAP2 POP POP JUMP JUMPDEST PUSH1 0x0 DUP3 DUP3 MSTORE PUSH1 0x20 DUP3 ADD SWAP1 POP SWAP3 SWAP2 POP POP JUMP JUMPDEST PUSH32 0x41756374696F6E65657220646F6573206E6F74206F776E204E46540000000000 PUSH1 0x0 DUP3 ADD MSTORE POP JUMP JUMPDEST PUSH1 0x0 PUSH3 0x375 PUSH1 0x1B DUP4 PUSH3 0x32C JUMP JUMPDEST SWAP2 POP PUSH3 0x382 DUP3 PUSH3 0x33D JUMP JUMPDEST PUSH1 0x20 DUP3 ADD SWAP1 POP SWAP2 SWAP1 POP JUMP JUMPDEST PUSH1 0x0 PUSH1 0x20 DUP3 ADD SWAP1 POP DUP2 DUP2 SUB PUSH1 0x0 DUP4 ADD MSTORE PUSH3 0x3A8 DUP2 PUSH3 0x366 JUMP JUMPDEST SWAP1 POP SWAP2 SWAP1 POP JUMP JUMPDEST PUSH32 0x4E487B7100000000000000000000000000000000000000000000000000000000 PUSH1 0x0 MSTORE PUSH1 0x11 PUSH1 0x4 MSTORE PUSH1 0x24 PUSH1 0x0 REVERT JUMPDEST PUSH1 0x0 PUSH3 0x3EB DUP3 PUSH3 0x1D0 JUMP JUMPDEST SWAP2 POP PUSH3 0x3F8 DUP4 PUSH3 0x1D0 JUMP JUMPDEST SWAP3 POP DUP3 DUP3 ADD SWAP1 POP DUP1 DUP3 GT ISZERO PUSH3 0x413 JUMPI PUSH3 0x412 PUSH3 0x3AF JUMP JUMPDEST JUMPDEST SWAP3 SWAP2 POP POP JUMP JUMPDEST PUSH2 0xCF8 DUP1 PUSH3 0x429 PUSH1 0x0 CODECOPY PUSH1 0x0 RETURN INVALID PUSH1 0x80 PUSH1 0x40 MSTORE PUSH1 0x4 CALLDATASIZE LT PUSH2 0x91 JUMPI PUSH1 0x0 CALLDATALOAD PUSH1 0xE0 SHR DUP1 PUSH4 0xC6BC5182 GT PUSH2 0x59 JUMPI DUP1 PUSH4 0xC6BC5182 EQ PUSH2 0x14A JUMPI DUP1 PUSH4 0xC810AF81 EQ PUSH2 0x175 JUMPI DUP1 PUSH4 0xD2639DBF EQ PUSH2 0x1A0 JUMPI DUP1 PUSH4 0xD3924AAF EQ PUSH2 0x1DD JUMPI DUP1 PUSH4 0xD57BDE79 EQ PUSH2 0x208 JUMPI PUSH2 0x91 JUMP JUMPDEST DUP1 PUSH4 0x1B9265B8 EQ PUSH2 0x96 JUMPI DUP1 PUSH4 0x454A2AB3 EQ PUSH2 0xA0 JUMPI DUP1 PUSH4 0x47CCCA02 EQ PUSH2 0xC9 JUMPI DUP1 PUSH4 0x4B449CBA EQ PUSH2 0xF4 JUMPI DUP1 PUSH4 0x91F90157 EQ PUSH2 0x11F JUMPI JUMPDEST PUSH1 0x0 DUP1 REVERT JUMPDEST PUSH2 0x9E PUSH2 0x233 JUMP JUMPDEST STOP JUMPDEST CALLVALUE DUP1 ISZERO PUSH2 0xAC JUMPI PUSH1 0x0 DUP1 REVERT JUMPDEST POP PUSH2 0xC7 PUSH1 0x4 DUP1 CALLDATASIZE SUB DUP2 ADD SWAP1 PUSH2 0xC2 SWAP2 SWAP1 PUSH2 0x788 JUMP JUMPDEST PUSH2 0x4D5 JUMP JUMPDEST STOP JUMPDEST CALLVALUE DUP1 ISZERO PUSH2 0xD5 JUMPI PUSH1 0x0 DUP1 REVERT JUMPDEST POP PUSH2 0xDE PUSH2 0x698 JUMP JUMPDEST PUSH1 0x40 MLOAD PUSH2 0xEB SWAP2 SWAP1 PUSH2 0x834 JUMP JUMPDEST PUSH1 0x40 MLOAD DUP1 SWAP2 SUB SWAP1 RETURN JUMPDEST CALLVALUE DUP1 ISZERO PUSH2 0x100 JUMPI PUSH1 0x0 DUP1 REVERT JUMPDEST POP PUSH2 0x109 PUSH2 0x6BE JUMP JUMPDEST PUSH1 0x40 MLOAD PUSH2 0x116 SWAP2 SWAP1 PUSH2 0x85E JUMP JUMPDEST PUSH1 0x40 MLOAD DUP1 SWAP2 SUB SWAP1 RETURN JUMPDEST CALLVALUE DUP1 ISZERO PUSH2 0x12B JUMPI PUSH1 0x0 DUP1 REVERT JUMPDEST POP PUSH2 0x134 PUSH2 0x6C4 JUMP JUMPDEST PUSH1 0x40 MLOAD PUSH2 0x141 SWAP2 SWAP1 PUSH2 0x89A JUMP JUMPDEST PUSH1 0x40 MLOAD DUP1 SWAP2 SUB SWAP1 RETURN JUMPDEST CALLVALUE DUP1 ISZERO PUSH2 0x156 JUMPI PUSH1 0x0 DUP1 REVERT JUMPDEST POP PUSH2 0x15F PUSH2 0x6EA JUMP JUMPDEST PUSH1 0x40 MLOAD PUSH2 0x16C SWAP2 SWAP1 PUSH2 0x85E JUMP JUMPDEST PUSH1 0x40 MLOAD DUP1 SWAP2 SUB SWAP1 RETURN JUMPDEST CALLVALUE DUP1 ISZERO PUSH2 0x181 JUMPI PUSH1 0x0 DUP1 REVERT JUMPDEST POP PUSH2 0x18A PUSH2 0x6F0 JUMP JUMPDEST PUSH1 0x40 MLOAD PUSH2 0x197 SWAP2 SWAP1 PUSH2 0x8D0 JUMP JUMPDEST PUSH1 0x40 MLOAD DUP1 SWAP2 SUB SWAP1 RETURN JUMPDEST CALLVALUE DUP1 ISZERO PUSH2 0x1AC JUMPI PUSH1 0x0 DUP1 REVERT JUMPDEST POP PUSH2 0x1C7 PUSH1 0x4 DUP1 CALLDATASIZE SUB DUP2 ADD SWAP1 PUSH2 0x1C2 SWAP2 SWAP1 PUSH2 0x929 JUMP JUMPDEST PUSH2 0x703 JUMP JUMPDEST PUSH1 0x40 MLOAD PUSH2 0x1D4 SWAP2 SWAP1 PUSH2 0x8D0 JUMP JUMPDEST PUSH1 0x40 MLOAD DUP1 SWAP2 SUB SWAP1 RETURN JUMPDEST CALLVALUE DUP1 ISZERO PUSH2 0x1E9 JUMPI PUSH1 0x0 DUP1 REVERT JUMPDEST POP PUSH2 0x1F2 PUSH2 0x723 JUMP JUMPDEST PUSH1 0x40 MLOAD PUSH2 0x1FF SWAP2 SWAP1 PUSH2 0x89A JUMP JUMPDEST PUSH1 0x40 MLOAD DUP1 SWAP2 SUB SWAP1 RETURN JUMPDEST CALLVALUE DUP1 ISZERO PUSH2 0x214 JUMPI PUSH1 0x0 DUP1 REVERT JUMPDEST POP PUSH2 0x21D PUSH2 0x747 JUMP JUMPDEST PUSH1 0x40 MLOAD PUSH2 0x22A SWAP2 SWAP1 PUSH2 0x85E JUMP JUMPDEST PUSH1 0x40 MLOAD DUP1 SWAP2 SUB SWAP1 RETURN JUMPDEST PUSH1 0x1 SLOAD TIMESTAMP LT ISZERO PUSH2 0x278 JUMPI PUSH1 0x40 MLOAD PUSH32 0x8C379A000000000000000000000000000000000000000000000000000000000 DUP2 MSTORE PUSH1 0x4 ADD PUSH2 0x26F SWAP1 PUSH2 0x9B3 JUMP JUMPDEST PUSH1 0x40 MLOAD DUP1 SWAP2 SUB SWAP1 REVERT JUMPDEST PUSH1 0x3 PUSH1 0x0 SWAP1 SLOAD SWAP1 PUSH2 0x100 EXP SWAP1 DIV PUSH20 0xFFFFFFFFFFFFFFFFFFFFFFFFFFFFFFFFFFFFFFFF AND PUSH20 0xFFFFFFFFFFFFFFFFFFFFFFFFFFFFFFFFFFFFFFFF AND CALLER PUSH20 0xFFFFFFFFFFFFFFFFFFFFFFFFFFFFFFFFFFFFFFFF AND EQ PUSH2 0x308 JUMPI PUSH1 0x40 MLOAD PUSH32 0x8C379A000000000000000000000000000000000000000000000000000000000 DUP2 MSTORE PUSH1 0x4 ADD PUSH2 0x2FF SWAP1 PUSH2 0xA1F JUMP JUMPDEST PUSH1 0x40 MLOAD DUP1 SWAP2 SUB SWAP1 REVERT JUMPDEST PUSH1 0x2 SLOAD CALLVALUE EQ PUSH2 0x34C JUMPI PUSH1 0x40 MLOAD PUSH32 0x8C379A000000000000000000000000000000000000000000000000000000000 DUP2 MSTORE PUSH1 0x4 ADD PUSH2 0x343 SWAP1 PUSH2 0xA8B JUMP JUMPDEST PUSH1 0x40 MLOAD DUP1 SWAP2 SUB SWAP1 REVERT JUMPDEST PUSH1 0x3 PUSH1 0x14 SWAP1 SLOAD SWAP1 PUSH2 0x100 EXP SWAP1 DIV PUSH1 0xFF AND ISZERO PUSH2 0x39C JUMPI PUSH1 0x40 MLOAD PUSH32 0x8C379A000000000000000000000000000000000000000000000000000000000 DUP2 MSTORE PUSH1 0x4 ADD PUSH2 0x393 SWAP1 PUSH2 0xAF7 JUMP JUMPDEST PUSH1 0x40 MLOAD DUP1 SWAP2 SUB SWAP1 REVERT JUMPDEST PUSH1 0x1 PUSH1 0x3 PUSH1 0x14 PUSH2 0x100 EXP DUP2 SLOAD DUP2 PUSH1 0xFF MUL NOT AND SWAP1 DUP4 ISZERO ISZERO MUL OR SWAP1 SSTORE POP PUSH1 0x0 DUP1 SLOAD SWAP1 PUSH2 0x100 EXP SWAP1 DIV PUSH20 0xFFFFFFFFFFFFFFFFFFFFFFFFFFFFFFFFFFFFFFFF AND PUSH20 0xFFFFFFFFFFFFFFFFFFFFFFFFFFFFFFFFFFFFFFFF AND PUSH2 0x8FC PUSH1 0x2 SLOAD SWAP1 DUP2 ISZERO MUL SWAP1 PUSH1 0x40 MLOAD PUSH1 0x0 PUSH1 0x40 MLOAD DUP1 DUP4 SUB DUP2 DUP6 DUP9 DUP9 CALL SWAP4 POP POP POP POP ISZERO DUP1 ISZERO PUSH2 0x41F JUMPI RETURNDATASIZE PUSH1 0x0 DUP1 RETURNDATACOPY RETURNDATASIZE PUSH1 0x0 REVERT JUMPDEST POP PUSH1 0x4 PUSH1 0x0 SWAP1 SLOAD SWAP1 PUSH2 0x100 EXP SWAP1 DIV PUSH20 0xFFFFFFFFFFFFFFFFFFFFFFFFFFFFFFFFFFFFFFFF AND PUSH20 0xFFFFFFFFFFFFFFFFFFFFFFFFFFFFFFFFFFFFFFFF AND PUSH4 0x42842E0E PUSH1 0x0 DUP1 SLOAD SWAP1 PUSH2 0x100 EXP SWAP1 DIV PUSH20 0xFFFFFFFFFFFFFFFFFFFFFFFFFFFFFFFFFFFFFFFF AND CALLER PUSH1 0x5 SLOAD PUSH1 0x40 MLOAD DUP5 PUSH4 0xFFFFFFFF AND PUSH1 0xE0 SHL DUP2 MSTORE PUSH1 0x4 ADD PUSH2 0x4A1 SWAP4 SWAP3 SWAP2 SWAP1 PUSH2 0xB47 JUMP JUMPDEST PUSH1 0x0 PUSH1 0x40 MLOAD DUP1 DUP4 SUB DUP2 PUSH1 0x0 DUP8 DUP1 EXTCODESIZE ISZERO DUP1 ISZERO PUSH2 0x4BB JUMPI PUSH1 0x0 DUP1 REVERT JUMPDEST POP GAS CALL ISZERO DUP1 ISZERO PUSH2 0x4CF JUMPI RETURNDATASIZE PUSH1 0x0 DUP1 RETURNDATACOPY RETURNDATASIZE PUSH1 0x0 REVERT JUMPDEST POP POP POP POP JUMP JUMPDEST PUSH1 0x1 SLOAD TIMESTAMP GT ISZERO PUSH2 0x51A JUMPI PUSH1 0x40 MLOAD PUSH32 0x8C379A000000000000000000000000000000000000000000000000000000000 DUP2 MSTORE PUSH1 0x4 ADD PUSH2 0x511 SWAP1 PUSH2 0xBCA JUMP JUMPDEST PUSH1 0x40 MLOAD DUP1 SWAP2 SUB SWAP1 REVERT JUMPDEST PUSH1 0x0 DUP2 GT PUSH2 0x55D JUMPI PUSH1 0x40 MLOAD PUSH32 0x8C379A000000000000000000000000000000000000000000000000000000000 DUP2 MSTORE PUSH1 0x4 ADD PUSH2 0x554 SWAP1 PUSH2 0xC36 JUMP JUMPDEST PUSH1 0x40 MLOAD DUP1 SWAP2 SUB SWAP1 REVERT JUMPDEST PUSH1 0x6 PUSH1 0x0 CALLER PUSH20 0xFFFFFFFFFFFFFFFFFFFFFFFFFFFFFFFFFFFFFFFF AND PUSH20 0xFFFFFFFFFFFFFFFFFFFFFFFFFFFFFFFFFFFFFFFF AND DUP2 MSTORE PUSH1 0x20 ADD SWAP1 DUP2 MSTORE PUSH1 0x20 ADD PUSH1 0x0 KECCAK256 PUSH1 0x0 SWAP1 SLOAD SWAP1 PUSH2 0x100 EXP SWAP1 DIV PUSH1 0xFF AND ISZERO PUSH2 0x5EA JUMPI PUSH1 0x40 MLOAD PUSH32 0x8C379A000000000000000000000000000000000000000000000000000000000 DUP2 MSTORE PUSH1 0x4 ADD PUSH2 0x5E1 SWAP1 PUSH2 0xCA2 JUMP JUMPDEST PUSH1 0x40 MLOAD DUP1 SWAP2 SUB SWAP1 REVERT JUMPDEST PUSH1 0x1 PUSH1 0x6 PUSH1 0x0 CALLER PUSH20 0xFFFFFFFFFFFFFFFFFFFFFFFFFFFFFFFFFFFFFFFF AND PUSH20 0xFFFFFFFFFFFFFFFFFFFFFFFFFFFFFFFFFFFFFFFF AND DUP2 MSTORE PUSH1 0x20 ADD SWAP1 DUP2 MSTORE PUSH1 0x20 ADD PUSH1 0x0 KECCAK256 PUSH1 0x0 PUSH2 0x100 EXP DUP2 SLOAD DUP2 PUSH1 0xFF MUL NOT AND SWAP1 DUP4 ISZERO ISZERO MUL OR SWAP1 SSTORE POP PUSH1 0x2 SLOAD DUP2 GT ISZERO PUSH2 0x695 JUMPI DUP1 PUSH1 0x2 DUP2 SWAP1 SSTORE POP CALLER PUSH1 0x3 PUSH1 0x0 PUSH2 0x100 EXP DUP2 SLOAD DUP2 PUSH20 0xFFFFFFFFFFFFFFFFFFFFFFFFFFFFFFFFFFFFFFFF MUL NOT AND SWAP1 DUP4 PUSH20 0xFFFFFFFFFFFFFFFFFFFFFFFFFFFFFFFFFFFFFFFF AND MUL OR SWAP1 SSTORE POP JUMPDEST POP JUMP JUMPDEST PUSH1 0x4 PUSH1 0x0 SWAP1 SLOAD SWAP1 PUSH2 0x100 EXP SWAP1 DIV PUSH20 0xFFFFFFFFFFFFFFFFFFFFFFFFFFFFFFFFFFFFFFFF AND DUP2 JUMP JUMPDEST PUSH1 0x1 SLOAD DUP2 JUMP JUMPDEST PUSH1 0x3 PUSH1 0x0 SWAP1 SLOAD SWAP1 PUSH2 0x100 EXP SWAP1 DIV PUSH20 0xFFFFFFFFFFFFFFFFFFFFFFFFFFFFFFFFFFFFFFFF AND DUP2 JUMP JUMPDEST PUSH1 0x5 SLOAD DUP2 JUMP JUMPDEST PUSH1 0x3 PUSH1 0x14 SWAP1 SLOAD SWAP1 PUSH2 0x100 EXP SWAP1 DIV PUSH1 0xFF AND DUP2 JUMP JUMPDEST PUSH1 0x6 PUSH1 0x20 MSTORE DUP1 PUSH1 0x0 MSTORE PUSH1 0x40 PUSH1 0x0 KECCAK256 PUSH1 0x0 SWAP2 POP SLOAD SWAP1 PUSH2 0x100 EXP SWAP1 DIV PUSH1 0xFF AND DUP2 JUMP JUMPDEST PUSH1 0x0 DUP1 SLOAD SWAP1 PUSH2 0x100 EXP SWAP1 DIV PUSH20 0xFFFFFFFFFFFFFFFFFFFFFFFFFFFFFFFFFFFFFFFF AND DUP2 JUMP JUMPDEST PUSH1 0x2 SLOAD DUP2 JUMP JUMPDEST PUSH1 0x0 DUP1 REVERT JUMPDEST PUSH1 0x0 DUP2 SWAP1 POP SWAP2 SWAP1 POP JUMP JUMPDEST PUSH2 0x765 DUP2 PUSH2 0x752 JUMP JUMPDEST DUP2 EQ PUSH2 0x770 JUMPI PUSH1 0x0 DUP1 REVERT JUMPDEST POP JUMP JUMPDEST PUSH1 0x0 DUP2 CALLDATALOAD SWAP1 POP PUSH2 0x782 DUP2 PUSH2 0x75C JUMP JUMPDEST SWAP3 SWAP2 POP POP JUMP JUMPDEST PUSH1 0x0 PUSH1 0x20 DUP3 DUP5 SUB SLT ISZERO PUSH2 0x79E JUMPI PUSH2 0x79D PUSH2 0x74D JUMP JUMPDEST JUMPDEST PUSH1 0x0 PUSH2 0x7AC DUP5 DUP3 DUP6 ADD PUSH2 0x773 JUMP JUMPDEST SWAP2 POP POP SWAP3 SWAP2 POP POP JUMP JUMPDEST PUSH1 0x0 PUSH20 0xFFFFFFFFFFFFFFFFFFFFFFFFFFFFFFFFFFFFFFFF DUP3 AND SWAP1 POP SWAP2 SWAP1 POP JUMP JUMPDEST PUSH1 0x0 DUP2 SWAP1 POP SWAP2 SWAP1 POP JUMP JUMPDEST PUSH1 0x0 PUSH2 0x7FA PUSH2 0x7F5 PUSH2 0x7F0 DUP5 PUSH2 0x7B5 JUMP JUMPDEST PUSH2 0x7D5 JUMP JUMPDEST PUSH2 0x7B5 JUMP JUMPDEST SWAP1 POP SWAP2 SWAP1 POP JUMP JUMPDEST PUSH1 0x0 PUSH2 0x80C DUP3 PUSH2 0x7DF JUMP JUMPDEST SWAP1 POP SWAP2 SWAP1 POP JUMP JUMPDEST PUSH1 0x0 PUSH2 0x81E DUP3 PUSH2 0x801 JUMP JUMPDEST SWAP1 POP SWAP2 SWAP1 POP JUMP JUMPDEST PUSH2 0x82E DUP2 PUSH2 0x813 JUMP JUMPDEST DUP3 MSTORE POP POP JUMP JUMPDEST PUSH1 0x0 PUSH1 0x20 DUP3 ADD SWAP1 POP PUSH2 0x849 PUSH1 0x0 DUP4 ADD DUP5 PUSH2 0x825 JUMP JUMPDEST SWAP3 SWAP2 POP POP JUMP JUMPDEST PUSH2 0x858 DUP2 PUSH2 0x752 JUMP JUMPDEST DUP3 MSTORE POP POP JUMP JUMPDEST PUSH1 0x0 PUSH1 0x20 DUP3 ADD SWAP1 POP PUSH2 0x873 PUSH1 0x0 DUP4 ADD DUP5 PUSH2 0x84F JUMP JUMPDEST SWAP3 SWAP2 POP POP JUMP JUMPDEST PUSH1 0x0 PUSH2 0x884 DUP3 PUSH2 0x7B5 JUMP JUMPDEST SWAP1 POP SWAP2 SWAP1 POP JUMP JUMPDEST PUSH2 0x894 DUP2 PUSH2 0x879 JUMP JUMPDEST DUP3 MSTORE POP POP JUMP JUMPDEST PUSH1 0x0 PUSH1 0x20 DUP3 ADD SWAP1 POP PUSH2 0x8AF PUSH1 0x0 DUP4 ADD DUP5 PUSH2 0x88B JUMP JUMPDEST SWAP3 SWAP2 POP POP JUMP JUMPDEST PUSH1 0x0 DUP2 ISZERO ISZERO SWAP1 POP SWAP2 SWAP1 POP JUMP JUMPDEST PUSH2 0x8CA DUP2 PUSH2 0x8B5 JUMP JUMPDEST DUP3 MSTORE POP POP JUMP JUMPDEST PUSH1 0x0 PUSH1 0x20 DUP3 ADD SWAP1 POP PUSH2 0x8E5 PUSH1 0x0 DUP4 ADD DUP5 PUSH2 0x8C1 JUMP JUMPDEST SWAP3 SWAP2 POP POP JUMP JUMPDEST PUSH1 0x0 PUSH2 0x8F6 DUP3 PUSH2 0x7B5 JUMP JUMPDEST SWAP1 POP SWAP2 SWAP1 POP JUMP JUMPDEST PUSH2 0x906 DUP2 PUSH2 0x8EB JUMP JUMPDEST DUP2 EQ PUSH2 0x911 JUMPI PUSH1 0x0 DUP1 REVERT JUMPDEST POP JUMP JUMPDEST PUSH1 0x0 DUP2 CALLDATALOAD SWAP1 POP PUSH2 0x923 DUP2 PUSH2 0x8FD JUMP JUMPDEST SWAP3 SWAP2 POP POP JUMP JUMPDEST PUSH1 0x0 PUSH1 0x20 DUP3 DUP5 SUB SLT ISZERO PUSH2 0x93F JUMPI PUSH2 0x93E PUSH2 0x74D JUMP JUMPDEST JUMPDEST PUSH1 0x0 PUSH2 0x94D DUP5 DUP3 DUP6 ADD PUSH2 0x914 JUMP JUMPDEST SWAP2 POP POP SWAP3 SWAP2 POP POP JUMP JUMPDEST PUSH1 0x0 DUP3 DUP3 MSTORE PUSH1 0x20 DUP3 ADD SWAP1 POP SWAP3 SWAP2 POP POP JUMP JUMPDEST PUSH32 0x41756374696F6E20686173206E6F7420656E6465642079657400000000000000 PUSH1 0x0 DUP3 ADD MSTORE POP JUMP JUMPDEST PUSH1 0x0 PUSH2 0x99D PUSH1 0x19 DUP4 PUSH2 0x956 JUMP JUMPDEST SWAP2 POP PUSH2 0x9A8 DUP3 PUSH2 0x967 JUMP JUMPDEST PUSH1 0x20 DUP3 ADD SWAP1 POP SWAP2 SWAP1 POP JUMP JUMPDEST PUSH1 0x0 PUSH1 0x20 DUP3 ADD SWAP1 POP DUP2 DUP2 SUB PUSH1 0x0 DUP4 ADD MSTORE PUSH2 0x9CC DUP2 PUSH2 0x990 JUMP JUMPDEST SWAP1 POP SWAP2 SWAP1 POP JUMP JUMPDEST PUSH32 0x596F7520617265206E6F74207468652068696768657374206269646465720000 PUSH1 0x0 DUP3 ADD MSTORE POP JUMP JUMPDEST PUSH1 0x0 PUSH2 0xA09 PUSH1 0x1E DUP4 PUSH2 0x956 JUMP JUMPDEST SWAP2 POP PUSH2 0xA14 DUP3 PUSH2 0x9D3 JUMP JUMPDEST PUSH1 0x20 DUP3 ADD SWAP1 POP SWAP2 SWAP1 POP JUMP JUMPDEST PUSH1 0x0 PUSH1 0x20 DUP3 ADD SWAP1 POP DUP2 DUP2 SUB PUSH1 0x0 DUP4 ADD MSTORE PUSH2 0xA38 DUP2 PUSH2 0x9FC JUMP JUMPDEST SWAP1 POP SWAP2 SWAP1 POP JUMP JUMPDEST PUSH32 0x496E73756666696369656E7420457468205472616E7366657272656400000000 PUSH1 0x0 DUP3 ADD MSTORE POP JUMP JUMPDEST PUSH1 0x0 PUSH2 0xA75 PUSH1 0x1C DUP4 PUSH2 0x956 JUMP JUMPDEST SWAP2 POP PUSH2 0xA80 DUP3 PUSH2 0xA3F JUMP JUMPDEST PUSH1 0x20 DUP3 ADD SWAP1 POP SWAP2 SWAP1 POP JUMP JUMPDEST PUSH1 0x0 PUSH1 0x20 DUP3 ADD SWAP1 POP DUP2 DUP2 SUB PUSH1 0x0 DUP4 ADD MSTORE PUSH2 0xAA4 DUP2 PUSH2 0xA68 JUMP JUMPDEST SWAP1 POP SWAP2 SWAP1 POP JUMP JUMPDEST PUSH32 0x5061796D656E7420616C7265616479206D616465000000000000000000000000 PUSH1 0x0 DUP3 ADD MSTORE POP JUMP JUMPDEST PUSH1 0x0 PUSH2 0xAE1 PUSH1 0x14 DUP4 PUSH2 0x956 JUMP JUMPDEST SWAP2 POP PUSH2 0xAEC DUP3 PUSH2 0xAAB JUMP JUMPDEST PUSH1 0x20 DUP3 ADD SWAP1 POP SWAP2 SWAP1 POP JUMP JUMPDEST PUSH1 0x0 PUSH1 0x20 DUP3 ADD SWAP1 POP DUP2 DUP2 SUB PUSH1 0x0 DUP4 ADD MSTORE PUSH2 0xB10 DUP2 PUSH2 0xAD4 JUMP JUMPDEST SWAP1 POP SWAP2 SWAP1 POP JUMP JUMPDEST PUSH1 0x0 PUSH2 0xB22 DUP3 PUSH2 0x801 JUMP JUMPDEST SWAP1 POP SWAP2 SWAP1 POP JUMP JUMPDEST PUSH2 0xB32 DUP2 PUSH2 0xB17 JUMP JUMPDEST DUP3 MSTORE POP POP JUMP JUMPDEST PUSH2 0xB41 DUP2 PUSH2 0x8EB JUMP JUMPDEST DUP3 MSTORE POP POP JUMP JUMPDEST PUSH1 0x0 PUSH1 0x60 DUP3 ADD SWAP1 POP PUSH2 0xB5C PUSH1 0x0 DUP4 ADD DUP7 PUSH2 0xB29 JUMP JUMPDEST PUSH2 0xB69 PUSH1 0x20 DUP4 ADD DUP6 PUSH2 0xB38 JUMP JUMPDEST PUSH2 0xB76 PUSH1 0x40 DUP4 ADD DUP5 PUSH2 0x84F JUMP JUMPDEST SWAP5 SWAP4 POP POP POP POP JUMP JUMPDEST PUSH32 0x41756374696F6E2068617320656E646564000000000000000000000000000000 PUSH1 0x0 DUP3 ADD MSTORE POP JUMP JUMPDEST PUSH1 0x0 PUSH2 0xBB4 PUSH1 0x11 DUP4 PUSH2 0x956 JUMP JUMPDEST SWAP2 POP PUSH2 0xBBF DUP3 PUSH2 0xB7E JUMP JUMPDEST PUSH1 0x20 DUP3 ADD SWAP1 POP SWAP2 SWAP1 POP JUMP JUMPDEST PUSH1 0x0 PUSH1 0x20 DUP3 ADD SWAP1 POP DUP2 DUP2 SUB PUSH1 0x0 DUP4 ADD MSTORE PUSH2 0xBE3 DUP2 PUSH2 0xBA7 JUMP JUMPDEST SWAP1 POP SWAP2 SWAP1 POP JUMP JUMPDEST PUSH32 0x4F6E6C7920506F736974697665204269647320416C6C6F776564000000000000 PUSH1 0x0 DUP3 ADD MSTORE POP JUMP JUMPDEST PUSH1 0x0 PUSH2 0xC20 PUSH1 0x1A DUP4 PUSH2 0x956 JUMP JUMPDEST SWAP2 POP PUSH2 0xC2B DUP3 PUSH2 0xBEA JUMP JUMPDEST PUSH1 0x20 DUP3 ADD SWAP1 POP SWAP2 SWAP1 POP JUMP JUMPDEST PUSH1 0x0 PUSH1 0x20 DUP3 ADD SWAP1 POP DUP2 DUP2 SUB PUSH1 0x0 DUP4 ADD MSTORE PUSH2 0xC4F DUP2 PUSH2 0xC13 JUMP JUMPDEST SWAP1 POP SWAP2 SWAP1 POP JUMP JUMPDEST PUSH32 0x416C726561647920426964000000000000000000000000000000000000000000 PUSH1 0x0 DUP3 ADD MSTORE POP JUMP JUMPDEST PUSH1 0x0 PUSH2 0xC8C PUSH1 0xB DUP4 PUSH2 0x956 JUMP JUMPDEST SWAP2 POP PUSH2 0xC97 DUP3 PUSH2 0xC56 JUMP JUMPDEST PUSH1 0x20 DUP3 ADD SWAP1 POP SWAP2 SWAP1 POP JUMP JUMPDEST PUSH1 0x0 PUSH1 0x20 DUP3 ADD SWAP1 POP DUP2 DUP2 SUB PUSH1 0x0 DUP4 ADD MSTORE PUSH2 0xCBB DUP2 PUSH2 0xC7F JUMP JUMPDEST SWAP1 POP SWAP2 SWAP1 POP JUMP INVALID LOG2 PUSH5 0x6970667358 0x22 SLT KECCAK256 0xA5 SHL 0xF7 XOR BALANCE 0xF7 SWAP5 STOP MOD 0x26 SWAP3 PUSH23 0xBA4AB2917B8EDD2FC133C4E344BAB098B655110964736F PUSH13 0x63430008110033000000000000 "
				},
				"gasEstimates": {
					"creation": {
						"codeDepositCost": "664000",
						"executionCost": "infinite",
						"totalCost": "infinite"
					},
					"external": {
						"auctionEndTime()": "2496",
						"auctionOwner()": "2577",
						"bid(uint256)": "77684",
						"hasBid(address)": "2889",
						"hasPaid()": "2543",
						"highestBid()": "2517",
						"highestBidder()": "2603",
						"nft()": "infinite",
						"nftId()": "2429",
						"pay()": "infinite"
					}
				},
				"methodIdentifiers": {
					"auctionEndTime()": "4b449cba",
					"auctionOwner()": "d3924aaf",
					"bid(uint256)": "454a2ab3",
					"hasBid(address)": "d2639dbf",
					"hasPaid()": "c810af81",
					"highestBid()": "d57bde79",
					"highestBidder()": "91f90157",
					"nft()": "47ccca02",
					"nftId()": "c6bc5182",
					"pay()": "1b9265b8"
				}
			},
			"storageLayout": {
				"storage": [
					{
						"astId": 132,
						"contract": "firstPriceAuction.sol:firstPriceAuction",
						"label": "auctionOwner",
						"offset": 0,
						"slot": "0",
						"type": "t_address_payable"
					},
					{
						"astId": 134,
						"contract": "firstPriceAuction.sol:firstPriceAuction",
						"label": "auctionEndTime",
						"offset": 0,
						"slot": "1",
						"type": "t_uint256"
					},
					{
						"astId": 136,
						"contract": "firstPriceAuction.sol:firstPriceAuction",
						"label": "highestBid",
						"offset": 0,
						"slot": "2",
						"type": "t_uint256"
					},
					{
						"astId": 138,
						"contract": "firstPriceAuction.sol:firstPriceAuction",
						"label": "highestBidder",
						"offset": 0,
						"slot": "3",
						"type": "t_address_payable"
					},
					{
						"astId": 140,
						"contract": "firstPriceAuction.sol:firstPriceAuction",
						"label": "hasPaid",
						"offset": 20,
						"slot": "3",
						"type": "t_bool"
					},
					{
						"astId": 143,
						"contract": "firstPriceAuction.sol:firstPriceAuction",
						"label": "nft",
						"offset": 0,
						"slot": "4",
						"type": "t_contract(IERC721)115"
					},
					{
						"astId": 145,
						"contract": "firstPriceAuction.sol:firstPriceAuction",
						"label": "nftId",
						"offset": 0,
						"slot": "5",
						"type": "t_uint256"
					},
					{
						"astId": 149,
						"contract": "firstPriceAuction.sol:firstPriceAuction",
						"label": "hasBid",
						"offset": 0,
						"slot": "6",
						"type": "t_mapping(t_address,t_bool)"
					}
				],
				"types": {
					"t_address": {
						"encoding": "inplace",
						"label": "address",
						"numberOfBytes": "20"
					},
					"t_address_payable": {
						"encoding": "inplace",
						"label": "address payable",
						"numberOfBytes": "20"
					},
					"t_bool": {
						"encoding": "inplace",
						"label": "bool",
						"numberOfBytes": "1"
					},
					"t_contract(IERC721)115": {
						"encoding": "inplace",
						"label": "contract IERC721",
						"numberOfBytes": "20"
					},
					"t_mapping(t_address,t_bool)": {
						"encoding": "mapping",
						"key": "t_address",
						"label": "mapping(address => bool)",
						"numberOfBytes": "32",
						"value": "t_bool"
					},
					"t_uint256": {
						"encoding": "inplace",
						"label": "uint256",
						"numberOfBytes": "32"
					}
				}
			},
			"userdoc": {
				"kind": "user",
				"methods": {},
				"version": 1
			}
		}
	}
}