{
	"SealedBidAuction.sol": {
		"SealedBidAuction": {
			"abi": [
				{
					"inputs": [
						{
							"internalType": "uint256",
							"name": "biddingTime",
							"type": "uint256"
						},
						{
							"internalType": "address",
							"name": "thenft",
							"type": "address"
						},
						{
							"internalType": "uint256",
							"name": "thenftid",
							"type": "uint256"
						}
					],
					"stateMutability": "nonpayable",
					"type": "constructor"
				},
				{
					"inputs": [],
					"name": "auctionEndTime",
					"outputs": [
						{
							"internalType": "uint256",
							"name": "",
							"type": "uint256"
						}
					],
					"stateMutability": "view",
					"type": "function"
				},
				{
					"inputs": [],
					"name": "auctionOwner",
					"outputs": [
						{
							"internalType": "address payable",
							"name": "",
							"type": "address"
						}
					],
					"stateMutability": "view",
					"type": "function"
				},
				{
					"inputs": [],
					"name": "hasPaid",
					"outputs": [
						{
							"internalType": "bool",
							"name": "",
							"type": "bool"
						}
					],
					"stateMutability": "view",
					"type": "function"
				},
				{
					"inputs": [
						{
							"internalType": "address",
							"name": "",
							"type": "address"
						}
					],
					"name": "hashedBids",
					"outputs": [
						{
							"internalType": "bytes32",
							"name": "",
							"type": "bytes32"
						}
					],
					"stateMutability": "view",
					"type": "function"
				},
				{
					"inputs": [],
					"name": "highestBid",
					"outputs": [
						{
							"internalType": "uint256",
							"name": "",
							"type": "uint256"
						}
					],
					"stateMutability": "view",
					"type": "function"
				},
				{
					"inputs": [],
					"name": "highestBidder",
					"outputs": [
						{
							"internalType": "address payable",
							"name": "",
							"type": "address"
						}
					],
					"stateMutability": "view",
					"type": "function"
				},
				{
					"inputs": [],
					"name": "nft",
					"outputs": [
						{
							"internalType": "contract IERC721",
							"name": "",
							"type": "address"
						}
					],
					"stateMutability": "view",
					"type": "function"
				},
				{
					"inputs": [],
					"name": "nftId",
					"outputs": [
						{
							"internalType": "uint256",
							"name": "",
							"type": "uint256"
						}
					],
					"stateMutability": "view",
					"type": "function"
				},
				{
					"inputs": [],
					"name": "pay",
					"outputs": [],
					"stateMutability": "payable",
					"type": "function"
				},
				{
					"inputs": [
						{
							"internalType": "uint256",
							"name": "actualBid",
							"type": "uint256"
						}
					],
					"name": "revealBid",
					"outputs": [],
					"stateMutability": "nonpayable",
					"type": "function"
				},
				{
					"inputs": [
						{
							"internalType": "bytes32",
							"name": "bid",
							"type": "bytes32"
						}
					],
					"name": "submitBid",
					"outputs": [],
					"stateMutability": "nonpayable",
					"type": "function"
				}
			],
			"devdoc": {
				"kind": "dev",
				"methods": {},
				"version": 1
			},
			"evm": {
				"assembly": "    /* \"SealedBidAuction.sol\":116:1892  contract SealedBidAuction {... */\n  mstore(0x40, 0x80)\n    /* \"SealedBidAuction.sol\":416:738  constructor(uint biddingTime, address thenft, uint thenftid) {... */\n  callvalue\n  dup1\n  iszero\n  tag_1\n  jumpi\n  0x00\n  dup1\n  revert\ntag_1:\n  pop\n  mload(0x40)\n  sub(codesize, bytecodeSize)\n  dup1\n  bytecodeSize\n  dup4\n  codecopy\n  dup2\n  dup2\n  add\n  0x40\n  mstore\n  dup2\n  add\n  swap1\n  tag_2\n  swap2\n  swap1\n  tag_3\n  jump\t// in\ntag_2:\n    /* \"SealedBidAuction.sol\":532:542  msg.sender */\n  caller\n    /* \"SealedBidAuction.sol\":495:542  IERC721(thenft).ownerOf(thenftid) == msg.sender */\n  0xffffffffffffffffffffffffffffffffffffffff\n  and\n    /* \"SealedBidAuction.sol\":503:509  thenft */\n  dup3\n    /* \"SealedBidAuction.sol\":495:518  IERC721(thenft).ownerOf */\n  0xffffffffffffffffffffffffffffffffffffffff\n  and\n  0x6352211e\n    /* \"SealedBidAuction.sol\":519:527  thenftid */\n  dup4\n    /* \"SealedBidAuction.sol\":495:528  IERC721(thenft).ownerOf(thenftid) */\n  mload(0x40)\n  dup3\n  0xffffffff\n  and\n  0xe0\n  shl\n  dup2\n  mstore\n  0x04\n  add\n  tag_6\n  swap2\n  swap1\n  tag_7\n  jump\t// in\ntag_6:\n  0x20\n  mload(0x40)\n  dup1\n  dup4\n  sub\n  dup2\n  dup7\n  gas\n  staticcall\n  iszero\n  dup1\n  iszero\n  tag_9\n  jumpi\n  returndatasize\n  0x00\n  dup1\n  returndatacopy\n  revert(0x00, returndatasize)\ntag_9:\n  pop\n  pop\n  pop\n  pop\n  mload(0x40)\n  returndatasize\n  not(0x1f)\n  0x1f\n  dup3\n  add\n  and\n  dup3\n  add\n  dup1\n  0x40\n  mstore\n  pop\n  dup2\n  add\n  swap1\n  tag_10\n  swap2\n  swap1\n  tag_11\n  jump\t// in\ntag_10:\n    /* \"SealedBidAuction.sol\":495:542  IERC721(thenft).ownerOf(thenftid) == msg.sender */\n  0xffffffffffffffffffffffffffffffffffffffff\n  and\n  eq\n    /* \"SealedBidAuction.sol\":487:574  require(IERC721(thenft).ownerOf(thenftid) == msg.sender, \"Auctioneer does not own NFT\") */\n  tag_12\n  jumpi\n  mload(0x40)\n  0x08c379a000000000000000000000000000000000000000000000000000000000\n  dup2\n  mstore\n  0x04\n  add\n  tag_13\n  swap1\n  tag_14\n  jump\t// in\ntag_13:\n  mload(0x40)\n  dup1\n  swap2\n  sub\n  swap1\n  revert\ntag_12:\n    /* \"SealedBidAuction.sol\":607:617  msg.sender */\n  caller\n    /* \"SealedBidAuction.sol\":584:596  auctionOwner */\n  0x00\n  dup1\n    /* \"SealedBidAuction.sol\":584:618  auctionOwner = payable(msg.sender) */\n  0x0100\n  exp\n  dup2\n  sload\n  dup2\n  0xffffffffffffffffffffffffffffffffffffffff\n  mul\n  not\n  and\n  swap1\n  dup4\n  0xffffffffffffffffffffffffffffffffffffffff\n  and\n  mul\n  or\n  swap1\n  sstore\n  pop\n    /* \"SealedBidAuction.sol\":663:674  biddingTime */\n  dup3\n    /* \"SealedBidAuction.sol\":645:660  block.timestamp */\n  timestamp\n    /* \"SealedBidAuction.sol\":645:674  block.timestamp + biddingTime */\n  tag_15\n  swap2\n  swap1\n  tag_16\n  jump\t// in\ntag_15:\n    /* \"SealedBidAuction.sol\":628:642  auctionEndTime */\n  0x01\n    /* \"SealedBidAuction.sol\":628:674  auctionEndTime = block.timestamp + biddingTime */\n  dup2\n  swap1\n  sstore\n  pop\n    /* \"SealedBidAuction.sol\":698:704  thenft */\n  dup2\n    /* \"SealedBidAuction.sol\":684:687  nft */\n  0x04\n  0x00\n    /* \"SealedBidAuction.sol\":684:705  nft = IERC721(thenft) */\n  0x0100\n  exp\n  dup2\n  sload\n  dup2\n  0xffffffffffffffffffffffffffffffffffffffff\n  mul\n  not\n  and\n  swap1\n  dup4\n  0xffffffffffffffffffffffffffffffffffffffff\n  and\n  mul\n  or\n  swap1\n  sstore\n  pop\n    /* \"SealedBidAuction.sol\":723:731  thenftid */\n  dup1\n    /* \"SealedBidAuction.sol\":715:720  nftId */\n  0x05\n    /* \"SealedBidAuction.sol\":715:731  nftId = thenftid */\n  dup2\n  swap1\n  sstore\n  pop\n    /* \"SealedBidAuction.sol\":416:738  constructor(uint biddingTime, address thenft, uint thenftid) {... */\n  pop\n  pop\n  pop\n    /* \"SealedBidAuction.sol\":116:1892  contract SealedBidAuction {... */\n  jump(tag_17)\n    /* \"#utility.yul\":88:205   */\ntag_19:\n    /* \"#utility.yul\":197:198   */\n  0x00\n    /* \"#utility.yul\":194:195   */\n  dup1\n    /* \"#utility.yul\":187:199   */\n  revert\n    /* \"#utility.yul\":334:411   */\ntag_21:\n    /* \"#utility.yul\":371:378   */\n  0x00\n    /* \"#utility.yul\":400:405   */\n  dup2\n    /* \"#utility.yul\":389:405   */\n  swap1\n  pop\n    /* \"#utility.yul\":334:411   */\n  swap2\n  swap1\n  pop\n  jump\t// out\n    /* \"#utility.yul\":417:539   */\ntag_22:\n    /* \"#utility.yul\":490:514   */\n  tag_39\n    /* \"#utility.yul\":508:513   */\n  dup2\n    /* \"#utility.yul\":490:514   */\n  tag_21\n  jump\t// in\ntag_39:\n    /* \"#utility.yul\":483:488   */\n  dup2\n    /* \"#utility.yul\":480:515   */\n  eq\n    /* \"#utility.yul\":470:533   */\n  tag_40\n  jumpi\n    /* \"#utility.yul\":529:530   */\n  0x00\n    /* \"#utility.yul\":526:527   */\n  dup1\n    /* \"#utility.yul\":519:531   */\n  revert\n    /* \"#utility.yul\":470:533   */\ntag_40:\n    /* \"#utility.yul\":417:539   */\n  pop\n  jump\t// out\n    /* \"#utility.yul\":545:688   */\ntag_23:\n    /* \"#utility.yul\":602:607   */\n  0x00\n    /* \"#utility.yul\":633:639   */\n  dup2\n    /* \"#utility.yul\":627:640   */\n  mload\n    /* \"#utility.yul\":618:640   */\n  swap1\n  pop\n    /* \"#utility.yul\":649:682   */\n  tag_42\n    /* \"#utility.yul\":676:681   */\n  dup2\n    /* \"#utility.yul\":649:682   */\n  tag_22\n  jump\t// in\ntag_42:\n    /* \"#utility.yul\":545:688   */\n  swap3\n  swap2\n  pop\n  pop\n  jump\t// out\n    /* \"#utility.yul\":694:820   */\ntag_24:\n    /* \"#utility.yul\":731:738   */\n  0x00\n    /* \"#utility.yul\":771:813   */\n  0xffffffffffffffffffffffffffffffffffffffff\n    /* \"#utility.yul\":764:769   */\n  dup3\n    /* \"#utility.yul\":760:814   */\n  and\n    /* \"#utility.yul\":749:814   */\n  swap1\n  pop\n    /* \"#utility.yul\":694:820   */\n  swap2\n  swap1\n  pop\n  jump\t// out\n    /* \"#utility.yul\":826:922   */\ntag_25:\n    /* \"#utility.yul\":863:870   */\n  0x00\n    /* \"#utility.yul\":892:916   */\n  tag_45\n    /* \"#utility.yul\":910:915   */\n  dup3\n    /* \"#utility.yul\":892:916   */\n  tag_24\n  jump\t// in\ntag_45:\n    /* \"#utility.yul\":881:916   */\n  swap1\n  pop\n    /* \"#utility.yul\":826:922   */\n  swap2\n  swap1\n  pop\n  jump\t// out\n    /* \"#utility.yul\":928:1050   */\ntag_26:\n    /* \"#utility.yul\":1001:1025   */\n  tag_47\n    /* \"#utility.yul\":1019:1024   */\n  dup2\n    /* \"#utility.yul\":1001:1025   */\n  tag_25\n  jump\t// in\ntag_47:\n    /* \"#utility.yul\":994:999   */\n  dup2\n    /* \"#utility.yul\":991:1026   */\n  eq\n    /* \"#utility.yul\":981:1044   */\n  tag_48\n  jumpi\n    /* \"#utility.yul\":1040:1041   */\n  0x00\n    /* \"#utility.yul\":1037:1038   */\n  dup1\n    /* \"#utility.yul\":1030:1042   */\n  revert\n    /* \"#utility.yul\":981:1044   */\ntag_48:\n    /* \"#utility.yul\":928:1050   */\n  pop\n  jump\t// out\n    /* \"#utility.yul\":1056:1199   */\ntag_27:\n    /* \"#utility.yul\":1113:1118   */\n  0x00\n    /* \"#utility.yul\":1144:1150   */\n  dup2\n    /* \"#utility.yul\":1138:1151   */\n  mload\n    /* \"#utility.yul\":1129:1151   */\n  swap1\n  pop\n    /* \"#utility.yul\":1160:1193   */\n  tag_50\n    /* \"#utility.yul\":1187:1192   */\n  dup2\n    /* \"#utility.yul\":1160:1193   */\n  tag_26\n  jump\t// in\ntag_50:\n    /* \"#utility.yul\":1056:1199   */\n  swap3\n  swap2\n  pop\n  pop\n  jump\t// out\n    /* \"#utility.yul\":1205:1868   */\ntag_3:\n    /* \"#utility.yul\":1293:1299   */\n  0x00\n    /* \"#utility.yul\":1301:1307   */\n  dup1\n    /* \"#utility.yul\":1309:1315   */\n  0x00\n    /* \"#utility.yul\":1358:1360   */\n  0x60\n    /* \"#utility.yul\":1346:1355   */\n  dup5\n    /* \"#utility.yul\":1337:1344   */\n  dup7\n    /* \"#utility.yul\":1333:1356   */\n  sub\n    /* \"#utility.yul\":1329:1361   */\n  slt\n    /* \"#utility.yul\":1326:1445   */\n  iszero\n  tag_52\n  jumpi\n    /* \"#utility.yul\":1364:1443   */\n  tag_53\n  tag_19\n  jump\t// in\ntag_53:\n    /* \"#utility.yul\":1326:1445   */\ntag_52:\n    /* \"#utility.yul\":1484:1485   */\n  0x00\n    /* \"#utility.yul\":1509:1573   */\n  tag_54\n    /* \"#utility.yul\":1565:1572   */\n  dup7\n    /* \"#utility.yul\":1556:1562   */\n  dup3\n    /* \"#utility.yul\":1545:1554   */\n  dup8\n    /* \"#utility.yul\":1541:1563   */\n  add\n    /* \"#utility.yul\":1509:1573   */\n  tag_23\n  jump\t// in\ntag_54:\n    /* \"#utility.yul\":1499:1573   */\n  swap4\n  pop\n    /* \"#utility.yul\":1455:1583   */\n  pop\n    /* \"#utility.yul\":1622:1624   */\n  0x20\n    /* \"#utility.yul\":1648:1712   */\n  tag_55\n    /* \"#utility.yul\":1704:1711   */\n  dup7\n    /* \"#utility.yul\":1695:1701   */\n  dup3\n    /* \"#utility.yul\":1684:1693   */\n  dup8\n    /* \"#utility.yul\":1680:1702   */\n  add\n    /* \"#utility.yul\":1648:1712   */\n  tag_27\n  jump\t// in\ntag_55:\n    /* \"#utility.yul\":1638:1712   */\n  swap3\n  pop\n    /* \"#utility.yul\":1593:1722   */\n  pop\n    /* \"#utility.yul\":1761:1763   */\n  0x40\n    /* \"#utility.yul\":1787:1851   */\n  tag_56\n    /* \"#utility.yul\":1843:1850   */\n  dup7\n    /* \"#utility.yul\":1834:1840   */\n  dup3\n    /* \"#utility.yul\":1823:1832   */\n  dup8\n    /* \"#utility.yul\":1819:1841   */\n  add\n    /* \"#utility.yul\":1787:1851   */\n  tag_23\n  jump\t// in\ntag_56:\n    /* \"#utility.yul\":1777:1851   */\n  swap2\n  pop\n    /* \"#utility.yul\":1732:1861   */\n  pop\n    /* \"#utility.yul\":1205:1868   */\n  swap3\n  pop\n  swap3\n  pop\n  swap3\n  jump\t// out\n    /* \"#utility.yul\":1874:1992   */\ntag_28:\n    /* \"#utility.yul\":1961:1985   */\n  tag_58\n    /* \"#utility.yul\":1979:1984   */\n  dup2\n    /* \"#utility.yul\":1961:1985   */\n  tag_21\n  jump\t// in\ntag_58:\n    /* \"#utility.yul\":1956:1959   */\n  dup3\n    /* \"#utility.yul\":1949:1986   */\n  mstore\n    /* \"#utility.yul\":1874:1992   */\n  pop\n  pop\n  jump\t// out\n    /* \"#utility.yul\":1998:2220   */\ntag_7:\n    /* \"#utility.yul\":2091:2095   */\n  0x00\n    /* \"#utility.yul\":2129:2131   */\n  0x20\n    /* \"#utility.yul\":2118:2127   */\n  dup3\n    /* \"#utility.yul\":2114:2132   */\n  add\n    /* \"#utility.yul\":2106:2132   */\n  swap1\n  pop\n    /* \"#utility.yul\":2142:2213   */\n  tag_60\n    /* \"#utility.yul\":2210:2211   */\n  0x00\n    /* \"#utility.yul\":2199:2208   */\n  dup4\n    /* \"#utility.yul\":2195:2212   */\n  add\n    /* \"#utility.yul\":2186:2192   */\n  dup5\n    /* \"#utility.yul\":2142:2213   */\n  tag_28\n  jump\t// in\ntag_60:\n    /* \"#utility.yul\":1998:2220   */\n  swap3\n  swap2\n  pop\n  pop\n  jump\t// out\n    /* \"#utility.yul\":2226:2577   */\ntag_11:\n    /* \"#utility.yul\":2296:2302   */\n  0x00\n    /* \"#utility.yul\":2345:2347   */\n  0x20\n    /* \"#utility.yul\":2333:2342   */\n  dup3\n    /* \"#utility.yul\":2324:2331   */\n  dup5\n    /* \"#utility.yul\":2320:2343   */\n  sub\n    /* \"#utility.yul\":2316:2348   */\n  slt\n    /* \"#utility.yul\":2313:2432   */\n  iszero\n  tag_62\n  jumpi\n    /* \"#utility.yul\":2351:2430   */\n  tag_63\n  tag_19\n  jump\t// in\ntag_63:\n    /* \"#utility.yul\":2313:2432   */\ntag_62:\n    /* \"#utility.yul\":2471:2472   */\n  0x00\n    /* \"#utility.yul\":2496:2560   */\n  tag_64\n    /* \"#utility.yul\":2552:2559   */\n  dup5\n    /* \"#utility.yul\":2543:2549   */\n  dup3\n    /* \"#utility.yul\":2532:2541   */\n  dup6\n    /* \"#utility.yul\":2528:2550   */\n  add\n    /* \"#utility.yul\":2496:2560   */\n  tag_27\n  jump\t// in\ntag_64:\n    /* \"#utility.yul\":2486:2560   */\n  swap2\n  pop\n    /* \"#utility.yul\":2442:2570   */\n  pop\n    /* \"#utility.yul\":2226:2577   */\n  swap3\n  swap2\n  pop\n  pop\n  jump\t// out\n    /* \"#utility.yul\":2583:2752   */\ntag_29:\n    /* \"#utility.yul\":2667:2678   */\n  0x00\n    /* \"#utility.yul\":2701:2707   */\n  dup3\n    /* \"#utility.yul\":2696:2699   */\n  dup3\n    /* \"#utility.yul\":2689:2708   */\n  mstore\n    /* \"#utility.yul\":2741:2745   */\n  0x20\n    /* \"#utility.yul\":2736:2739   */\n  dup3\n    /* \"#utility.yul\":2732:2746   */\n  add\n    /* \"#utility.yul\":2717:2746   */\n  swap1\n  pop\n    /* \"#utility.yul\":2583:2752   */\n  swap3\n  swap2\n  pop\n  pop\n  jump\t// out\n    /* \"#utility.yul\":2758:2935   */\ntag_30:\n    /* \"#utility.yul\":2898:2927   */\n  0x41756374696f6e65657220646f6573206e6f74206f776e204e46540000000000\n    /* \"#utility.yul\":2894:2895   */\n  0x00\n    /* \"#utility.yul\":2886:2892   */\n  dup3\n    /* \"#utility.yul\":2882:2896   */\n  add\n    /* \"#utility.yul\":2875:2928   */\n  mstore\n    /* \"#utility.yul\":2758:2935   */\n  pop\n  jump\t// out\n    /* \"#utility.yul\":2941:3307   */\ntag_31:\n    /* \"#utility.yul\":3083:3086   */\n  0x00\n    /* \"#utility.yul\":3104:3171   */\n  tag_68\n    /* \"#utility.yul\":3168:3170   */\n  0x1b\n    /* \"#utility.yul\":3163:3166   */\n  dup4\n    /* \"#utility.yul\":3104:3171   */\n  tag_29\n  jump\t// in\ntag_68:\n    /* \"#utility.yul\":3097:3171   */\n  swap2\n  pop\n    /* \"#utility.yul\":3180:3273   */\n  tag_69\n    /* \"#utility.yul\":3269:3272   */\n  dup3\n    /* \"#utility.yul\":3180:3273   */\n  tag_30\n  jump\t// in\ntag_69:\n    /* \"#utility.yul\":3298:3300   */\n  0x20\n    /* \"#utility.yul\":3293:3296   */\n  dup3\n    /* \"#utility.yul\":3289:3301   */\n  add\n    /* \"#utility.yul\":3282:3301   */\n  swap1\n  pop\n    /* \"#utility.yul\":2941:3307   */\n  swap2\n  swap1\n  pop\n  jump\t// out\n    /* \"#utility.yul\":3313:3732   */\ntag_14:\n    /* \"#utility.yul\":3479:3483   */\n  0x00\n    /* \"#utility.yul\":3517:3519   */\n  0x20\n    /* \"#utility.yul\":3506:3515   */\n  dup3\n    /* \"#utility.yul\":3502:3520   */\n  add\n    /* \"#utility.yul\":3494:3520   */\n  swap1\n  pop\n    /* \"#utility.yul\":3566:3575   */\n  dup2\n    /* \"#utility.yul\":3560:3564   */\n  dup2\n    /* \"#utility.yul\":3556:3576   */\n  sub\n    /* \"#utility.yul\":3552:3553   */\n  0x00\n    /* \"#utility.yul\":3541:3550   */\n  dup4\n    /* \"#utility.yul\":3537:3554   */\n  add\n    /* \"#utility.yul\":3530:3577   */\n  mstore\n    /* \"#utility.yul\":3594:3725   */\n  tag_71\n    /* \"#utility.yul\":3720:3724   */\n  dup2\n    /* \"#utility.yul\":3594:3725   */\n  tag_31\n  jump\t// in\ntag_71:\n    /* \"#utility.yul\":3586:3725   */\n  swap1\n  pop\n    /* \"#utility.yul\":3313:3732   */\n  swap2\n  swap1\n  pop\n  jump\t// out\n    /* \"#utility.yul\":3738:3918   */\ntag_32:\n    /* \"#utility.yul\":3786:3863   */\n  0x4e487b7100000000000000000000000000000000000000000000000000000000\n    /* \"#utility.yul\":3783:3784   */\n  0x00\n    /* \"#utility.yul\":3776:3864   */\n  mstore\n    /* \"#utility.yul\":3883:3887   */\n  0x11\n    /* \"#utility.yul\":3880:3881   */\n  0x04\n    /* \"#utility.yul\":3873:3888   */\n  mstore\n    /* \"#utility.yul\":3907:3911   */\n  0x24\n    /* \"#utility.yul\":3904:3905   */\n  0x00\n    /* \"#utility.yul\":3897:3912   */\n  revert\n    /* \"#utility.yul\":3924:4115   */\ntag_16:\n    /* \"#utility.yul\":3964:3967   */\n  0x00\n    /* \"#utility.yul\":3983:4003   */\n  tag_74\n    /* \"#utility.yul\":4001:4002   */\n  dup3\n    /* \"#utility.yul\":3983:4003   */\n  tag_21\n  jump\t// in\ntag_74:\n    /* \"#utility.yul\":3978:4003   */\n  swap2\n  pop\n    /* \"#utility.yul\":4017:4037   */\n  tag_75\n    /* \"#utility.yul\":4035:4036   */\n  dup4\n    /* \"#utility.yul\":4017:4037   */\n  tag_21\n  jump\t// in\ntag_75:\n    /* \"#utility.yul\":4012:4037   */\n  swap3\n  pop\n    /* \"#utility.yul\":4060:4061   */\n  dup3\n    /* \"#utility.yul\":4057:4058   */\n  dup3\n    /* \"#utility.yul\":4053:4062   */\n  add\n    /* \"#utility.yul\":4046:4062   */\n  swap1\n  pop\n    /* \"#utility.yul\":4081:4084   */\n  dup1\n    /* \"#utility.yul\":4078:4079   */\n  dup3\n    /* \"#utility.yul\":4075:4085   */\n  gt\n    /* \"#utility.yul\":4072:4108   */\n  iszero\n  tag_76\n  jumpi\n    /* \"#utility.yul\":4088:4106   */\n  tag_77\n  tag_32\n  jump\t// in\ntag_77:\n    /* \"#utility.yul\":4072:4108   */\ntag_76:\n    /* \"#utility.yul\":3924:4115   */\n  swap3\n  swap2\n  pop\n  pop\n  jump\t// out\n    /* \"SealedBidAuction.sol\":116:1892  contract SealedBidAuction {... */\ntag_17:\n  dataSize(sub_0)\n  dup1\n  dataOffset(sub_0)\n  0x00\n  codecopy\n  0x00\n  return\nstop\n\nsub_0: assembly {\n        /* \"SealedBidAuction.sol\":116:1892  contract SealedBidAuction {... */\n      mstore(0x40, 0x80)\n      jumpi(tag_1, lt(calldatasize, 0x04))\n      shr(0xe0, calldataload(0x00))\n      dup1\n      0x91f90157\n      gt\n      tag_13\n      jumpi\n      dup1\n      0x91f90157\n      eq\n      tag_7\n      jumpi\n      dup1\n      0xc6bc5182\n      eq\n      tag_8\n      jumpi\n      dup1\n      0xc810af81\n      eq\n      tag_9\n      jumpi\n      dup1\n      0xd3924aaf\n      eq\n      tag_10\n      jumpi\n      dup1\n      0xd57bde79\n      eq\n      tag_11\n      jumpi\n      dup1\n      0xf4c45373\n      eq\n      tag_12\n      jumpi\n      jump(tag_1)\n    tag_13:\n      dup1\n      0x1b3fa800\n      eq\n      tag_2\n      jumpi\n      dup1\n      0x1b9265b8\n      eq\n      tag_3\n      jumpi\n      dup1\n      0x3e3b903e\n      eq\n      tag_4\n      jumpi\n      dup1\n      0x47ccca02\n      eq\n      tag_5\n      jumpi\n      dup1\n      0x4b449cba\n      eq\n      tag_6\n      jumpi\n    tag_1:\n      0x00\n      dup1\n      revert\n        /* \"SealedBidAuction.sol\":744:974  function submitBid(bytes32 bid) public {... */\n    tag_2:\n      callvalue\n      dup1\n      iszero\n      tag_14\n      jumpi\n      0x00\n      dup1\n      revert\n    tag_14:\n      pop\n      tag_15\n      0x04\n      dup1\n      calldatasize\n      sub\n      dup2\n      add\n      swap1\n      tag_16\n      swap2\n      swap1\n      tag_17\n      jump\t// in\n    tag_16:\n      tag_18\n      jump\t// in\n    tag_15:\n      stop\n        /* \"SealedBidAuction.sol\":1438:1890  function pay() public payable {... */\n    tag_3:\n      tag_19\n      tag_20\n      jump\t// in\n    tag_19:\n      stop\n        /* \"SealedBidAuction.sol\":980:1432  function revealBid(uint actualBid) public {... */\n    tag_4:\n      callvalue\n      dup1\n      iszero\n      tag_21\n      jumpi\n      0x00\n      dup1\n      revert\n    tag_21:\n      pop\n      tag_22\n      0x04\n      dup1\n      calldatasize\n      sub\n      dup2\n      add\n      swap1\n      tag_23\n      swap2\n      swap1\n      tag_24\n      jump\t// in\n    tag_23:\n      tag_25\n      jump\t// in\n    tag_22:\n      stop\n        /* \"SealedBidAuction.sol\":316:334  IERC721 public nft */\n    tag_5:\n      callvalue\n      dup1\n      iszero\n      tag_26\n      jumpi\n      0x00\n      dup1\n      revert\n    tag_26:\n      pop\n      tag_27\n      tag_28\n      jump\t// in\n    tag_27:\n      mload(0x40)\n      tag_29\n      swap2\n      swap1\n      tag_30\n      jump\t// in\n    tag_29:\n      mload(0x40)\n      dup1\n      swap2\n      sub\n      swap1\n      return\n        /* \"SealedBidAuction.sol\":189:215  uint public auctionEndTime */\n    tag_6:\n      callvalue\n      dup1\n      iszero\n      tag_31\n      jumpi\n      0x00\n      dup1\n      revert\n    tag_31:\n      pop\n      tag_32\n      tag_33\n      jump\t// in\n    tag_32:\n      mload(0x40)\n      tag_34\n      swap2\n      swap1\n      tag_35\n      jump\t// in\n    tag_34:\n      mload(0x40)\n      dup1\n      swap2\n      sub\n      swap1\n      return\n        /* \"SealedBidAuction.sol\":249:285  address payable public highestBidder */\n    tag_7:\n      callvalue\n      dup1\n      iszero\n      tag_36\n      jumpi\n      0x00\n      dup1\n      revert\n    tag_36:\n      pop\n      tag_37\n      tag_38\n      jump\t// in\n    tag_37:\n      mload(0x40)\n      tag_39\n      swap2\n      swap1\n      tag_40\n      jump\t// in\n    tag_39:\n      mload(0x40)\n      dup1\n      swap2\n      sub\n      swap1\n      return\n        /* \"SealedBidAuction.sol\":340:357  uint public nftId */\n    tag_8:\n      callvalue\n      dup1\n      iszero\n      tag_41\n      jumpi\n      0x00\n      dup1\n      revert\n    tag_41:\n      pop\n      tag_42\n      tag_43\n      jump\t// in\n    tag_42:\n      mload(0x40)\n      tag_44\n      swap2\n      swap1\n      tag_35\n      jump\t// in\n    tag_44:\n      mload(0x40)\n      dup1\n      swap2\n      sub\n      swap1\n      return\n        /* \"SealedBidAuction.sol\":291:310  bool public hasPaid */\n    tag_9:\n      callvalue\n      dup1\n      iszero\n      tag_45\n      jumpi\n      0x00\n      dup1\n      revert\n    tag_45:\n      pop\n      tag_46\n      tag_47\n      jump\t// in\n    tag_46:\n      mload(0x40)\n      tag_48\n      swap2\n      swap1\n      tag_49\n      jump\t// in\n    tag_48:\n      mload(0x40)\n      dup1\n      swap2\n      sub\n      swap1\n      return\n        /* \"SealedBidAuction.sol\":148:183  address payable public auctionOwner */\n    tag_10:\n      callvalue\n      dup1\n      iszero\n      tag_50\n      jumpi\n      0x00\n      dup1\n      revert\n    tag_50:\n      pop\n      tag_51\n      tag_52\n      jump\t// in\n    tag_51:\n      mload(0x40)\n      tag_53\n      swap2\n      swap1\n      tag_40\n      jump\t// in\n    tag_53:\n      mload(0x40)\n      dup1\n      swap2\n      sub\n      swap1\n      return\n        /* \"SealedBidAuction.sol\":221:243  uint public highestBid */\n    tag_11:\n      callvalue\n      dup1\n      iszero\n      tag_54\n      jumpi\n      0x00\n      dup1\n      revert\n    tag_54:\n      pop\n      tag_55\n      tag_56\n      jump\t// in\n    tag_55:\n      mload(0x40)\n      tag_57\n      swap2\n      swap1\n      tag_35\n      jump\t// in\n    tag_57:\n      mload(0x40)\n      dup1\n      swap2\n      sub\n      swap1\n      return\n        /* \"SealedBidAuction.sol\":364:409  mapping(address => bytes32) public hashedBids */\n    tag_12:\n      callvalue\n      dup1\n      iszero\n      tag_58\n      jumpi\n      0x00\n      dup1\n      revert\n    tag_58:\n      pop\n      tag_59\n      0x04\n      dup1\n      calldatasize\n      sub\n      dup2\n      add\n      swap1\n      tag_60\n      swap2\n      swap1\n      tag_61\n      jump\t// in\n    tag_60:\n      tag_62\n      jump\t// in\n    tag_59:\n      mload(0x40)\n      tag_63\n      swap2\n      swap1\n      tag_64\n      jump\t// in\n    tag_63:\n      mload(0x40)\n      dup1\n      swap2\n      sub\n      swap1\n      return\n        /* \"SealedBidAuction.sol\":744:974  function submitBid(bytes32 bid) public {... */\n    tag_18:\n        /* \"SealedBidAuction.sol\":820:834  auctionEndTime */\n      sload(0x01)\n        /* \"SealedBidAuction.sol\":801:816  block.timestamp */\n      timestamp\n        /* \"SealedBidAuction.sol\":801:834  block.timestamp <= auctionEndTime */\n      gt\n      iszero\n        /* \"SealedBidAuction.sol\":793:856  require(block.timestamp <= auctionEndTime, \"Auction has ended\") */\n      tag_66\n      jumpi\n      mload(0x40)\n      0x08c379a000000000000000000000000000000000000000000000000000000000\n      dup2\n      mstore\n      0x04\n      add\n      tag_67\n      swap1\n      tag_68\n      jump\t// in\n    tag_67:\n      mload(0x40)\n      dup1\n      swap2\n      sub\n      swap1\n      revert\n    tag_66:\n        /* \"SealedBidAuction.sol\":900:901  0 */\n      0x00\n        /* \"SealedBidAuction.sol\":874:901  hashedBids[msg.sender] == 0 */\n      dup1\n      shl\n        /* \"SealedBidAuction.sol\":874:884  hashedBids */\n      0x06\n        /* \"SealedBidAuction.sol\":874:896  hashedBids[msg.sender] */\n      0x00\n        /* \"SealedBidAuction.sol\":885:895  msg.sender */\n      caller\n        /* \"SealedBidAuction.sol\":874:896  hashedBids[msg.sender] */\n      0xffffffffffffffffffffffffffffffffffffffff\n      and\n      0xffffffffffffffffffffffffffffffffffffffff\n      and\n      dup2\n      mstore\n      0x20\n      add\n      swap1\n      dup2\n      mstore\n      0x20\n      add\n      0x00\n      keccak256\n      sload\n        /* \"SealedBidAuction.sol\":874:901  hashedBids[msg.sender] == 0 */\n      eq\n        /* \"SealedBidAuction.sol\":866:929  require(hashedBids[msg.sender] == 0, \"Already submitted a bid\") */\n      tag_69\n      jumpi\n      mload(0x40)\n      0x08c379a000000000000000000000000000000000000000000000000000000000\n      dup2\n      mstore\n      0x04\n      add\n      tag_70\n      swap1\n      tag_71\n      jump\t// in\n    tag_70:\n      mload(0x40)\n      dup1\n      swap2\n      sub\n      swap1\n      revert\n    tag_69:\n        /* \"SealedBidAuction.sol\":964:967  bid */\n      dup1\n        /* \"SealedBidAuction.sol\":939:949  hashedBids */\n      0x06\n        /* \"SealedBidAuction.sol\":939:961  hashedBids[msg.sender] */\n      0x00\n        /* \"SealedBidAuction.sol\":950:960  msg.sender */\n      caller\n        /* \"SealedBidAuction.sol\":939:961  hashedBids[msg.sender] */\n      0xffffffffffffffffffffffffffffffffffffffff\n      and\n      0xffffffffffffffffffffffffffffffffffffffff\n      and\n      dup2\n      mstore\n      0x20\n      add\n      swap1\n      dup2\n      mstore\n      0x20\n      add\n      0x00\n      keccak256\n        /* \"SealedBidAuction.sol\":939:967  hashedBids[msg.sender] = bid */\n      dup2\n      swap1\n      sstore\n      pop\n        /* \"SealedBidAuction.sol\":744:974  function submitBid(bytes32 bid) public {... */\n      pop\n      jump\t// out\n        /* \"SealedBidAuction.sol\":1438:1890  function pay() public payable {... */\n    tag_20:\n        /* \"SealedBidAuction.sol\":1504:1518  auctionEndTime */\n      sload(0x01)\n        /* \"SealedBidAuction.sol\":1486:1501  block.timestamp */\n      timestamp\n        /* \"SealedBidAuction.sol\":1486:1518  block.timestamp > auctionEndTime */\n      gt\n        /* \"SealedBidAuction.sol\":1478:1548  require(block.timestamp > auctionEndTime, \"Auction has not ended yet\") */\n      tag_73\n      jumpi\n      mload(0x40)\n      0x08c379a000000000000000000000000000000000000000000000000000000000\n      dup2\n      mstore\n      0x04\n      add\n      tag_74\n      swap1\n      tag_75\n      jump\t// in\n    tag_74:\n      mload(0x40)\n      dup1\n      swap2\n      sub\n      swap1\n      revert\n    tag_73:\n        /* \"SealedBidAuction.sol\":1580:1593  highestBidder */\n      0x03\n      0x00\n      swap1\n      sload\n      swap1\n      0x0100\n      exp\n      swap1\n      div\n      0xffffffffffffffffffffffffffffffffffffffff\n      and\n        /* \"SealedBidAuction.sol\":1566:1593  msg.sender == highestBidder */\n      0xffffffffffffffffffffffffffffffffffffffff\n      and\n        /* \"SealedBidAuction.sol\":1566:1576  msg.sender */\n      caller\n        /* \"SealedBidAuction.sol\":1566:1593  msg.sender == highestBidder */\n      0xffffffffffffffffffffffffffffffffffffffff\n      and\n      eq\n        /* \"SealedBidAuction.sol\":1558:1628  require(msg.sender == highestBidder, \"You are not the highest bidder\") */\n      tag_76\n      jumpi\n      mload(0x40)\n      0x08c379a000000000000000000000000000000000000000000000000000000000\n      dup2\n      mstore\n      0x04\n      add\n      tag_77\n      swap1\n      tag_78\n      jump\t// in\n    tag_77:\n      mload(0x40)\n      dup1\n      swap2\n      sub\n      swap1\n      revert\n    tag_76:\n        /* \"SealedBidAuction.sol\":1659:1669  highestBid */\n      sload(0x02)\n        /* \"SealedBidAuction.sol\":1646:1655  msg.value */\n      callvalue\n        /* \"SealedBidAuction.sol\":1646:1669  msg.value == highestBid */\n      eq\n        /* \"SealedBidAuction.sol\":1638:1702  require(msg.value == highestBid, \"Insufficient Eth Transferred\") */\n      tag_79\n      jumpi\n      mload(0x40)\n      0x08c379a000000000000000000000000000000000000000000000000000000000\n      dup2\n      mstore\n      0x04\n      add\n      tag_80\n      swap1\n      tag_81\n      jump\t// in\n    tag_80:\n      mload(0x40)\n      dup1\n      swap2\n      sub\n      swap1\n      revert\n    tag_79:\n        /* \"SealedBidAuction.sol\":1721:1728  hasPaid */\n      0x03\n      0x14\n      swap1\n      sload\n      swap1\n      0x0100\n      exp\n      swap1\n      div\n      0xff\n      and\n        /* \"SealedBidAuction.sol\":1720:1728  !hasPaid */\n      iszero\n        /* \"SealedBidAuction.sol\":1712:1753  require(!hasPaid, \"Payment already made\") */\n      tag_82\n      jumpi\n      mload(0x40)\n      0x08c379a000000000000000000000000000000000000000000000000000000000\n      dup2\n      mstore\n      0x04\n      add\n      tag_83\n      swap1\n      tag_84\n      jump\t// in\n    tag_83:\n      mload(0x40)\n      dup1\n      swap2\n      sub\n      swap1\n      revert\n    tag_82:\n        /* \"SealedBidAuction.sol\":1773:1777  true */\n      0x01\n        /* \"SealedBidAuction.sol\":1763:1770  hasPaid */\n      0x03\n      0x14\n        /* \"SealedBidAuction.sol\":1763:1777  hasPaid = true */\n      0x0100\n      exp\n      dup2\n      sload\n      dup2\n      0xff\n      mul\n      not\n      and\n      swap1\n      dup4\n      iszero\n      iszero\n      mul\n      or\n      swap1\n      sstore\n      pop\n        /* \"SealedBidAuction.sol\":1787:1799  auctionOwner */\n      0x00\n      dup1\n      sload\n      swap1\n      0x0100\n      exp\n      swap1\n      div\n      0xffffffffffffffffffffffffffffffffffffffff\n      and\n        /* \"SealedBidAuction.sol\":1787:1808  auctionOwner.transfer */\n      0xffffffffffffffffffffffffffffffffffffffff\n      and\n        /* \"SealedBidAuction.sol\":1787:1820  auctionOwner.transfer(highestBid) */\n      0x08fc\n        /* \"SealedBidAuction.sol\":1809:1819  highestBid */\n      sload(0x02)\n        /* \"SealedBidAuction.sol\":1787:1820  auctionOwner.transfer(highestBid) */\n      swap1\n      dup2\n      iszero\n      mul\n      swap1\n      mload(0x40)\n      0x00\n      mload(0x40)\n      dup1\n      dup4\n      sub\n      dup2\n      dup6\n      dup9\n      dup9\n      call\n      swap4\n      pop\n      pop\n      pop\n      pop\n      iszero\n      dup1\n      iszero\n      tag_86\n      jumpi\n      returndatasize\n      0x00\n      dup1\n      returndatacopy\n      revert(0x00, returndatasize)\n    tag_86:\n      pop\n        /* \"SealedBidAuction.sol\":1830:1833  nft */\n      0x04\n      0x00\n      swap1\n      sload\n      swap1\n      0x0100\n      exp\n      swap1\n      div\n      0xffffffffffffffffffffffffffffffffffffffff\n      and\n        /* \"SealedBidAuction.sol\":1830:1850  nft.safeTransferFrom */\n      0xffffffffffffffffffffffffffffffffffffffff\n      and\n      0x42842e0e\n        /* \"SealedBidAuction.sol\":1851:1863  auctionOwner */\n      0x00\n      dup1\n      sload\n      swap1\n      0x0100\n      exp\n      swap1\n      div\n      0xffffffffffffffffffffffffffffffffffffffff\n      and\n        /* \"SealedBidAuction.sol\":1865:1875  msg.sender */\n      caller\n        /* \"SealedBidAuction.sol\":1877:1882  nftId */\n      sload(0x05)\n        /* \"SealedBidAuction.sol\":1830:1883  nft.safeTransferFrom(auctionOwner, msg.sender, nftId) */\n      mload(0x40)\n      dup5\n      0xffffffff\n      and\n      0xe0\n      shl\n      dup2\n      mstore\n      0x04\n      add\n      tag_87\n      swap4\n      swap3\n      swap2\n      swap1\n      tag_88\n      jump\t// in\n    tag_87:\n      0x00\n      mload(0x40)\n      dup1\n      dup4\n      sub\n      dup2\n      0x00\n      dup8\n      dup1\n      extcodesize\n      iszero\n      dup1\n      iszero\n      tag_89\n      jumpi\n      0x00\n      dup1\n      revert\n    tag_89:\n      pop\n      gas\n      call\n      iszero\n      dup1\n      iszero\n      tag_91\n      jumpi\n      returndatasize\n      0x00\n      dup1\n      returndatacopy\n      revert(0x00, returndatasize)\n    tag_91:\n      pop\n      pop\n      pop\n      pop\n        /* \"SealedBidAuction.sol\":1438:1890  function pay() public payable {... */\n      jump\t// out\n        /* \"SealedBidAuction.sol\":980:1432  function revealBid(uint actualBid) public {... */\n    tag_25:\n        /* \"SealedBidAuction.sol\":1058:1072  auctionEndTime */\n      sload(0x01)\n        /* \"SealedBidAuction.sol\":1040:1055  block.timestamp */\n      timestamp\n        /* \"SealedBidAuction.sol\":1040:1072  block.timestamp > auctionEndTime */\n      gt\n        /* \"SealedBidAuction.sol\":1032:1102  require(block.timestamp > auctionEndTime, \"Auction has not ended yet\") */\n      tag_93\n      jumpi\n      mload(0x40)\n      0x08c379a000000000000000000000000000000000000000000000000000000000\n      dup2\n      mstore\n      0x04\n      add\n      tag_94\n      swap1\n      tag_75\n      jump\t// in\n    tag_94:\n      mload(0x40)\n      dup1\n      swap2\n      sub\n      swap1\n      revert\n    tag_93:\n        /* \"SealedBidAuction.sol\":1146:1147  0 */\n      0x00\n        /* \"SealedBidAuction.sol\":1120:1147  hashedBids[msg.sender] != 0 */\n      dup1\n      shl\n        /* \"SealedBidAuction.sol\":1120:1130  hashedBids */\n      0x06\n        /* \"SealedBidAuction.sol\":1120:1142  hashedBids[msg.sender] */\n      0x00\n        /* \"SealedBidAuction.sol\":1131:1141  msg.sender */\n      caller\n        /* \"SealedBidAuction.sol\":1120:1142  hashedBids[msg.sender] */\n      0xffffffffffffffffffffffffffffffffffffffff\n      and\n      0xffffffffffffffffffffffffffffffffffffffff\n      and\n      dup2\n      mstore\n      0x20\n      add\n      swap1\n      dup2\n      mstore\n      0x20\n      add\n      0x00\n      keccak256\n      sload\n        /* \"SealedBidAuction.sol\":1120:1147  hashedBids[msg.sender] != 0 */\n      sub\n        /* \"SealedBidAuction.sol\":1112:1168  require(hashedBids[msg.sender] != 0, \"No bid submitted\") */\n      tag_95\n      jumpi\n      mload(0x40)\n      0x08c379a000000000000000000000000000000000000000000000000000000000\n      dup2\n      mstore\n      0x04\n      add\n      tag_96\n      swap1\n      tag_97\n      jump\t// in\n    tag_96:\n      mload(0x40)\n      dup1\n      swap2\n      sub\n      swap1\n      revert\n    tag_95:\n        /* \"SealedBidAuction.sol\":1228:1238  hashedBids */\n      0x06\n        /* \"SealedBidAuction.sol\":1228:1250  hashedBids[msg.sender] */\n      0x00\n        /* \"SealedBidAuction.sol\":1239:1249  msg.sender */\n      caller\n        /* \"SealedBidAuction.sol\":1228:1250  hashedBids[msg.sender] */\n      0xffffffffffffffffffffffffffffffffffffffff\n      and\n      0xffffffffffffffffffffffffffffffffffffffff\n      and\n      dup2\n      mstore\n      0x20\n      add\n      swap1\n      dup2\n      mstore\n      0x20\n      add\n      0x00\n      keccak256\n      sload\n        /* \"SealedBidAuction.sol\":1213:1222  actualBid */\n      dup2\n        /* \"SealedBidAuction.sol\":1196:1223  abi.encodePacked(actualBid) */\n      add(0x20, mload(0x40))\n      tag_98\n      swap2\n      swap1\n      tag_99\n      jump\t// in\n    tag_98:\n      mload(0x40)\n      0x20\n      dup2\n      dup4\n      sub\n      sub\n      dup2\n      mstore\n      swap1\n      0x40\n      mstore\n        /* \"SealedBidAuction.sol\":1186:1224  keccak256(abi.encodePacked(actualBid)) */\n      dup1\n      mload\n      swap1\n      0x20\n      add\n      keccak256\n        /* \"SealedBidAuction.sol\":1186:1250  keccak256(abi.encodePacked(actualBid)) == hashedBids[msg.sender] */\n      eq\n        /* \"SealedBidAuction.sol\":1178:1291  require(keccak256(abi.encodePacked(actualBid)) == hashedBids[msg.sender], \"Actual bid does not match hashed bid\") */\n      tag_100\n      jumpi\n      mload(0x40)\n      0x08c379a000000000000000000000000000000000000000000000000000000000\n      dup2\n      mstore\n      0x04\n      add\n      tag_101\n      swap1\n      tag_102\n      jump\t// in\n    tag_101:\n      mload(0x40)\n      dup1\n      swap2\n      sub\n      swap1\n      revert\n    tag_100:\n        /* \"SealedBidAuction.sol\":1318:1328  highestBid */\n      sload(0x02)\n        /* \"SealedBidAuction.sol\":1306:1315  actualBid */\n      dup2\n        /* \"SealedBidAuction.sol\":1306:1328  actualBid > highestBid */\n      gt\n        /* \"SealedBidAuction.sol\":1302:1426  if (actualBid > highestBid) {... */\n      iszero\n      tag_103\n      jumpi\n        /* \"SealedBidAuction.sol\":1357:1366  actualBid */\n      dup1\n        /* \"SealedBidAuction.sol\":1344:1354  highestBid */\n      0x02\n        /* \"SealedBidAuction.sol\":1344:1366  highestBid = actualBid */\n      dup2\n      swap1\n      sstore\n      pop\n        /* \"SealedBidAuction.sol\":1404:1414  msg.sender */\n      caller\n        /* \"SealedBidAuction.sol\":1380:1393  highestBidder */\n      0x03\n      0x00\n        /* \"SealedBidAuction.sol\":1380:1415  highestBidder = payable(msg.sender) */\n      0x0100\n      exp\n      dup2\n      sload\n      dup2\n      0xffffffffffffffffffffffffffffffffffffffff\n      mul\n      not\n      and\n      swap1\n      dup4\n      0xffffffffffffffffffffffffffffffffffffffff\n      and\n      mul\n      or\n      swap1\n      sstore\n      pop\n        /* \"SealedBidAuction.sol\":1302:1426  if (actualBid > highestBid) {... */\n    tag_103:\n        /* \"SealedBidAuction.sol\":980:1432  function revealBid(uint actualBid) public {... */\n      pop\n      jump\t// out\n        /* \"SealedBidAuction.sol\":316:334  IERC721 public nft */\n    tag_28:\n      0x04\n      0x00\n      swap1\n      sload\n      swap1\n      0x0100\n      exp\n      swap1\n      div\n      0xffffffffffffffffffffffffffffffffffffffff\n      and\n      dup2\n      jump\t// out\n        /* \"SealedBidAuction.sol\":189:215  uint public auctionEndTime */\n    tag_33:\n      sload(0x01)\n      dup2\n      jump\t// out\n        /* \"SealedBidAuction.sol\":249:285  address payable public highestBidder */\n    tag_38:\n      0x03\n      0x00\n      swap1\n      sload\n      swap1\n      0x0100\n      exp\n      swap1\n      div\n      0xffffffffffffffffffffffffffffffffffffffff\n      and\n      dup2\n      jump\t// out\n        /* \"SealedBidAuction.sol\":340:357  uint public nftId */\n    tag_43:\n      sload(0x05)\n      dup2\n      jump\t// out\n        /* \"SealedBidAuction.sol\":291:310  bool public hasPaid */\n    tag_47:\n      0x03\n      0x14\n      swap1\n      sload\n      swap1\n      0x0100\n      exp\n      swap1\n      div\n      0xff\n      and\n      dup2\n      jump\t// out\n        /* \"SealedBidAuction.sol\":148:183  address payable public auctionOwner */\n    tag_52:\n      0x00\n      dup1\n      sload\n      swap1\n      0x0100\n      exp\n      swap1\n      div\n      0xffffffffffffffffffffffffffffffffffffffff\n      and\n      dup2\n      jump\t// out\n        /* \"SealedBidAuction.sol\":221:243  uint public highestBid */\n    tag_56:\n      sload(0x02)\n      dup2\n      jump\t// out\n        /* \"SealedBidAuction.sol\":364:409  mapping(address => bytes32) public hashedBids */\n    tag_62:\n      mstore(0x20, 0x06)\n      dup1\n      0x00\n      mstore\n      keccak256(0x00, 0x40)\n      0x00\n      swap2\n      pop\n      swap1\n      pop\n      sload\n      dup2\n      jump\t// out\n        /* \"#utility.yul\":88:205   */\n    tag_105:\n        /* \"#utility.yul\":197:198   */\n      0x00\n        /* \"#utility.yul\":194:195   */\n      dup1\n        /* \"#utility.yul\":187:199   */\n      revert\n        /* \"#utility.yul\":334:411   */\n    tag_107:\n        /* \"#utility.yul\":371:378   */\n      0x00\n        /* \"#utility.yul\":400:405   */\n      dup2\n        /* \"#utility.yul\":389:405   */\n      swap1\n      pop\n        /* \"#utility.yul\":334:411   */\n      swap2\n      swap1\n      pop\n      jump\t// out\n        /* \"#utility.yul\":417:539   */\n    tag_108:\n        /* \"#utility.yul\":490:514   */\n      tag_156\n        /* \"#utility.yul\":508:513   */\n      dup2\n        /* \"#utility.yul\":490:514   */\n      tag_107\n      jump\t// in\n    tag_156:\n        /* \"#utility.yul\":483:488   */\n      dup2\n        /* \"#utility.yul\":480:515   */\n      eq\n        /* \"#utility.yul\":470:533   */\n      tag_157\n      jumpi\n        /* \"#utility.yul\":529:530   */\n      0x00\n        /* \"#utility.yul\":526:527   */\n      dup1\n        /* \"#utility.yul\":519:531   */\n      revert\n        /* \"#utility.yul\":470:533   */\n    tag_157:\n        /* \"#utility.yul\":417:539   */\n      pop\n      jump\t// out\n        /* \"#utility.yul\":545:684   */\n    tag_109:\n        /* \"#utility.yul\":591:596   */\n      0x00\n        /* \"#utility.yul\":629:635   */\n      dup2\n        /* \"#utility.yul\":616:636   */\n      calldataload\n        /* \"#utility.yul\":607:636   */\n      swap1\n      pop\n        /* \"#utility.yul\":645:678   */\n      tag_159\n        /* \"#utility.yul\":672:677   */\n      dup2\n        /* \"#utility.yul\":645:678   */\n      tag_108\n      jump\t// in\n    tag_159:\n        /* \"#utility.yul\":545:684   */\n      swap3\n      swap2\n      pop\n      pop\n      jump\t// out\n        /* \"#utility.yul\":690:1019   */\n    tag_17:\n        /* \"#utility.yul\":749:755   */\n      0x00\n        /* \"#utility.yul\":798:800   */\n      0x20\n        /* \"#utility.yul\":786:795   */\n      dup3\n        /* \"#utility.yul\":777:784   */\n      dup5\n        /* \"#utility.yul\":773:796   */\n      sub\n        /* \"#utility.yul\":769:801   */\n      slt\n        /* \"#utility.yul\":766:885   */\n      iszero\n      tag_161\n      jumpi\n        /* \"#utility.yul\":804:883   */\n      tag_162\n      tag_105\n      jump\t// in\n    tag_162:\n        /* \"#utility.yul\":766:885   */\n    tag_161:\n        /* \"#utility.yul\":924:925   */\n      0x00\n        /* \"#utility.yul\":949:1002   */\n      tag_163\n        /* \"#utility.yul\":994:1001   */\n      dup5\n        /* \"#utility.yul\":985:991   */\n      dup3\n        /* \"#utility.yul\":974:983   */\n      dup6\n        /* \"#utility.yul\":970:992   */\n      add\n        /* \"#utility.yul\":949:1002   */\n      tag_109\n      jump\t// in\n    tag_163:\n        /* \"#utility.yul\":939:1002   */\n      swap2\n      pop\n        /* \"#utility.yul\":895:1012   */\n      pop\n        /* \"#utility.yul\":690:1019   */\n      swap3\n      swap2\n      pop\n      pop\n      jump\t// out\n        /* \"#utility.yul\":1025:1102   */\n    tag_110:\n        /* \"#utility.yul\":1062:1069   */\n      0x00\n        /* \"#utility.yul\":1091:1096   */\n      dup2\n        /* \"#utility.yul\":1080:1096   */\n      swap1\n      pop\n        /* \"#utility.yul\":1025:1102   */\n      swap2\n      swap1\n      pop\n      jump\t// out\n        /* \"#utility.yul\":1108:1230   */\n    tag_111:\n        /* \"#utility.yul\":1181:1205   */\n      tag_166\n        /* \"#utility.yul\":1199:1204   */\n      dup2\n        /* \"#utility.yul\":1181:1205   */\n      tag_110\n      jump\t// in\n    tag_166:\n        /* \"#utility.yul\":1174:1179   */\n      dup2\n        /* \"#utility.yul\":1171:1206   */\n      eq\n        /* \"#utility.yul\":1161:1224   */\n      tag_167\n      jumpi\n        /* \"#utility.yul\":1220:1221   */\n      0x00\n        /* \"#utility.yul\":1217:1218   */\n      dup1\n        /* \"#utility.yul\":1210:1222   */\n      revert\n        /* \"#utility.yul\":1161:1224   */\n    tag_167:\n        /* \"#utility.yul\":1108:1230   */\n      pop\n      jump\t// out\n        /* \"#utility.yul\":1236:1375   */\n    tag_112:\n        /* \"#utility.yul\":1282:1287   */\n      0x00\n        /* \"#utility.yul\":1320:1326   */\n      dup2\n        /* \"#utility.yul\":1307:1327   */\n      calldataload\n        /* \"#utility.yul\":1298:1327   */\n      swap1\n      pop\n        /* \"#utility.yul\":1336:1369   */\n      tag_169\n        /* \"#utility.yul\":1363:1368   */\n      dup2\n        /* \"#utility.yul\":1336:1369   */\n      tag_111\n      jump\t// in\n    tag_169:\n        /* \"#utility.yul\":1236:1375   */\n      swap3\n      swap2\n      pop\n      pop\n      jump\t// out\n        /* \"#utility.yul\":1381:1710   */\n    tag_24:\n        /* \"#utility.yul\":1440:1446   */\n      0x00\n        /* \"#utility.yul\":1489:1491   */\n      0x20\n        /* \"#utility.yul\":1477:1486   */\n      dup3\n        /* \"#utility.yul\":1468:1475   */\n      dup5\n        /* \"#utility.yul\":1464:1487   */\n      sub\n        /* \"#utility.yul\":1460:1492   */\n      slt\n        /* \"#utility.yul\":1457:1576   */\n      iszero\n      tag_171\n      jumpi\n        /* \"#utility.yul\":1495:1574   */\n      tag_172\n      tag_105\n      jump\t// in\n    tag_172:\n        /* \"#utility.yul\":1457:1576   */\n    tag_171:\n        /* \"#utility.yul\":1615:1616   */\n      0x00\n        /* \"#utility.yul\":1640:1693   */\n      tag_173\n        /* \"#utility.yul\":1685:1692   */\n      dup5\n        /* \"#utility.yul\":1676:1682   */\n      dup3\n        /* \"#utility.yul\":1665:1674   */\n      dup6\n        /* \"#utility.yul\":1661:1683   */\n      add\n        /* \"#utility.yul\":1640:1693   */\n      tag_112\n      jump\t// in\n    tag_173:\n        /* \"#utility.yul\":1630:1693   */\n      swap2\n      pop\n        /* \"#utility.yul\":1586:1703   */\n      pop\n        /* \"#utility.yul\":1381:1710   */\n      swap3\n      swap2\n      pop\n      pop\n      jump\t// out\n        /* \"#utility.yul\":1716:1842   */\n    tag_113:\n        /* \"#utility.yul\":1753:1760   */\n      0x00\n        /* \"#utility.yul\":1793:1835   */\n      0xffffffffffffffffffffffffffffffffffffffff\n        /* \"#utility.yul\":1786:1791   */\n      dup3\n        /* \"#utility.yul\":1782:1836   */\n      and\n        /* \"#utility.yul\":1771:1836   */\n      swap1\n      pop\n        /* \"#utility.yul\":1716:1842   */\n      swap2\n      swap1\n      pop\n      jump\t// out\n        /* \"#utility.yul\":1848:1908   */\n    tag_114:\n        /* \"#utility.yul\":1876:1879   */\n      0x00\n        /* \"#utility.yul\":1897:1902   */\n      dup2\n        /* \"#utility.yul\":1890:1902   */\n      swap1\n      pop\n        /* \"#utility.yul\":1848:1908   */\n      swap2\n      swap1\n      pop\n      jump\t// out\n        /* \"#utility.yul\":1914:2056   */\n    tag_115:\n        /* \"#utility.yul\":1964:1973   */\n      0x00\n        /* \"#utility.yul\":1997:2050   */\n      tag_177\n        /* \"#utility.yul\":2015:2049   */\n      tag_178\n        /* \"#utility.yul\":2024:2048   */\n      tag_179\n        /* \"#utility.yul\":2042:2047   */\n      dup5\n        /* \"#utility.yul\":2024:2048   */\n      tag_113\n      jump\t// in\n    tag_179:\n        /* \"#utility.yul\":2015:2049   */\n      tag_114\n      jump\t// in\n    tag_178:\n        /* \"#utility.yul\":1997:2050   */\n      tag_113\n      jump\t// in\n    tag_177:\n        /* \"#utility.yul\":1984:2050   */\n      swap1\n      pop\n        /* \"#utility.yul\":1914:2056   */\n      swap2\n      swap1\n      pop\n      jump\t// out\n        /* \"#utility.yul\":2062:2188   */\n    tag_116:\n        /* \"#utility.yul\":2112:2121   */\n      0x00\n        /* \"#utility.yul\":2145:2182   */\n      tag_181\n        /* \"#utility.yul\":2176:2181   */\n      dup3\n        /* \"#utility.yul\":2145:2182   */\n      tag_115\n      jump\t// in\n    tag_181:\n        /* \"#utility.yul\":2132:2182   */\n      swap1\n      pop\n        /* \"#utility.yul\":2062:2188   */\n      swap2\n      swap1\n      pop\n      jump\t// out\n        /* \"#utility.yul\":2194:2335   */\n    tag_117:\n        /* \"#utility.yul\":2259:2268   */\n      0x00\n        /* \"#utility.yul\":2292:2329   */\n      tag_183\n        /* \"#utility.yul\":2323:2328   */\n      dup3\n        /* \"#utility.yul\":2292:2329   */\n      tag_116\n      jump\t// in\n    tag_183:\n        /* \"#utility.yul\":2279:2329   */\n      swap1\n      pop\n        /* \"#utility.yul\":2194:2335   */\n      swap2\n      swap1\n      pop\n      jump\t// out\n        /* \"#utility.yul\":2341:2502   */\n    tag_118:\n        /* \"#utility.yul\":2443:2495   */\n      tag_185\n        /* \"#utility.yul\":2489:2494   */\n      dup2\n        /* \"#utility.yul\":2443:2495   */\n      tag_117\n      jump\t// in\n    tag_185:\n        /* \"#utility.yul\":2438:2441   */\n      dup3\n        /* \"#utility.yul\":2431:2496   */\n      mstore\n        /* \"#utility.yul\":2341:2502   */\n      pop\n      pop\n      jump\t// out\n        /* \"#utility.yul\":2508:2760   */\n    tag_30:\n        /* \"#utility.yul\":2616:2620   */\n      0x00\n        /* \"#utility.yul\":2654:2656   */\n      0x20\n        /* \"#utility.yul\":2643:2652   */\n      dup3\n        /* \"#utility.yul\":2639:2657   */\n      add\n        /* \"#utility.yul\":2631:2657   */\n      swap1\n      pop\n        /* \"#utility.yul\":2667:2753   */\n      tag_187\n        /* \"#utility.yul\":2750:2751   */\n      0x00\n        /* \"#utility.yul\":2739:2748   */\n      dup4\n        /* \"#utility.yul\":2735:2752   */\n      add\n        /* \"#utility.yul\":2726:2732   */\n      dup5\n        /* \"#utility.yul\":2667:2753   */\n      tag_118\n      jump\t// in\n    tag_187:\n        /* \"#utility.yul\":2508:2760   */\n      swap3\n      swap2\n      pop\n      pop\n      jump\t// out\n        /* \"#utility.yul\":2766:2884   */\n    tag_119:\n        /* \"#utility.yul\":2853:2877   */\n      tag_189\n        /* \"#utility.yul\":2871:2876   */\n      dup2\n        /* \"#utility.yul\":2853:2877   */\n      tag_110\n      jump\t// in\n    tag_189:\n        /* \"#utility.yul\":2848:2851   */\n      dup3\n        /* \"#utility.yul\":2841:2878   */\n      mstore\n        /* \"#utility.yul\":2766:2884   */\n      pop\n      pop\n      jump\t// out\n        /* \"#utility.yul\":2890:3112   */\n    tag_35:\n        /* \"#utility.yul\":2983:2987   */\n      0x00\n        /* \"#utility.yul\":3021:3023   */\n      0x20\n        /* \"#utility.yul\":3010:3019   */\n      dup3\n        /* \"#utility.yul\":3006:3024   */\n      add\n        /* \"#utility.yul\":2998:3024   */\n      swap1\n      pop\n        /* \"#utility.yul\":3034:3105   */\n      tag_191\n        /* \"#utility.yul\":3102:3103   */\n      0x00\n        /* \"#utility.yul\":3091:3100   */\n      dup4\n        /* \"#utility.yul\":3087:3104   */\n      add\n        /* \"#utility.yul\":3078:3084   */\n      dup5\n        /* \"#utility.yul\":3034:3105   */\n      tag_119\n      jump\t// in\n    tag_191:\n        /* \"#utility.yul\":2890:3112   */\n      swap3\n      swap2\n      pop\n      pop\n      jump\t// out\n        /* \"#utility.yul\":3118:3222   */\n    tag_120:\n        /* \"#utility.yul\":3163:3170   */\n      0x00\n        /* \"#utility.yul\":3192:3216   */\n      tag_193\n        /* \"#utility.yul\":3210:3215   */\n      dup3\n        /* \"#utility.yul\":3192:3216   */\n      tag_113\n      jump\t// in\n    tag_193:\n        /* \"#utility.yul\":3181:3216   */\n      swap1\n      pop\n        /* \"#utility.yul\":3118:3222   */\n      swap2\n      swap1\n      pop\n      jump\t// out\n        /* \"#utility.yul\":3228:3370   */\n    tag_121:\n        /* \"#utility.yul\":3331:3363   */\n      tag_195\n        /* \"#utility.yul\":3357:3362   */\n      dup2\n        /* \"#utility.yul\":3331:3363   */\n      tag_120\n      jump\t// in\n    tag_195:\n        /* \"#utility.yul\":3326:3329   */\n      dup3\n        /* \"#utility.yul\":3319:3364   */\n      mstore\n        /* \"#utility.yul\":3228:3370   */\n      pop\n      pop\n      jump\t// out\n        /* \"#utility.yul\":3376:3630   */\n    tag_40:\n        /* \"#utility.yul\":3485:3489   */\n      0x00\n        /* \"#utility.yul\":3523:3525   */\n      0x20\n        /* \"#utility.yul\":3512:3521   */\n      dup3\n        /* \"#utility.yul\":3508:3526   */\n      add\n        /* \"#utility.yul\":3500:3526   */\n      swap1\n      pop\n        /* \"#utility.yul\":3536:3623   */\n      tag_197\n        /* \"#utility.yul\":3620:3621   */\n      0x00\n        /* \"#utility.yul\":3609:3618   */\n      dup4\n        /* \"#utility.yul\":3605:3622   */\n      add\n        /* \"#utility.yul\":3596:3602   */\n      dup5\n        /* \"#utility.yul\":3536:3623   */\n      tag_121\n      jump\t// in\n    tag_197:\n        /* \"#utility.yul\":3376:3630   */\n      swap3\n      swap2\n      pop\n      pop\n      jump\t// out\n        /* \"#utility.yul\":3636:3726   */\n    tag_122:\n        /* \"#utility.yul\":3670:3677   */\n      0x00\n        /* \"#utility.yul\":3713:3718   */\n      dup2\n        /* \"#utility.yul\":3706:3719   */\n      iszero\n        /* \"#utility.yul\":3699:3720   */\n      iszero\n        /* \"#utility.yul\":3688:3720   */\n      swap1\n      pop\n        /* \"#utility.yul\":3636:3726   */\n      swap2\n      swap1\n      pop\n      jump\t// out\n        /* \"#utility.yul\":3732:3841   */\n    tag_123:\n        /* \"#utility.yul\":3813:3834   */\n      tag_200\n        /* \"#utility.yul\":3828:3833   */\n      dup2\n        /* \"#utility.yul\":3813:3834   */\n      tag_122\n      jump\t// in\n    tag_200:\n        /* \"#utility.yul\":3808:3811   */\n      dup3\n        /* \"#utility.yul\":3801:3835   */\n      mstore\n        /* \"#utility.yul\":3732:3841   */\n      pop\n      pop\n      jump\t// out\n        /* \"#utility.yul\":3847:4057   */\n    tag_49:\n        /* \"#utility.yul\":3934:3938   */\n      0x00\n        /* \"#utility.yul\":3972:3974   */\n      0x20\n        /* \"#utility.yul\":3961:3970   */\n      dup3\n        /* \"#utility.yul\":3957:3975   */\n      add\n        /* \"#utility.yul\":3949:3975   */\n      swap1\n      pop\n        /* \"#utility.yul\":3985:4050   */\n      tag_202\n        /* \"#utility.yul\":4047:4048   */\n      0x00\n        /* \"#utility.yul\":4036:4045   */\n      dup4\n        /* \"#utility.yul\":4032:4049   */\n      add\n        /* \"#utility.yul\":4023:4029   */\n      dup5\n        /* \"#utility.yul\":3985:4050   */\n      tag_123\n      jump\t// in\n    tag_202:\n        /* \"#utility.yul\":3847:4057   */\n      swap3\n      swap2\n      pop\n      pop\n      jump\t// out\n        /* \"#utility.yul\":4063:4159   */\n    tag_124:\n        /* \"#utility.yul\":4100:4107   */\n      0x00\n        /* \"#utility.yul\":4129:4153   */\n      tag_204\n        /* \"#utility.yul\":4147:4152   */\n      dup3\n        /* \"#utility.yul\":4129:4153   */\n      tag_113\n      jump\t// in\n    tag_204:\n        /* \"#utility.yul\":4118:4153   */\n      swap1\n      pop\n        /* \"#utility.yul\":4063:4159   */\n      swap2\n      swap1\n      pop\n      jump\t// out\n        /* \"#utility.yul\":4165:4287   */\n    tag_125:\n        /* \"#utility.yul\":4238:4262   */\n      tag_206\n        /* \"#utility.yul\":4256:4261   */\n      dup2\n        /* \"#utility.yul\":4238:4262   */\n      tag_124\n      jump\t// in\n    tag_206:\n        /* \"#utility.yul\":4231:4236   */\n      dup2\n        /* \"#utility.yul\":4228:4263   */\n      eq\n        /* \"#utility.yul\":4218:4281   */\n      tag_207\n      jumpi\n        /* \"#utility.yul\":4277:4278   */\n      0x00\n        /* \"#utility.yul\":4274:4275   */\n      dup1\n        /* \"#utility.yul\":4267:4279   */\n      revert\n        /* \"#utility.yul\":4218:4281   */\n    tag_207:\n        /* \"#utility.yul\":4165:4287   */\n      pop\n      jump\t// out\n        /* \"#utility.yul\":4293:4432   */\n    tag_126:\n        /* \"#utility.yul\":4339:4344   */\n      0x00\n        /* \"#utility.yul\":4377:4383   */\n      dup2\n        /* \"#utility.yul\":4364:4384   */\n      calldataload\n        /* \"#utility.yul\":4355:4384   */\n      swap1\n      pop\n        /* \"#utility.yul\":4393:4426   */\n      tag_209\n        /* \"#utility.yul\":4420:4425   */\n      dup2\n        /* \"#utility.yul\":4393:4426   */\n      tag_125\n      jump\t// in\n    tag_209:\n        /* \"#utility.yul\":4293:4432   */\n      swap3\n      swap2\n      pop\n      pop\n      jump\t// out\n        /* \"#utility.yul\":4438:4767   */\n    tag_61:\n        /* \"#utility.yul\":4497:4503   */\n      0x00\n        /* \"#utility.yul\":4546:4548   */\n      0x20\n        /* \"#utility.yul\":4534:4543   */\n      dup3\n        /* \"#utility.yul\":4525:4532   */\n      dup5\n        /* \"#utility.yul\":4521:4544   */\n      sub\n        /* \"#utility.yul\":4517:4549   */\n      slt\n        /* \"#utility.yul\":4514:4633   */\n      iszero\n      tag_211\n      jumpi\n        /* \"#utility.yul\":4552:4631   */\n      tag_212\n      tag_105\n      jump\t// in\n    tag_212:\n        /* \"#utility.yul\":4514:4633   */\n    tag_211:\n        /* \"#utility.yul\":4672:4673   */\n      0x00\n        /* \"#utility.yul\":4697:4750   */\n      tag_213\n        /* \"#utility.yul\":4742:4749   */\n      dup5\n        /* \"#utility.yul\":4733:4739   */\n      dup3\n        /* \"#utility.yul\":4722:4731   */\n      dup6\n        /* \"#utility.yul\":4718:4740   */\n      add\n        /* \"#utility.yul\":4697:4750   */\n      tag_126\n      jump\t// in\n    tag_213:\n        /* \"#utility.yul\":4687:4750   */\n      swap2\n      pop\n        /* \"#utility.yul\":4643:4760   */\n      pop\n        /* \"#utility.yul\":4438:4767   */\n      swap3\n      swap2\n      pop\n      pop\n      jump\t// out\n        /* \"#utility.yul\":4773:4891   */\n    tag_127:\n        /* \"#utility.yul\":4860:4884   */\n      tag_215\n        /* \"#utility.yul\":4878:4883   */\n      dup2\n        /* \"#utility.yul\":4860:4884   */\n      tag_107\n      jump\t// in\n    tag_215:\n        /* \"#utility.yul\":4855:4858   */\n      dup3\n        /* \"#utility.yul\":4848:4885   */\n      mstore\n        /* \"#utility.yul\":4773:4891   */\n      pop\n      pop\n      jump\t// out\n        /* \"#utility.yul\":4897:5119   */\n    tag_64:\n        /* \"#utility.yul\":4990:4994   */\n      0x00\n        /* \"#utility.yul\":5028:5030   */\n      0x20\n        /* \"#utility.yul\":5017:5026   */\n      dup3\n        /* \"#utility.yul\":5013:5031   */\n      add\n        /* \"#utility.yul\":5005:5031   */\n      swap1\n      pop\n        /* \"#utility.yul\":5041:5112   */\n      tag_217\n        /* \"#utility.yul\":5109:5110   */\n      0x00\n        /* \"#utility.yul\":5098:5107   */\n      dup4\n        /* \"#utility.yul\":5094:5111   */\n      add\n        /* \"#utility.yul\":5085:5091   */\n      dup5\n        /* \"#utility.yul\":5041:5112   */\n      tag_127\n      jump\t// in\n    tag_217:\n        /* \"#utility.yul\":4897:5119   */\n      swap3\n      swap2\n      pop\n      pop\n      jump\t// out\n        /* \"#utility.yul\":5125:5294   */\n    tag_128:\n        /* \"#utility.yul\":5209:5220   */\n      0x00\n        /* \"#utility.yul\":5243:5249   */\n      dup3\n        /* \"#utility.yul\":5238:5241   */\n      dup3\n        /* \"#utility.yul\":5231:5250   */\n      mstore\n        /* \"#utility.yul\":5283:5287   */\n      0x20\n        /* \"#utility.yul\":5278:5281   */\n      dup3\n        /* \"#utility.yul\":5274:5288   */\n      add\n        /* \"#utility.yul\":5259:5288   */\n      swap1\n      pop\n        /* \"#utility.yul\":5125:5294   */\n      swap3\n      swap2\n      pop\n      pop\n      jump\t// out\n        /* \"#utility.yul\":5300:5467   */\n    tag_129:\n        /* \"#utility.yul\":5440:5459   */\n      0x41756374696f6e2068617320656e646564000000000000000000000000000000\n        /* \"#utility.yul\":5436:5437   */\n      0x00\n        /* \"#utility.yul\":5428:5434   */\n      dup3\n        /* \"#utility.yul\":5424:5438   */\n      add\n        /* \"#utility.yul\":5417:5460   */\n      mstore\n        /* \"#utility.yul\":5300:5467   */\n      pop\n      jump\t// out\n        /* \"#utility.yul\":5473:5839   */\n    tag_130:\n        /* \"#utility.yul\":5615:5618   */\n      0x00\n        /* \"#utility.yul\":5636:5703   */\n      tag_221\n        /* \"#utility.yul\":5700:5702   */\n      0x11\n        /* \"#utility.yul\":5695:5698   */\n      dup4\n        /* \"#utility.yul\":5636:5703   */\n      tag_128\n      jump\t// in\n    tag_221:\n        /* \"#utility.yul\":5629:5703   */\n      swap2\n      pop\n        /* \"#utility.yul\":5712:5805   */\n      tag_222\n        /* \"#utility.yul\":5801:5804   */\n      dup3\n        /* \"#utility.yul\":5712:5805   */\n      tag_129\n      jump\t// in\n    tag_222:\n        /* \"#utility.yul\":5830:5832   */\n      0x20\n        /* \"#utility.yul\":5825:5828   */\n      dup3\n        /* \"#utility.yul\":5821:5833   */\n      add\n        /* \"#utility.yul\":5814:5833   */\n      swap1\n      pop\n        /* \"#utility.yul\":5473:5839   */\n      swap2\n      swap1\n      pop\n      jump\t// out\n        /* \"#utility.yul\":5845:6264   */\n    tag_68:\n        /* \"#utility.yul\":6011:6015   */\n      0x00\n        /* \"#utility.yul\":6049:6051   */\n      0x20\n        /* \"#utility.yul\":6038:6047   */\n      dup3\n        /* \"#utility.yul\":6034:6052   */\n      add\n        /* \"#utility.yul\":6026:6052   */\n      swap1\n      pop\n        /* \"#utility.yul\":6098:6107   */\n      dup2\n        /* \"#utility.yul\":6092:6096   */\n      dup2\n        /* \"#utility.yul\":6088:6108   */\n      sub\n        /* \"#utility.yul\":6084:6085   */\n      0x00\n        /* \"#utility.yul\":6073:6082   */\n      dup4\n        /* \"#utility.yul\":6069:6086   */\n      add\n        /* \"#utility.yul\":6062:6109   */\n      mstore\n        /* \"#utility.yul\":6126:6257   */\n      tag_224\n        /* \"#utility.yul\":6252:6256   */\n      dup2\n        /* \"#utility.yul\":6126:6257   */\n      tag_130\n      jump\t// in\n    tag_224:\n        /* \"#utility.yul\":6118:6257   */\n      swap1\n      pop\n        /* \"#utility.yul\":5845:6264   */\n      swap2\n      swap1\n      pop\n      jump\t// out\n        /* \"#utility.yul\":6270:6443   */\n    tag_131:\n        /* \"#utility.yul\":6410:6435   */\n      0x416c7265616479207375626d6974746564206120626964000000000000000000\n        /* \"#utility.yul\":6406:6407   */\n      0x00\n        /* \"#utility.yul\":6398:6404   */\n      dup3\n        /* \"#utility.yul\":6394:6408   */\n      add\n        /* \"#utility.yul\":6387:6436   */\n      mstore\n        /* \"#utility.yul\":6270:6443   */\n      pop\n      jump\t// out\n        /* \"#utility.yul\":6449:6815   */\n    tag_132:\n        /* \"#utility.yul\":6591:6594   */\n      0x00\n        /* \"#utility.yul\":6612:6679   */\n      tag_227\n        /* \"#utility.yul\":6676:6678   */\n      0x17\n        /* \"#utility.yul\":6671:6674   */\n      dup4\n        /* \"#utility.yul\":6612:6679   */\n      tag_128\n      jump\t// in\n    tag_227:\n        /* \"#utility.yul\":6605:6679   */\n      swap2\n      pop\n        /* \"#utility.yul\":6688:6781   */\n      tag_228\n        /* \"#utility.yul\":6777:6780   */\n      dup3\n        /* \"#utility.yul\":6688:6781   */\n      tag_131\n      jump\t// in\n    tag_228:\n        /* \"#utility.yul\":6806:6808   */\n      0x20\n        /* \"#utility.yul\":6801:6804   */\n      dup3\n        /* \"#utility.yul\":6797:6809   */\n      add\n        /* \"#utility.yul\":6790:6809   */\n      swap1\n      pop\n        /* \"#utility.yul\":6449:6815   */\n      swap2\n      swap1\n      pop\n      jump\t// out\n        /* \"#utility.yul\":6821:7240   */\n    tag_71:\n        /* \"#utility.yul\":6987:6991   */\n      0x00\n        /* \"#utility.yul\":7025:7027   */\n      0x20\n        /* \"#utility.yul\":7014:7023   */\n      dup3\n        /* \"#utility.yul\":7010:7028   */\n      add\n        /* \"#utility.yul\":7002:7028   */\n      swap1\n      pop\n        /* \"#utility.yul\":7074:7083   */\n      dup2\n        /* \"#utility.yul\":7068:7072   */\n      dup2\n        /* \"#utility.yul\":7064:7084   */\n      sub\n        /* \"#utility.yul\":7060:7061   */\n      0x00\n        /* \"#utility.yul\":7049:7058   */\n      dup4\n        /* \"#utility.yul\":7045:7062   */\n      add\n        /* \"#utility.yul\":7038:7085   */\n      mstore\n        /* \"#utility.yul\":7102:7233   */\n      tag_230\n        /* \"#utility.yul\":7228:7232   */\n      dup2\n        /* \"#utility.yul\":7102:7233   */\n      tag_132\n      jump\t// in\n    tag_230:\n        /* \"#utility.yul\":7094:7233   */\n      swap1\n      pop\n        /* \"#utility.yul\":6821:7240   */\n      swap2\n      swap1\n      pop\n      jump\t// out\n        /* \"#utility.yul\":7246:7421   */\n    tag_133:\n        /* \"#utility.yul\":7386:7413   */\n      0x41756374696f6e20686173206e6f7420656e6465642079657400000000000000\n        /* \"#utility.yul\":7382:7383   */\n      0x00\n        /* \"#utility.yul\":7374:7380   */\n      dup3\n        /* \"#utility.yul\":7370:7384   */\n      add\n        /* \"#utility.yul\":7363:7414   */\n      mstore\n        /* \"#utility.yul\":7246:7421   */\n      pop\n      jump\t// out\n        /* \"#utility.yul\":7427:7793   */\n    tag_134:\n        /* \"#utility.yul\":7569:7572   */\n      0x00\n        /* \"#utility.yul\":7590:7657   */\n      tag_233\n        /* \"#utility.yul\":7654:7656   */\n      0x19\n        /* \"#utility.yul\":7649:7652   */\n      dup4\n        /* \"#utility.yul\":7590:7657   */\n      tag_128\n      jump\t// in\n    tag_233:\n        /* \"#utility.yul\":7583:7657   */\n      swap2\n      pop\n        /* \"#utility.yul\":7666:7759   */\n      tag_234\n        /* \"#utility.yul\":7755:7758   */\n      dup3\n        /* \"#utility.yul\":7666:7759   */\n      tag_133\n      jump\t// in\n    tag_234:\n        /* \"#utility.yul\":7784:7786   */\n      0x20\n        /* \"#utility.yul\":7779:7782   */\n      dup3\n        /* \"#utility.yul\":7775:7787   */\n      add\n        /* \"#utility.yul\":7768:7787   */\n      swap1\n      pop\n        /* \"#utility.yul\":7427:7793   */\n      swap2\n      swap1\n      pop\n      jump\t// out\n        /* \"#utility.yul\":7799:8218   */\n    tag_75:\n        /* \"#utility.yul\":7965:7969   */\n      0x00\n        /* \"#utility.yul\":8003:8005   */\n      0x20\n        /* \"#utility.yul\":7992:8001   */\n      dup3\n        /* \"#utility.yul\":7988:8006   */\n      add\n        /* \"#utility.yul\":7980:8006   */\n      swap1\n      pop\n        /* \"#utility.yul\":8052:8061   */\n      dup2\n        /* \"#utility.yul\":8046:8050   */\n      dup2\n        /* \"#utility.yul\":8042:8062   */\n      sub\n        /* \"#utility.yul\":8038:8039   */\n      0x00\n        /* \"#utility.yul\":8027:8036   */\n      dup4\n        /* \"#utility.yul\":8023:8040   */\n      add\n        /* \"#utility.yul\":8016:8063   */\n      mstore\n        /* \"#utility.yul\":8080:8211   */\n      tag_236\n        /* \"#utility.yul\":8206:8210   */\n      dup2\n        /* \"#utility.yul\":8080:8211   */\n      tag_134\n      jump\t// in\n    tag_236:\n        /* \"#utility.yul\":8072:8211   */\n      swap1\n      pop\n        /* \"#utility.yul\":7799:8218   */\n      swap2\n      swap1\n      pop\n      jump\t// out\n        /* \"#utility.yul\":8224:8404   */\n    tag_135:\n        /* \"#utility.yul\":8364:8396   */\n      0x596f7520617265206e6f74207468652068696768657374206269646465720000\n        /* \"#utility.yul\":8360:8361   */\n      0x00\n        /* \"#utility.yul\":8352:8358   */\n      dup3\n        /* \"#utility.yul\":8348:8362   */\n      add\n        /* \"#utility.yul\":8341:8397   */\n      mstore\n        /* \"#utility.yul\":8224:8404   */\n      pop\n      jump\t// out\n        /* \"#utility.yul\":8410:8776   */\n    tag_136:\n        /* \"#utility.yul\":8552:8555   */\n      0x00\n        /* \"#utility.yul\":8573:8640   */\n      tag_239\n        /* \"#utility.yul\":8637:8639   */\n      0x1e\n        /* \"#utility.yul\":8632:8635   */\n      dup4\n        /* \"#utility.yul\":8573:8640   */\n      tag_128\n      jump\t// in\n    tag_239:\n        /* \"#utility.yul\":8566:8640   */\n      swap2\n      pop\n        /* \"#utility.yul\":8649:8742   */\n      tag_240\n        /* \"#utility.yul\":8738:8741   */\n      dup3\n        /* \"#utility.yul\":8649:8742   */\n      tag_135\n      jump\t// in\n    tag_240:\n        /* \"#utility.yul\":8767:8769   */\n      0x20\n        /* \"#utility.yul\":8762:8765   */\n      dup3\n        /* \"#utility.yul\":8758:8770   */\n      add\n        /* \"#utility.yul\":8751:8770   */\n      swap1\n      pop\n        /* \"#utility.yul\":8410:8776   */\n      swap2\n      swap1\n      pop\n      jump\t// out\n        /* \"#utility.yul\":8782:9201   */\n    tag_78:\n        /* \"#utility.yul\":8948:8952   */\n      0x00\n        /* \"#utility.yul\":8986:8988   */\n      0x20\n        /* \"#utility.yul\":8975:8984   */\n      dup3\n        /* \"#utility.yul\":8971:8989   */\n      add\n        /* \"#utility.yul\":8963:8989   */\n      swap1\n      pop\n        /* \"#utility.yul\":9035:9044   */\n      dup2\n        /* \"#utility.yul\":9029:9033   */\n      dup2\n        /* \"#utility.yul\":9025:9045   */\n      sub\n        /* \"#utility.yul\":9021:9022   */\n      0x00\n        /* \"#utility.yul\":9010:9019   */\n      dup4\n        /* \"#utility.yul\":9006:9023   */\n      add\n        /* \"#utility.yul\":8999:9046   */\n      mstore\n        /* \"#utility.yul\":9063:9194   */\n      tag_242\n        /* \"#utility.yul\":9189:9193   */\n      dup2\n        /* \"#utility.yul\":9063:9194   */\n      tag_136\n      jump\t// in\n    tag_242:\n        /* \"#utility.yul\":9055:9194   */\n      swap1\n      pop\n        /* \"#utility.yul\":8782:9201   */\n      swap2\n      swap1\n      pop\n      jump\t// out\n        /* \"#utility.yul\":9207:9385   */\n    tag_137:\n        /* \"#utility.yul\":9347:9377   */\n      0x496e73756666696369656e7420457468205472616e7366657272656400000000\n        /* \"#utility.yul\":9343:9344   */\n      0x00\n        /* \"#utility.yul\":9335:9341   */\n      dup3\n        /* \"#utility.yul\":9331:9345   */\n      add\n        /* \"#utility.yul\":9324:9378   */\n      mstore\n        /* \"#utility.yul\":9207:9385   */\n      pop\n      jump\t// out\n        /* \"#utility.yul\":9391:9757   */\n    tag_138:\n        /* \"#utility.yul\":9533:9536   */\n      0x00\n        /* \"#utility.yul\":9554:9621   */\n      tag_245\n        /* \"#utility.yul\":9618:9620   */\n      0x1c\n        /* \"#utility.yul\":9613:9616   */\n      dup4\n        /* \"#utility.yul\":9554:9621   */\n      tag_128\n      jump\t// in\n    tag_245:\n        /* \"#utility.yul\":9547:9621   */\n      swap2\n      pop\n        /* \"#utility.yul\":9630:9723   */\n      tag_246\n        /* \"#utility.yul\":9719:9722   */\n      dup3\n        /* \"#utility.yul\":9630:9723   */\n      tag_137\n      jump\t// in\n    tag_246:\n        /* \"#utility.yul\":9748:9750   */\n      0x20\n        /* \"#utility.yul\":9743:9746   */\n      dup3\n        /* \"#utility.yul\":9739:9751   */\n      add\n        /* \"#utility.yul\":9732:9751   */\n      swap1\n      pop\n        /* \"#utility.yul\":9391:9757   */\n      swap2\n      swap1\n      pop\n      jump\t// out\n        /* \"#utility.yul\":9763:10182   */\n    tag_81:\n        /* \"#utility.yul\":9929:9933   */\n      0x00\n        /* \"#utility.yul\":9967:9969   */\n      0x20\n        /* \"#utility.yul\":9956:9965   */\n      dup3\n        /* \"#utility.yul\":9952:9970   */\n      add\n        /* \"#utility.yul\":9944:9970   */\n      swap1\n      pop\n        /* \"#utility.yul\":10016:10025   */\n      dup2\n        /* \"#utility.yul\":10010:10014   */\n      dup2\n        /* \"#utility.yul\":10006:10026   */\n      sub\n        /* \"#utility.yul\":10002:10003   */\n      0x00\n        /* \"#utility.yul\":9991:10000   */\n      dup4\n        /* \"#utility.yul\":9987:10004   */\n      add\n        /* \"#utility.yul\":9980:10027   */\n      mstore\n        /* \"#utility.yul\":10044:10175   */\n      tag_248\n        /* \"#utility.yul\":10170:10174   */\n      dup2\n        /* \"#utility.yul\":10044:10175   */\n      tag_138\n      jump\t// in\n    tag_248:\n        /* \"#utility.yul\":10036:10175   */\n      swap1\n      pop\n        /* \"#utility.yul\":9763:10182   */\n      swap2\n      swap1\n      pop\n      jump\t// out\n        /* \"#utility.yul\":10188:10358   */\n    tag_139:\n        /* \"#utility.yul\":10328:10350   */\n      0x5061796d656e7420616c7265616479206d616465000000000000000000000000\n        /* \"#utility.yul\":10324:10325   */\n      0x00\n        /* \"#utility.yul\":10316:10322   */\n      dup3\n        /* \"#utility.yul\":10312:10326   */\n      add\n        /* \"#utility.yul\":10305:10351   */\n      mstore\n        /* \"#utility.yul\":10188:10358   */\n      pop\n      jump\t// out\n        /* \"#utility.yul\":10364:10730   */\n    tag_140:\n        /* \"#utility.yul\":10506:10509   */\n      0x00\n        /* \"#utility.yul\":10527:10594   */\n      tag_251\n        /* \"#utility.yul\":10591:10593   */\n      0x14\n        /* \"#utility.yul\":10586:10589   */\n      dup4\n        /* \"#utility.yul\":10527:10594   */\n      tag_128\n      jump\t// in\n    tag_251:\n        /* \"#utility.yul\":10520:10594   */\n      swap2\n      pop\n        /* \"#utility.yul\":10603:10696   */\n      tag_252\n        /* \"#utility.yul\":10692:10695   */\n      dup3\n        /* \"#utility.yul\":10603:10696   */\n      tag_139\n      jump\t// in\n    tag_252:\n        /* \"#utility.yul\":10721:10723   */\n      0x20\n        /* \"#utility.yul\":10716:10719   */\n      dup3\n        /* \"#utility.yul\":10712:10724   */\n      add\n        /* \"#utility.yul\":10705:10724   */\n      swap1\n      pop\n        /* \"#utility.yul\":10364:10730   */\n      swap2\n      swap1\n      pop\n      jump\t// out\n        /* \"#utility.yul\":10736:11155   */\n    tag_84:\n        /* \"#utility.yul\":10902:10906   */\n      0x00\n        /* \"#utility.yul\":10940:10942   */\n      0x20\n        /* \"#utility.yul\":10929:10938   */\n      dup3\n        /* \"#utility.yul\":10925:10943   */\n      add\n        /* \"#utility.yul\":10917:10943   */\n      swap1\n      pop\n        /* \"#utility.yul\":10989:10998   */\n      dup2\n        /* \"#utility.yul\":10983:10987   */\n      dup2\n        /* \"#utility.yul\":10979:10999   */\n      sub\n        /* \"#utility.yul\":10975:10976   */\n      0x00\n        /* \"#utility.yul\":10964:10973   */\n      dup4\n        /* \"#utility.yul\":10960:10977   */\n      add\n        /* \"#utility.yul\":10953:11000   */\n      mstore\n        /* \"#utility.yul\":11017:11148   */\n      tag_254\n        /* \"#utility.yul\":11143:11147   */\n      dup2\n        /* \"#utility.yul\":11017:11148   */\n      tag_140\n      jump\t// in\n    tag_254:\n        /* \"#utility.yul\":11009:11148   */\n      swap1\n      pop\n        /* \"#utility.yul\":10736:11155   */\n      swap2\n      swap1\n      pop\n      jump\t// out\n        /* \"#utility.yul\":11161:11295   */\n    tag_141:\n        /* \"#utility.yul\":11219:11228   */\n      0x00\n        /* \"#utility.yul\":11252:11289   */\n      tag_256\n        /* \"#utility.yul\":11283:11288   */\n      dup3\n        /* \"#utility.yul\":11252:11289   */\n      tag_116\n      jump\t// in\n    tag_256:\n        /* \"#utility.yul\":11239:11289   */\n      swap1\n      pop\n        /* \"#utility.yul\":11161:11295   */\n      swap2\n      swap1\n      pop\n      jump\t// out\n        /* \"#utility.yul\":11301:11448   */\n    tag_142:\n        /* \"#utility.yul\":11396:11441   */\n      tag_258\n        /* \"#utility.yul\":11435:11440   */\n      dup2\n        /* \"#utility.yul\":11396:11441   */\n      tag_141\n      jump\t// in\n    tag_258:\n        /* \"#utility.yul\":11391:11394   */\n      dup3\n        /* \"#utility.yul\":11384:11442   */\n      mstore\n        /* \"#utility.yul\":11301:11448   */\n      pop\n      pop\n      jump\t// out\n        /* \"#utility.yul\":11454:11572   */\n    tag_143:\n        /* \"#utility.yul\":11541:11565   */\n      tag_260\n        /* \"#utility.yul\":11559:11564   */\n      dup2\n        /* \"#utility.yul\":11541:11565   */\n      tag_124\n      jump\t// in\n    tag_260:\n        /* \"#utility.yul\":11536:11539   */\n      dup3\n        /* \"#utility.yul\":11529:11566   */\n      mstore\n        /* \"#utility.yul\":11454:11572   */\n      pop\n      pop\n      jump\t// out\n        /* \"#utility.yul\":11578:12036   */\n    tag_88:\n        /* \"#utility.yul\":11735:11739   */\n      0x00\n        /* \"#utility.yul\":11773:11775   */\n      0x60\n        /* \"#utility.yul\":11762:11771   */\n      dup3\n        /* \"#utility.yul\":11758:11776   */\n      add\n        /* \"#utility.yul\":11750:11776   */\n      swap1\n      pop\n        /* \"#utility.yul\":11786:11865   */\n      tag_262\n        /* \"#utility.yul\":11862:11863   */\n      0x00\n        /* \"#utility.yul\":11851:11860   */\n      dup4\n        /* \"#utility.yul\":11847:11864   */\n      add\n        /* \"#utility.yul\":11838:11844   */\n      dup7\n        /* \"#utility.yul\":11786:11865   */\n      tag_142\n      jump\t// in\n    tag_262:\n        /* \"#utility.yul\":11875:11947   */\n      tag_263\n        /* \"#utility.yul\":11943:11945   */\n      0x20\n        /* \"#utility.yul\":11932:11941   */\n      dup4\n        /* \"#utility.yul\":11928:11946   */\n      add\n        /* \"#utility.yul\":11919:11925   */\n      dup6\n        /* \"#utility.yul\":11875:11947   */\n      tag_143\n      jump\t// in\n    tag_263:\n        /* \"#utility.yul\":11957:12029   */\n      tag_264\n        /* \"#utility.yul\":12025:12027   */\n      0x40\n        /* \"#utility.yul\":12014:12023   */\n      dup4\n        /* \"#utility.yul\":12010:12028   */\n      add\n        /* \"#utility.yul\":12001:12007   */\n      dup5\n        /* \"#utility.yul\":11957:12029   */\n      tag_119\n      jump\t// in\n    tag_264:\n        /* \"#utility.yul\":11578:12036   */\n      swap5\n      swap4\n      pop\n      pop\n      pop\n      pop\n      jump\t// out\n        /* \"#utility.yul\":12042:12208   */\n    tag_144:\n        /* \"#utility.yul\":12182:12200   */\n      0x4e6f20626964207375626d697474656400000000000000000000000000000000\n        /* \"#utility.yul\":12178:12179   */\n      0x00\n        /* \"#utility.yul\":12170:12176   */\n      dup3\n        /* \"#utility.yul\":12166:12180   */\n      add\n        /* \"#utility.yul\":12159:12201   */\n      mstore\n        /* \"#utility.yul\":12042:12208   */\n      pop\n      jump\t// out\n        /* \"#utility.yul\":12214:12580   */\n    tag_145:\n        /* \"#utility.yul\":12356:12359   */\n      0x00\n        /* \"#utility.yul\":12377:12444   */\n      tag_267\n        /* \"#utility.yul\":12441:12443   */\n      0x10\n        /* \"#utility.yul\":12436:12439   */\n      dup4\n        /* \"#utility.yul\":12377:12444   */\n      tag_128\n      jump\t// in\n    tag_267:\n        /* \"#utility.yul\":12370:12444   */\n      swap2\n      pop\n        /* \"#utility.yul\":12453:12546   */\n      tag_268\n        /* \"#utility.yul\":12542:12545   */\n      dup3\n        /* \"#utility.yul\":12453:12546   */\n      tag_144\n      jump\t// in\n    tag_268:\n        /* \"#utility.yul\":12571:12573   */\n      0x20\n        /* \"#utility.yul\":12566:12569   */\n      dup3\n        /* \"#utility.yul\":12562:12574   */\n      add\n        /* \"#utility.yul\":12555:12574   */\n      swap1\n      pop\n        /* \"#utility.yul\":12214:12580   */\n      swap2\n      swap1\n      pop\n      jump\t// out\n        /* \"#utility.yul\":12586:13005   */\n    tag_97:\n        /* \"#utility.yul\":12752:12756   */\n      0x00\n        /* \"#utility.yul\":12790:12792   */\n      0x20\n        /* \"#utility.yul\":12779:12788   */\n      dup3\n        /* \"#utility.yul\":12775:12793   */\n      add\n        /* \"#utility.yul\":12767:12793   */\n      swap1\n      pop\n        /* \"#utility.yul\":12839:12848   */\n      dup2\n        /* \"#utility.yul\":12833:12837   */\n      dup2\n        /* \"#utility.yul\":12829:12849   */\n      sub\n        /* \"#utility.yul\":12825:12826   */\n      0x00\n        /* \"#utility.yul\":12814:12823   */\n      dup4\n        /* \"#utility.yul\":12810:12827   */\n      add\n        /* \"#utility.yul\":12803:12850   */\n      mstore\n        /* \"#utility.yul\":12867:12998   */\n      tag_270\n        /* \"#utility.yul\":12993:12997   */\n      dup2\n        /* \"#utility.yul\":12867:12998   */\n      tag_145\n      jump\t// in\n    tag_270:\n        /* \"#utility.yul\":12859:12998   */\n      swap1\n      pop\n        /* \"#utility.yul\":12586:13005   */\n      swap2\n      swap1\n      pop\n      jump\t// out\n        /* \"#utility.yul\":13011:13090   */\n    tag_146:\n        /* \"#utility.yul\":13050:13057   */\n      0x00\n        /* \"#utility.yul\":13079:13084   */\n      dup2\n        /* \"#utility.yul\":13068:13084   */\n      swap1\n      pop\n        /* \"#utility.yul\":13011:13090   */\n      swap2\n      swap1\n      pop\n      jump\t// out\n        /* \"#utility.yul\":13096:13253   */\n    tag_147:\n        /* \"#utility.yul\":13201:13246   */\n      tag_273\n        /* \"#utility.yul\":13221:13245   */\n      tag_274\n        /* \"#utility.yul\":13239:13244   */\n      dup3\n        /* \"#utility.yul\":13221:13245   */\n      tag_110\n      jump\t// in\n    tag_274:\n        /* \"#utility.yul\":13201:13246   */\n      tag_146\n      jump\t// in\n    tag_273:\n        /* \"#utility.yul\":13196:13199   */\n      dup3\n        /* \"#utility.yul\":13189:13247   */\n      mstore\n        /* \"#utility.yul\":13096:13253   */\n      pop\n      pop\n      jump\t// out\n        /* \"#utility.yul\":13259:13515   */\n    tag_99:\n        /* \"#utility.yul\":13371:13374   */\n      0x00\n        /* \"#utility.yul\":13386:13461   */\n      tag_276\n        /* \"#utility.yul\":13457:13460   */\n      dup3\n        /* \"#utility.yul\":13448:13454   */\n      dup5\n        /* \"#utility.yul\":13386:13461   */\n      tag_147\n      jump\t// in\n    tag_276:\n        /* \"#utility.yul\":13486:13488   */\n      0x20\n        /* \"#utility.yul\":13481:13484   */\n      dup3\n        /* \"#utility.yul\":13477:13489   */\n      add\n        /* \"#utility.yul\":13470:13489   */\n      swap2\n      pop\n        /* \"#utility.yul\":13506:13509   */\n      dup2\n        /* \"#utility.yul\":13499:13509   */\n      swap1\n      pop\n        /* \"#utility.yul\":13259:13515   */\n      swap3\n      swap2\n      pop\n      pop\n      jump\t// out\n        /* \"#utility.yul\":13521:13744   */\n    tag_148:\n        /* \"#utility.yul\":13661:13695   */\n      0x41637475616c2062696420646f6573206e6f74206d6174636820686173686564\n        /* \"#utility.yul\":13657:13658   */\n      0x00\n        /* \"#utility.yul\":13649:13655   */\n      dup3\n        /* \"#utility.yul\":13645:13659   */\n      add\n        /* \"#utility.yul\":13638:13696   */\n      mstore\n        /* \"#utility.yul\":13730:13736   */\n      0x2062696400000000000000000000000000000000000000000000000000000000\n        /* \"#utility.yul\":13725:13727   */\n      0x20\n        /* \"#utility.yul\":13717:13723   */\n      dup3\n        /* \"#utility.yul\":13713:13728   */\n      add\n        /* \"#utility.yul\":13706:13737   */\n      mstore\n        /* \"#utility.yul\":13521:13744   */\n      pop\n      jump\t// out\n        /* \"#utility.yul\":13750:14116   */\n    tag_149:\n        /* \"#utility.yul\":13892:13895   */\n      0x00\n        /* \"#utility.yul\":13913:13980   */\n      tag_279\n        /* \"#utility.yul\":13977:13979   */\n      0x24\n        /* \"#utility.yul\":13972:13975   */\n      dup4\n        /* \"#utility.yul\":13913:13980   */\n      tag_128\n      jump\t// in\n    tag_279:\n        /* \"#utility.yul\":13906:13980   */\n      swap2\n      pop\n        /* \"#utility.yul\":13989:14082   */\n      tag_280\n        /* \"#utility.yul\":14078:14081   */\n      dup3\n        /* \"#utility.yul\":13989:14082   */\n      tag_148\n      jump\t// in\n    tag_280:\n        /* \"#utility.yul\":14107:14109   */\n      0x40\n        /* \"#utility.yul\":14102:14105   */\n      dup3\n        /* \"#utility.yul\":14098:14110   */\n      add\n        /* \"#utility.yul\":14091:14110   */\n      swap1\n      pop\n        /* \"#utility.yul\":13750:14116   */\n      swap2\n      swap1\n      pop\n      jump\t// out\n        /* \"#utility.yul\":14122:14541   */\n    tag_102:\n        /* \"#utility.yul\":14288:14292   */\n      0x00\n        /* \"#utility.yul\":14326:14328   */\n      0x20\n        /* \"#utility.yul\":14315:14324   */\n      dup3\n        /* \"#utility.yul\":14311:14329   */\n      add\n        /* \"#utility.yul\":14303:14329   */\n      swap1\n      pop\n        /* \"#utility.yul\":14375:14384   */\n      dup2\n        /* \"#utility.yul\":14369:14373   */\n      dup2\n        /* \"#utility.yul\":14365:14385   */\n      sub\n        /* \"#utility.yul\":14361:14362   */\n      0x00\n        /* \"#utility.yul\":14350:14359   */\n      dup4\n        /* \"#utility.yul\":14346:14363   */\n      add\n        /* \"#utility.yul\":14339:14386   */\n      mstore\n        /* \"#utility.yul\":14403:14534   */\n      tag_282\n        /* \"#utility.yul\":14529:14533   */\n      dup2\n        /* \"#utility.yul\":14403:14534   */\n      tag_149\n      jump\t// in\n    tag_282:\n        /* \"#utility.yul\":14395:14534   */\n      swap1\n      pop\n        /* \"#utility.yul\":14122:14541   */\n      swap2\n      swap1\n      pop\n      jump\t// out\n\n    auxdata: 0xa26469706673582212200c27a4203f039d1ef91a8ff3a737660c15cdbbb8ca5f5fc486be230020b7e53664736f6c63430008110033\n}\n",
				"bytecode": {
					"linkReferences": {},
					"object": "60806040523480156200001157600080fd5b50604051620013b9380380620013b9833981810160405281019062000037919062000270565b3373ffffffffffffffffffffffffffffffffffffffff168273ffffffffffffffffffffffffffffffffffffffff16636352211e836040518263ffffffff1660e01b8152600401620000899190620002dd565b602060405180830381865afa158015620000a7573d6000803e3d6000fd5b505050506040513d601f19601f82011682018060405250810190620000cd9190620002fa565b73ffffffffffffffffffffffffffffffffffffffff161462000126576040517f08c379a00000000000000000000000000000000000000000000000000000000081526004016200011d906200038d565b60405180910390fd5b336000806101000a81548173ffffffffffffffffffffffffffffffffffffffff021916908373ffffffffffffffffffffffffffffffffffffffff1602179055508242620001749190620003de565b60018190555081600460006101000a81548173ffffffffffffffffffffffffffffffffffffffff021916908373ffffffffffffffffffffffffffffffffffffffff1602179055508060058190555050505062000419565b600080fd5b6000819050919050565b620001e581620001d0565b8114620001f157600080fd5b50565b6000815190506200020581620001da565b92915050565b600073ffffffffffffffffffffffffffffffffffffffff82169050919050565b600062000238826200020b565b9050919050565b6200024a816200022b565b81146200025657600080fd5b50565b6000815190506200026a816200023f565b92915050565b6000806000606084860312156200028c576200028b620001cb565b5b60006200029c86828701620001f4565b9350506020620002af8682870162000259565b9250506040620002c286828701620001f4565b9150509250925092565b620002d781620001d0565b82525050565b6000602082019050620002f46000830184620002cc565b92915050565b600060208284031215620003135762000312620001cb565b5b6000620003238482850162000259565b91505092915050565b600082825260208201905092915050565b7f41756374696f6e65657220646f6573206e6f74206f776e204e46540000000000600082015250565b600062000375601b836200032c565b915062000382826200033d565b602082019050919050565b60006020820190508181036000830152620003a88162000366565b9050919050565b7f4e487b7100000000000000000000000000000000000000000000000000000000600052601160045260246000fd5b6000620003eb82620001d0565b9150620003f883620001d0565b9250828201905080821115620004135762000412620003af565b5b92915050565b610f9080620004296000396000f3fe60806040526004361061009c5760003560e01c806391f901571161006457806391f9015714610153578063c6bc51821461017e578063c810af81146101a9578063d3924aaf146101d4578063d57bde79146101ff578063f4c453731461022a5761009c565b80631b3fa800146100a15780631b9265b8146100ca5780633e3b903e146100d457806347ccca02146100fd5780634b449cba14610128575b600080fd5b3480156100ad57600080fd5b506100c860048036038101906100c391906108c5565b610267565b005b6100d2610377565b005b3480156100e057600080fd5b506100fb60048036038101906100f69190610928565b610618565b005b34801561010957600080fd5b506101126107dd565b60405161011f91906109d4565b60405180910390f35b34801561013457600080fd5b5061013d610803565b60405161014a91906109fe565b60405180910390f35b34801561015f57600080fd5b50610168610809565b6040516101759190610a3a565b60405180910390f35b34801561018a57600080fd5b5061019361082f565b6040516101a091906109fe565b60405180910390f35b3480156101b557600080fd5b506101be610835565b6040516101cb9190610a70565b60405180910390f35b3480156101e057600080fd5b506101e9610848565b6040516101f69190610a3a565b60405180910390f35b34801561020b57600080fd5b5061021461086c565b60405161022191906109fe565b60405180910390f35b34801561023657600080fd5b50610251600480360381019061024c9190610ac9565b610872565b60405161025e9190610b05565b60405180910390f35b6001544211156102ac576040517f08c379a00000000000000000000000000000000000000000000000000000000081526004016102a390610b7d565b60405180910390fd5b6000801b600660003373ffffffffffffffffffffffffffffffffffffffff1673ffffffffffffffffffffffffffffffffffffffff1681526020019081526020016000205414610330576040517f08c379a000000000000000000000000000000000000000000000000000000000815260040161032790610be9565b60405180910390fd5b80600660003373ffffffffffffffffffffffffffffffffffffffff1673ffffffffffffffffffffffffffffffffffffffff1681526020019081526020016000208190555050565b60015442116103bb576040517f08c379a00000000000000000000000000000000000000000000000000000000081526004016103b290610c55565b60405180910390fd5b600360009054906101000a900473ffffffffffffffffffffffffffffffffffffffff1673ffffffffffffffffffffffffffffffffffffffff163373ffffffffffffffffffffffffffffffffffffffff161461044b576040517f08c379a000000000000000000000000000000000000000000000000000000000815260040161044290610cc1565b60405180910390fd5b600254341461048f576040517f08c379a000000000000000000000000000000000000000000000000000000000815260040161048690610d2d565b60405180910390fd5b600360149054906101000a900460ff16156104df576040517f08c379a00000000000000000000000000000000000000000000000000000000081526004016104d690610d99565b60405180910390fd5b6001600360146101000a81548160ff02191690831515021790555060008054906101000a900473ffffffffffffffffffffffffffffffffffffffff1673ffffffffffffffffffffffffffffffffffffffff166108fc6002549081150290604051600060405180830381858888f19350505050158015610562573d6000803e3d6000fd5b50600460009054906101000a900473ffffffffffffffffffffffffffffffffffffffff1673ffffffffffffffffffffffffffffffffffffffff166342842e0e60008054906101000a900473ffffffffffffffffffffffffffffffffffffffff16336005546040518463ffffffff1660e01b81526004016105e493929190610de9565b600060405180830381600087803b1580156105fe57600080fd5b505af1158015610612573d6000803e3d6000fd5b50505050565b600154421161065c576040517f08c379a000000000000000000000000000000000000000000000000000000000815260040161065390610c55565b60405180910390fd5b6000801b600660003373ffffffffffffffffffffffffffffffffffffffff1673ffffffffffffffffffffffffffffffffffffffff16815260200190815260200160002054036106e0576040517f08c379a00000000000000000000000000000000000000000000000000000000081526004016106d790610e6c565b60405180910390fd5b600660003373ffffffffffffffffffffffffffffffffffffffff1673ffffffffffffffffffffffffffffffffffffffff16815260200190815260200160002054816040516020016107319190610ead565b6040516020818303038152906040528051906020012014610787576040517f08c379a000000000000000000000000000000000000000000000000000000000815260040161077e90610f3a565b60405180910390fd5b6002548111156107da578060028190555033600360006101000a81548173ffffffffffffffffffffffffffffffffffffffff021916908373ffffffffffffffffffffffffffffffffffffffff1602179055505b50565b600460009054906101000a900473ffffffffffffffffffffffffffffffffffffffff1681565b60015481565b600360009054906101000a900473ffffffffffffffffffffffffffffffffffffffff1681565b60055481565b600360149054906101000a900460ff1681565b60008054906101000a900473ffffffffffffffffffffffffffffffffffffffff1681565b60025481565b60066020528060005260406000206000915090505481565b600080fd5b6000819050919050565b6108a28161088f565b81146108ad57600080fd5b50565b6000813590506108bf81610899565b92915050565b6000602082840312156108db576108da61088a565b5b60006108e9848285016108b0565b91505092915050565b6000819050919050565b610905816108f2565b811461091057600080fd5b50565b600081359050610922816108fc565b92915050565b60006020828403121561093e5761093d61088a565b5b600061094c84828501610913565b91505092915050565b600073ffffffffffffffffffffffffffffffffffffffff82169050919050565b6000819050919050565b600061099a61099561099084610955565b610975565b610955565b9050919050565b60006109ac8261097f565b9050919050565b60006109be826109a1565b9050919050565b6109ce816109b3565b82525050565b60006020820190506109e960008301846109c5565b92915050565b6109f8816108f2565b82525050565b6000602082019050610a1360008301846109ef565b92915050565b6000610a2482610955565b9050919050565b610a3481610a19565b82525050565b6000602082019050610a4f6000830184610a2b565b92915050565b60008115159050919050565b610a6a81610a55565b82525050565b6000602082019050610a856000830184610a61565b92915050565b6000610a9682610955565b9050919050565b610aa681610a8b565b8114610ab157600080fd5b50565b600081359050610ac381610a9d565b92915050565b600060208284031215610adf57610ade61088a565b5b6000610aed84828501610ab4565b91505092915050565b610aff8161088f565b82525050565b6000602082019050610b1a6000830184610af6565b92915050565b600082825260208201905092915050565b7f41756374696f6e2068617320656e646564000000000000000000000000000000600082015250565b6000610b67601183610b20565b9150610b7282610b31565b602082019050919050565b60006020820190508181036000830152610b9681610b5a565b9050919050565b7f416c7265616479207375626d6974746564206120626964000000000000000000600082015250565b6000610bd3601783610b20565b9150610bde82610b9d565b602082019050919050565b60006020820190508181036000830152610c0281610bc6565b9050919050565b7f41756374696f6e20686173206e6f7420656e6465642079657400000000000000600082015250565b6000610c3f601983610b20565b9150610c4a82610c09565b602082019050919050565b60006020820190508181036000830152610c6e81610c32565b9050919050565b7f596f7520617265206e6f74207468652068696768657374206269646465720000600082015250565b6000610cab601e83610b20565b9150610cb682610c75565b602082019050919050565b60006020820190508181036000830152610cda81610c9e565b9050919050565b7f496e73756666696369656e7420457468205472616e7366657272656400000000600082015250565b6000610d17601c83610b20565b9150610d2282610ce1565b602082019050919050565b60006020820190508181036000830152610d4681610d0a565b9050919050565b7f5061796d656e7420616c7265616479206d616465000000000000000000000000600082015250565b6000610d83601483610b20565b9150610d8e82610d4d565b602082019050919050565b60006020820190508181036000830152610db281610d76565b9050919050565b6000610dc4826109a1565b9050919050565b610dd481610db9565b82525050565b610de381610a8b565b82525050565b6000606082019050610dfe6000830186610dcb565b610e0b6020830185610dda565b610e1860408301846109ef565b949350505050565b7f4e6f20626964207375626d697474656400000000000000000000000000000000600082015250565b6000610e56601083610b20565b9150610e6182610e20565b602082019050919050565b60006020820190508181036000830152610e8581610e49565b9050919050565b6000819050919050565b610ea7610ea2826108f2565b610e8c565b82525050565b6000610eb98284610e96565b60208201915081905092915050565b7f41637475616c2062696420646f6573206e6f74206d617463682068617368656460008201527f2062696400000000000000000000000000000000000000000000000000000000602082015250565b6000610f24602483610b20565b9150610f2f82610ec8565b604082019050919050565b60006020820190508181036000830152610f5381610f17565b905091905056fea26469706673582212200c27a4203f039d1ef91a8ff3a737660c15cdbbb8ca5f5fc486be230020b7e53664736f6c63430008110033",
					"opcodes": "PUSH1 0x80 PUSH1 0x40 MSTORE CALLVALUE DUP1 ISZERO PUSH3 0x11 JUMPI PUSH1 0x0 DUP1 REVERT JUMPDEST POP PUSH1 0x40 MLOAD PUSH3 0x13B9 CODESIZE SUB DUP1 PUSH3 0x13B9 DUP4 CODECOPY DUP2 DUP2 ADD PUSH1 0x40 MSTORE DUP2 ADD SWAP1 PUSH3 0x37 SWAP2 SWAP1 PUSH3 0x270 JUMP JUMPDEST CALLER PUSH20 0xFFFFFFFFFFFFFFFFFFFFFFFFFFFFFFFFFFFFFFFF AND DUP3 PUSH20 0xFFFFFFFFFFFFFFFFFFFFFFFFFFFFFFFFFFFFFFFF AND PUSH4 0x6352211E DUP4 PUSH1 0x40 MLOAD DUP3 PUSH4 0xFFFFFFFF AND PUSH1 0xE0 SHL DUP2 MSTORE PUSH1 0x4 ADD PUSH3 0x89 SWAP2 SWAP1 PUSH3 0x2DD JUMP JUMPDEST PUSH1 0x20 PUSH1 0x40 MLOAD DUP1 DUP4 SUB DUP2 DUP7 GAS STATICCALL ISZERO DUP1 ISZERO PUSH3 0xA7 JUMPI RETURNDATASIZE PUSH1 0x0 DUP1 RETURNDATACOPY RETURNDATASIZE PUSH1 0x0 REVERT JUMPDEST POP POP POP POP PUSH1 0x40 MLOAD RETURNDATASIZE PUSH1 0x1F NOT PUSH1 0x1F DUP3 ADD AND DUP3 ADD DUP1 PUSH1 0x40 MSTORE POP DUP2 ADD SWAP1 PUSH3 0xCD SWAP2 SWAP1 PUSH3 0x2FA JUMP JUMPDEST PUSH20 0xFFFFFFFFFFFFFFFFFFFFFFFFFFFFFFFFFFFFFFFF AND EQ PUSH3 0x126 JUMPI PUSH1 0x40 MLOAD PUSH32 0x8C379A000000000000000000000000000000000000000000000000000000000 DUP2 MSTORE PUSH1 0x4 ADD PUSH3 0x11D SWAP1 PUSH3 0x38D JUMP JUMPDEST PUSH1 0x40 MLOAD DUP1 SWAP2 SUB SWAP1 REVERT JUMPDEST CALLER PUSH1 0x0 DUP1 PUSH2 0x100 EXP DUP2 SLOAD DUP2 PUSH20 0xFFFFFFFFFFFFFFFFFFFFFFFFFFFFFFFFFFFFFFFF MUL NOT AND SWAP1 DUP4 PUSH20 0xFFFFFFFFFFFFFFFFFFFFFFFFFFFFFFFFFFFFFFFF AND MUL OR SWAP1 SSTORE POP DUP3 TIMESTAMP PUSH3 0x174 SWAP2 SWAP1 PUSH3 0x3DE JUMP JUMPDEST PUSH1 0x1 DUP2 SWAP1 SSTORE POP DUP2 PUSH1 0x4 PUSH1 0x0 PUSH2 0x100 EXP DUP2 SLOAD DUP2 PUSH20 0xFFFFFFFFFFFFFFFFFFFFFFFFFFFFFFFFFFFFFFFF MUL NOT AND SWAP1 DUP4 PUSH20 0xFFFFFFFFFFFFFFFFFFFFFFFFFFFFFFFFFFFFFFFF AND MUL OR SWAP1 SSTORE POP DUP1 PUSH1 0x5 DUP2 SWAP1 SSTORE POP POP POP POP PUSH3 0x419 JUMP JUMPDEST PUSH1 0x0 DUP1 REVERT JUMPDEST PUSH1 0x0 DUP2 SWAP1 POP SWAP2 SWAP1 POP JUMP JUMPDEST PUSH3 0x1E5 DUP2 PUSH3 0x1D0 JUMP JUMPDEST DUP2 EQ PUSH3 0x1F1 JUMPI PUSH1 0x0 DUP1 REVERT JUMPDEST POP JUMP JUMPDEST PUSH1 0x0 DUP2 MLOAD SWAP1 POP PUSH3 0x205 DUP2 PUSH3 0x1DA JUMP JUMPDEST SWAP3 SWAP2 POP POP JUMP JUMPDEST PUSH1 0x0 PUSH20 0xFFFFFFFFFFFFFFFFFFFFFFFFFFFFFFFFFFFFFFFF DUP3 AND SWAP1 POP SWAP2 SWAP1 POP JUMP JUMPDEST PUSH1 0x0 PUSH3 0x238 DUP3 PUSH3 0x20B JUMP JUMPDEST SWAP1 POP SWAP2 SWAP1 POP JUMP JUMPDEST PUSH3 0x24A DUP2 PUSH3 0x22B JUMP JUMPDEST DUP2 EQ PUSH3 0x256 JUMPI PUSH1 0x0 DUP1 REVERT JUMPDEST POP JUMP JUMPDEST PUSH1 0x0 DUP2 MLOAD SWAP1 POP PUSH3 0x26A DUP2 PUSH3 0x23F JUMP JUMPDEST SWAP3 SWAP2 POP POP JUMP JUMPDEST PUSH1 0x0 DUP1 PUSH1 0x0 PUSH1 0x60 DUP5 DUP7 SUB SLT ISZERO PUSH3 0x28C JUMPI PUSH3 0x28B PUSH3 0x1CB JUMP JUMPDEST JUMPDEST PUSH1 0x0 PUSH3 0x29C DUP7 DUP3 DUP8 ADD PUSH3 0x1F4 JUMP JUMPDEST SWAP4 POP POP PUSH1 0x20 PUSH3 0x2AF DUP7 DUP3 DUP8 ADD PUSH3 0x259 JUMP JUMPDEST SWAP3 POP POP PUSH1 0x40 PUSH3 0x2C2 DUP7 DUP3 DUP8 ADD PUSH3 0x1F4 JUMP JUMPDEST SWAP2 POP POP SWAP3 POP SWAP3 POP SWAP3 JUMP JUMPDEST PUSH3 0x2D7 DUP2 PUSH3 0x1D0 JUMP JUMPDEST DUP3 MSTORE POP POP JUMP JUMPDEST PUSH1 0x0 PUSH1 0x20 DUP3 ADD SWAP1 POP PUSH3 0x2F4 PUSH1 0x0 DUP4 ADD DUP5 PUSH3 0x2CC JUMP JUMPDEST SWAP3 SWAP2 POP POP JUMP JUMPDEST PUSH1 0x0 PUSH1 0x20 DUP3 DUP5 SUB SLT ISZERO PUSH3 0x313 JUMPI PUSH3 0x312 PUSH3 0x1CB JUMP JUMPDEST JUMPDEST PUSH1 0x0 PUSH3 0x323 DUP5 DUP3 DUP6 ADD PUSH3 0x259 JUMP JUMPDEST SWAP2 POP POP SWAP3 SWAP2 POP POP JUMP JUMPDEST PUSH1 0x0 DUP3 DUP3 MSTORE PUSH1 0x20 DUP3 ADD SWAP1 POP SWAP3 SWAP2 POP POP JUMP JUMPDEST PUSH32 0x41756374696F6E65657220646F6573206E6F74206F776E204E46540000000000 PUSH1 0x0 DUP3 ADD MSTORE POP JUMP JUMPDEST PUSH1 0x0 PUSH3 0x375 PUSH1 0x1B DUP4 PUSH3 0x32C JUMP JUMPDEST SWAP2 POP PUSH3 0x382 DUP3 PUSH3 0x33D JUMP JUMPDEST PUSH1 0x20 DUP3 ADD SWAP1 POP SWAP2 SWAP1 POP JUMP JUMPDEST PUSH1 0x0 PUSH1 0x20 DUP3 ADD SWAP1 POP DUP2 DUP2 SUB PUSH1 0x0 DUP4 ADD MSTORE PUSH3 0x3A8 DUP2 PUSH3 0x366 JUMP JUMPDEST SWAP1 POP SWAP2 SWAP1 POP JUMP JUMPDEST PUSH32 0x4E487B7100000000000000000000000000000000000000000000000000000000 PUSH1 0x0 MSTORE PUSH1 0x11 PUSH1 0x4 MSTORE PUSH1 0x24 PUSH1 0x0 REVERT JUMPDEST PUSH1 0x0 PUSH3 0x3EB DUP3 PUSH3 0x1D0 JUMP JUMPDEST SWAP2 POP PUSH3 0x3F8 DUP4 PUSH3 0x1D0 JUMP JUMPDEST SWAP3 POP DUP3 DUP3 ADD SWAP1 POP DUP1 DUP3 GT ISZERO PUSH3 0x413 JUMPI PUSH3 0x412 PUSH3 0x3AF JUMP JUMPDEST JUMPDEST SWAP3 SWAP2 POP POP JUMP JUMPDEST PUSH2 0xF90 DUP1 PUSH3 0x429 PUSH1 0x0 CODECOPY PUSH1 0x0 RETURN INVALID PUSH1 0x80 PUSH1 0x40 MSTORE PUSH1 0x4 CALLDATASIZE LT PUSH2 0x9C JUMPI PUSH1 0x0 CALLDATALOAD PUSH1 0xE0 SHR DUP1 PUSH4 0x91F90157 GT PUSH2 0x64 JUMPI DUP1 PUSH4 0x91F90157 EQ PUSH2 0x153 JUMPI DUP1 PUSH4 0xC6BC5182 EQ PUSH2 0x17E JUMPI DUP1 PUSH4 0xC810AF81 EQ PUSH2 0x1A9 JUMPI DUP1 PUSH4 0xD3924AAF EQ PUSH2 0x1D4 JUMPI DUP1 PUSH4 0xD57BDE79 EQ PUSH2 0x1FF JUMPI DUP1 PUSH4 0xF4C45373 EQ PUSH2 0x22A JUMPI PUSH2 0x9C JUMP JUMPDEST DUP1 PUSH4 0x1B3FA800 EQ PUSH2 0xA1 JUMPI DUP1 PUSH4 0x1B9265B8 EQ PUSH2 0xCA JUMPI DUP1 PUSH4 0x3E3B903E EQ PUSH2 0xD4 JUMPI DUP1 PUSH4 0x47CCCA02 EQ PUSH2 0xFD JUMPI DUP1 PUSH4 0x4B449CBA EQ PUSH2 0x128 JUMPI JUMPDEST PUSH1 0x0 DUP1 REVERT JUMPDEST CALLVALUE DUP1 ISZERO PUSH2 0xAD JUMPI PUSH1 0x0 DUP1 REVERT JUMPDEST POP PUSH2 0xC8 PUSH1 0x4 DUP1 CALLDATASIZE SUB DUP2 ADD SWAP1 PUSH2 0xC3 SWAP2 SWAP1 PUSH2 0x8C5 JUMP JUMPDEST PUSH2 0x267 JUMP JUMPDEST STOP JUMPDEST PUSH2 0xD2 PUSH2 0x377 JUMP JUMPDEST STOP JUMPDEST CALLVALUE DUP1 ISZERO PUSH2 0xE0 JUMPI PUSH1 0x0 DUP1 REVERT JUMPDEST POP PUSH2 0xFB PUSH1 0x4 DUP1 CALLDATASIZE SUB DUP2 ADD SWAP1 PUSH2 0xF6 SWAP2 SWAP1 PUSH2 0x928 JUMP JUMPDEST PUSH2 0x618 JUMP JUMPDEST STOP JUMPDEST CALLVALUE DUP1 ISZERO PUSH2 0x109 JUMPI PUSH1 0x0 DUP1 REVERT JUMPDEST POP PUSH2 0x112 PUSH2 0x7DD JUMP JUMPDEST PUSH1 0x40 MLOAD PUSH2 0x11F SWAP2 SWAP1 PUSH2 0x9D4 JUMP JUMPDEST PUSH1 0x40 MLOAD DUP1 SWAP2 SUB SWAP1 RETURN JUMPDEST CALLVALUE DUP1 ISZERO PUSH2 0x134 JUMPI PUSH1 0x0 DUP1 REVERT JUMPDEST POP PUSH2 0x13D PUSH2 0x803 JUMP JUMPDEST PUSH1 0x40 MLOAD PUSH2 0x14A SWAP2 SWAP1 PUSH2 0x9FE JUMP JUMPDEST PUSH1 0x40 MLOAD DUP1 SWAP2 SUB SWAP1 RETURN JUMPDEST CALLVALUE DUP1 ISZERO PUSH2 0x15F JUMPI PUSH1 0x0 DUP1 REVERT JUMPDEST POP PUSH2 0x168 PUSH2 0x809 JUMP JUMPDEST PUSH1 0x40 MLOAD PUSH2 0x175 SWAP2 SWAP1 PUSH2 0xA3A JUMP JUMPDEST PUSH1 0x40 MLOAD DUP1 SWAP2 SUB SWAP1 RETURN JUMPDEST CALLVALUE DUP1 ISZERO PUSH2 0x18A JUMPI PUSH1 0x0 DUP1 REVERT JUMPDEST POP PUSH2 0x193 PUSH2 0x82F JUMP JUMPDEST PUSH1 0x40 MLOAD PUSH2 0x1A0 SWAP2 SWAP1 PUSH2 0x9FE JUMP JUMPDEST PUSH1 0x40 MLOAD DUP1 SWAP2 SUB SWAP1 RETURN JUMPDEST CALLVALUE DUP1 ISZERO PUSH2 0x1B5 JUMPI PUSH1 0x0 DUP1 REVERT JUMPDEST POP PUSH2 0x1BE PUSH2 0x835 JUMP JUMPDEST PUSH1 0x40 MLOAD PUSH2 0x1CB SWAP2 SWAP1 PUSH2 0xA70 JUMP JUMPDEST PUSH1 0x40 MLOAD DUP1 SWAP2 SUB SWAP1 RETURN JUMPDEST CALLVALUE DUP1 ISZERO PUSH2 0x1E0 JUMPI PUSH1 0x0 DUP1 REVERT JUMPDEST POP PUSH2 0x1E9 PUSH2 0x848 JUMP JUMPDEST PUSH1 0x40 MLOAD PUSH2 0x1F6 SWAP2 SWAP1 PUSH2 0xA3A JUMP JUMPDEST PUSH1 0x40 MLOAD DUP1 SWAP2 SUB SWAP1 RETURN JUMPDEST CALLVALUE DUP1 ISZERO PUSH2 0x20B JUMPI PUSH1 0x0 DUP1 REVERT JUMPDEST POP PUSH2 0x214 PUSH2 0x86C JUMP JUMPDEST PUSH1 0x40 MLOAD PUSH2 0x221 SWAP2 SWAP1 PUSH2 0x9FE JUMP JUMPDEST PUSH1 0x40 MLOAD DUP1 SWAP2 SUB SWAP1 RETURN JUMPDEST CALLVALUE DUP1 ISZERO PUSH2 0x236 JUMPI PUSH1 0x0 DUP1 REVERT JUMPDEST POP PUSH2 0x251 PUSH1 0x4 DUP1 CALLDATASIZE SUB DUP2 ADD SWAP1 PUSH2 0x24C SWAP2 SWAP1 PUSH2 0xAC9 JUMP JUMPDEST PUSH2 0x872 JUMP JUMPDEST PUSH1 0x40 MLOAD PUSH2 0x25E SWAP2 SWAP1 PUSH2 0xB05 JUMP JUMPDEST PUSH1 0x40 MLOAD DUP1 SWAP2 SUB SWAP1 RETURN JUMPDEST PUSH1 0x1 SLOAD TIMESTAMP GT ISZERO PUSH2 0x2AC JUMPI PUSH1 0x40 MLOAD PUSH32 0x8C379A000000000000000000000000000000000000000000000000000000000 DUP2 MSTORE PUSH1 0x4 ADD PUSH2 0x2A3 SWAP1 PUSH2 0xB7D JUMP JUMPDEST PUSH1 0x40 MLOAD DUP1 SWAP2 SUB SWAP1 REVERT JUMPDEST PUSH1 0x0 DUP1 SHL PUSH1 0x6 PUSH1 0x0 CALLER PUSH20 0xFFFFFFFFFFFFFFFFFFFFFFFFFFFFFFFFFFFFFFFF AND PUSH20 0xFFFFFFFFFFFFFFFFFFFFFFFFFFFFFFFFFFFFFFFF AND DUP2 MSTORE PUSH1 0x20 ADD SWAP1 DUP2 MSTORE PUSH1 0x20 ADD PUSH1 0x0 KECCAK256 SLOAD EQ PUSH2 0x330 JUMPI PUSH1 0x40 MLOAD PUSH32 0x8C379A000000000000000000000000000000000000000000000000000000000 DUP2 MSTORE PUSH1 0x4 ADD PUSH2 0x327 SWAP1 PUSH2 0xBE9 JUMP JUMPDEST PUSH1 0x40 MLOAD DUP1 SWAP2 SUB SWAP1 REVERT JUMPDEST DUP1 PUSH1 0x6 PUSH1 0x0 CALLER PUSH20 0xFFFFFFFFFFFFFFFFFFFFFFFFFFFFFFFFFFFFFFFF AND PUSH20 0xFFFFFFFFFFFFFFFFFFFFFFFFFFFFFFFFFFFFFFFF AND DUP2 MSTORE PUSH1 0x20 ADD SWAP1 DUP2 MSTORE PUSH1 0x20 ADD PUSH1 0x0 KECCAK256 DUP2 SWAP1 SSTORE POP POP JUMP JUMPDEST PUSH1 0x1 SLOAD TIMESTAMP GT PUSH2 0x3BB JUMPI PUSH1 0x40 MLOAD PUSH32 0x8C379A000000000000000000000000000000000000000000000000000000000 DUP2 MSTORE PUSH1 0x4 ADD PUSH2 0x3B2 SWAP1 PUSH2 0xC55 JUMP JUMPDEST PUSH1 0x40 MLOAD DUP1 SWAP2 SUB SWAP1 REVERT JUMPDEST PUSH1 0x3 PUSH1 0x0 SWAP1 SLOAD SWAP1 PUSH2 0x100 EXP SWAP1 DIV PUSH20 0xFFFFFFFFFFFFFFFFFFFFFFFFFFFFFFFFFFFFFFFF AND PUSH20 0xFFFFFFFFFFFFFFFFFFFFFFFFFFFFFFFFFFFFFFFF AND CALLER PUSH20 0xFFFFFFFFFFFFFFFFFFFFFFFFFFFFFFFFFFFFFFFF AND EQ PUSH2 0x44B JUMPI PUSH1 0x40 MLOAD PUSH32 0x8C379A000000000000000000000000000000000000000000000000000000000 DUP2 MSTORE PUSH1 0x4 ADD PUSH2 0x442 SWAP1 PUSH2 0xCC1 JUMP JUMPDEST PUSH1 0x40 MLOAD DUP1 SWAP2 SUB SWAP1 REVERT JUMPDEST PUSH1 0x2 SLOAD CALLVALUE EQ PUSH2 0x48F JUMPI PUSH1 0x40 MLOAD PUSH32 0x8C379A000000000000000000000000000000000000000000000000000000000 DUP2 MSTORE PUSH1 0x4 ADD PUSH2 0x486 SWAP1 PUSH2 0xD2D JUMP JUMPDEST PUSH1 0x40 MLOAD DUP1 SWAP2 SUB SWAP1 REVERT JUMPDEST PUSH1 0x3 PUSH1 0x14 SWAP1 SLOAD SWAP1 PUSH2 0x100 EXP SWAP1 DIV PUSH1 0xFF AND ISZERO PUSH2 0x4DF JUMPI PUSH1 0x40 MLOAD PUSH32 0x8C379A000000000000000000000000000000000000000000000000000000000 DUP2 MSTORE PUSH1 0x4 ADD PUSH2 0x4D6 SWAP1 PUSH2 0xD99 JUMP JUMPDEST PUSH1 0x40 MLOAD DUP1 SWAP2 SUB SWAP1 REVERT JUMPDEST PUSH1 0x1 PUSH1 0x3 PUSH1 0x14 PUSH2 0x100 EXP DUP2 SLOAD DUP2 PUSH1 0xFF MUL NOT AND SWAP1 DUP4 ISZERO ISZERO MUL OR SWAP1 SSTORE POP PUSH1 0x0 DUP1 SLOAD SWAP1 PUSH2 0x100 EXP SWAP1 DIV PUSH20 0xFFFFFFFFFFFFFFFFFFFFFFFFFFFFFFFFFFFFFFFF AND PUSH20 0xFFFFFFFFFFFFFFFFFFFFFFFFFFFFFFFFFFFFFFFF AND PUSH2 0x8FC PUSH1 0x2 SLOAD SWAP1 DUP2 ISZERO MUL SWAP1 PUSH1 0x40 MLOAD PUSH1 0x0 PUSH1 0x40 MLOAD DUP1 DUP4 SUB DUP2 DUP6 DUP9 DUP9 CALL SWAP4 POP POP POP POP ISZERO DUP1 ISZERO PUSH2 0x562 JUMPI RETURNDATASIZE PUSH1 0x0 DUP1 RETURNDATACOPY RETURNDATASIZE PUSH1 0x0 REVERT JUMPDEST POP PUSH1 0x4 PUSH1 0x0 SWAP1 SLOAD SWAP1 PUSH2 0x100 EXP SWAP1 DIV PUSH20 0xFFFFFFFFFFFFFFFFFFFFFFFFFFFFFFFFFFFFFFFF AND PUSH20 0xFFFFFFFFFFFFFFFFFFFFFFFFFFFFFFFFFFFFFFFF AND PUSH4 0x42842E0E PUSH1 0x0 DUP1 SLOAD SWAP1 PUSH2 0x100 EXP SWAP1 DIV PUSH20 0xFFFFFFFFFFFFFFFFFFFFFFFFFFFFFFFFFFFFFFFF AND CALLER PUSH1 0x5 SLOAD PUSH1 0x40 MLOAD DUP5 PUSH4 0xFFFFFFFF AND PUSH1 0xE0 SHL DUP2 MSTORE PUSH1 0x4 ADD PUSH2 0x5E4 SWAP4 SWAP3 SWAP2 SWAP1 PUSH2 0xDE9 JUMP JUMPDEST PUSH1 0x0 PUSH1 0x40 MLOAD DUP1 DUP4 SUB DUP2 PUSH1 0x0 DUP8 DUP1 EXTCODESIZE ISZERO DUP1 ISZERO PUSH2 0x5FE JUMPI PUSH1 0x0 DUP1 REVERT JUMPDEST POP GAS CALL ISZERO DUP1 ISZERO PUSH2 0x612 JUMPI RETURNDATASIZE PUSH1 0x0 DUP1 RETURNDATACOPY RETURNDATASIZE PUSH1 0x0 REVERT JUMPDEST POP POP POP POP JUMP JUMPDEST PUSH1 0x1 SLOAD TIMESTAMP GT PUSH2 0x65C JUMPI PUSH1 0x40 MLOAD PUSH32 0x8C379A000000000000000000000000000000000000000000000000000000000 DUP2 MSTORE PUSH1 0x4 ADD PUSH2 0x653 SWAP1 PUSH2 0xC55 JUMP JUMPDEST PUSH1 0x40 MLOAD DUP1 SWAP2 SUB SWAP1 REVERT JUMPDEST PUSH1 0x0 DUP1 SHL PUSH1 0x6 PUSH1 0x0 CALLER PUSH20 0xFFFFFFFFFFFFFFFFFFFFFFFFFFFFFFFFFFFFFFFF AND PUSH20 0xFFFFFFFFFFFFFFFFFFFFFFFFFFFFFFFFFFFFFFFF AND DUP2 MSTORE PUSH1 0x20 ADD SWAP1 DUP2 MSTORE PUSH1 0x20 ADD PUSH1 0x0 KECCAK256 SLOAD SUB PUSH2 0x6E0 JUMPI PUSH1 0x40 MLOAD PUSH32 0x8C379A000000000000000000000000000000000000000000000000000000000 DUP2 MSTORE PUSH1 0x4 ADD PUSH2 0x6D7 SWAP1 PUSH2 0xE6C JUMP JUMPDEST PUSH1 0x40 MLOAD DUP1 SWAP2 SUB SWAP1 REVERT JUMPDEST PUSH1 0x6 PUSH1 0x0 CALLER PUSH20 0xFFFFFFFFFFFFFFFFFFFFFFFFFFFFFFFFFFFFFFFF AND PUSH20 0xFFFFFFFFFFFFFFFFFFFFFFFFFFFFFFFFFFFFFFFF AND DUP2 MSTORE PUSH1 0x20 ADD SWAP1 DUP2 MSTORE PUSH1 0x20 ADD PUSH1 0x0 KECCAK256 SLOAD DUP2 PUSH1 0x40 MLOAD PUSH1 0x20 ADD PUSH2 0x731 SWAP2 SWAP1 PUSH2 0xEAD JUMP JUMPDEST PUSH1 0x40 MLOAD PUSH1 0x20 DUP2 DUP4 SUB SUB DUP2 MSTORE SWAP1 PUSH1 0x40 MSTORE DUP1 MLOAD SWAP1 PUSH1 0x20 ADD KECCAK256 EQ PUSH2 0x787 JUMPI PUSH1 0x40 MLOAD PUSH32 0x8C379A000000000000000000000000000000000000000000000000000000000 DUP2 MSTORE PUSH1 0x4 ADD PUSH2 0x77E SWAP1 PUSH2 0xF3A JUMP JUMPDEST PUSH1 0x40 MLOAD DUP1 SWAP2 SUB SWAP1 REVERT JUMPDEST PUSH1 0x2 SLOAD DUP2 GT ISZERO PUSH2 0x7DA JUMPI DUP1 PUSH1 0x2 DUP2 SWAP1 SSTORE POP CALLER PUSH1 0x3 PUSH1 0x0 PUSH2 0x100 EXP DUP2 SLOAD DUP2 PUSH20 0xFFFFFFFFFFFFFFFFFFFFFFFFFFFFFFFFFFFFFFFF MUL NOT AND SWAP1 DUP4 PUSH20 0xFFFFFFFFFFFFFFFFFFFFFFFFFFFFFFFFFFFFFFFF AND MUL OR SWAP1 SSTORE POP JUMPDEST POP JUMP JUMPDEST PUSH1 0x4 PUSH1 0x0 SWAP1 SLOAD SWAP1 PUSH2 0x100 EXP SWAP1 DIV PUSH20 0xFFFFFFFFFFFFFFFFFFFFFFFFFFFFFFFFFFFFFFFF AND DUP2 JUMP JUMPDEST PUSH1 0x1 SLOAD DUP2 JUMP JUMPDEST PUSH1 0x3 PUSH1 0x0 SWAP1 SLOAD SWAP1 PUSH2 0x100 EXP SWAP1 DIV PUSH20 0xFFFFFFFFFFFFFFFFFFFFFFFFFFFFFFFFFFFFFFFF AND DUP2 JUMP JUMPDEST PUSH1 0x5 SLOAD DUP2 JUMP JUMPDEST PUSH1 0x3 PUSH1 0x14 SWAP1 SLOAD SWAP1 PUSH2 0x100 EXP SWAP1 DIV PUSH1 0xFF AND DUP2 JUMP JUMPDEST PUSH1 0x0 DUP1 SLOAD SWAP1 PUSH2 0x100 EXP SWAP1 DIV PUSH20 0xFFFFFFFFFFFFFFFFFFFFFFFFFFFFFFFFFFFFFFFF AND DUP2 JUMP JUMPDEST PUSH1 0x2 SLOAD DUP2 JUMP JUMPDEST PUSH1 0x6 PUSH1 0x20 MSTORE DUP1 PUSH1 0x0 MSTORE PUSH1 0x40 PUSH1 0x0 KECCAK256 PUSH1 0x0 SWAP2 POP SWAP1 POP SLOAD DUP2 JUMP JUMPDEST PUSH1 0x0 DUP1 REVERT JUMPDEST PUSH1 0x0 DUP2 SWAP1 POP SWAP2 SWAP1 POP JUMP JUMPDEST PUSH2 0x8A2 DUP2 PUSH2 0x88F JUMP JUMPDEST DUP2 EQ PUSH2 0x8AD JUMPI PUSH1 0x0 DUP1 REVERT JUMPDEST POP JUMP JUMPDEST PUSH1 0x0 DUP2 CALLDATALOAD SWAP1 POP PUSH2 0x8BF DUP2 PUSH2 0x899 JUMP JUMPDEST SWAP3 SWAP2 POP POP JUMP JUMPDEST PUSH1 0x0 PUSH1 0x20 DUP3 DUP5 SUB SLT ISZERO PUSH2 0x8DB JUMPI PUSH2 0x8DA PUSH2 0x88A JUMP JUMPDEST JUMPDEST PUSH1 0x0 PUSH2 0x8E9 DUP5 DUP3 DUP6 ADD PUSH2 0x8B0 JUMP JUMPDEST SWAP2 POP POP SWAP3 SWAP2 POP POP JUMP JUMPDEST PUSH1 0x0 DUP2 SWAP1 POP SWAP2 SWAP1 POP JUMP JUMPDEST PUSH2 0x905 DUP2 PUSH2 0x8F2 JUMP JUMPDEST DUP2 EQ PUSH2 0x910 JUMPI PUSH1 0x0 DUP1 REVERT JUMPDEST POP JUMP JUMPDEST PUSH1 0x0 DUP2 CALLDATALOAD SWAP1 POP PUSH2 0x922 DUP2 PUSH2 0x8FC JUMP JUMPDEST SWAP3 SWAP2 POP POP JUMP JUMPDEST PUSH1 0x0 PUSH1 0x20 DUP3 DUP5 SUB SLT ISZERO PUSH2 0x93E JUMPI PUSH2 0x93D PUSH2 0x88A JUMP JUMPDEST JUMPDEST PUSH1 0x0 PUSH2 0x94C DUP5 DUP3 DUP6 ADD PUSH2 0x913 JUMP JUMPDEST SWAP2 POP POP SWAP3 SWAP2 POP POP JUMP JUMPDEST PUSH1 0x0 PUSH20 0xFFFFFFFFFFFFFFFFFFFFFFFFFFFFFFFFFFFFFFFF DUP3 AND SWAP1 POP SWAP2 SWAP1 POP JUMP JUMPDEST PUSH1 0x0 DUP2 SWAP1 POP SWAP2 SWAP1 POP JUMP JUMPDEST PUSH1 0x0 PUSH2 0x99A PUSH2 0x995 PUSH2 0x990 DUP5 PUSH2 0x955 JUMP JUMPDEST PUSH2 0x975 JUMP JUMPDEST PUSH2 0x955 JUMP JUMPDEST SWAP1 POP SWAP2 SWAP1 POP JUMP JUMPDEST PUSH1 0x0 PUSH2 0x9AC DUP3 PUSH2 0x97F JUMP JUMPDEST SWAP1 POP SWAP2 SWAP1 POP JUMP JUMPDEST PUSH1 0x0 PUSH2 0x9BE DUP3 PUSH2 0x9A1 JUMP JUMPDEST SWAP1 POP SWAP2 SWAP1 POP JUMP JUMPDEST PUSH2 0x9CE DUP2 PUSH2 0x9B3 JUMP JUMPDEST DUP3 MSTORE POP POP JUMP JUMPDEST PUSH1 0x0 PUSH1 0x20 DUP3 ADD SWAP1 POP PUSH2 0x9E9 PUSH1 0x0 DUP4 ADD DUP5 PUSH2 0x9C5 JUMP JUMPDEST SWAP3 SWAP2 POP POP JUMP JUMPDEST PUSH2 0x9F8 DUP2 PUSH2 0x8F2 JUMP JUMPDEST DUP3 MSTORE POP POP JUMP JUMPDEST PUSH1 0x0 PUSH1 0x20 DUP3 ADD SWAP1 POP PUSH2 0xA13 PUSH1 0x0 DUP4 ADD DUP5 PUSH2 0x9EF JUMP JUMPDEST SWAP3 SWAP2 POP POP JUMP JUMPDEST PUSH1 0x0 PUSH2 0xA24 DUP3 PUSH2 0x955 JUMP JUMPDEST SWAP1 POP SWAP2 SWAP1 POP JUMP JUMPDEST PUSH2 0xA34 DUP2 PUSH2 0xA19 JUMP JUMPDEST DUP3 MSTORE POP POP JUMP JUMPDEST PUSH1 0x0 PUSH1 0x20 DUP3 ADD SWAP1 POP PUSH2 0xA4F PUSH1 0x0 DUP4 ADD DUP5 PUSH2 0xA2B JUMP JUMPDEST SWAP3 SWAP2 POP POP JUMP JUMPDEST PUSH1 0x0 DUP2 ISZERO ISZERO SWAP1 POP SWAP2 SWAP1 POP JUMP JUMPDEST PUSH2 0xA6A DUP2 PUSH2 0xA55 JUMP JUMPDEST DUP3 MSTORE POP POP JUMP JUMPDEST PUSH1 0x0 PUSH1 0x20 DUP3 ADD SWAP1 POP PUSH2 0xA85 PUSH1 0x0 DUP4 ADD DUP5 PUSH2 0xA61 JUMP JUMPDEST SWAP3 SWAP2 POP POP JUMP JUMPDEST PUSH1 0x0 PUSH2 0xA96 DUP3 PUSH2 0x955 JUMP JUMPDEST SWAP1 POP SWAP2 SWAP1 POP JUMP JUMPDEST PUSH2 0xAA6 DUP2 PUSH2 0xA8B JUMP JUMPDEST DUP2 EQ PUSH2 0xAB1 JUMPI PUSH1 0x0 DUP1 REVERT JUMPDEST POP JUMP JUMPDEST PUSH1 0x0 DUP2 CALLDATALOAD SWAP1 POP PUSH2 0xAC3 DUP2 PUSH2 0xA9D JUMP JUMPDEST SWAP3 SWAP2 POP POP JUMP JUMPDEST PUSH1 0x0 PUSH1 0x20 DUP3 DUP5 SUB SLT ISZERO PUSH2 0xADF JUMPI PUSH2 0xADE PUSH2 0x88A JUMP JUMPDEST JUMPDEST PUSH1 0x0 PUSH2 0xAED DUP5 DUP3 DUP6 ADD PUSH2 0xAB4 JUMP JUMPDEST SWAP2 POP POP SWAP3 SWAP2 POP POP JUMP JUMPDEST PUSH2 0xAFF DUP2 PUSH2 0x88F JUMP JUMPDEST DUP3 MSTORE POP POP JUMP JUMPDEST PUSH1 0x0 PUSH1 0x20 DUP3 ADD SWAP1 POP PUSH2 0xB1A PUSH1 0x0 DUP4 ADD DUP5 PUSH2 0xAF6 JUMP JUMPDEST SWAP3 SWAP2 POP POP JUMP JUMPDEST PUSH1 0x0 DUP3 DUP3 MSTORE PUSH1 0x20 DUP3 ADD SWAP1 POP SWAP3 SWAP2 POP POP JUMP JUMPDEST PUSH32 0x41756374696F6E2068617320656E646564000000000000000000000000000000 PUSH1 0x0 DUP3 ADD MSTORE POP JUMP JUMPDEST PUSH1 0x0 PUSH2 0xB67 PUSH1 0x11 DUP4 PUSH2 0xB20 JUMP JUMPDEST SWAP2 POP PUSH2 0xB72 DUP3 PUSH2 0xB31 JUMP JUMPDEST PUSH1 0x20 DUP3 ADD SWAP1 POP SWAP2 SWAP1 POP JUMP JUMPDEST PUSH1 0x0 PUSH1 0x20 DUP3 ADD SWAP1 POP DUP2 DUP2 SUB PUSH1 0x0 DUP4 ADD MSTORE PUSH2 0xB96 DUP2 PUSH2 0xB5A JUMP JUMPDEST SWAP1 POP SWAP2 SWAP1 POP JUMP JUMPDEST PUSH32 0x416C7265616479207375626D6974746564206120626964000000000000000000 PUSH1 0x0 DUP3 ADD MSTORE POP JUMP JUMPDEST PUSH1 0x0 PUSH2 0xBD3 PUSH1 0x17 DUP4 PUSH2 0xB20 JUMP JUMPDEST SWAP2 POP PUSH2 0xBDE DUP3 PUSH2 0xB9D JUMP JUMPDEST PUSH1 0x20 DUP3 ADD SWAP1 POP SWAP2 SWAP1 POP JUMP JUMPDEST PUSH1 0x0 PUSH1 0x20 DUP3 ADD SWAP1 POP DUP2 DUP2 SUB PUSH1 0x0 DUP4 ADD MSTORE PUSH2 0xC02 DUP2 PUSH2 0xBC6 JUMP JUMPDEST SWAP1 POP SWAP2 SWAP1 POP JUMP JUMPDEST PUSH32 0x41756374696F6E20686173206E6F7420656E6465642079657400000000000000 PUSH1 0x0 DUP3 ADD MSTORE POP JUMP JUMPDEST PUSH1 0x0 PUSH2 0xC3F PUSH1 0x19 DUP4 PUSH2 0xB20 JUMP JUMPDEST SWAP2 POP PUSH2 0xC4A DUP3 PUSH2 0xC09 JUMP JUMPDEST PUSH1 0x20 DUP3 ADD SWAP1 POP SWAP2 SWAP1 POP JUMP JUMPDEST PUSH1 0x0 PUSH1 0x20 DUP3 ADD SWAP1 POP DUP2 DUP2 SUB PUSH1 0x0 DUP4 ADD MSTORE PUSH2 0xC6E DUP2 PUSH2 0xC32 JUMP JUMPDEST SWAP1 POP SWAP2 SWAP1 POP JUMP JUMPDEST PUSH32 0x596F7520617265206E6F74207468652068696768657374206269646465720000 PUSH1 0x0 DUP3 ADD MSTORE POP JUMP JUMPDEST PUSH1 0x0 PUSH2 0xCAB PUSH1 0x1E DUP4 PUSH2 0xB20 JUMP JUMPDEST SWAP2 POP PUSH2 0xCB6 DUP3 PUSH2 0xC75 JUMP JUMPDEST PUSH1 0x20 DUP3 ADD SWAP1 POP SWAP2 SWAP1 POP JUMP JUMPDEST PUSH1 0x0 PUSH1 0x20 DUP3 ADD SWAP1 POP DUP2 DUP2 SUB PUSH1 0x0 DUP4 ADD MSTORE PUSH2 0xCDA DUP2 PUSH2 0xC9E JUMP JUMPDEST SWAP1 POP SWAP2 SWAP1 POP JUMP JUMPDEST PUSH32 0x496E73756666696369656E7420457468205472616E7366657272656400000000 PUSH1 0x0 DUP3 ADD MSTORE POP JUMP JUMPDEST PUSH1 0x0 PUSH2 0xD17 PUSH1 0x1C DUP4 PUSH2 0xB20 JUMP JUMPDEST SWAP2 POP PUSH2 0xD22 DUP3 PUSH2 0xCE1 JUMP JUMPDEST PUSH1 0x20 DUP3 ADD SWAP1 POP SWAP2 SWAP1 POP JUMP JUMPDEST PUSH1 0x0 PUSH1 0x20 DUP3 ADD SWAP1 POP DUP2 DUP2 SUB PUSH1 0x0 DUP4 ADD MSTORE PUSH2 0xD46 DUP2 PUSH2 0xD0A JUMP JUMPDEST SWAP1 POP SWAP2 SWAP1 POP JUMP JUMPDEST PUSH32 0x5061796D656E7420616C7265616479206D616465000000000000000000000000 PUSH1 0x0 DUP3 ADD MSTORE POP JUMP JUMPDEST PUSH1 0x0 PUSH2 0xD83 PUSH1 0x14 DUP4 PUSH2 0xB20 JUMP JUMPDEST SWAP2 POP PUSH2 0xD8E DUP3 PUSH2 0xD4D JUMP JUMPDEST PUSH1 0x20 DUP3 ADD SWAP1 POP SWAP2 SWAP1 POP JUMP JUMPDEST PUSH1 0x0 PUSH1 0x20 DUP3 ADD SWAP1 POP DUP2 DUP2 SUB PUSH1 0x0 DUP4 ADD MSTORE PUSH2 0xDB2 DUP2 PUSH2 0xD76 JUMP JUMPDEST SWAP1 POP SWAP2 SWAP1 POP JUMP JUMPDEST PUSH1 0x0 PUSH2 0xDC4 DUP3 PUSH2 0x9A1 JUMP JUMPDEST SWAP1 POP SWAP2 SWAP1 POP JUMP JUMPDEST PUSH2 0xDD4 DUP2 PUSH2 0xDB9 JUMP JUMPDEST DUP3 MSTORE POP POP JUMP JUMPDEST PUSH2 0xDE3 DUP2 PUSH2 0xA8B JUMP JUMPDEST DUP3 MSTORE POP POP JUMP JUMPDEST PUSH1 0x0 PUSH1 0x60 DUP3 ADD SWAP1 POP PUSH2 0xDFE PUSH1 0x0 DUP4 ADD DUP7 PUSH2 0xDCB JUMP JUMPDEST PUSH2 0xE0B PUSH1 0x20 DUP4 ADD DUP6 PUSH2 0xDDA JUMP JUMPDEST PUSH2 0xE18 PUSH1 0x40 DUP4 ADD DUP5 PUSH2 0x9EF JUMP JUMPDEST SWAP5 SWAP4 POP POP POP POP JUMP JUMPDEST PUSH32 0x4E6F20626964207375626D697474656400000000000000000000000000000000 PUSH1 0x0 DUP3 ADD MSTORE POP JUMP JUMPDEST PUSH1 0x0 PUSH2 0xE56 PUSH1 0x10 DUP4 PUSH2 0xB20 JUMP JUMPDEST SWAP2 POP PUSH2 0xE61 DUP3 PUSH2 0xE20 JUMP JUMPDEST PUSH1 0x20 DUP3 ADD SWAP1 POP SWAP2 SWAP1 POP JUMP JUMPDEST PUSH1 0x0 PUSH1 0x20 DUP3 ADD SWAP1 POP DUP2 DUP2 SUB PUSH1 0x0 DUP4 ADD MSTORE PUSH2 0xE85 DUP2 PUSH2 0xE49 JUMP JUMPDEST SWAP1 POP SWAP2 SWAP1 POP JUMP JUMPDEST PUSH1 0x0 DUP2 SWAP1 POP SWAP2 SWAP1 POP JUMP JUMPDEST PUSH2 0xEA7 PUSH2 0xEA2 DUP3 PUSH2 0x8F2 JUMP JUMPDEST PUSH2 0xE8C JUMP JUMPDEST DUP3 MSTORE POP POP JUMP JUMPDEST PUSH1 0x0 PUSH2 0xEB9 DUP3 DUP5 PUSH2 0xE96 JUMP JUMPDEST PUSH1 0x20 DUP3 ADD SWAP2 POP DUP2 SWAP1 POP SWAP3 SWAP2 POP POP JUMP JUMPDEST PUSH32 0x41637475616C2062696420646F6573206E6F74206D6174636820686173686564 PUSH1 0x0 DUP3 ADD MSTORE PUSH32 0x2062696400000000000000000000000000000000000000000000000000000000 PUSH1 0x20 DUP3 ADD MSTORE POP JUMP JUMPDEST PUSH1 0x0 PUSH2 0xF24 PUSH1 0x24 DUP4 PUSH2 0xB20 JUMP JUMPDEST SWAP2 POP PUSH2 0xF2F DUP3 PUSH2 0xEC8 JUMP JUMPDEST PUSH1 0x40 DUP3 ADD SWAP1 POP SWAP2 SWAP1 POP JUMP JUMPDEST PUSH1 0x0 PUSH1 0x20 DUP3 ADD SWAP1 POP DUP2 DUP2 SUB PUSH1 0x0 DUP4 ADD MSTORE PUSH2 0xF53 DUP2 PUSH2 0xF17 JUMP JUMPDEST SWAP1 POP SWAP2 SWAP1 POP JUMP INVALID LOG2 PUSH5 0x6970667358 0x22 SLT KECCAK256 0xC 0x27 LOG4 KECCAK256 EXTCODEHASH SUB SWAP14 0x1E 0xF9 BYTE DUP16 RETURN 0xA7 CALLDATACOPY PUSH7 0xC15CDBBB8CA5F 0x5F 0xC4 DUP7 0xBE 0x23 STOP KECCAK256 0xB7 0xE5 CALLDATASIZE PUSH5 0x736F6C6343 STOP ADDMOD GT STOP CALLER "
				},
				"gasEstimates": {
					"creation": {
						"codeDepositCost": "796800",
						"executionCost": "infinite",
						"totalCost": "infinite"
					},
					"external": {
						"auctionEndTime()": "2518",
						"auctionOwner()": "2577",
						"hasPaid()": "2565",
						"hashedBids(address)": "2924",
						"highestBid()": "2517",
						"highestBidder()": "2514",
						"nft()": "infinite",
						"nftId()": "2451",
						"pay()": "infinite",
						"revealBid(uint256)": "infinite",
						"submitBid(bytes32)": "26953"
					}
				},
				"methodIdentifiers": {
					"auctionEndTime()": "4b449cba",
					"auctionOwner()": "d3924aaf",
					"hasPaid()": "c810af81",
					"hashedBids(address)": "f4c45373",
					"highestBid()": "d57bde79",
					"highestBidder()": "91f90157",
					"nft()": "47ccca02",
					"nftId()": "c6bc5182",
					"pay()": "1b9265b8",
					"revealBid(uint256)": "3e3b903e",
					"submitBid(bytes32)": "1b3fa800"
				}
			},
			"storageLayout": {
				"storage": [
					{
						"astId": 132,
						"contract": "SealedBidAuction.sol:SealedBidAuction",
						"label": "auctionOwner",
						"offset": 0,
						"slot": "0",
						"type": "t_address_payable"
					},
					{
						"astId": 134,
						"contract": "SealedBidAuction.sol:SealedBidAuction",
						"label": "auctionEndTime",
						"offset": 0,
						"slot": "1",
						"type": "t_uint256"
					},
					{
						"astId": 136,
						"contract": "SealedBidAuction.sol:SealedBidAuction",
						"label": "highestBid",
						"offset": 0,
						"slot": "2",
						"type": "t_uint256"
					},
					{
						"astId": 138,
						"contract": "SealedBidAuction.sol:SealedBidAuction",
						"label": "highestBidder",
						"offset": 0,
						"slot": "3",
						"type": "t_address_payable"
					},
					{
						"astId": 140,
						"contract": "SealedBidAuction.sol:SealedBidAuction",
						"label": "hasPaid",
						"offset": 20,
						"slot": "3",
						"type": "t_bool"
					},
					{
						"astId": 143,
						"contract": "SealedBidAuction.sol:SealedBidAuction",
						"label": "nft",
						"offset": 0,
						"slot": "4",
						"type": "t_contract(IERC721)115"
					},
					{
						"astId": 145,
						"contract": "SealedBidAuction.sol:SealedBidAuction",
						"label": "nftId",
						"offset": 0,
						"slot": "5",
						"type": "t_uint256"
					},
					{
						"astId": 149,
						"contract": "SealedBidAuction.sol:SealedBidAuction",
						"label": "hashedBids",
						"offset": 0,
						"slot": "6",
						"type": "t_mapping(t_address,t_bytes32)"
					}
				],
				"types": {
					"t_address": {
						"encoding": "inplace",
						"label": "address",
						"numberOfBytes": "20"
					},
					"t_address_payable": {
						"encoding": "inplace",
						"label": "address payable",
						"numberOfBytes": "20"
					},
					"t_bool": {
						"encoding": "inplace",
						"label": "bool",
						"numberOfBytes": "1"
					},
					"t_bytes32": {
						"encoding": "inplace",
						"label": "bytes32",
						"numberOfBytes": "32"
					},
					"t_contract(IERC721)115": {
						"encoding": "inplace",
						"label": "contract IERC721",
						"numberOfBytes": "20"
					},
					"t_mapping(t_address,t_bytes32)": {
						"encoding": "mapping",
						"key": "t_address",
						"label": "mapping(address => bytes32)",
						"numberOfBytes": "32",
						"value": "t_bytes32"
					},
					"t_uint256": {
						"encoding": "inplace",
						"label": "uint256",
						"numberOfBytes": "32"
					}
				}
			},
			"userdoc": {
				"kind": "user",
				"methods": {},
				"version": 1
			}
		}
	}
}