{
	"descendingAuction.sol": {
		"DescendingAuction": {
			"abi": [
				{
					"inputs": [
						{
							"internalType": "uint256",
							"name": "ceilingPrice",
							"type": "uint256"
						},
						{
							"internalType": "uint256",
							"name": "decrementValue",
							"type": "uint256"
						},
						{
							"internalType": "address",
							"name": "thenft",
							"type": "address"
						},
						{
							"internalType": "uint256",
							"name": "thenftid",
							"type": "uint256"
						}
					],
					"stateMutability": "nonpayable",
					"type": "constructor"
				},
				{
					"anonymous": false,
					"inputs": [
						{
							"indexed": false,
							"internalType": "address",
							"name": "winner",
							"type": "address"
						},
						{
							"indexed": false,
							"internalType": "uint256",
							"name": "amount",
							"type": "uint256"
						}
					],
					"name": "AuctionEnded",
					"type": "event"
				},
				{
					"anonymous": false,
					"inputs": [
						{
							"indexed": false,
							"internalType": "uint256",
							"name": "ceilingPrice",
							"type": "uint256"
						}
					],
					"name": "AuctionStarted",
					"type": "event"
				},
				{
					"anonymous": false,
					"inputs": [
						{
							"indexed": false,
							"internalType": "uint256",
							"name": "newPrice",
							"type": "uint256"
						}
					],
					"name": "PriceLowered",
					"type": "event"
				},
				{
					"inputs": [],
					"name": "auctionOwner",
					"outputs": [
						{
							"internalType": "address payable",
							"name": "",
							"type": "address"
						}
					],
					"stateMutability": "view",
					"type": "function"
				},
				{
					"inputs": [],
					"name": "bid",
					"outputs": [],
					"stateMutability": "payable",
					"type": "function"
				},
				{
					"inputs": [],
					"name": "currentPrice",
					"outputs": [
						{
							"internalType": "uint256",
							"name": "",
							"type": "uint256"
						}
					],
					"stateMutability": "view",
					"type": "function"
				},
				{
					"inputs": [],
					"name": "decrement",
					"outputs": [
						{
							"internalType": "uint256",
							"name": "",
							"type": "uint256"
						}
					],
					"stateMutability": "view",
					"type": "function"
				},
				{
					"inputs": [],
					"name": "lowerPrice",
					"outputs": [],
					"stateMutability": "nonpayable",
					"type": "function"
				},
				{
					"inputs": [],
					"name": "nft",
					"outputs": [
						{
							"internalType": "contract IERC721",
							"name": "",
							"type": "address"
						}
					],
					"stateMutability": "view",
					"type": "function"
				},
				{
					"inputs": [],
					"name": "nftId",
					"outputs": [
						{
							"internalType": "uint256",
							"name": "",
							"type": "uint256"
						}
					],
					"stateMutability": "view",
					"type": "function"
				},
				{
					"inputs": [],
					"name": "winner",
					"outputs": [
						{
							"internalType": "address payable",
							"name": "",
							"type": "address"
						}
					],
					"stateMutability": "view",
					"type": "function"
				}
			],
			"devdoc": {
				"kind": "dev",
				"methods": {},
				"version": 1
			},
			"evm": {
				"assembly": "    /* \"descendingAuction.sol\":116:1517  contract DescendingAuction {... */\n  mstore(0x40, 0x80)\n    /* \"descendingAuction.sol\":468:872  constructor(uint ceilingPrice, uint decrementValue, address thenft, uint thenftid) {... */\n  callvalue\n  dup1\n  iszero\n  tag_1\n  jumpi\n  0x00\n  dup1\n  revert\ntag_1:\n  pop\n  mload(0x40)\n  sub(codesize, bytecodeSize)\n  dup1\n  bytecodeSize\n  dup4\n  codecopy\n  dup2\n  dup2\n  add\n  0x40\n  mstore\n  dup2\n  add\n  swap1\n  tag_2\n  swap2\n  swap1\n  tag_3\n  jump\t// in\ntag_2:\n    /* \"descendingAuction.sol\":606:616  msg.sender */\n  caller\n    /* \"descendingAuction.sol\":569:616  IERC721(thenft).ownerOf(thenftid) == msg.sender */\n  0xffffffffffffffffffffffffffffffffffffffff\n  and\n    /* \"descendingAuction.sol\":577:583  thenft */\n  dup3\n    /* \"descendingAuction.sol\":569:592  IERC721(thenft).ownerOf */\n  0xffffffffffffffffffffffffffffffffffffffff\n  and\n  0x6352211e\n    /* \"descendingAuction.sol\":593:601  thenftid */\n  dup4\n    /* \"descendingAuction.sol\":569:602  IERC721(thenft).ownerOf(thenftid) */\n  mload(0x40)\n  dup3\n  0xffffffff\n  and\n  0xe0\n  shl\n  dup2\n  mstore\n  0x04\n  add\n  tag_6\n  swap2\n  swap1\n  tag_7\n  jump\t// in\ntag_6:\n  0x20\n  mload(0x40)\n  dup1\n  dup4\n  sub\n  dup2\n  dup7\n  gas\n  staticcall\n  iszero\n  dup1\n  iszero\n  tag_9\n  jumpi\n  returndatasize\n  0x00\n  dup1\n  returndatacopy\n  revert(0x00, returndatasize)\ntag_9:\n  pop\n  pop\n  pop\n  pop\n  mload(0x40)\n  returndatasize\n  not(0x1f)\n  0x1f\n  dup3\n  add\n  and\n  dup3\n  add\n  dup1\n  0x40\n  mstore\n  pop\n  dup2\n  add\n  swap1\n  tag_10\n  swap2\n  swap1\n  tag_11\n  jump\t// in\ntag_10:\n    /* \"descendingAuction.sol\":569:616  IERC721(thenft).ownerOf(thenftid) == msg.sender */\n  0xffffffffffffffffffffffffffffffffffffffff\n  and\n  eq\n    /* \"descendingAuction.sol\":561:648  require(IERC721(thenft).ownerOf(thenftid) == msg.sender, \"Auctioneer does not own NFT\") */\n  tag_12\n  jumpi\n  mload(0x40)\n  0x08c379a000000000000000000000000000000000000000000000000000000000\n  dup2\n  mstore\n  0x04\n  add\n  tag_13\n  swap1\n  tag_14\n  jump\t// in\ntag_13:\n  mload(0x40)\n  dup1\n  swap2\n  sub\n  swap1\n  revert\ntag_12:\n    /* \"descendingAuction.sol\":681:691  msg.sender */\n  caller\n    /* \"descendingAuction.sol\":658:670  auctionOwner */\n  0x00\n  dup1\n    /* \"descendingAuction.sol\":658:692  auctionOwner = payable(msg.sender) */\n  0x0100\n  exp\n  dup2\n  sload\n  dup2\n  0xffffffffffffffffffffffffffffffffffffffff\n  mul\n  not\n  and\n  swap1\n  dup4\n  0xffffffffffffffffffffffffffffffffffffffff\n  and\n  mul\n  or\n  swap1\n  sstore\n  pop\n    /* \"descendingAuction.sol\":717:729  ceilingPrice */\n  dup4\n    /* \"descendingAuction.sol\":702:714  currentPrice */\n  0x01\n    /* \"descendingAuction.sol\":702:729  currentPrice = ceilingPrice */\n  dup2\n  swap1\n  sstore\n  pop\n    /* \"descendingAuction.sol\":751:765  decrementValue */\n  dup3\n    /* \"descendingAuction.sol\":739:748  decrement */\n  0x03\n    /* \"descendingAuction.sol\":739:765  decrement = decrementValue */\n  dup2\n  swap1\n  sstore\n  pop\n    /* \"descendingAuction.sol\":789:795  thenft */\n  dup2\n    /* \"descendingAuction.sol\":775:778  nft */\n  0x04\n  0x00\n    /* \"descendingAuction.sol\":775:796  nft = IERC721(thenft) */\n  0x0100\n  exp\n  dup2\n  sload\n  dup2\n  0xffffffffffffffffffffffffffffffffffffffff\n  mul\n  not\n  and\n  swap1\n  dup4\n  0xffffffffffffffffffffffffffffffffffffffff\n  and\n  mul\n  or\n  swap1\n  sstore\n  pop\n    /* \"descendingAuction.sol\":814:822  thenftid */\n  dup1\n    /* \"descendingAuction.sol\":806:811  nftId */\n  0x05\n    /* \"descendingAuction.sol\":806:822  nftId = thenftid */\n  dup2\n  swap1\n  sstore\n  pop\n    /* \"descendingAuction.sol\":837:865  AuctionStarted(currentPrice) */\n  0x1bb96dff6ab5005aff98cdc0cf176bb7d8e0423cb48e02217d35b042cec81e9f\n    /* \"descendingAuction.sol\":852:864  currentPrice */\n  sload(0x01)\n    /* \"descendingAuction.sol\":837:865  AuctionStarted(currentPrice) */\n  mload(0x40)\n  tag_15\n  swap2\n  swap1\n  tag_7\n  jump\t// in\ntag_15:\n  mload(0x40)\n  dup1\n  swap2\n  sub\n  swap1\n  log1\n    /* \"descendingAuction.sol\":468:872  constructor(uint ceilingPrice, uint decrementValue, address thenft, uint thenftid) {... */\n  pop\n  pop\n  pop\n  pop\n    /* \"descendingAuction.sol\":116:1517  contract DescendingAuction {... */\n  jump(tag_16)\n    /* \"#utility.yul\":88:205   */\ntag_18:\n    /* \"#utility.yul\":197:198   */\n  0x00\n    /* \"#utility.yul\":194:195   */\n  dup1\n    /* \"#utility.yul\":187:199   */\n  revert\n    /* \"#utility.yul\":334:411   */\ntag_20:\n    /* \"#utility.yul\":371:378   */\n  0x00\n    /* \"#utility.yul\":400:405   */\n  dup2\n    /* \"#utility.yul\":389:405   */\n  swap1\n  pop\n    /* \"#utility.yul\":334:411   */\n  swap2\n  swap1\n  pop\n  jump\t// out\n    /* \"#utility.yul\":417:539   */\ntag_21:\n    /* \"#utility.yul\":490:514   */\n  tag_37\n    /* \"#utility.yul\":508:513   */\n  dup2\n    /* \"#utility.yul\":490:514   */\n  tag_20\n  jump\t// in\ntag_37:\n    /* \"#utility.yul\":483:488   */\n  dup2\n    /* \"#utility.yul\":480:515   */\n  eq\n    /* \"#utility.yul\":470:533   */\n  tag_38\n  jumpi\n    /* \"#utility.yul\":529:530   */\n  0x00\n    /* \"#utility.yul\":526:527   */\n  dup1\n    /* \"#utility.yul\":519:531   */\n  revert\n    /* \"#utility.yul\":470:533   */\ntag_38:\n    /* \"#utility.yul\":417:539   */\n  pop\n  jump\t// out\n    /* \"#utility.yul\":545:688   */\ntag_22:\n    /* \"#utility.yul\":602:607   */\n  0x00\n    /* \"#utility.yul\":633:639   */\n  dup2\n    /* \"#utility.yul\":627:640   */\n  mload\n    /* \"#utility.yul\":618:640   */\n  swap1\n  pop\n    /* \"#utility.yul\":649:682   */\n  tag_40\n    /* \"#utility.yul\":676:681   */\n  dup2\n    /* \"#utility.yul\":649:682   */\n  tag_21\n  jump\t// in\ntag_40:\n    /* \"#utility.yul\":545:688   */\n  swap3\n  swap2\n  pop\n  pop\n  jump\t// out\n    /* \"#utility.yul\":694:820   */\ntag_23:\n    /* \"#utility.yul\":731:738   */\n  0x00\n    /* \"#utility.yul\":771:813   */\n  0xffffffffffffffffffffffffffffffffffffffff\n    /* \"#utility.yul\":764:769   */\n  dup3\n    /* \"#utility.yul\":760:814   */\n  and\n    /* \"#utility.yul\":749:814   */\n  swap1\n  pop\n    /* \"#utility.yul\":694:820   */\n  swap2\n  swap1\n  pop\n  jump\t// out\n    /* \"#utility.yul\":826:922   */\ntag_24:\n    /* \"#utility.yul\":863:870   */\n  0x00\n    /* \"#utility.yul\":892:916   */\n  tag_43\n    /* \"#utility.yul\":910:915   */\n  dup3\n    /* \"#utility.yul\":892:916   */\n  tag_23\n  jump\t// in\ntag_43:\n    /* \"#utility.yul\":881:916   */\n  swap1\n  pop\n    /* \"#utility.yul\":826:922   */\n  swap2\n  swap1\n  pop\n  jump\t// out\n    /* \"#utility.yul\":928:1050   */\ntag_25:\n    /* \"#utility.yul\":1001:1025   */\n  tag_45\n    /* \"#utility.yul\":1019:1024   */\n  dup2\n    /* \"#utility.yul\":1001:1025   */\n  tag_24\n  jump\t// in\ntag_45:\n    /* \"#utility.yul\":994:999   */\n  dup2\n    /* \"#utility.yul\":991:1026   */\n  eq\n    /* \"#utility.yul\":981:1044   */\n  tag_46\n  jumpi\n    /* \"#utility.yul\":1040:1041   */\n  0x00\n    /* \"#utility.yul\":1037:1038   */\n  dup1\n    /* \"#utility.yul\":1030:1042   */\n  revert\n    /* \"#utility.yul\":981:1044   */\ntag_46:\n    /* \"#utility.yul\":928:1050   */\n  pop\n  jump\t// out\n    /* \"#utility.yul\":1056:1199   */\ntag_26:\n    /* \"#utility.yul\":1113:1118   */\n  0x00\n    /* \"#utility.yul\":1144:1150   */\n  dup2\n    /* \"#utility.yul\":1138:1151   */\n  mload\n    /* \"#utility.yul\":1129:1151   */\n  swap1\n  pop\n    /* \"#utility.yul\":1160:1193   */\n  tag_48\n    /* \"#utility.yul\":1187:1192   */\n  dup2\n    /* \"#utility.yul\":1160:1193   */\n  tag_25\n  jump\t// in\ntag_48:\n    /* \"#utility.yul\":1056:1199   */\n  swap3\n  swap2\n  pop\n  pop\n  jump\t// out\n    /* \"#utility.yul\":1205:2025   */\ntag_3:\n    /* \"#utility.yul\":1302:1308   */\n  0x00\n    /* \"#utility.yul\":1310:1316   */\n  dup1\n    /* \"#utility.yul\":1318:1324   */\n  0x00\n    /* \"#utility.yul\":1326:1332   */\n  dup1\n    /* \"#utility.yul\":1375:1378   */\n  0x80\n    /* \"#utility.yul\":1363:1372   */\n  dup6\n    /* \"#utility.yul\":1354:1361   */\n  dup8\n    /* \"#utility.yul\":1350:1373   */\n  sub\n    /* \"#utility.yul\":1346:1379   */\n  slt\n    /* \"#utility.yul\":1343:1463   */\n  iszero\n  tag_50\n  jumpi\n    /* \"#utility.yul\":1382:1461   */\n  tag_51\n  tag_18\n  jump\t// in\ntag_51:\n    /* \"#utility.yul\":1343:1463   */\ntag_50:\n    /* \"#utility.yul\":1502:1503   */\n  0x00\n    /* \"#utility.yul\":1527:1591   */\n  tag_52\n    /* \"#utility.yul\":1583:1590   */\n  dup8\n    /* \"#utility.yul\":1574:1580   */\n  dup3\n    /* \"#utility.yul\":1563:1572   */\n  dup9\n    /* \"#utility.yul\":1559:1581   */\n  add\n    /* \"#utility.yul\":1527:1591   */\n  tag_22\n  jump\t// in\ntag_52:\n    /* \"#utility.yul\":1517:1591   */\n  swap5\n  pop\n    /* \"#utility.yul\":1473:1601   */\n  pop\n    /* \"#utility.yul\":1640:1642   */\n  0x20\n    /* \"#utility.yul\":1666:1730   */\n  tag_53\n    /* \"#utility.yul\":1722:1729   */\n  dup8\n    /* \"#utility.yul\":1713:1719   */\n  dup3\n    /* \"#utility.yul\":1702:1711   */\n  dup9\n    /* \"#utility.yul\":1698:1720   */\n  add\n    /* \"#utility.yul\":1666:1730   */\n  tag_22\n  jump\t// in\ntag_53:\n    /* \"#utility.yul\":1656:1730   */\n  swap4\n  pop\n    /* \"#utility.yul\":1611:1740   */\n  pop\n    /* \"#utility.yul\":1779:1781   */\n  0x40\n    /* \"#utility.yul\":1805:1869   */\n  tag_54\n    /* \"#utility.yul\":1861:1868   */\n  dup8\n    /* \"#utility.yul\":1852:1858   */\n  dup3\n    /* \"#utility.yul\":1841:1850   */\n  dup9\n    /* \"#utility.yul\":1837:1859   */\n  add\n    /* \"#utility.yul\":1805:1869   */\n  tag_26\n  jump\t// in\ntag_54:\n    /* \"#utility.yul\":1795:1869   */\n  swap3\n  pop\n    /* \"#utility.yul\":1750:1879   */\n  pop\n    /* \"#utility.yul\":1918:1920   */\n  0x60\n    /* \"#utility.yul\":1944:2008   */\n  tag_55\n    /* \"#utility.yul\":2000:2007   */\n  dup8\n    /* \"#utility.yul\":1991:1997   */\n  dup3\n    /* \"#utility.yul\":1980:1989   */\n  dup9\n    /* \"#utility.yul\":1976:1998   */\n  add\n    /* \"#utility.yul\":1944:2008   */\n  tag_22\n  jump\t// in\ntag_55:\n    /* \"#utility.yul\":1934:2008   */\n  swap2\n  pop\n    /* \"#utility.yul\":1889:2018   */\n  pop\n    /* \"#utility.yul\":1205:2025   */\n  swap3\n  swap6\n  swap2\n  swap5\n  pop\n  swap3\n  pop\n  jump\t// out\n    /* \"#utility.yul\":2031:2149   */\ntag_27:\n    /* \"#utility.yul\":2118:2142   */\n  tag_57\n    /* \"#utility.yul\":2136:2141   */\n  dup2\n    /* \"#utility.yul\":2118:2142   */\n  tag_20\n  jump\t// in\ntag_57:\n    /* \"#utility.yul\":2113:2116   */\n  dup3\n    /* \"#utility.yul\":2106:2143   */\n  mstore\n    /* \"#utility.yul\":2031:2149   */\n  pop\n  pop\n  jump\t// out\n    /* \"#utility.yul\":2155:2377   */\ntag_7:\n    /* \"#utility.yul\":2248:2252   */\n  0x00\n    /* \"#utility.yul\":2286:2288   */\n  0x20\n    /* \"#utility.yul\":2275:2284   */\n  dup3\n    /* \"#utility.yul\":2271:2289   */\n  add\n    /* \"#utility.yul\":2263:2289   */\n  swap1\n  pop\n    /* \"#utility.yul\":2299:2370   */\n  tag_59\n    /* \"#utility.yul\":2367:2368   */\n  0x00\n    /* \"#utility.yul\":2356:2365   */\n  dup4\n    /* \"#utility.yul\":2352:2369   */\n  add\n    /* \"#utility.yul\":2343:2349   */\n  dup5\n    /* \"#utility.yul\":2299:2370   */\n  tag_27\n  jump\t// in\ntag_59:\n    /* \"#utility.yul\":2155:2377   */\n  swap3\n  swap2\n  pop\n  pop\n  jump\t// out\n    /* \"#utility.yul\":2383:2734   */\ntag_11:\n    /* \"#utility.yul\":2453:2459   */\n  0x00\n    /* \"#utility.yul\":2502:2504   */\n  0x20\n    /* \"#utility.yul\":2490:2499   */\n  dup3\n    /* \"#utility.yul\":2481:2488   */\n  dup5\n    /* \"#utility.yul\":2477:2500   */\n  sub\n    /* \"#utility.yul\":2473:2505   */\n  slt\n    /* \"#utility.yul\":2470:2589   */\n  iszero\n  tag_61\n  jumpi\n    /* \"#utility.yul\":2508:2587   */\n  tag_62\n  tag_18\n  jump\t// in\ntag_62:\n    /* \"#utility.yul\":2470:2589   */\ntag_61:\n    /* \"#utility.yul\":2628:2629   */\n  0x00\n    /* \"#utility.yul\":2653:2717   */\n  tag_63\n    /* \"#utility.yul\":2709:2716   */\n  dup5\n    /* \"#utility.yul\":2700:2706   */\n  dup3\n    /* \"#utility.yul\":2689:2698   */\n  dup6\n    /* \"#utility.yul\":2685:2707   */\n  add\n    /* \"#utility.yul\":2653:2717   */\n  tag_26\n  jump\t// in\ntag_63:\n    /* \"#utility.yul\":2643:2717   */\n  swap2\n  pop\n    /* \"#utility.yul\":2599:2727   */\n  pop\n    /* \"#utility.yul\":2383:2734   */\n  swap3\n  swap2\n  pop\n  pop\n  jump\t// out\n    /* \"#utility.yul\":2740:2909   */\ntag_28:\n    /* \"#utility.yul\":2824:2835   */\n  0x00\n    /* \"#utility.yul\":2858:2864   */\n  dup3\n    /* \"#utility.yul\":2853:2856   */\n  dup3\n    /* \"#utility.yul\":2846:2865   */\n  mstore\n    /* \"#utility.yul\":2898:2902   */\n  0x20\n    /* \"#utility.yul\":2893:2896   */\n  dup3\n    /* \"#utility.yul\":2889:2903   */\n  add\n    /* \"#utility.yul\":2874:2903   */\n  swap1\n  pop\n    /* \"#utility.yul\":2740:2909   */\n  swap3\n  swap2\n  pop\n  pop\n  jump\t// out\n    /* \"#utility.yul\":2915:3092   */\ntag_29:\n    /* \"#utility.yul\":3055:3084   */\n  0x41756374696f6e65657220646f6573206e6f74206f776e204e46540000000000\n    /* \"#utility.yul\":3051:3052   */\n  0x00\n    /* \"#utility.yul\":3043:3049   */\n  dup3\n    /* \"#utility.yul\":3039:3053   */\n  add\n    /* \"#utility.yul\":3032:3085   */\n  mstore\n    /* \"#utility.yul\":2915:3092   */\n  pop\n  jump\t// out\n    /* \"#utility.yul\":3098:3464   */\ntag_30:\n    /* \"#utility.yul\":3240:3243   */\n  0x00\n    /* \"#utility.yul\":3261:3328   */\n  tag_67\n    /* \"#utility.yul\":3325:3327   */\n  0x1b\n    /* \"#utility.yul\":3320:3323   */\n  dup4\n    /* \"#utility.yul\":3261:3328   */\n  tag_28\n  jump\t// in\ntag_67:\n    /* \"#utility.yul\":3254:3328   */\n  swap2\n  pop\n    /* \"#utility.yul\":3337:3430   */\n  tag_68\n    /* \"#utility.yul\":3426:3429   */\n  dup3\n    /* \"#utility.yul\":3337:3430   */\n  tag_29\n  jump\t// in\ntag_68:\n    /* \"#utility.yul\":3455:3457   */\n  0x20\n    /* \"#utility.yul\":3450:3453   */\n  dup3\n    /* \"#utility.yul\":3446:3458   */\n  add\n    /* \"#utility.yul\":3439:3458   */\n  swap1\n  pop\n    /* \"#utility.yul\":3098:3464   */\n  swap2\n  swap1\n  pop\n  jump\t// out\n    /* \"#utility.yul\":3470:3889   */\ntag_14:\n    /* \"#utility.yul\":3636:3640   */\n  0x00\n    /* \"#utility.yul\":3674:3676   */\n  0x20\n    /* \"#utility.yul\":3663:3672   */\n  dup3\n    /* \"#utility.yul\":3659:3677   */\n  add\n    /* \"#utility.yul\":3651:3677   */\n  swap1\n  pop\n    /* \"#utility.yul\":3723:3732   */\n  dup2\n    /* \"#utility.yul\":3717:3721   */\n  dup2\n    /* \"#utility.yul\":3713:3733   */\n  sub\n    /* \"#utility.yul\":3709:3710   */\n  0x00\n    /* \"#utility.yul\":3698:3707   */\n  dup4\n    /* \"#utility.yul\":3694:3711   */\n  add\n    /* \"#utility.yul\":3687:3734   */\n  mstore\n    /* \"#utility.yul\":3751:3882   */\n  tag_70\n    /* \"#utility.yul\":3877:3881   */\n  dup2\n    /* \"#utility.yul\":3751:3882   */\n  tag_30\n  jump\t// in\ntag_70:\n    /* \"#utility.yul\":3743:3882   */\n  swap1\n  pop\n    /* \"#utility.yul\":3470:3889   */\n  swap2\n  swap1\n  pop\n  jump\t// out\n    /* \"descendingAuction.sol\":116:1517  contract DescendingAuction {... */\ntag_16:\n  dataSize(sub_0)\n  dup1\n  dataOffset(sub_0)\n  0x00\n  codecopy\n  0x00\n  return\nstop\n\nsub_0: assembly {\n        /* \"descendingAuction.sol\":116:1517  contract DescendingAuction {... */\n      mstore(0x40, 0x80)\n      jumpi(tag_1, lt(calldatasize, 0x04))\n      shr(0xe0, calldataload(0x00))\n      dup1\n      0xc6bc5182\n      gt\n      tag_10\n      jumpi\n      dup1\n      0xc6bc5182\n      eq\n      tag_6\n      jumpi\n      dup1\n      0xc87c0f79\n      eq\n      tag_7\n      jumpi\n      dup1\n      0xd3924aaf\n      eq\n      tag_8\n      jumpi\n      dup1\n      0xdfbf53ae\n      eq\n      tag_9\n      jumpi\n      jump(tag_1)\n    tag_10:\n      dup1\n      0x1998aeef\n      eq\n      tag_2\n      jumpi\n      dup1\n      0x2baeceb7\n      eq\n      tag_3\n      jumpi\n      dup1\n      0x47ccca02\n      eq\n      tag_4\n      jumpi\n      dup1\n      0x9d1b464a\n      eq\n      tag_5\n      jumpi\n    tag_1:\n      0x00\n      dup1\n      revert\n        /* \"descendingAuction.sol\":878:1178  function bid() public payable {... */\n    tag_2:\n      tag_11\n      tag_12\n      jump\t// in\n    tag_11:\n      stop\n        /* \"descendingAuction.sol\":255:276  uint public decrement */\n    tag_3:\n      callvalue\n      dup1\n      iszero\n      tag_13\n      jumpi\n      0x00\n      dup1\n      revert\n    tag_13:\n      pop\n      tag_14\n      tag_15\n      jump\t// in\n    tag_14:\n      mload(0x40)\n      tag_16\n      swap2\n      swap1\n      tag_17\n      jump\t// in\n    tag_16:\n      mload(0x40)\n      dup1\n      swap2\n      sub\n      swap1\n      return\n        /* \"descendingAuction.sol\":282:300  IERC721 public nft */\n    tag_4:\n      callvalue\n      dup1\n      iszero\n      tag_18\n      jumpi\n      0x00\n      dup1\n      revert\n    tag_18:\n      pop\n      tag_19\n      tag_20\n      jump\t// in\n    tag_19:\n      mload(0x40)\n      tag_21\n      swap2\n      swap1\n      tag_22\n      jump\t// in\n    tag_21:\n      mload(0x40)\n      dup1\n      swap2\n      sub\n      swap1\n      return\n        /* \"descendingAuction.sol\":190:214  uint public currentPrice */\n    tag_5:\n      callvalue\n      dup1\n      iszero\n      tag_23\n      jumpi\n      0x00\n      dup1\n      revert\n    tag_23:\n      pop\n      tag_24\n      tag_25\n      jump\t// in\n    tag_24:\n      mload(0x40)\n      tag_26\n      swap2\n      swap1\n      tag_17\n      jump\t// in\n    tag_26:\n      mload(0x40)\n      dup1\n      swap2\n      sub\n      swap1\n      return\n        /* \"descendingAuction.sol\":306:323  uint public nftId */\n    tag_6:\n      callvalue\n      dup1\n      iszero\n      tag_27\n      jumpi\n      0x00\n      dup1\n      revert\n    tag_27:\n      pop\n      tag_28\n      tag_29\n      jump\t// in\n    tag_28:\n      mload(0x40)\n      tag_30\n      swap2\n      swap1\n      tag_17\n      jump\t// in\n    tag_30:\n      mload(0x40)\n      dup1\n      swap2\n      sub\n      swap1\n      return\n        /* \"descendingAuction.sol\":1184:1515  function lowerPrice() public {... */\n    tag_7:\n      callvalue\n      dup1\n      iszero\n      tag_31\n      jumpi\n      0x00\n      dup1\n      revert\n    tag_31:\n      pop\n      tag_32\n      tag_33\n      jump\t// in\n    tag_32:\n      stop\n        /* \"descendingAuction.sol\":149:184  address payable public auctionOwner */\n    tag_8:\n      callvalue\n      dup1\n      iszero\n      tag_34\n      jumpi\n      0x00\n      dup1\n      revert\n    tag_34:\n      pop\n      tag_35\n      tag_36\n      jump\t// in\n    tag_35:\n      mload(0x40)\n      tag_37\n      swap2\n      swap1\n      tag_38\n      jump\t// in\n    tag_37:\n      mload(0x40)\n      dup1\n      swap2\n      sub\n      swap1\n      return\n        /* \"descendingAuction.sol\":220:249  address payable public winner */\n    tag_9:\n      callvalue\n      dup1\n      iszero\n      tag_39\n      jumpi\n      0x00\n      dup1\n      revert\n    tag_39:\n      pop\n      tag_40\n      tag_41\n      jump\t// in\n    tag_40:\n      mload(0x40)\n      tag_42\n      swap2\n      swap1\n      tag_38\n      jump\t// in\n    tag_42:\n      mload(0x40)\n      dup1\n      swap2\n      sub\n      swap1\n      return\n        /* \"descendingAuction.sol\":878:1178  function bid() public payable {... */\n    tag_12:\n        /* \"descendingAuction.sol\":939:951  currentPrice */\n      sload(0x01)\n        /* \"descendingAuction.sol\":926:935  msg.value */\n      callvalue\n        /* \"descendingAuction.sol\":926:951  msg.value == currentPrice */\n      eq\n        /* \"descendingAuction.sol\":918:986  require(msg.value == currentPrice, \"You must bid the current price\") */\n      tag_44\n      jumpi\n      mload(0x40)\n      0x08c379a000000000000000000000000000000000000000000000000000000000\n      dup2\n      mstore\n      0x04\n      add\n      tag_45\n      swap1\n      tag_46\n      jump\t// in\n    tag_45:\n      mload(0x40)\n      dup1\n      swap2\n      sub\n      swap1\n      revert\n    tag_44:\n        /* \"descendingAuction.sol\":1013:1023  msg.sender */\n      caller\n        /* \"descendingAuction.sol\":996:1002  winner */\n      0x02\n      0x00\n        /* \"descendingAuction.sol\":996:1024  winner = payable(msg.sender) */\n      0x0100\n      exp\n      dup2\n      sload\n      dup2\n      0xffffffffffffffffffffffffffffffffffffffff\n      mul\n      not\n      and\n      swap1\n      dup4\n      0xffffffffffffffffffffffffffffffffffffffff\n      and\n      mul\n      or\n      swap1\n      sstore\n      pop\n        /* \"descendingAuction.sol\":1034:1046  auctionOwner */\n      0x00\n      dup1\n      sload\n      swap1\n      0x0100\n      exp\n      swap1\n      div\n      0xffffffffffffffffffffffffffffffffffffffff\n      and\n        /* \"descendingAuction.sol\":1034:1055  auctionOwner.transfer */\n      0xffffffffffffffffffffffffffffffffffffffff\n      and\n        /* \"descendingAuction.sol\":1034:1066  auctionOwner.transfer(msg.value) */\n      0x08fc\n        /* \"descendingAuction.sol\":1056:1065  msg.value */\n      callvalue\n        /* \"descendingAuction.sol\":1034:1066  auctionOwner.transfer(msg.value) */\n      swap1\n      dup2\n      iszero\n      mul\n      swap1\n      mload(0x40)\n      0x00\n      mload(0x40)\n      dup1\n      dup4\n      sub\n      dup2\n      dup6\n      dup9\n      dup9\n      call\n      swap4\n      pop\n      pop\n      pop\n      pop\n      iszero\n      dup1\n      iszero\n      tag_48\n      jumpi\n      returndatasize\n      0x00\n      dup1\n      returndatacopy\n      revert(0x00, returndatasize)\n    tag_48:\n      pop\n        /* \"descendingAuction.sol\":1076:1079  nft */\n      0x04\n      0x00\n      swap1\n      sload\n      swap1\n      0x0100\n      exp\n      swap1\n      div\n      0xffffffffffffffffffffffffffffffffffffffff\n      and\n        /* \"descendingAuction.sol\":1076:1096  nft.safeTransferFrom */\n      0xffffffffffffffffffffffffffffffffffffffff\n      and\n      0x42842e0e\n        /* \"descendingAuction.sol\":1097:1109  auctionOwner */\n      0x00\n      dup1\n      sload\n      swap1\n      0x0100\n      exp\n      swap1\n      div\n      0xffffffffffffffffffffffffffffffffffffffff\n      and\n        /* \"descendingAuction.sol\":1111:1117  winner */\n      0x02\n      0x00\n      swap1\n      sload\n      swap1\n      0x0100\n      exp\n      swap1\n      div\n      0xffffffffffffffffffffffffffffffffffffffff\n      and\n        /* \"descendingAuction.sol\":1119:1124  nftId */\n      sload(0x05)\n        /* \"descendingAuction.sol\":1076:1125  nft.safeTransferFrom(auctionOwner, winner, nftId) */\n      mload(0x40)\n      dup5\n      0xffffffff\n      and\n      0xe0\n      shl\n      dup2\n      mstore\n      0x04\n      add\n      tag_49\n      swap4\n      swap3\n      swap2\n      swap1\n      tag_50\n      jump\t// in\n    tag_49:\n      0x00\n      mload(0x40)\n      dup1\n      dup4\n      sub\n      dup2\n      0x00\n      dup8\n      dup1\n      extcodesize\n      iszero\n      dup1\n      iszero\n      tag_51\n      jumpi\n      0x00\n      dup1\n      revert\n    tag_51:\n      pop\n      gas\n      call\n      iszero\n      dup1\n      iszero\n      tag_53\n      jumpi\n      returndatasize\n      0x00\n      dup1\n      returndatacopy\n      revert(0x00, returndatasize)\n    tag_53:\n      pop\n      pop\n      pop\n      pop\n        /* \"descendingAuction.sol\":1140:1171  AuctionEnded(winner, msg.value) */\n      0xdaec4582d5d9595688c8c98545fdd1c696d41c6aeaeb636737e84ed2f5c00eda\n        /* \"descendingAuction.sol\":1153:1159  winner */\n      0x02\n      0x00\n      swap1\n      sload\n      swap1\n      0x0100\n      exp\n      swap1\n      div\n      0xffffffffffffffffffffffffffffffffffffffff\n      and\n        /* \"descendingAuction.sol\":1161:1170  msg.value */\n      callvalue\n        /* \"descendingAuction.sol\":1140:1171  AuctionEnded(winner, msg.value) */\n      mload(0x40)\n      tag_54\n      swap3\n      swap2\n      swap1\n      tag_55\n      jump\t// in\n    tag_54:\n      mload(0x40)\n      dup1\n      swap2\n      sub\n      swap1\n      log1\n        /* \"descendingAuction.sol\":878:1178  function bid() public payable {... */\n      jump\t// out\n        /* \"descendingAuction.sol\":255:276  uint public decrement */\n    tag_15:\n      sload(0x03)\n      dup2\n      jump\t// out\n        /* \"descendingAuction.sol\":282:300  IERC721 public nft */\n    tag_20:\n      0x04\n      0x00\n      swap1\n      sload\n      swap1\n      0x0100\n      exp\n      swap1\n      div\n      0xffffffffffffffffffffffffffffffffffffffff\n      and\n      dup2\n      jump\t// out\n        /* \"descendingAuction.sol\":190:214  uint public currentPrice */\n    tag_25:\n      sload(0x01)\n      dup2\n      jump\t// out\n        /* \"descendingAuction.sol\":306:323  uint public nftId */\n    tag_29:\n      sload(0x05)\n      dup2\n      jump\t// out\n        /* \"descendingAuction.sol\":1184:1515  function lowerPrice() public {... */\n    tag_33:\n        /* \"descendingAuction.sol\":1245:1257  auctionOwner */\n      0x00\n      dup1\n      sload\n      swap1\n      0x0100\n      exp\n      swap1\n      div\n      0xffffffffffffffffffffffffffffffffffffffff\n      and\n        /* \"descendingAuction.sol\":1231:1257  msg.sender == auctionOwner */\n      0xffffffffffffffffffffffffffffffffffffffff\n      and\n        /* \"descendingAuction.sol\":1231:1241  msg.sender */\n      caller\n        /* \"descendingAuction.sol\":1231:1257  msg.sender == auctionOwner */\n      0xffffffffffffffffffffffffffffffffffffffff\n      and\n      eq\n        /* \"descendingAuction.sol\":1223:1296  require(msg.sender == auctionOwner, \"Only auction owner can lower price\") */\n      tag_57\n      jumpi\n      mload(0x40)\n      0x08c379a000000000000000000000000000000000000000000000000000000000\n      dup2\n      mstore\n      0x04\n      add\n      tag_58\n      swap1\n      tag_59\n      jump\t// in\n    tag_58:\n      mload(0x40)\n      dup1\n      swap2\n      sub\n      swap1\n      revert\n    tag_57:\n        /* \"descendingAuction.sol\":1337:1346  decrement */\n      sload(0x03)\n        /* \"descendingAuction.sol\":1322:1334  currentPrice */\n      sload(0x01)\n        /* \"descendingAuction.sol\":1322:1346  currentPrice - decrement */\n      tag_60\n      swap2\n      swap1\n      tag_61\n      jump\t// in\n    tag_60:\n        /* \"descendingAuction.sol\":1307:1319  currentPrice */\n      0x01\n        /* \"descendingAuction.sol\":1307:1346  currentPrice = currentPrice - decrement */\n      dup2\n      swap1\n      sstore\n      pop\n        /* \"descendingAuction.sol\":1361:1387  PriceLowered(currentPrice) */\n      0x12743d2a1dadeba1b5ca0bee15e7d9dc58e588ae493b5f2027a749d5e2af779e\n        /* \"descendingAuction.sol\":1374:1386  currentPrice */\n      sload(0x01)\n        /* \"descendingAuction.sol\":1361:1387  PriceLowered(currentPrice) */\n      mload(0x40)\n      tag_62\n      swap2\n      swap1\n      tag_17\n      jump\t// in\n    tag_62:\n      mload(0x40)\n      dup1\n      swap2\n      sub\n      swap1\n      log1\n        /* \"descendingAuction.sol\":1418:1419  0 */\n      0x00\n        /* \"descendingAuction.sol\":1402:1414  currentPrice */\n      sload(0x01)\n        /* \"descendingAuction.sol\":1402:1419  currentPrice == 0 */\n      sub\n        /* \"descendingAuction.sol\":1398:1509  if (currentPrice == 0) { // auction ends with no buyers... */\n      tag_63\n      jumpi\n        /* \"descendingAuction.sol\":1471:1498  AuctionEnded(address(0), 0) */\n      0xdaec4582d5d9595688c8c98545fdd1c696d41c6aeaeb636737e84ed2f5c00eda\n        /* \"descendingAuction.sol\":1492:1493  0 */\n      0x00\n        /* \"descendingAuction.sol\":1496:1497  0 */\n      dup1\n        /* \"descendingAuction.sol\":1471:1498  AuctionEnded(address(0), 0) */\n      mload(0x40)\n      tag_64\n      swap3\n      swap2\n      swap1\n      tag_65\n      jump\t// in\n    tag_64:\n      mload(0x40)\n      dup1\n      swap2\n      sub\n      swap1\n      log1\n        /* \"descendingAuction.sol\":1398:1509  if (currentPrice == 0) { // auction ends with no buyers... */\n    tag_63:\n        /* \"descendingAuction.sol\":1184:1515  function lowerPrice() public {... */\n      jump\t// out\n        /* \"descendingAuction.sol\":149:184  address payable public auctionOwner */\n    tag_36:\n      0x00\n      dup1\n      sload\n      swap1\n      0x0100\n      exp\n      swap1\n      div\n      0xffffffffffffffffffffffffffffffffffffffff\n      and\n      dup2\n      jump\t// out\n        /* \"descendingAuction.sol\":220:249  address payable public winner */\n    tag_41:\n      0x02\n      0x00\n      swap1\n      sload\n      swap1\n      0x0100\n      exp\n      swap1\n      div\n      0xffffffffffffffffffffffffffffffffffffffff\n      and\n      dup2\n      jump\t// out\n        /* \"#utility.yul\":7:84   */\n    tag_66:\n        /* \"#utility.yul\":44:51   */\n      0x00\n        /* \"#utility.yul\":73:78   */\n      dup2\n        /* \"#utility.yul\":62:78   */\n      swap1\n      pop\n        /* \"#utility.yul\":7:84   */\n      swap2\n      swap1\n      pop\n      jump\t// out\n        /* \"#utility.yul\":90:208   */\n    tag_67:\n        /* \"#utility.yul\":177:201   */\n      tag_92\n        /* \"#utility.yul\":195:200   */\n      dup2\n        /* \"#utility.yul\":177:201   */\n      tag_66\n      jump\t// in\n    tag_92:\n        /* \"#utility.yul\":172:175   */\n      dup3\n        /* \"#utility.yul\":165:202   */\n      mstore\n        /* \"#utility.yul\":90:208   */\n      pop\n      pop\n      jump\t// out\n        /* \"#utility.yul\":214:436   */\n    tag_17:\n        /* \"#utility.yul\":307:311   */\n      0x00\n        /* \"#utility.yul\":345:347   */\n      0x20\n        /* \"#utility.yul\":334:343   */\n      dup3\n        /* \"#utility.yul\":330:348   */\n      add\n        /* \"#utility.yul\":322:348   */\n      swap1\n      pop\n        /* \"#utility.yul\":358:429   */\n      tag_94\n        /* \"#utility.yul\":426:427   */\n      0x00\n        /* \"#utility.yul\":415:424   */\n      dup4\n        /* \"#utility.yul\":411:428   */\n      add\n        /* \"#utility.yul\":402:408   */\n      dup5\n        /* \"#utility.yul\":358:429   */\n      tag_67\n      jump\t// in\n    tag_94:\n        /* \"#utility.yul\":214:436   */\n      swap3\n      swap2\n      pop\n      pop\n      jump\t// out\n        /* \"#utility.yul\":442:568   */\n    tag_68:\n        /* \"#utility.yul\":479:486   */\n      0x00\n        /* \"#utility.yul\":519:561   */\n      0xffffffffffffffffffffffffffffffffffffffff\n        /* \"#utility.yul\":512:517   */\n      dup3\n        /* \"#utility.yul\":508:562   */\n      and\n        /* \"#utility.yul\":497:562   */\n      swap1\n      pop\n        /* \"#utility.yul\":442:568   */\n      swap2\n      swap1\n      pop\n      jump\t// out\n        /* \"#utility.yul\":574:634   */\n    tag_69:\n        /* \"#utility.yul\":602:605   */\n      0x00\n        /* \"#utility.yul\":623:628   */\n      dup2\n        /* \"#utility.yul\":616:628   */\n      swap1\n      pop\n        /* \"#utility.yul\":574:634   */\n      swap2\n      swap1\n      pop\n      jump\t// out\n        /* \"#utility.yul\":640:782   */\n    tag_70:\n        /* \"#utility.yul\":690:699   */\n      0x00\n        /* \"#utility.yul\":723:776   */\n      tag_98\n        /* \"#utility.yul\":741:775   */\n      tag_99\n        /* \"#utility.yul\":750:774   */\n      tag_100\n        /* \"#utility.yul\":768:773   */\n      dup5\n        /* \"#utility.yul\":750:774   */\n      tag_68\n      jump\t// in\n    tag_100:\n        /* \"#utility.yul\":741:775   */\n      tag_69\n      jump\t// in\n    tag_99:\n        /* \"#utility.yul\":723:776   */\n      tag_68\n      jump\t// in\n    tag_98:\n        /* \"#utility.yul\":710:776   */\n      swap1\n      pop\n        /* \"#utility.yul\":640:782   */\n      swap2\n      swap1\n      pop\n      jump\t// out\n        /* \"#utility.yul\":788:914   */\n    tag_71:\n        /* \"#utility.yul\":838:847   */\n      0x00\n        /* \"#utility.yul\":871:908   */\n      tag_102\n        /* \"#utility.yul\":902:907   */\n      dup3\n        /* \"#utility.yul\":871:908   */\n      tag_70\n      jump\t// in\n    tag_102:\n        /* \"#utility.yul\":858:908   */\n      swap1\n      pop\n        /* \"#utility.yul\":788:914   */\n      swap2\n      swap1\n      pop\n      jump\t// out\n        /* \"#utility.yul\":920:1061   */\n    tag_72:\n        /* \"#utility.yul\":985:994   */\n      0x00\n        /* \"#utility.yul\":1018:1055   */\n      tag_104\n        /* \"#utility.yul\":1049:1054   */\n      dup3\n        /* \"#utility.yul\":1018:1055   */\n      tag_71\n      jump\t// in\n    tag_104:\n        /* \"#utility.yul\":1005:1055   */\n      swap1\n      pop\n        /* \"#utility.yul\":920:1061   */\n      swap2\n      swap1\n      pop\n      jump\t// out\n        /* \"#utility.yul\":1067:1228   */\n    tag_73:\n        /* \"#utility.yul\":1169:1221   */\n      tag_106\n        /* \"#utility.yul\":1215:1220   */\n      dup2\n        /* \"#utility.yul\":1169:1221   */\n      tag_72\n      jump\t// in\n    tag_106:\n        /* \"#utility.yul\":1164:1167   */\n      dup3\n        /* \"#utility.yul\":1157:1222   */\n      mstore\n        /* \"#utility.yul\":1067:1228   */\n      pop\n      pop\n      jump\t// out\n        /* \"#utility.yul\":1234:1486   */\n    tag_22:\n        /* \"#utility.yul\":1342:1346   */\n      0x00\n        /* \"#utility.yul\":1380:1382   */\n      0x20\n        /* \"#utility.yul\":1369:1378   */\n      dup3\n        /* \"#utility.yul\":1365:1383   */\n      add\n        /* \"#utility.yul\":1357:1383   */\n      swap1\n      pop\n        /* \"#utility.yul\":1393:1479   */\n      tag_108\n        /* \"#utility.yul\":1476:1477   */\n      0x00\n        /* \"#utility.yul\":1465:1474   */\n      dup4\n        /* \"#utility.yul\":1461:1478   */\n      add\n        /* \"#utility.yul\":1452:1458   */\n      dup5\n        /* \"#utility.yul\":1393:1479   */\n      tag_73\n      jump\t// in\n    tag_108:\n        /* \"#utility.yul\":1234:1486   */\n      swap3\n      swap2\n      pop\n      pop\n      jump\t// out\n        /* \"#utility.yul\":1492:1596   */\n    tag_74:\n        /* \"#utility.yul\":1537:1544   */\n      0x00\n        /* \"#utility.yul\":1566:1590   */\n      tag_110\n        /* \"#utility.yul\":1584:1589   */\n      dup3\n        /* \"#utility.yul\":1566:1590   */\n      tag_68\n      jump\t// in\n    tag_110:\n        /* \"#utility.yul\":1555:1590   */\n      swap1\n      pop\n        /* \"#utility.yul\":1492:1596   */\n      swap2\n      swap1\n      pop\n      jump\t// out\n        /* \"#utility.yul\":1602:1744   */\n    tag_75:\n        /* \"#utility.yul\":1705:1737   */\n      tag_112\n        /* \"#utility.yul\":1731:1736   */\n      dup2\n        /* \"#utility.yul\":1705:1737   */\n      tag_74\n      jump\t// in\n    tag_112:\n        /* \"#utility.yul\":1700:1703   */\n      dup3\n        /* \"#utility.yul\":1693:1738   */\n      mstore\n        /* \"#utility.yul\":1602:1744   */\n      pop\n      pop\n      jump\t// out\n        /* \"#utility.yul\":1750:2004   */\n    tag_38:\n        /* \"#utility.yul\":1859:1863   */\n      0x00\n        /* \"#utility.yul\":1897:1899   */\n      0x20\n        /* \"#utility.yul\":1886:1895   */\n      dup3\n        /* \"#utility.yul\":1882:1900   */\n      add\n        /* \"#utility.yul\":1874:1900   */\n      swap1\n      pop\n        /* \"#utility.yul\":1910:1997   */\n      tag_114\n        /* \"#utility.yul\":1994:1995   */\n      0x00\n        /* \"#utility.yul\":1983:1992   */\n      dup4\n        /* \"#utility.yul\":1979:1996   */\n      add\n        /* \"#utility.yul\":1970:1976   */\n      dup5\n        /* \"#utility.yul\":1910:1997   */\n      tag_75\n      jump\t// in\n    tag_114:\n        /* \"#utility.yul\":1750:2004   */\n      swap3\n      swap2\n      pop\n      pop\n      jump\t// out\n        /* \"#utility.yul\":2010:2179   */\n    tag_76:\n        /* \"#utility.yul\":2094:2105   */\n      0x00\n        /* \"#utility.yul\":2128:2134   */\n      dup3\n        /* \"#utility.yul\":2123:2126   */\n      dup3\n        /* \"#utility.yul\":2116:2135   */\n      mstore\n        /* \"#utility.yul\":2168:2172   */\n      0x20\n        /* \"#utility.yul\":2163:2166   */\n      dup3\n        /* \"#utility.yul\":2159:2173   */\n      add\n        /* \"#utility.yul\":2144:2173   */\n      swap1\n      pop\n        /* \"#utility.yul\":2010:2179   */\n      swap3\n      swap2\n      pop\n      pop\n      jump\t// out\n        /* \"#utility.yul\":2185:2365   */\n    tag_77:\n        /* \"#utility.yul\":2325:2357   */\n      0x596f75206d75737420626964207468652063757272656e742070726963650000\n        /* \"#utility.yul\":2321:2322   */\n      0x00\n        /* \"#utility.yul\":2313:2319   */\n      dup3\n        /* \"#utility.yul\":2309:2323   */\n      add\n        /* \"#utility.yul\":2302:2358   */\n      mstore\n        /* \"#utility.yul\":2185:2365   */\n      pop\n      jump\t// out\n        /* \"#utility.yul\":2371:2737   */\n    tag_78:\n        /* \"#utility.yul\":2513:2516   */\n      0x00\n        /* \"#utility.yul\":2534:2601   */\n      tag_118\n        /* \"#utility.yul\":2598:2600   */\n      0x1e\n        /* \"#utility.yul\":2593:2596   */\n      dup4\n        /* \"#utility.yul\":2534:2601   */\n      tag_76\n      jump\t// in\n    tag_118:\n        /* \"#utility.yul\":2527:2601   */\n      swap2\n      pop\n        /* \"#utility.yul\":2610:2703   */\n      tag_119\n        /* \"#utility.yul\":2699:2702   */\n      dup3\n        /* \"#utility.yul\":2610:2703   */\n      tag_77\n      jump\t// in\n    tag_119:\n        /* \"#utility.yul\":2728:2730   */\n      0x20\n        /* \"#utility.yul\":2723:2726   */\n      dup3\n        /* \"#utility.yul\":2719:2731   */\n      add\n        /* \"#utility.yul\":2712:2731   */\n      swap1\n      pop\n        /* \"#utility.yul\":2371:2737   */\n      swap2\n      swap1\n      pop\n      jump\t// out\n        /* \"#utility.yul\":2743:3162   */\n    tag_46:\n        /* \"#utility.yul\":2909:2913   */\n      0x00\n        /* \"#utility.yul\":2947:2949   */\n      0x20\n        /* \"#utility.yul\":2936:2945   */\n      dup3\n        /* \"#utility.yul\":2932:2950   */\n      add\n        /* \"#utility.yul\":2924:2950   */\n      swap1\n      pop\n        /* \"#utility.yul\":2996:3005   */\n      dup2\n        /* \"#utility.yul\":2990:2994   */\n      dup2\n        /* \"#utility.yul\":2986:3006   */\n      sub\n        /* \"#utility.yul\":2982:2983   */\n      0x00\n        /* \"#utility.yul\":2971:2980   */\n      dup4\n        /* \"#utility.yul\":2967:2984   */\n      add\n        /* \"#utility.yul\":2960:3007   */\n      mstore\n        /* \"#utility.yul\":3024:3155   */\n      tag_121\n        /* \"#utility.yul\":3150:3154   */\n      dup2\n        /* \"#utility.yul\":3024:3155   */\n      tag_78\n      jump\t// in\n    tag_121:\n        /* \"#utility.yul\":3016:3155   */\n      swap1\n      pop\n        /* \"#utility.yul\":2743:3162   */\n      swap2\n      swap1\n      pop\n      jump\t// out\n        /* \"#utility.yul\":3168:3302   */\n    tag_79:\n        /* \"#utility.yul\":3226:3235   */\n      0x00\n        /* \"#utility.yul\":3259:3296   */\n      tag_123\n        /* \"#utility.yul\":3290:3295   */\n      dup3\n        /* \"#utility.yul\":3259:3296   */\n      tag_71\n      jump\t// in\n    tag_123:\n        /* \"#utility.yul\":3246:3296   */\n      swap1\n      pop\n        /* \"#utility.yul\":3168:3302   */\n      swap2\n      swap1\n      pop\n      jump\t// out\n        /* \"#utility.yul\":3308:3455   */\n    tag_80:\n        /* \"#utility.yul\":3403:3448   */\n      tag_125\n        /* \"#utility.yul\":3442:3447   */\n      dup2\n        /* \"#utility.yul\":3403:3448   */\n      tag_79\n      jump\t// in\n    tag_125:\n        /* \"#utility.yul\":3398:3401   */\n      dup3\n        /* \"#utility.yul\":3391:3449   */\n      mstore\n        /* \"#utility.yul\":3308:3455   */\n      pop\n      pop\n      jump\t// out\n        /* \"#utility.yul\":3461:3935   */\n    tag_50:\n        /* \"#utility.yul\":3626:3630   */\n      0x00\n        /* \"#utility.yul\":3664:3666   */\n      0x60\n        /* \"#utility.yul\":3653:3662   */\n      dup3\n        /* \"#utility.yul\":3649:3667   */\n      add\n        /* \"#utility.yul\":3641:3667   */\n      swap1\n      pop\n        /* \"#utility.yul\":3677:3756   */\n      tag_127\n        /* \"#utility.yul\":3753:3754   */\n      0x00\n        /* \"#utility.yul\":3742:3751   */\n      dup4\n        /* \"#utility.yul\":3738:3755   */\n      add\n        /* \"#utility.yul\":3729:3735   */\n      dup7\n        /* \"#utility.yul\":3677:3756   */\n      tag_80\n      jump\t// in\n    tag_127:\n        /* \"#utility.yul\":3766:3846   */\n      tag_128\n        /* \"#utility.yul\":3842:3844   */\n      0x20\n        /* \"#utility.yul\":3831:3840   */\n      dup4\n        /* \"#utility.yul\":3827:3845   */\n      add\n        /* \"#utility.yul\":3818:3824   */\n      dup6\n        /* \"#utility.yul\":3766:3846   */\n      tag_80\n      jump\t// in\n    tag_128:\n        /* \"#utility.yul\":3856:3928   */\n      tag_129\n        /* \"#utility.yul\":3924:3926   */\n      0x40\n        /* \"#utility.yul\":3913:3922   */\n      dup4\n        /* \"#utility.yul\":3909:3927   */\n      add\n        /* \"#utility.yul\":3900:3906   */\n      dup5\n        /* \"#utility.yul\":3856:3928   */\n      tag_67\n      jump\t// in\n    tag_129:\n        /* \"#utility.yul\":3461:3935   */\n      swap5\n      swap4\n      pop\n      pop\n      pop\n      pop\n      jump\t// out\n        /* \"#utility.yul\":3941:4289   */\n    tag_55:\n        /* \"#utility.yul\":4070:4074   */\n      0x00\n        /* \"#utility.yul\":4108:4110   */\n      0x40\n        /* \"#utility.yul\":4097:4106   */\n      dup3\n        /* \"#utility.yul\":4093:4111   */\n      add\n        /* \"#utility.yul\":4085:4111   */\n      swap1\n      pop\n        /* \"#utility.yul\":4121:4200   */\n      tag_131\n        /* \"#utility.yul\":4197:4198   */\n      0x00\n        /* \"#utility.yul\":4186:4195   */\n      dup4\n        /* \"#utility.yul\":4182:4199   */\n      add\n        /* \"#utility.yul\":4173:4179   */\n      dup6\n        /* \"#utility.yul\":4121:4200   */\n      tag_80\n      jump\t// in\n    tag_131:\n        /* \"#utility.yul\":4210:4282   */\n      tag_132\n        /* \"#utility.yul\":4278:4280   */\n      0x20\n        /* \"#utility.yul\":4267:4276   */\n      dup4\n        /* \"#utility.yul\":4263:4281   */\n      add\n        /* \"#utility.yul\":4254:4260   */\n      dup5\n        /* \"#utility.yul\":4210:4282   */\n      tag_67\n      jump\t// in\n    tag_132:\n        /* \"#utility.yul\":3941:4289   */\n      swap4\n      swap3\n      pop\n      pop\n      pop\n      jump\t// out\n        /* \"#utility.yul\":4295:4516   */\n    tag_81:\n        /* \"#utility.yul\":4435:4469   */\n      0x4f6e6c792061756374696f6e206f776e65722063616e206c6f77657220707269\n        /* \"#utility.yul\":4431:4432   */\n      0x00\n        /* \"#utility.yul\":4423:4429   */\n      dup3\n        /* \"#utility.yul\":4419:4433   */\n      add\n        /* \"#utility.yul\":4412:4470   */\n      mstore\n        /* \"#utility.yul\":4504:4508   */\n      0x6365000000000000000000000000000000000000000000000000000000000000\n        /* \"#utility.yul\":4499:4501   */\n      0x20\n        /* \"#utility.yul\":4491:4497   */\n      dup3\n        /* \"#utility.yul\":4487:4502   */\n      add\n        /* \"#utility.yul\":4480:4509   */\n      mstore\n        /* \"#utility.yul\":4295:4516   */\n      pop\n      jump\t// out\n        /* \"#utility.yul\":4522:4888   */\n    tag_82:\n        /* \"#utility.yul\":4664:4667   */\n      0x00\n        /* \"#utility.yul\":4685:4752   */\n      tag_135\n        /* \"#utility.yul\":4749:4751   */\n      0x22\n        /* \"#utility.yul\":4744:4747   */\n      dup4\n        /* \"#utility.yul\":4685:4752   */\n      tag_76\n      jump\t// in\n    tag_135:\n        /* \"#utility.yul\":4678:4752   */\n      swap2\n      pop\n        /* \"#utility.yul\":4761:4854   */\n      tag_136\n        /* \"#utility.yul\":4850:4853   */\n      dup3\n        /* \"#utility.yul\":4761:4854   */\n      tag_81\n      jump\t// in\n    tag_136:\n        /* \"#utility.yul\":4879:4881   */\n      0x40\n        /* \"#utility.yul\":4874:4877   */\n      dup3\n        /* \"#utility.yul\":4870:4882   */\n      add\n        /* \"#utility.yul\":4863:4882   */\n      swap1\n      pop\n        /* \"#utility.yul\":4522:4888   */\n      swap2\n      swap1\n      pop\n      jump\t// out\n        /* \"#utility.yul\":4894:5313   */\n    tag_59:\n        /* \"#utility.yul\":5060:5064   */\n      0x00\n        /* \"#utility.yul\":5098:5100   */\n      0x20\n        /* \"#utility.yul\":5087:5096   */\n      dup3\n        /* \"#utility.yul\":5083:5101   */\n      add\n        /* \"#utility.yul\":5075:5101   */\n      swap1\n      pop\n        /* \"#utility.yul\":5147:5156   */\n      dup2\n        /* \"#utility.yul\":5141:5145   */\n      dup2\n        /* \"#utility.yul\":5137:5157   */\n      sub\n        /* \"#utility.yul\":5133:5134   */\n      0x00\n        /* \"#utility.yul\":5122:5131   */\n      dup4\n        /* \"#utility.yul\":5118:5135   */\n      add\n        /* \"#utility.yul\":5111:5158   */\n      mstore\n        /* \"#utility.yul\":5175:5306   */\n      tag_138\n        /* \"#utility.yul\":5301:5305   */\n      dup2\n        /* \"#utility.yul\":5175:5306   */\n      tag_82\n      jump\t// in\n    tag_138:\n        /* \"#utility.yul\":5167:5306   */\n      swap1\n      pop\n        /* \"#utility.yul\":4894:5313   */\n      swap2\n      swap1\n      pop\n      jump\t// out\n        /* \"#utility.yul\":5319:5499   */\n    tag_83:\n        /* \"#utility.yul\":5367:5444   */\n      0x4e487b7100000000000000000000000000000000000000000000000000000000\n        /* \"#utility.yul\":5364:5365   */\n      0x00\n        /* \"#utility.yul\":5357:5445   */\n      mstore\n        /* \"#utility.yul\":5464:5468   */\n      0x11\n        /* \"#utility.yul\":5461:5462   */\n      0x04\n        /* \"#utility.yul\":5454:5469   */\n      mstore\n        /* \"#utility.yul\":5488:5492   */\n      0x24\n        /* \"#utility.yul\":5485:5486   */\n      0x00\n        /* \"#utility.yul\":5478:5493   */\n      revert\n        /* \"#utility.yul\":5505:5699   */\n    tag_61:\n        /* \"#utility.yul\":5545:5549   */\n      0x00\n        /* \"#utility.yul\":5565:5585   */\n      tag_141\n        /* \"#utility.yul\":5583:5584   */\n      dup3\n        /* \"#utility.yul\":5565:5585   */\n      tag_66\n      jump\t// in\n    tag_141:\n        /* \"#utility.yul\":5560:5585   */\n      swap2\n      pop\n        /* \"#utility.yul\":5599:5619   */\n      tag_142\n        /* \"#utility.yul\":5617:5618   */\n      dup4\n        /* \"#utility.yul\":5599:5619   */\n      tag_66\n      jump\t// in\n    tag_142:\n        /* \"#utility.yul\":5594:5619   */\n      swap3\n      pop\n        /* \"#utility.yul\":5643:5644   */\n      dup3\n        /* \"#utility.yul\":5640:5641   */\n      dup3\n        /* \"#utility.yul\":5636:5645   */\n      sub\n        /* \"#utility.yul\":5628:5645   */\n      swap1\n      pop\n        /* \"#utility.yul\":5667:5668   */\n      dup2\n        /* \"#utility.yul\":5661:5665   */\n      dup2\n        /* \"#utility.yul\":5658:5669   */\n      gt\n        /* \"#utility.yul\":5655:5692   */\n      iszero\n      tag_143\n      jumpi\n        /* \"#utility.yul\":5672:5690   */\n      tag_144\n      tag_83\n      jump\t// in\n    tag_144:\n        /* \"#utility.yul\":5655:5692   */\n    tag_143:\n        /* \"#utility.yul\":5505:5699   */\n      swap3\n      swap2\n      pop\n      pop\n      jump\t// out\n        /* \"#utility.yul\":5705:5801   */\n    tag_84:\n        /* \"#utility.yul\":5742:5749   */\n      0x00\n        /* \"#utility.yul\":5771:5795   */\n      tag_146\n        /* \"#utility.yul\":5789:5794   */\n      dup3\n        /* \"#utility.yul\":5771:5795   */\n      tag_68\n      jump\t// in\n    tag_146:\n        /* \"#utility.yul\":5760:5795   */\n      swap1\n      pop\n        /* \"#utility.yul\":5705:5801   */\n      swap2\n      swap1\n      pop\n      jump\t// out\n        /* \"#utility.yul\":5807:5925   */\n    tag_85:\n        /* \"#utility.yul\":5894:5918   */\n      tag_148\n        /* \"#utility.yul\":5912:5917   */\n      dup2\n        /* \"#utility.yul\":5894:5918   */\n      tag_84\n      jump\t// in\n    tag_148:\n        /* \"#utility.yul\":5889:5892   */\n      dup3\n        /* \"#utility.yul\":5882:5919   */\n      mstore\n        /* \"#utility.yul\":5807:5925   */\n      pop\n      pop\n      jump\t// out\n        /* \"#utility.yul\":5931:6016   */\n    tag_86:\n        /* \"#utility.yul\":5976:5983   */\n      0x00\n        /* \"#utility.yul\":6005:6010   */\n      dup2\n        /* \"#utility.yul\":5994:6010   */\n      swap1\n      pop\n        /* \"#utility.yul\":5931:6016   */\n      swap2\n      swap1\n      pop\n      jump\t// out\n        /* \"#utility.yul\":6022:6180   */\n    tag_87:\n        /* \"#utility.yul\":6080:6089   */\n      0x00\n        /* \"#utility.yul\":6113:6174   */\n      tag_151\n        /* \"#utility.yul\":6131:6173   */\n      tag_152\n        /* \"#utility.yul\":6140:6172   */\n      tag_153\n        /* \"#utility.yul\":6166:6171   */\n      dup5\n        /* \"#utility.yul\":6140:6172   */\n      tag_86\n      jump\t// in\n    tag_153:\n        /* \"#utility.yul\":6131:6173   */\n      tag_69\n      jump\t// in\n    tag_152:\n        /* \"#utility.yul\":6113:6174   */\n      tag_66\n      jump\t// in\n    tag_151:\n        /* \"#utility.yul\":6100:6174   */\n      swap1\n      pop\n        /* \"#utility.yul\":6022:6180   */\n      swap2\n      swap1\n      pop\n      jump\t// out\n        /* \"#utility.yul\":6186:6333   */\n    tag_88:\n        /* \"#utility.yul\":6281:6326   */\n      tag_155\n        /* \"#utility.yul\":6320:6325   */\n      dup2\n        /* \"#utility.yul\":6281:6326   */\n      tag_87\n      jump\t// in\n    tag_155:\n        /* \"#utility.yul\":6276:6279   */\n      dup3\n        /* \"#utility.yul\":6269:6327   */\n      mstore\n        /* \"#utility.yul\":6186:6333   */\n      pop\n      pop\n      jump\t// out\n        /* \"#utility.yul\":6339:6687   */\n    tag_65:\n        /* \"#utility.yul\":6468:6472   */\n      0x00\n        /* \"#utility.yul\":6506:6508   */\n      0x40\n        /* \"#utility.yul\":6495:6504   */\n      dup3\n        /* \"#utility.yul\":6491:6509   */\n      add\n        /* \"#utility.yul\":6483:6509   */\n      swap1\n      pop\n        /* \"#utility.yul\":6519:6590   */\n      tag_157\n        /* \"#utility.yul\":6587:6588   */\n      0x00\n        /* \"#utility.yul\":6576:6585   */\n      dup4\n        /* \"#utility.yul\":6572:6589   */\n      add\n        /* \"#utility.yul\":6563:6569   */\n      dup6\n        /* \"#utility.yul\":6519:6590   */\n      tag_85\n      jump\t// in\n    tag_157:\n        /* \"#utility.yul\":6600:6680   */\n      tag_158\n        /* \"#utility.yul\":6676:6678   */\n      0x20\n        /* \"#utility.yul\":6665:6674   */\n      dup4\n        /* \"#utility.yul\":6661:6679   */\n      add\n        /* \"#utility.yul\":6652:6658   */\n      dup5\n        /* \"#utility.yul\":6600:6680   */\n      tag_88\n      jump\t// in\n    tag_158:\n        /* \"#utility.yul\":6339:6687   */\n      swap4\n      swap3\n      pop\n      pop\n      pop\n      jump\t// out\n\n    auxdata: 0xa2646970667358221220b2fa65b9b179951e92f201598c26e2dffa1377ae8eec6588dad8ef914185f39e64736f6c63430008110033\n}\n",
				"bytecode": {
					"linkReferences": {},
					"object": "60806040523480156200001157600080fd5b5060405162000d2a38038062000d2a8339818101604052810190620000379190620002a6565b3373ffffffffffffffffffffffffffffffffffffffff168273ffffffffffffffffffffffffffffffffffffffff16636352211e836040518263ffffffff1660e01b815260040162000089919062000329565b602060405180830381865afa158015620000a7573d6000803e3d6000fd5b505050506040513d601f19601f82011682018060405250810190620000cd919062000346565b73ffffffffffffffffffffffffffffffffffffffff161462000126576040517f08c379a00000000000000000000000000000000000000000000000000000000081526004016200011d90620003d9565b60405180910390fd5b336000806101000a81548173ffffffffffffffffffffffffffffffffffffffff021916908373ffffffffffffffffffffffffffffffffffffffff160217905550836001819055508260038190555081600460006101000a81548173ffffffffffffffffffffffffffffffffffffffff021916908373ffffffffffffffffffffffffffffffffffffffff160217905550806005819055507f1bb96dff6ab5005aff98cdc0cf176bb7d8e0423cb48e02217d35b042cec81e9f600154604051620001ef919062000329565b60405180910390a150505050620003fb565b600080fd5b6000819050919050565b6200021b8162000206565b81146200022757600080fd5b50565b6000815190506200023b8162000210565b92915050565b600073ffffffffffffffffffffffffffffffffffffffff82169050919050565b60006200026e8262000241565b9050919050565b620002808162000261565b81146200028c57600080fd5b50565b600081519050620002a08162000275565b92915050565b60008060008060808587031215620002c357620002c262000201565b5b6000620002d3878288016200022a565b9450506020620002e6878288016200022a565b9350506040620002f9878288016200028f565b92505060606200030c878288016200022a565b91505092959194509250565b620003238162000206565b82525050565b600060208201905062000340600083018462000318565b92915050565b6000602082840312156200035f576200035e62000201565b5b60006200036f848285016200028f565b91505092915050565b600082825260208201905092915050565b7f41756374696f6e65657220646f6573206e6f74206f776e204e46540000000000600082015250565b6000620003c1601b8362000378565b9150620003ce8262000389565b602082019050919050565b60006020820190508181036000830152620003f481620003b2565b9050919050565b61091f806200040b6000396000f3fe60806040526004361061007b5760003560e01c8063c6bc51821161004e578063c6bc51821461010b578063c87c0f7914610136578063d3924aaf1461014d578063dfbf53ae146101785761007b565b80631998aeef146100805780632baeceb71461008a57806347ccca02146100b55780639d1b464a146100e0575b600080fd5b6100886101a3565b005b34801561009657600080fd5b5061009f6103c1565b6040516100ac9190610580565b60405180910390f35b3480156100c157600080fd5b506100ca6103c7565b6040516100d7919061061a565b60405180910390f35b3480156100ec57600080fd5b506100f56103ed565b6040516101029190610580565b60405180910390f35b34801561011757600080fd5b506101206103f3565b60405161012d9190610580565b60405180910390f35b34801561014257600080fd5b5061014b6103f9565b005b34801561015957600080fd5b5061016261051d565b60405161016f9190610656565b60405180910390f35b34801561018457600080fd5b5061018d610541565b60405161019a9190610656565b60405180910390f35b60015434146101e7576040517f08c379a00000000000000000000000000000000000000000000000000000000081526004016101de906106ce565b60405180910390fd5b33600260006101000a81548173ffffffffffffffffffffffffffffffffffffffff021916908373ffffffffffffffffffffffffffffffffffffffff16021790555060008054906101000a900473ffffffffffffffffffffffffffffffffffffffff1673ffffffffffffffffffffffffffffffffffffffff166108fc349081150290604051600060405180830381858888f1935050505015801561028e573d6000803e3d6000fd5b50600460009054906101000a900473ffffffffffffffffffffffffffffffffffffffff1673ffffffffffffffffffffffffffffffffffffffff166342842e0e60008054906101000a900473ffffffffffffffffffffffffffffffffffffffff16600260009054906101000a900473ffffffffffffffffffffffffffffffffffffffff166005546040518463ffffffff1660e01b81526004016103329392919061070f565b600060405180830381600087803b15801561034c57600080fd5b505af1158015610360573d6000803e3d6000fd5b505050507fdaec4582d5d9595688c8c98545fdd1c696d41c6aeaeb636737e84ed2f5c00eda600260009054906101000a900473ffffffffffffffffffffffffffffffffffffffff16346040516103b7929190610746565b60405180910390a1565b60035481565b600460009054906101000a900473ffffffffffffffffffffffffffffffffffffffff1681565b60015481565b60055481565b60008054906101000a900473ffffffffffffffffffffffffffffffffffffffff1673ffffffffffffffffffffffffffffffffffffffff163373ffffffffffffffffffffffffffffffffffffffff1614610487576040517f08c379a000000000000000000000000000000000000000000000000000000000815260040161047e906107e1565b60405180910390fd5b6003546001546104979190610830565b6001819055507f12743d2a1dadeba1b5ca0bee15e7d9dc58e588ae493b5f2027a749d5e2af779e6001546040516104ce9190610580565b60405180910390a160006001540361051b577fdaec4582d5d9595688c8c98545fdd1c696d41c6aeaeb636737e84ed2f5c00eda6000806040516105129291906108c0565b60405180910390a15b565b60008054906101000a900473ffffffffffffffffffffffffffffffffffffffff1681565b600260009054906101000a900473ffffffffffffffffffffffffffffffffffffffff1681565b6000819050919050565b61057a81610567565b82525050565b60006020820190506105956000830184610571565b92915050565b600073ffffffffffffffffffffffffffffffffffffffff82169050919050565b6000819050919050565b60006105e06105db6105d68461059b565b6105bb565b61059b565b9050919050565b60006105f2826105c5565b9050919050565b6000610604826105e7565b9050919050565b610614816105f9565b82525050565b600060208201905061062f600083018461060b565b92915050565b60006106408261059b565b9050919050565b61065081610635565b82525050565b600060208201905061066b6000830184610647565b92915050565b600082825260208201905092915050565b7f596f75206d75737420626964207468652063757272656e742070726963650000600082015250565b60006106b8601e83610671565b91506106c382610682565b602082019050919050565b600060208201905081810360008301526106e7816106ab565b9050919050565b60006106f9826105e7565b9050919050565b610709816106ee565b82525050565b60006060820190506107246000830186610700565b6107316020830185610700565b61073e6040830184610571565b949350505050565b600060408201905061075b6000830185610700565b6107686020830184610571565b9392505050565b7f4f6e6c792061756374696f6e206f776e65722063616e206c6f7765722070726960008201527f6365000000000000000000000000000000000000000000000000000000000000602082015250565b60006107cb602283610671565b91506107d68261076f565b604082019050919050565b600060208201905081810360008301526107fa816107be565b9050919050565b7f4e487b7100000000000000000000000000000000000000000000000000000000600052601160045260246000fd5b600061083b82610567565b915061084683610567565b925082820390508181111561085e5761085d610801565b5b92915050565b600061086f8261059b565b9050919050565b61087f81610864565b82525050565b6000819050919050565b60006108aa6108a56108a084610885565b6105bb565b610567565b9050919050565b6108ba8161088f565b82525050565b60006040820190506108d56000830185610876565b6108e260208301846108b1565b939250505056fea2646970667358221220b2fa65b9b179951e92f201598c26e2dffa1377ae8eec6588dad8ef914185f39e64736f6c63430008110033",
					"opcodes": "PUSH1 0x80 PUSH1 0x40 MSTORE CALLVALUE DUP1 ISZERO PUSH3 0x11 JUMPI PUSH1 0x0 DUP1 REVERT JUMPDEST POP PUSH1 0x40 MLOAD PUSH3 0xD2A CODESIZE SUB DUP1 PUSH3 0xD2A DUP4 CODECOPY DUP2 DUP2 ADD PUSH1 0x40 MSTORE DUP2 ADD SWAP1 PUSH3 0x37 SWAP2 SWAP1 PUSH3 0x2A6 JUMP JUMPDEST CALLER PUSH20 0xFFFFFFFFFFFFFFFFFFFFFFFFFFFFFFFFFFFFFFFF AND DUP3 PUSH20 0xFFFFFFFFFFFFFFFFFFFFFFFFFFFFFFFFFFFFFFFF AND PUSH4 0x6352211E DUP4 PUSH1 0x40 MLOAD DUP3 PUSH4 0xFFFFFFFF AND PUSH1 0xE0 SHL DUP2 MSTORE PUSH1 0x4 ADD PUSH3 0x89 SWAP2 SWAP1 PUSH3 0x329 JUMP JUMPDEST PUSH1 0x20 PUSH1 0x40 MLOAD DUP1 DUP4 SUB DUP2 DUP7 GAS STATICCALL ISZERO DUP1 ISZERO PUSH3 0xA7 JUMPI RETURNDATASIZE PUSH1 0x0 DUP1 RETURNDATACOPY RETURNDATASIZE PUSH1 0x0 REVERT JUMPDEST POP POP POP POP PUSH1 0x40 MLOAD RETURNDATASIZE PUSH1 0x1F NOT PUSH1 0x1F DUP3 ADD AND DUP3 ADD DUP1 PUSH1 0x40 MSTORE POP DUP2 ADD SWAP1 PUSH3 0xCD SWAP2 SWAP1 PUSH3 0x346 JUMP JUMPDEST PUSH20 0xFFFFFFFFFFFFFFFFFFFFFFFFFFFFFFFFFFFFFFFF AND EQ PUSH3 0x126 JUMPI PUSH1 0x40 MLOAD PUSH32 0x8C379A000000000000000000000000000000000000000000000000000000000 DUP2 MSTORE PUSH1 0x4 ADD PUSH3 0x11D SWAP1 PUSH3 0x3D9 JUMP JUMPDEST PUSH1 0x40 MLOAD DUP1 SWAP2 SUB SWAP1 REVERT JUMPDEST CALLER PUSH1 0x0 DUP1 PUSH2 0x100 EXP DUP2 SLOAD DUP2 PUSH20 0xFFFFFFFFFFFFFFFFFFFFFFFFFFFFFFFFFFFFFFFF MUL NOT AND SWAP1 DUP4 PUSH20 0xFFFFFFFFFFFFFFFFFFFFFFFFFFFFFFFFFFFFFFFF AND MUL OR SWAP1 SSTORE POP DUP4 PUSH1 0x1 DUP2 SWAP1 SSTORE POP DUP3 PUSH1 0x3 DUP2 SWAP1 SSTORE POP DUP2 PUSH1 0x4 PUSH1 0x0 PUSH2 0x100 EXP DUP2 SLOAD DUP2 PUSH20 0xFFFFFFFFFFFFFFFFFFFFFFFFFFFFFFFFFFFFFFFF MUL NOT AND SWAP1 DUP4 PUSH20 0xFFFFFFFFFFFFFFFFFFFFFFFFFFFFFFFFFFFFFFFF AND MUL OR SWAP1 SSTORE POP DUP1 PUSH1 0x5 DUP2 SWAP1 SSTORE POP PUSH32 0x1BB96DFF6AB5005AFF98CDC0CF176BB7D8E0423CB48E02217D35B042CEC81E9F PUSH1 0x1 SLOAD PUSH1 0x40 MLOAD PUSH3 0x1EF SWAP2 SWAP1 PUSH3 0x329 JUMP JUMPDEST PUSH1 0x40 MLOAD DUP1 SWAP2 SUB SWAP1 LOG1 POP POP POP POP PUSH3 0x3FB JUMP JUMPDEST PUSH1 0x0 DUP1 REVERT JUMPDEST PUSH1 0x0 DUP2 SWAP1 POP SWAP2 SWAP1 POP JUMP JUMPDEST PUSH3 0x21B DUP2 PUSH3 0x206 JUMP JUMPDEST DUP2 EQ PUSH3 0x227 JUMPI PUSH1 0x0 DUP1 REVERT JUMPDEST POP JUMP JUMPDEST PUSH1 0x0 DUP2 MLOAD SWAP1 POP PUSH3 0x23B DUP2 PUSH3 0x210 JUMP JUMPDEST SWAP3 SWAP2 POP POP JUMP JUMPDEST PUSH1 0x0 PUSH20 0xFFFFFFFFFFFFFFFFFFFFFFFFFFFFFFFFFFFFFFFF DUP3 AND SWAP1 POP SWAP2 SWAP1 POP JUMP JUMPDEST PUSH1 0x0 PUSH3 0x26E DUP3 PUSH3 0x241 JUMP JUMPDEST SWAP1 POP SWAP2 SWAP1 POP JUMP JUMPDEST PUSH3 0x280 DUP2 PUSH3 0x261 JUMP JUMPDEST DUP2 EQ PUSH3 0x28C JUMPI PUSH1 0x0 DUP1 REVERT JUMPDEST POP JUMP JUMPDEST PUSH1 0x0 DUP2 MLOAD SWAP1 POP PUSH3 0x2A0 DUP2 PUSH3 0x275 JUMP JUMPDEST SWAP3 SWAP2 POP POP JUMP JUMPDEST PUSH1 0x0 DUP1 PUSH1 0x0 DUP1 PUSH1 0x80 DUP6 DUP8 SUB SLT ISZERO PUSH3 0x2C3 JUMPI PUSH3 0x2C2 PUSH3 0x201 JUMP JUMPDEST JUMPDEST PUSH1 0x0 PUSH3 0x2D3 DUP8 DUP3 DUP9 ADD PUSH3 0x22A JUMP JUMPDEST SWAP5 POP POP PUSH1 0x20 PUSH3 0x2E6 DUP8 DUP3 DUP9 ADD PUSH3 0x22A JUMP JUMPDEST SWAP4 POP POP PUSH1 0x40 PUSH3 0x2F9 DUP8 DUP3 DUP9 ADD PUSH3 0x28F JUMP JUMPDEST SWAP3 POP POP PUSH1 0x60 PUSH3 0x30C DUP8 DUP3 DUP9 ADD PUSH3 0x22A JUMP JUMPDEST SWAP2 POP POP SWAP3 SWAP6 SWAP2 SWAP5 POP SWAP3 POP JUMP JUMPDEST PUSH3 0x323 DUP2 PUSH3 0x206 JUMP JUMPDEST DUP3 MSTORE POP POP JUMP JUMPDEST PUSH1 0x0 PUSH1 0x20 DUP3 ADD SWAP1 POP PUSH3 0x340 PUSH1 0x0 DUP4 ADD DUP5 PUSH3 0x318 JUMP JUMPDEST SWAP3 SWAP2 POP POP JUMP JUMPDEST PUSH1 0x0 PUSH1 0x20 DUP3 DUP5 SUB SLT ISZERO PUSH3 0x35F JUMPI PUSH3 0x35E PUSH3 0x201 JUMP JUMPDEST JUMPDEST PUSH1 0x0 PUSH3 0x36F DUP5 DUP3 DUP6 ADD PUSH3 0x28F JUMP JUMPDEST SWAP2 POP POP SWAP3 SWAP2 POP POP JUMP JUMPDEST PUSH1 0x0 DUP3 DUP3 MSTORE PUSH1 0x20 DUP3 ADD SWAP1 POP SWAP3 SWAP2 POP POP JUMP JUMPDEST PUSH32 0x41756374696F6E65657220646F6573206E6F74206F776E204E46540000000000 PUSH1 0x0 DUP3 ADD MSTORE POP JUMP JUMPDEST PUSH1 0x0 PUSH3 0x3C1 PUSH1 0x1B DUP4 PUSH3 0x378 JUMP JUMPDEST SWAP2 POP PUSH3 0x3CE DUP3 PUSH3 0x389 JUMP JUMPDEST PUSH1 0x20 DUP3 ADD SWAP1 POP SWAP2 SWAP1 POP JUMP JUMPDEST PUSH1 0x0 PUSH1 0x20 DUP3 ADD SWAP1 POP DUP2 DUP2 SUB PUSH1 0x0 DUP4 ADD MSTORE PUSH3 0x3F4 DUP2 PUSH3 0x3B2 JUMP JUMPDEST SWAP1 POP SWAP2 SWAP1 POP JUMP JUMPDEST PUSH2 0x91F DUP1 PUSH3 0x40B PUSH1 0x0 CODECOPY PUSH1 0x0 RETURN INVALID PUSH1 0x80 PUSH1 0x40 MSTORE PUSH1 0x4 CALLDATASIZE LT PUSH2 0x7B JUMPI PUSH1 0x0 CALLDATALOAD PUSH1 0xE0 SHR DUP1 PUSH4 0xC6BC5182 GT PUSH2 0x4E JUMPI DUP1 PUSH4 0xC6BC5182 EQ PUSH2 0x10B JUMPI DUP1 PUSH4 0xC87C0F79 EQ PUSH2 0x136 JUMPI DUP1 PUSH4 0xD3924AAF EQ PUSH2 0x14D JUMPI DUP1 PUSH4 0xDFBF53AE EQ PUSH2 0x178 JUMPI PUSH2 0x7B JUMP JUMPDEST DUP1 PUSH4 0x1998AEEF EQ PUSH2 0x80 JUMPI DUP1 PUSH4 0x2BAECEB7 EQ PUSH2 0x8A JUMPI DUP1 PUSH4 0x47CCCA02 EQ PUSH2 0xB5 JUMPI DUP1 PUSH4 0x9D1B464A EQ PUSH2 0xE0 JUMPI JUMPDEST PUSH1 0x0 DUP1 REVERT JUMPDEST PUSH2 0x88 PUSH2 0x1A3 JUMP JUMPDEST STOP JUMPDEST CALLVALUE DUP1 ISZERO PUSH2 0x96 JUMPI PUSH1 0x0 DUP1 REVERT JUMPDEST POP PUSH2 0x9F PUSH2 0x3C1 JUMP JUMPDEST PUSH1 0x40 MLOAD PUSH2 0xAC SWAP2 SWAP1 PUSH2 0x580 JUMP JUMPDEST PUSH1 0x40 MLOAD DUP1 SWAP2 SUB SWAP1 RETURN JUMPDEST CALLVALUE DUP1 ISZERO PUSH2 0xC1 JUMPI PUSH1 0x0 DUP1 REVERT JUMPDEST POP PUSH2 0xCA PUSH2 0x3C7 JUMP JUMPDEST PUSH1 0x40 MLOAD PUSH2 0xD7 SWAP2 SWAP1 PUSH2 0x61A JUMP JUMPDEST PUSH1 0x40 MLOAD DUP1 SWAP2 SUB SWAP1 RETURN JUMPDEST CALLVALUE DUP1 ISZERO PUSH2 0xEC JUMPI PUSH1 0x0 DUP1 REVERT JUMPDEST POP PUSH2 0xF5 PUSH2 0x3ED JUMP JUMPDEST PUSH1 0x40 MLOAD PUSH2 0x102 SWAP2 SWAP1 PUSH2 0x580 JUMP JUMPDEST PUSH1 0x40 MLOAD DUP1 SWAP2 SUB SWAP1 RETURN JUMPDEST CALLVALUE DUP1 ISZERO PUSH2 0x117 JUMPI PUSH1 0x0 DUP1 REVERT JUMPDEST POP PUSH2 0x120 PUSH2 0x3F3 JUMP JUMPDEST PUSH1 0x40 MLOAD PUSH2 0x12D SWAP2 SWAP1 PUSH2 0x580 JUMP JUMPDEST PUSH1 0x40 MLOAD DUP1 SWAP2 SUB SWAP1 RETURN JUMPDEST CALLVALUE DUP1 ISZERO PUSH2 0x142 JUMPI PUSH1 0x0 DUP1 REVERT JUMPDEST POP PUSH2 0x14B PUSH2 0x3F9 JUMP JUMPDEST STOP JUMPDEST CALLVALUE DUP1 ISZERO PUSH2 0x159 JUMPI PUSH1 0x0 DUP1 REVERT JUMPDEST POP PUSH2 0x162 PUSH2 0x51D JUMP JUMPDEST PUSH1 0x40 MLOAD PUSH2 0x16F SWAP2 SWAP1 PUSH2 0x656 JUMP JUMPDEST PUSH1 0x40 MLOAD DUP1 SWAP2 SUB SWAP1 RETURN JUMPDEST CALLVALUE DUP1 ISZERO PUSH2 0x184 JUMPI PUSH1 0x0 DUP1 REVERT JUMPDEST POP PUSH2 0x18D PUSH2 0x541 JUMP JUMPDEST PUSH1 0x40 MLOAD PUSH2 0x19A SWAP2 SWAP1 PUSH2 0x656 JUMP JUMPDEST PUSH1 0x40 MLOAD DUP1 SWAP2 SUB SWAP1 RETURN JUMPDEST PUSH1 0x1 SLOAD CALLVALUE EQ PUSH2 0x1E7 JUMPI PUSH1 0x40 MLOAD PUSH32 0x8C379A000000000000000000000000000000000000000000000000000000000 DUP2 MSTORE PUSH1 0x4 ADD PUSH2 0x1DE SWAP1 PUSH2 0x6CE JUMP JUMPDEST PUSH1 0x40 MLOAD DUP1 SWAP2 SUB SWAP1 REVERT JUMPDEST CALLER PUSH1 0x2 PUSH1 0x0 PUSH2 0x100 EXP DUP2 SLOAD DUP2 PUSH20 0xFFFFFFFFFFFFFFFFFFFFFFFFFFFFFFFFFFFFFFFF MUL NOT AND SWAP1 DUP4 PUSH20 0xFFFFFFFFFFFFFFFFFFFFFFFFFFFFFFFFFFFFFFFF AND MUL OR SWAP1 SSTORE POP PUSH1 0x0 DUP1 SLOAD SWAP1 PUSH2 0x100 EXP SWAP1 DIV PUSH20 0xFFFFFFFFFFFFFFFFFFFFFFFFFFFFFFFFFFFFFFFF AND PUSH20 0xFFFFFFFFFFFFFFFFFFFFFFFFFFFFFFFFFFFFFFFF AND PUSH2 0x8FC CALLVALUE SWAP1 DUP2 ISZERO MUL SWAP1 PUSH1 0x40 MLOAD PUSH1 0x0 PUSH1 0x40 MLOAD DUP1 DUP4 SUB DUP2 DUP6 DUP9 DUP9 CALL SWAP4 POP POP POP POP ISZERO DUP1 ISZERO PUSH2 0x28E JUMPI RETURNDATASIZE PUSH1 0x0 DUP1 RETURNDATACOPY RETURNDATASIZE PUSH1 0x0 REVERT JUMPDEST POP PUSH1 0x4 PUSH1 0x0 SWAP1 SLOAD SWAP1 PUSH2 0x100 EXP SWAP1 DIV PUSH20 0xFFFFFFFFFFFFFFFFFFFFFFFFFFFFFFFFFFFFFFFF AND PUSH20 0xFFFFFFFFFFFFFFFFFFFFFFFFFFFFFFFFFFFFFFFF AND PUSH4 0x42842E0E PUSH1 0x0 DUP1 SLOAD SWAP1 PUSH2 0x100 EXP SWAP1 DIV PUSH20 0xFFFFFFFFFFFFFFFFFFFFFFFFFFFFFFFFFFFFFFFF AND PUSH1 0x2 PUSH1 0x0 SWAP1 SLOAD SWAP1 PUSH2 0x100 EXP SWAP1 DIV PUSH20 0xFFFFFFFFFFFFFFFFFFFFFFFFFFFFFFFFFFFFFFFF AND PUSH1 0x5 SLOAD PUSH1 0x40 MLOAD DUP5 PUSH4 0xFFFFFFFF AND PUSH1 0xE0 SHL DUP2 MSTORE PUSH1 0x4 ADD PUSH2 0x332 SWAP4 SWAP3 SWAP2 SWAP1 PUSH2 0x70F JUMP JUMPDEST PUSH1 0x0 PUSH1 0x40 MLOAD DUP1 DUP4 SUB DUP2 PUSH1 0x0 DUP8 DUP1 EXTCODESIZE ISZERO DUP1 ISZERO PUSH2 0x34C JUMPI PUSH1 0x0 DUP1 REVERT JUMPDEST POP GAS CALL ISZERO DUP1 ISZERO PUSH2 0x360 JUMPI RETURNDATASIZE PUSH1 0x0 DUP1 RETURNDATACOPY RETURNDATASIZE PUSH1 0x0 REVERT JUMPDEST POP POP POP POP PUSH32 0xDAEC4582D5D9595688C8C98545FDD1C696D41C6AEAEB636737E84ED2F5C00EDA PUSH1 0x2 PUSH1 0x0 SWAP1 SLOAD SWAP1 PUSH2 0x100 EXP SWAP1 DIV PUSH20 0xFFFFFFFFFFFFFFFFFFFFFFFFFFFFFFFFFFFFFFFF AND CALLVALUE PUSH1 0x40 MLOAD PUSH2 0x3B7 SWAP3 SWAP2 SWAP1 PUSH2 0x746 JUMP JUMPDEST PUSH1 0x40 MLOAD DUP1 SWAP2 SUB SWAP1 LOG1 JUMP JUMPDEST PUSH1 0x3 SLOAD DUP2 JUMP JUMPDEST PUSH1 0x4 PUSH1 0x0 SWAP1 SLOAD SWAP1 PUSH2 0x100 EXP SWAP1 DIV PUSH20 0xFFFFFFFFFFFFFFFFFFFFFFFFFFFFFFFFFFFFFFFF AND DUP2 JUMP JUMPDEST PUSH1 0x1 SLOAD DUP2 JUMP JUMPDEST PUSH1 0x5 SLOAD DUP2 JUMP JUMPDEST PUSH1 0x0 DUP1 SLOAD SWAP1 PUSH2 0x100 EXP SWAP1 DIV PUSH20 0xFFFFFFFFFFFFFFFFFFFFFFFFFFFFFFFFFFFFFFFF AND PUSH20 0xFFFFFFFFFFFFFFFFFFFFFFFFFFFFFFFFFFFFFFFF AND CALLER PUSH20 0xFFFFFFFFFFFFFFFFFFFFFFFFFFFFFFFFFFFFFFFF AND EQ PUSH2 0x487 JUMPI PUSH1 0x40 MLOAD PUSH32 0x8C379A000000000000000000000000000000000000000000000000000000000 DUP2 MSTORE PUSH1 0x4 ADD PUSH2 0x47E SWAP1 PUSH2 0x7E1 JUMP JUMPDEST PUSH1 0x40 MLOAD DUP1 SWAP2 SUB SWAP1 REVERT JUMPDEST PUSH1 0x3 SLOAD PUSH1 0x1 SLOAD PUSH2 0x497 SWAP2 SWAP1 PUSH2 0x830 JUMP JUMPDEST PUSH1 0x1 DUP2 SWAP1 SSTORE POP PUSH32 0x12743D2A1DADEBA1B5CA0BEE15E7D9DC58E588AE493B5F2027A749D5E2AF779E PUSH1 0x1 SLOAD PUSH1 0x40 MLOAD PUSH2 0x4CE SWAP2 SWAP1 PUSH2 0x580 JUMP JUMPDEST PUSH1 0x40 MLOAD DUP1 SWAP2 SUB SWAP1 LOG1 PUSH1 0x0 PUSH1 0x1 SLOAD SUB PUSH2 0x51B JUMPI PUSH32 0xDAEC4582D5D9595688C8C98545FDD1C696D41C6AEAEB636737E84ED2F5C00EDA PUSH1 0x0 DUP1 PUSH1 0x40 MLOAD PUSH2 0x512 SWAP3 SWAP2 SWAP1 PUSH2 0x8C0 JUMP JUMPDEST PUSH1 0x40 MLOAD DUP1 SWAP2 SUB SWAP1 LOG1 JUMPDEST JUMP JUMPDEST PUSH1 0x0 DUP1 SLOAD SWAP1 PUSH2 0x100 EXP SWAP1 DIV PUSH20 0xFFFFFFFFFFFFFFFFFFFFFFFFFFFFFFFFFFFFFFFF AND DUP2 JUMP JUMPDEST PUSH1 0x2 PUSH1 0x0 SWAP1 SLOAD SWAP1 PUSH2 0x100 EXP SWAP1 DIV PUSH20 0xFFFFFFFFFFFFFFFFFFFFFFFFFFFFFFFFFFFFFFFF AND DUP2 JUMP JUMPDEST PUSH1 0x0 DUP2 SWAP1 POP SWAP2 SWAP1 POP JUMP JUMPDEST PUSH2 0x57A DUP2 PUSH2 0x567 JUMP JUMPDEST DUP3 MSTORE POP POP JUMP JUMPDEST PUSH1 0x0 PUSH1 0x20 DUP3 ADD SWAP1 POP PUSH2 0x595 PUSH1 0x0 DUP4 ADD DUP5 PUSH2 0x571 JUMP JUMPDEST SWAP3 SWAP2 POP POP JUMP JUMPDEST PUSH1 0x0 PUSH20 0xFFFFFFFFFFFFFFFFFFFFFFFFFFFFFFFFFFFFFFFF DUP3 AND SWAP1 POP SWAP2 SWAP1 POP JUMP JUMPDEST PUSH1 0x0 DUP2 SWAP1 POP SWAP2 SWAP1 POP JUMP JUMPDEST PUSH1 0x0 PUSH2 0x5E0 PUSH2 0x5DB PUSH2 0x5D6 DUP5 PUSH2 0x59B JUMP JUMPDEST PUSH2 0x5BB JUMP JUMPDEST PUSH2 0x59B JUMP JUMPDEST SWAP1 POP SWAP2 SWAP1 POP JUMP JUMPDEST PUSH1 0x0 PUSH2 0x5F2 DUP3 PUSH2 0x5C5 JUMP JUMPDEST SWAP1 POP SWAP2 SWAP1 POP JUMP JUMPDEST PUSH1 0x0 PUSH2 0x604 DUP3 PUSH2 0x5E7 JUMP JUMPDEST SWAP1 POP SWAP2 SWAP1 POP JUMP JUMPDEST PUSH2 0x614 DUP2 PUSH2 0x5F9 JUMP JUMPDEST DUP3 MSTORE POP POP JUMP JUMPDEST PUSH1 0x0 PUSH1 0x20 DUP3 ADD SWAP1 POP PUSH2 0x62F PUSH1 0x0 DUP4 ADD DUP5 PUSH2 0x60B JUMP JUMPDEST SWAP3 SWAP2 POP POP JUMP JUMPDEST PUSH1 0x0 PUSH2 0x640 DUP3 PUSH2 0x59B JUMP JUMPDEST SWAP1 POP SWAP2 SWAP1 POP JUMP JUMPDEST PUSH2 0x650 DUP2 PUSH2 0x635 JUMP JUMPDEST DUP3 MSTORE POP POP JUMP JUMPDEST PUSH1 0x0 PUSH1 0x20 DUP3 ADD SWAP1 POP PUSH2 0x66B PUSH1 0x0 DUP4 ADD DUP5 PUSH2 0x647 JUMP JUMPDEST SWAP3 SWAP2 POP POP JUMP JUMPDEST PUSH1 0x0 DUP3 DUP3 MSTORE PUSH1 0x20 DUP3 ADD SWAP1 POP SWAP3 SWAP2 POP POP JUMP JUMPDEST PUSH32 0x596F75206D75737420626964207468652063757272656E742070726963650000 PUSH1 0x0 DUP3 ADD MSTORE POP JUMP JUMPDEST PUSH1 0x0 PUSH2 0x6B8 PUSH1 0x1E DUP4 PUSH2 0x671 JUMP JUMPDEST SWAP2 POP PUSH2 0x6C3 DUP3 PUSH2 0x682 JUMP JUMPDEST PUSH1 0x20 DUP3 ADD SWAP1 POP SWAP2 SWAP1 POP JUMP JUMPDEST PUSH1 0x0 PUSH1 0x20 DUP3 ADD SWAP1 POP DUP2 DUP2 SUB PUSH1 0x0 DUP4 ADD MSTORE PUSH2 0x6E7 DUP2 PUSH2 0x6AB JUMP JUMPDEST SWAP1 POP SWAP2 SWAP1 POP JUMP JUMPDEST PUSH1 0x0 PUSH2 0x6F9 DUP3 PUSH2 0x5E7 JUMP JUMPDEST SWAP1 POP SWAP2 SWAP1 POP JUMP JUMPDEST PUSH2 0x709 DUP2 PUSH2 0x6EE JUMP JUMPDEST DUP3 MSTORE POP POP JUMP JUMPDEST PUSH1 0x0 PUSH1 0x60 DUP3 ADD SWAP1 POP PUSH2 0x724 PUSH1 0x0 DUP4 ADD DUP7 PUSH2 0x700 JUMP JUMPDEST PUSH2 0x731 PUSH1 0x20 DUP4 ADD DUP6 PUSH2 0x700 JUMP JUMPDEST PUSH2 0x73E PUSH1 0x40 DUP4 ADD DUP5 PUSH2 0x571 JUMP JUMPDEST SWAP5 SWAP4 POP POP POP POP JUMP JUMPDEST PUSH1 0x0 PUSH1 0x40 DUP3 ADD SWAP1 POP PUSH2 0x75B PUSH1 0x0 DUP4 ADD DUP6 PUSH2 0x700 JUMP JUMPDEST PUSH2 0x768 PUSH1 0x20 DUP4 ADD DUP5 PUSH2 0x571 JUMP JUMPDEST SWAP4 SWAP3 POP POP POP JUMP JUMPDEST PUSH32 0x4F6E6C792061756374696F6E206F776E65722063616E206C6F77657220707269 PUSH1 0x0 DUP3 ADD MSTORE PUSH32 0x6365000000000000000000000000000000000000000000000000000000000000 PUSH1 0x20 DUP3 ADD MSTORE POP JUMP JUMPDEST PUSH1 0x0 PUSH2 0x7CB PUSH1 0x22 DUP4 PUSH2 0x671 JUMP JUMPDEST SWAP2 POP PUSH2 0x7D6 DUP3 PUSH2 0x76F JUMP JUMPDEST PUSH1 0x40 DUP3 ADD SWAP1 POP SWAP2 SWAP1 POP JUMP JUMPDEST PUSH1 0x0 PUSH1 0x20 DUP3 ADD SWAP1 POP DUP2 DUP2 SUB PUSH1 0x0 DUP4 ADD MSTORE PUSH2 0x7FA DUP2 PUSH2 0x7BE JUMP JUMPDEST SWAP1 POP SWAP2 SWAP1 POP JUMP JUMPDEST PUSH32 0x4E487B7100000000000000000000000000000000000000000000000000000000 PUSH1 0x0 MSTORE PUSH1 0x11 PUSH1 0x4 MSTORE PUSH1 0x24 PUSH1 0x0 REVERT JUMPDEST PUSH1 0x0 PUSH2 0x83B DUP3 PUSH2 0x567 JUMP JUMPDEST SWAP2 POP PUSH2 0x846 DUP4 PUSH2 0x567 JUMP JUMPDEST SWAP3 POP DUP3 DUP3 SUB SWAP1 POP DUP2 DUP2 GT ISZERO PUSH2 0x85E JUMPI PUSH2 0x85D PUSH2 0x801 JUMP JUMPDEST JUMPDEST SWAP3 SWAP2 POP POP JUMP JUMPDEST PUSH1 0x0 PUSH2 0x86F DUP3 PUSH2 0x59B JUMP JUMPDEST SWAP1 POP SWAP2 SWAP1 POP JUMP JUMPDEST PUSH2 0x87F DUP2 PUSH2 0x864 JUMP JUMPDEST DUP3 MSTORE POP POP JUMP JUMPDEST PUSH1 0x0 DUP2 SWAP1 POP SWAP2 SWAP1 POP JUMP JUMPDEST PUSH1 0x0 PUSH2 0x8AA PUSH2 0x8A5 PUSH2 0x8A0 DUP5 PUSH2 0x885 JUMP JUMPDEST PUSH2 0x5BB JUMP JUMPDEST PUSH2 0x567 JUMP JUMPDEST SWAP1 POP SWAP2 SWAP1 POP JUMP JUMPDEST PUSH2 0x8BA DUP2 PUSH2 0x88F JUMP JUMPDEST DUP3 MSTORE POP POP JUMP JUMPDEST PUSH1 0x0 PUSH1 0x40 DUP3 ADD SWAP1 POP PUSH2 0x8D5 PUSH1 0x0 DUP4 ADD DUP6 PUSH2 0x876 JUMP JUMPDEST PUSH2 0x8E2 PUSH1 0x20 DUP4 ADD DUP5 PUSH2 0x8B1 JUMP JUMPDEST SWAP4 SWAP3 POP POP POP JUMP INVALID LOG2 PUSH5 0x6970667358 0x22 SLT KECCAK256 0xB2 STATICCALL PUSH6 0xB9B179951E92 CALLCODE ADD MSIZE DUP13 0x26 0xE2 0xDF STATICCALL SGT PUSH24 0xAE8EEC6588DAD8EF914185F39E64736F6C63430008110033 "
				},
				"gasEstimates": {
					"creation": {
						"codeDepositCost": "467000",
						"executionCost": "infinite",
						"totalCost": "infinite"
					},
					"external": {
						"auctionOwner()": "2555",
						"bid()": "infinite",
						"currentPrice()": "2496",
						"decrement()": "2452",
						"lowerPrice()": "infinite",
						"nft()": "infinite",
						"nftId()": "2429",
						"winner()": "2580"
					}
				},
				"methodIdentifiers": {
					"auctionOwner()": "d3924aaf",
					"bid()": "1998aeef",
					"currentPrice()": "9d1b464a",
					"decrement()": "2baeceb7",
					"lowerPrice()": "c87c0f79",
					"nft()": "47ccca02",
					"nftId()": "c6bc5182",
					"winner()": "dfbf53ae"
				}
			},
			"storageLayout": {
				"storage": [
					{
						"astId": 132,
						"contract": "descendingAuction.sol:DescendingAuction",
						"label": "auctionOwner",
						"offset": 0,
						"slot": "0",
						"type": "t_address_payable"
					},
					{
						"astId": 134,
						"contract": "descendingAuction.sol:DescendingAuction",
						"label": "currentPrice",
						"offset": 0,
						"slot": "1",
						"type": "t_uint256"
					},
					{
						"astId": 136,
						"contract": "descendingAuction.sol:DescendingAuction",
						"label": "winner",
						"offset": 0,
						"slot": "2",
						"type": "t_address_payable"
					},
					{
						"astId": 138,
						"contract": "descendingAuction.sol:DescendingAuction",
						"label": "decrement",
						"offset": 0,
						"slot": "3",
						"type": "t_uint256"
					},
					{
						"astId": 141,
						"contract": "descendingAuction.sol:DescendingAuction",
						"label": "nft",
						"offset": 0,
						"slot": "4",
						"type": "t_contract(IERC721)115"
					},
					{
						"astId": 143,
						"contract": "descendingAuction.sol:DescendingAuction",
						"label": "nftId",
						"offset": 0,
						"slot": "5",
						"type": "t_uint256"
					}
				],
				"types": {
					"t_address_payable": {
						"encoding": "inplace",
						"label": "address payable",
						"numberOfBytes": "20"
					},
					"t_contract(IERC721)115": {
						"encoding": "inplace",
						"label": "contract IERC721",
						"numberOfBytes": "20"
					},
					"t_uint256": {
						"encoding": "inplace",
						"label": "uint256",
						"numberOfBytes": "32"
					}
				}
			},
			"userdoc": {
				"kind": "user",
				"methods": {},
				"version": 1
			}
		}
	}
}