{
	"SealedBidAuction.sol": {
		"SealedBidAuction": {
			"abi": [
				{
					"inputs": [
						{
							"internalType": "uint256",
							"name": "biddingTime",
							"type": "uint256"
						}
					],
					"stateMutability": "nonpayable",
					"type": "constructor"
				},
				{
					"inputs": [],
					"name": "auctionEndTime",
					"outputs": [
						{
							"internalType": "uint256",
							"name": "",
							"type": "uint256"
						}
					],
					"stateMutability": "view",
					"type": "function"
				},
				{
					"inputs": [],
					"name": "auctionOwner",
					"outputs": [
						{
							"internalType": "address payable",
							"name": "",
							"type": "address"
						}
					],
					"stateMutability": "view",
					"type": "function"
				},
				{
					"inputs": [],
					"name": "hasPaid",
					"outputs": [
						{
							"internalType": "bool",
							"name": "",
							"type": "bool"
						}
					],
					"stateMutability": "view",
					"type": "function"
				},
				{
					"inputs": [
						{
							"internalType": "address",
							"name": "",
							"type": "address"
						}
					],
					"name": "hashedBids",
					"outputs": [
						{
							"internalType": "bytes32",
							"name": "",
							"type": "bytes32"
						}
					],
					"stateMutability": "view",
					"type": "function"
				},
				{
					"inputs": [],
					"name": "highestBid",
					"outputs": [
						{
							"internalType": "bytes32",
							"name": "",
							"type": "bytes32"
						}
					],
					"stateMutability": "view",
					"type": "function"
				},
				{
					"inputs": [],
					"name": "highestBidder",
					"outputs": [
						{
							"internalType": "address payable",
							"name": "",
							"type": "address"
						}
					],
					"stateMutability": "view",
					"type": "function"
				},
				{
					"inputs": [],
					"name": "pay",
					"outputs": [],
					"stateMutability": "nonpayable",
					"type": "function"
				},
				{
					"inputs": [
						{
							"internalType": "uint256",
							"name": "actualBid",
							"type": "uint256"
						}
					],
					"name": "revealBid",
					"outputs": [],
					"stateMutability": "nonpayable",
					"type": "function"
				},
				{
					"inputs": [
						{
							"internalType": "bytes32",
							"name": "bid",
							"type": "bytes32"
						}
					],
					"name": "submitBid",
					"outputs": [],
					"stateMutability": "nonpayable",
					"type": "function"
				}
			],
			"devdoc": {
				"kind": "dev",
				"methods": {},
				"version": 1
			},
			"evm": {
				"assembly": "    /* \"SealedBidAuction.sol\":57:1486  contract SealedBidAuction {... */\n  mstore(0x40, 0x80)\n    /* \"SealedBidAuction.sol\":312:449  constructor(uint biddingTime) {... */\n  callvalue\n  dup1\n  iszero\n  tag_1\n  jumpi\n  0x00\n  dup1\n  revert\ntag_1:\n  pop\n  mload(0x40)\n  sub(codesize, bytecodeSize)\n  dup1\n  bytecodeSize\n  dup4\n  codecopy\n  dup2\n  dup2\n  add\n  0x40\n  mstore\n  dup2\n  add\n  swap1\n  tag_2\n  swap2\n  swap1\n  tag_3\n  jump\t// in\ntag_2:\n    /* \"SealedBidAuction.sol\":375:385  msg.sender */\n  caller\n    /* \"SealedBidAuction.sol\":352:364  auctionOwner */\n  0x00\n  dup1\n    /* \"SealedBidAuction.sol\":352:386  auctionOwner = payable(msg.sender) */\n  0x0100\n  exp\n  dup2\n  sload\n  dup2\n  0xffffffffffffffffffffffffffffffffffffffff\n  mul\n  not\n  and\n  swap1\n  dup4\n  0xffffffffffffffffffffffffffffffffffffffff\n  and\n  mul\n  or\n  swap1\n  sstore\n  pop\n    /* \"SealedBidAuction.sol\":431:442  biddingTime */\n  dup1\n    /* \"SealedBidAuction.sol\":413:428  block.timestamp */\n  timestamp\n    /* \"SealedBidAuction.sol\":413:442  block.timestamp + biddingTime */\n  tag_6\n  swap2\n  swap1\n  tag_7\n  jump\t// in\ntag_6:\n    /* \"SealedBidAuction.sol\":396:410  auctionEndTime */\n  0x01\n    /* \"SealedBidAuction.sol\":396:442  auctionEndTime = block.timestamp + biddingTime */\n  dup2\n  swap1\n  sstore\n  pop\n    /* \"SealedBidAuction.sol\":312:449  constructor(uint biddingTime) {... */\n  pop\n    /* \"SealedBidAuction.sol\":57:1486  contract SealedBidAuction {... */\n  jump(tag_8)\n    /* \"#utility.yul\":88:205   */\ntag_10:\n    /* \"#utility.yul\":197:198   */\n  0x00\n    /* \"#utility.yul\":194:195   */\n  dup1\n    /* \"#utility.yul\":187:199   */\n  revert\n    /* \"#utility.yul\":334:411   */\ntag_12:\n    /* \"#utility.yul\":371:378   */\n  0x00\n    /* \"#utility.yul\":400:405   */\n  dup2\n    /* \"#utility.yul\":389:405   */\n  swap1\n  pop\n    /* \"#utility.yul\":334:411   */\n  swap2\n  swap1\n  pop\n  jump\t// out\n    /* \"#utility.yul\":417:539   */\ntag_13:\n    /* \"#utility.yul\":490:514   */\n  tag_22\n    /* \"#utility.yul\":508:513   */\n  dup2\n    /* \"#utility.yul\":490:514   */\n  tag_12\n  jump\t// in\ntag_22:\n    /* \"#utility.yul\":483:488   */\n  dup2\n    /* \"#utility.yul\":480:515   */\n  eq\n    /* \"#utility.yul\":470:533   */\n  tag_23\n  jumpi\n    /* \"#utility.yul\":529:530   */\n  0x00\n    /* \"#utility.yul\":526:527   */\n  dup1\n    /* \"#utility.yul\":519:531   */\n  revert\n    /* \"#utility.yul\":470:533   */\ntag_23:\n    /* \"#utility.yul\":417:539   */\n  pop\n  jump\t// out\n    /* \"#utility.yul\":545:688   */\ntag_14:\n    /* \"#utility.yul\":602:607   */\n  0x00\n    /* \"#utility.yul\":633:639   */\n  dup2\n    /* \"#utility.yul\":627:640   */\n  mload\n    /* \"#utility.yul\":618:640   */\n  swap1\n  pop\n    /* \"#utility.yul\":649:682   */\n  tag_25\n    /* \"#utility.yul\":676:681   */\n  dup2\n    /* \"#utility.yul\":649:682   */\n  tag_13\n  jump\t// in\ntag_25:\n    /* \"#utility.yul\":545:688   */\n  swap3\n  swap2\n  pop\n  pop\n  jump\t// out\n    /* \"#utility.yul\":694:1045   */\ntag_3:\n    /* \"#utility.yul\":764:770   */\n  0x00\n    /* \"#utility.yul\":813:815   */\n  0x20\n    /* \"#utility.yul\":801:810   */\n  dup3\n    /* \"#utility.yul\":792:799   */\n  dup5\n    /* \"#utility.yul\":788:811   */\n  sub\n    /* \"#utility.yul\":784:816   */\n  slt\n    /* \"#utility.yul\":781:900   */\n  iszero\n  tag_27\n  jumpi\n    /* \"#utility.yul\":819:898   */\n  tag_28\n  tag_10\n  jump\t// in\ntag_28:\n    /* \"#utility.yul\":781:900   */\ntag_27:\n    /* \"#utility.yul\":939:940   */\n  0x00\n    /* \"#utility.yul\":964:1028   */\n  tag_29\n    /* \"#utility.yul\":1020:1027   */\n  dup5\n    /* \"#utility.yul\":1011:1017   */\n  dup3\n    /* \"#utility.yul\":1000:1009   */\n  dup6\n    /* \"#utility.yul\":996:1018   */\n  add\n    /* \"#utility.yul\":964:1028   */\n  tag_14\n  jump\t// in\ntag_29:\n    /* \"#utility.yul\":954:1028   */\n  swap2\n  pop\n    /* \"#utility.yul\":910:1038   */\n  pop\n    /* \"#utility.yul\":694:1045   */\n  swap3\n  swap2\n  pop\n  pop\n  jump\t// out\n    /* \"#utility.yul\":1051:1231   */\ntag_15:\n    /* \"#utility.yul\":1099:1176   */\n  0x4e487b7100000000000000000000000000000000000000000000000000000000\n    /* \"#utility.yul\":1096:1097   */\n  0x00\n    /* \"#utility.yul\":1089:1177   */\n  mstore\n    /* \"#utility.yul\":1196:1200   */\n  0x11\n    /* \"#utility.yul\":1193:1194   */\n  0x04\n    /* \"#utility.yul\":1186:1201   */\n  mstore\n    /* \"#utility.yul\":1220:1224   */\n  0x24\n    /* \"#utility.yul\":1217:1218   */\n  0x00\n    /* \"#utility.yul\":1210:1225   */\n  revert\n    /* \"#utility.yul\":1237:1428   */\ntag_7:\n    /* \"#utility.yul\":1277:1280   */\n  0x00\n    /* \"#utility.yul\":1296:1316   */\n  tag_32\n    /* \"#utility.yul\":1314:1315   */\n  dup3\n    /* \"#utility.yul\":1296:1316   */\n  tag_12\n  jump\t// in\ntag_32:\n    /* \"#utility.yul\":1291:1316   */\n  swap2\n  pop\n    /* \"#utility.yul\":1330:1350   */\n  tag_33\n    /* \"#utility.yul\":1348:1349   */\n  dup4\n    /* \"#utility.yul\":1330:1350   */\n  tag_12\n  jump\t// in\ntag_33:\n    /* \"#utility.yul\":1325:1350   */\n  swap3\n  pop\n    /* \"#utility.yul\":1373:1374   */\n  dup3\n    /* \"#utility.yul\":1370:1371   */\n  dup3\n    /* \"#utility.yul\":1366:1375   */\n  add\n    /* \"#utility.yul\":1359:1375   */\n  swap1\n  pop\n    /* \"#utility.yul\":1394:1397   */\n  dup1\n    /* \"#utility.yul\":1391:1392   */\n  dup3\n    /* \"#utility.yul\":1388:1398   */\n  gt\n    /* \"#utility.yul\":1385:1421   */\n  iszero\n  tag_34\n  jumpi\n    /* \"#utility.yul\":1401:1419   */\n  tag_35\n  tag_15\n  jump\t// in\ntag_35:\n    /* \"#utility.yul\":1385:1421   */\ntag_34:\n    /* \"#utility.yul\":1237:1428   */\n  swap3\n  swap2\n  pop\n  pop\n  jump\t// out\n    /* \"SealedBidAuction.sol\":57:1486  contract SealedBidAuction {... */\ntag_8:\n  dataSize(sub_0)\n  dup1\n  dataOffset(sub_0)\n  0x00\n  codecopy\n  0x00\n  return\nstop\n\nsub_0: assembly {\n        /* \"SealedBidAuction.sol\":57:1486  contract SealedBidAuction {... */\n      mstore(0x40, 0x80)\n      callvalue\n      dup1\n      iszero\n      tag_1\n      jumpi\n      0x00\n      dup1\n      revert\n    tag_1:\n      pop\n      jumpi(tag_2, lt(calldatasize, 0x04))\n      shr(0xe0, calldataload(0x00))\n      dup1\n      0x91f90157\n      gt\n      tag_12\n      jumpi\n      dup1\n      0x91f90157\n      eq\n      tag_7\n      jumpi\n      dup1\n      0xc810af81\n      eq\n      tag_8\n      jumpi\n      dup1\n      0xd3924aaf\n      eq\n      tag_9\n      jumpi\n      dup1\n      0xd57bde79\n      eq\n      tag_10\n      jumpi\n      dup1\n      0xf4c45373\n      eq\n      tag_11\n      jumpi\n      jump(tag_2)\n    tag_12:\n      dup1\n      0x1b3fa800\n      eq\n      tag_3\n      jumpi\n      dup1\n      0x1b9265b8\n      eq\n      tag_4\n      jumpi\n      dup1\n      0x3e3b903e\n      eq\n      tag_5\n      jumpi\n      dup1\n      0x4b449cba\n      eq\n      tag_6\n      jumpi\n    tag_2:\n      0x00\n      dup1\n      revert\n        /* \"SealedBidAuction.sol\":455:685  function submitBid(bytes32 bid) public {... */\n    tag_3:\n      tag_13\n      0x04\n      dup1\n      calldatasize\n      sub\n      dup2\n      add\n      swap1\n      tag_14\n      swap2\n      swap1\n      tag_15\n      jump\t// in\n    tag_14:\n      tag_16\n      jump\t// in\n    tag_13:\n      stop\n        /* \"SealedBidAuction.sol\":1164:1484  function pay() public {... */\n    tag_4:\n      tag_17\n      tag_18\n      jump\t// in\n    tag_17:\n      stop\n        /* \"SealedBidAuction.sol\":691:1158  function revealBid(uint actualBid) public {... */\n    tag_5:\n      tag_19\n      0x04\n      dup1\n      calldatasize\n      sub\n      dup2\n      add\n      swap1\n      tag_20\n      swap2\n      swap1\n      tag_21\n      jump\t// in\n    tag_20:\n      tag_22\n      jump\t// in\n    tag_19:\n      stop\n        /* \"SealedBidAuction.sol\":130:156  uint public auctionEndTime */\n    tag_6:\n      tag_23\n      tag_24\n      jump\t// in\n    tag_23:\n      mload(0x40)\n      tag_25\n      swap2\n      swap1\n      tag_26\n      jump\t// in\n    tag_25:\n      mload(0x40)\n      dup1\n      swap2\n      sub\n      swap1\n      return\n        /* \"SealedBidAuction.sol\":193:229  address payable public highestBidder */\n    tag_7:\n      tag_27\n      tag_28\n      jump\t// in\n    tag_27:\n      mload(0x40)\n      tag_29\n      swap2\n      swap1\n      tag_30\n      jump\t// in\n    tag_29:\n      mload(0x40)\n      dup1\n      swap2\n      sub\n      swap1\n      return\n        /* \"SealedBidAuction.sol\":235:254  bool public hasPaid */\n    tag_8:\n      tag_31\n      tag_32\n      jump\t// in\n    tag_31:\n      mload(0x40)\n      tag_33\n      swap2\n      swap1\n      tag_34\n      jump\t// in\n    tag_33:\n      mload(0x40)\n      dup1\n      swap2\n      sub\n      swap1\n      return\n        /* \"SealedBidAuction.sol\":89:124  address payable public auctionOwner */\n    tag_9:\n      tag_35\n      tag_36\n      jump\t// in\n    tag_35:\n      mload(0x40)\n      tag_37\n      swap2\n      swap1\n      tag_30\n      jump\t// in\n    tag_37:\n      mload(0x40)\n      dup1\n      swap2\n      sub\n      swap1\n      return\n        /* \"SealedBidAuction.sol\":162:187  bytes32 public highestBid */\n    tag_10:\n      tag_38\n      tag_39\n      jump\t// in\n    tag_38:\n      mload(0x40)\n      tag_40\n      swap2\n      swap1\n      tag_41\n      jump\t// in\n    tag_40:\n      mload(0x40)\n      dup1\n      swap2\n      sub\n      swap1\n      return\n        /* \"SealedBidAuction.sol\":260:305  mapping(address => bytes32) public hashedBids */\n    tag_11:\n      tag_42\n      0x04\n      dup1\n      calldatasize\n      sub\n      dup2\n      add\n      swap1\n      tag_43\n      swap2\n      swap1\n      tag_44\n      jump\t// in\n    tag_43:\n      tag_45\n      jump\t// in\n    tag_42:\n      mload(0x40)\n      tag_46\n      swap2\n      swap1\n      tag_41\n      jump\t// in\n    tag_46:\n      mload(0x40)\n      dup1\n      swap2\n      sub\n      swap1\n      return\n        /* \"SealedBidAuction.sol\":455:685  function submitBid(bytes32 bid) public {... */\n    tag_16:\n        /* \"SealedBidAuction.sol\":531:545  auctionEndTime */\n      sload(0x01)\n        /* \"SealedBidAuction.sol\":512:527  block.timestamp */\n      timestamp\n        /* \"SealedBidAuction.sol\":512:545  block.timestamp <= auctionEndTime */\n      gt\n      iszero\n        /* \"SealedBidAuction.sol\":504:567  require(block.timestamp <= auctionEndTime, \"Auction has ended\") */\n      tag_48\n      jumpi\n      mload(0x40)\n      0x08c379a000000000000000000000000000000000000000000000000000000000\n      dup2\n      mstore\n      0x04\n      add\n      tag_49\n      swap1\n      tag_50\n      jump\t// in\n    tag_49:\n      mload(0x40)\n      dup1\n      swap2\n      sub\n      swap1\n      revert\n    tag_48:\n        /* \"SealedBidAuction.sol\":611:612  0 */\n      0x00\n        /* \"SealedBidAuction.sol\":585:612  hashedBids[msg.sender] == 0 */\n      dup1\n      shl\n        /* \"SealedBidAuction.sol\":585:595  hashedBids */\n      0x04\n        /* \"SealedBidAuction.sol\":585:607  hashedBids[msg.sender] */\n      0x00\n        /* \"SealedBidAuction.sol\":596:606  msg.sender */\n      caller\n        /* \"SealedBidAuction.sol\":585:607  hashedBids[msg.sender] */\n      0xffffffffffffffffffffffffffffffffffffffff\n      and\n      0xffffffffffffffffffffffffffffffffffffffff\n      and\n      dup2\n      mstore\n      0x20\n      add\n      swap1\n      dup2\n      mstore\n      0x20\n      add\n      0x00\n      keccak256\n      sload\n        /* \"SealedBidAuction.sol\":585:612  hashedBids[msg.sender] == 0 */\n      eq\n        /* \"SealedBidAuction.sol\":577:640  require(hashedBids[msg.sender] == 0, \"Already submitted a bid\") */\n      tag_51\n      jumpi\n      mload(0x40)\n      0x08c379a000000000000000000000000000000000000000000000000000000000\n      dup2\n      mstore\n      0x04\n      add\n      tag_52\n      swap1\n      tag_53\n      jump\t// in\n    tag_52:\n      mload(0x40)\n      dup1\n      swap2\n      sub\n      swap1\n      revert\n    tag_51:\n        /* \"SealedBidAuction.sol\":675:678  bid */\n      dup1\n        /* \"SealedBidAuction.sol\":650:660  hashedBids */\n      0x04\n        /* \"SealedBidAuction.sol\":650:672  hashedBids[msg.sender] */\n      0x00\n        /* \"SealedBidAuction.sol\":661:671  msg.sender */\n      caller\n        /* \"SealedBidAuction.sol\":650:672  hashedBids[msg.sender] */\n      0xffffffffffffffffffffffffffffffffffffffff\n      and\n      0xffffffffffffffffffffffffffffffffffffffff\n      and\n      dup2\n      mstore\n      0x20\n      add\n      swap1\n      dup2\n      mstore\n      0x20\n      add\n      0x00\n      keccak256\n        /* \"SealedBidAuction.sol\":650:678  hashedBids[msg.sender] = bid */\n      dup2\n      swap1\n      sstore\n      pop\n        /* \"SealedBidAuction.sol\":455:685  function submitBid(bytes32 bid) public {... */\n      pop\n      jump\t// out\n        /* \"SealedBidAuction.sol\":1164:1484  function pay() public {... */\n    tag_18:\n        /* \"SealedBidAuction.sol\":1222:1236  auctionEndTime */\n      sload(0x01)\n        /* \"SealedBidAuction.sol\":1204:1219  block.timestamp */\n      timestamp\n        /* \"SealedBidAuction.sol\":1204:1236  block.timestamp > auctionEndTime */\n      gt\n        /* \"SealedBidAuction.sol\":1196:1266  require(block.timestamp > auctionEndTime, \"Auction has not ended yet\") */\n      tag_55\n      jumpi\n      mload(0x40)\n      0x08c379a000000000000000000000000000000000000000000000000000000000\n      dup2\n      mstore\n      0x04\n      add\n      tag_56\n      swap1\n      tag_57\n      jump\t// in\n    tag_56:\n      mload(0x40)\n      dup1\n      swap2\n      sub\n      swap1\n      revert\n    tag_55:\n        /* \"SealedBidAuction.sol\":1298:1311  highestBidder */\n      0x03\n      0x00\n      swap1\n      sload\n      swap1\n      0x0100\n      exp\n      swap1\n      div\n      0xffffffffffffffffffffffffffffffffffffffff\n      and\n        /* \"SealedBidAuction.sol\":1284:1311  msg.sender == highestBidder */\n      0xffffffffffffffffffffffffffffffffffffffff\n      and\n        /* \"SealedBidAuction.sol\":1284:1294  msg.sender */\n      caller\n        /* \"SealedBidAuction.sol\":1284:1311  msg.sender == highestBidder */\n      0xffffffffffffffffffffffffffffffffffffffff\n      and\n      eq\n        /* \"SealedBidAuction.sol\":1276:1346  require(msg.sender == highestBidder, \"You are not the highest bidder\") */\n      tag_58\n      jumpi\n      mload(0x40)\n      0x08c379a000000000000000000000000000000000000000000000000000000000\n      dup2\n      mstore\n      0x04\n      add\n      tag_59\n      swap1\n      tag_60\n      jump\t// in\n    tag_59:\n      mload(0x40)\n      dup1\n      swap2\n      sub\n      swap1\n      revert\n    tag_58:\n        /* \"SealedBidAuction.sol\":1365:1372  hasPaid */\n      0x03\n      0x14\n      swap1\n      sload\n      swap1\n      0x0100\n      exp\n      swap1\n      div\n      0xff\n      and\n        /* \"SealedBidAuction.sol\":1364:1372  !hasPaid */\n      iszero\n        /* \"SealedBidAuction.sol\":1356:1397  require(!hasPaid, \"Payment already made\") */\n      tag_61\n      jumpi\n      mload(0x40)\n      0x08c379a000000000000000000000000000000000000000000000000000000000\n      dup2\n      mstore\n      0x04\n      add\n      tag_62\n      swap1\n      tag_63\n      jump\t// in\n    tag_62:\n      mload(0x40)\n      dup1\n      swap2\n      sub\n      swap1\n      revert\n    tag_61:\n        /* \"SealedBidAuction.sol\":1417:1421  true */\n      0x01\n        /* \"SealedBidAuction.sol\":1407:1414  hasPaid */\n      0x03\n      0x14\n        /* \"SealedBidAuction.sol\":1407:1421  hasPaid = true */\n      0x0100\n      exp\n      dup2\n      sload\n      dup2\n      0xff\n      mul\n      not\n      and\n      swap1\n      dup4\n      iszero\n      iszero\n      mul\n      or\n      swap1\n      sstore\n      pop\n        /* \"SealedBidAuction.sol\":1439:1449  msg.sender */\n      caller\n        /* \"SealedBidAuction.sol\":1431:1459  payable(msg.sender).transfer */\n      0xffffffffffffffffffffffffffffffffffffffff\n      and\n        /* \"SealedBidAuction.sol\":1431:1477  payable(msg.sender).transfer(uint(highestBid)) */\n      0x08fc\n        /* \"SealedBidAuction.sol\":1465:1475  highestBid */\n      sload(0x02)\n        /* \"SealedBidAuction.sol\":1460:1476  uint(highestBid) */\n      0x00\n      shr\n        /* \"SealedBidAuction.sol\":1431:1477  payable(msg.sender).transfer(uint(highestBid)) */\n      swap1\n      dup2\n      iszero\n      mul\n      swap1\n      mload(0x40)\n      0x00\n      mload(0x40)\n      dup1\n      dup4\n      sub\n      dup2\n      dup6\n      dup9\n      dup9\n      call\n      swap4\n      pop\n      pop\n      pop\n      pop\n      iszero\n      dup1\n      iszero\n      tag_65\n      jumpi\n      returndatasize\n      0x00\n      dup1\n      returndatacopy\n      revert(0x00, returndatasize)\n    tag_65:\n      pop\n        /* \"SealedBidAuction.sol\":1164:1484  function pay() public {... */\n      jump\t// out\n        /* \"SealedBidAuction.sol\":691:1158  function revealBid(uint actualBid) public {... */\n    tag_22:\n        /* \"SealedBidAuction.sol\":769:783  auctionEndTime */\n      sload(0x01)\n        /* \"SealedBidAuction.sol\":751:766  block.timestamp */\n      timestamp\n        /* \"SealedBidAuction.sol\":751:783  block.timestamp > auctionEndTime */\n      gt\n        /* \"SealedBidAuction.sol\":743:813  require(block.timestamp > auctionEndTime, \"Auction has not ended yet\") */\n      tag_67\n      jumpi\n      mload(0x40)\n      0x08c379a000000000000000000000000000000000000000000000000000000000\n      dup2\n      mstore\n      0x04\n      add\n      tag_68\n      swap1\n      tag_57\n      jump\t// in\n    tag_68:\n      mload(0x40)\n      dup1\n      swap2\n      sub\n      swap1\n      revert\n    tag_67:\n        /* \"SealedBidAuction.sol\":857:858  0 */\n      0x00\n        /* \"SealedBidAuction.sol\":831:858  hashedBids[msg.sender] != 0 */\n      dup1\n      shl\n        /* \"SealedBidAuction.sol\":831:841  hashedBids */\n      0x04\n        /* \"SealedBidAuction.sol\":831:853  hashedBids[msg.sender] */\n      0x00\n        /* \"SealedBidAuction.sol\":842:852  msg.sender */\n      caller\n        /* \"SealedBidAuction.sol\":831:853  hashedBids[msg.sender] */\n      0xffffffffffffffffffffffffffffffffffffffff\n      and\n      0xffffffffffffffffffffffffffffffffffffffff\n      and\n      dup2\n      mstore\n      0x20\n      add\n      swap1\n      dup2\n      mstore\n      0x20\n      add\n      0x00\n      keccak256\n      sload\n        /* \"SealedBidAuction.sol\":831:858  hashedBids[msg.sender] != 0 */\n      sub\n        /* \"SealedBidAuction.sol\":823:879  require(hashedBids[msg.sender] != 0, \"No bid submitted\") */\n      tag_69\n      jumpi\n      mload(0x40)\n      0x08c379a000000000000000000000000000000000000000000000000000000000\n      dup2\n      mstore\n      0x04\n      add\n      tag_70\n      swap1\n      tag_71\n      jump\t// in\n    tag_70:\n      mload(0x40)\n      dup1\n      swap2\n      sub\n      swap1\n      revert\n    tag_69:\n        /* \"SealedBidAuction.sol\":939:949  hashedBids */\n      0x04\n        /* \"SealedBidAuction.sol\":939:961  hashedBids[msg.sender] */\n      0x00\n        /* \"SealedBidAuction.sol\":950:960  msg.sender */\n      caller\n        /* \"SealedBidAuction.sol\":939:961  hashedBids[msg.sender] */\n      0xffffffffffffffffffffffffffffffffffffffff\n      and\n      0xffffffffffffffffffffffffffffffffffffffff\n      and\n      dup2\n      mstore\n      0x20\n      add\n      swap1\n      dup2\n      mstore\n      0x20\n      add\n      0x00\n      keccak256\n      sload\n        /* \"SealedBidAuction.sol\":924:933  actualBid */\n      dup2\n        /* \"SealedBidAuction.sol\":907:934  abi.encodePacked(actualBid) */\n      add(0x20, mload(0x40))\n      tag_72\n      swap2\n      swap1\n      tag_73\n      jump\t// in\n    tag_72:\n      mload(0x40)\n      0x20\n      dup2\n      dup4\n      sub\n      sub\n      dup2\n      mstore\n      swap1\n      0x40\n      mstore\n        /* \"SealedBidAuction.sol\":897:935  keccak256(abi.encodePacked(actualBid)) */\n      dup1\n      mload\n      swap1\n      0x20\n      add\n      keccak256\n        /* \"SealedBidAuction.sol\":897:961  keccak256(abi.encodePacked(actualBid)) == hashedBids[msg.sender] */\n      eq\n        /* \"SealedBidAuction.sol\":889:1002  require(keccak256(abi.encodePacked(actualBid)) == hashedBids[msg.sender], \"Actual bid does not match hashed bid\") */\n      tag_74\n      jumpi\n      mload(0x40)\n      0x08c379a000000000000000000000000000000000000000000000000000000000\n      dup2\n      mstore\n      0x04\n      add\n      tag_75\n      swap1\n      tag_76\n      jump\t// in\n    tag_75:\n      mload(0x40)\n      dup1\n      swap2\n      sub\n      swap1\n      revert\n    tag_74:\n        /* \"SealedBidAuction.sol\":1034:1044  highestBid */\n      sload(0x02)\n        /* \"SealedBidAuction.sol\":1029:1045  uint(highestBid) */\n      0x00\n      shr\n        /* \"SealedBidAuction.sol\":1017:1026  actualBid */\n      dup2\n        /* \"SealedBidAuction.sol\":1017:1045  actualBid > uint(highestBid) */\n      gt\n        /* \"SealedBidAuction.sol\":1013:1152  if (actualBid > uint(highestBid)) {... */\n      iszero\n      tag_77\n      jumpi\n        /* \"SealedBidAuction.sol\":1082:1091  actualBid */\n      dup1\n        /* \"SealedBidAuction.sol\":1074:1092  bytes32(actualBid) */\n      0x00\n      shl\n        /* \"SealedBidAuction.sol\":1061:1071  highestBid */\n      0x02\n        /* \"SealedBidAuction.sol\":1061:1092  highestBid = bytes32(actualBid) */\n      dup2\n      swap1\n      sstore\n      pop\n        /* \"SealedBidAuction.sol\":1130:1140  msg.sender */\n      caller\n        /* \"SealedBidAuction.sol\":1106:1119  highestBidder */\n      0x03\n      0x00\n        /* \"SealedBidAuction.sol\":1106:1141  highestBidder = payable(msg.sender) */\n      0x0100\n      exp\n      dup2\n      sload\n      dup2\n      0xffffffffffffffffffffffffffffffffffffffff\n      mul\n      not\n      and\n      swap1\n      dup4\n      0xffffffffffffffffffffffffffffffffffffffff\n      and\n      mul\n      or\n      swap1\n      sstore\n      pop\n        /* \"SealedBidAuction.sol\":1013:1152  if (actualBid > uint(highestBid)) {... */\n    tag_77:\n        /* \"SealedBidAuction.sol\":691:1158  function revealBid(uint actualBid) public {... */\n      pop\n      jump\t// out\n        /* \"SealedBidAuction.sol\":130:156  uint public auctionEndTime */\n    tag_24:\n      sload(0x01)\n      dup2\n      jump\t// out\n        /* \"SealedBidAuction.sol\":193:229  address payable public highestBidder */\n    tag_28:\n      0x03\n      0x00\n      swap1\n      sload\n      swap1\n      0x0100\n      exp\n      swap1\n      div\n      0xffffffffffffffffffffffffffffffffffffffff\n      and\n      dup2\n      jump\t// out\n        /* \"SealedBidAuction.sol\":235:254  bool public hasPaid */\n    tag_32:\n      0x03\n      0x14\n      swap1\n      sload\n      swap1\n      0x0100\n      exp\n      swap1\n      div\n      0xff\n      and\n      dup2\n      jump\t// out\n        /* \"SealedBidAuction.sol\":89:124  address payable public auctionOwner */\n    tag_36:\n      0x00\n      dup1\n      sload\n      swap1\n      0x0100\n      exp\n      swap1\n      div\n      0xffffffffffffffffffffffffffffffffffffffff\n      and\n      dup2\n      jump\t// out\n        /* \"SealedBidAuction.sol\":162:187  bytes32 public highestBid */\n    tag_39:\n      sload(0x02)\n      dup2\n      jump\t// out\n        /* \"SealedBidAuction.sol\":260:305  mapping(address => bytes32) public hashedBids */\n    tag_45:\n      mstore(0x20, 0x04)\n      dup1\n      0x00\n      mstore\n      keccak256(0x00, 0x40)\n      0x00\n      swap2\n      pop\n      swap1\n      pop\n      sload\n      dup2\n      jump\t// out\n        /* \"#utility.yul\":88:205   */\n    tag_79:\n        /* \"#utility.yul\":197:198   */\n      0x00\n        /* \"#utility.yul\":194:195   */\n      dup1\n        /* \"#utility.yul\":187:199   */\n      revert\n        /* \"#utility.yul\":334:411   */\n    tag_81:\n        /* \"#utility.yul\":371:378   */\n      0x00\n        /* \"#utility.yul\":400:405   */\n      dup2\n        /* \"#utility.yul\":389:405   */\n      swap1\n      pop\n        /* \"#utility.yul\":334:411   */\n      swap2\n      swap1\n      pop\n      jump\t// out\n        /* \"#utility.yul\":417:539   */\n    tag_82:\n        /* \"#utility.yul\":490:514   */\n      tag_120\n        /* \"#utility.yul\":508:513   */\n      dup2\n        /* \"#utility.yul\":490:514   */\n      tag_81\n      jump\t// in\n    tag_120:\n        /* \"#utility.yul\":483:488   */\n      dup2\n        /* \"#utility.yul\":480:515   */\n      eq\n        /* \"#utility.yul\":470:533   */\n      tag_121\n      jumpi\n        /* \"#utility.yul\":529:530   */\n      0x00\n        /* \"#utility.yul\":526:527   */\n      dup1\n        /* \"#utility.yul\":519:531   */\n      revert\n        /* \"#utility.yul\":470:533   */\n    tag_121:\n        /* \"#utility.yul\":417:539   */\n      pop\n      jump\t// out\n        /* \"#utility.yul\":545:684   */\n    tag_83:\n        /* \"#utility.yul\":591:596   */\n      0x00\n        /* \"#utility.yul\":629:635   */\n      dup2\n        /* \"#utility.yul\":616:636   */\n      calldataload\n        /* \"#utility.yul\":607:636   */\n      swap1\n      pop\n        /* \"#utility.yul\":645:678   */\n      tag_123\n        /* \"#utility.yul\":672:677   */\n      dup2\n        /* \"#utility.yul\":645:678   */\n      tag_82\n      jump\t// in\n    tag_123:\n        /* \"#utility.yul\":545:684   */\n      swap3\n      swap2\n      pop\n      pop\n      jump\t// out\n        /* \"#utility.yul\":690:1019   */\n    tag_15:\n        /* \"#utility.yul\":749:755   */\n      0x00\n        /* \"#utility.yul\":798:800   */\n      0x20\n        /* \"#utility.yul\":786:795   */\n      dup3\n        /* \"#utility.yul\":777:784   */\n      dup5\n        /* \"#utility.yul\":773:796   */\n      sub\n        /* \"#utility.yul\":769:801   */\n      slt\n        /* \"#utility.yul\":766:885   */\n      iszero\n      tag_125\n      jumpi\n        /* \"#utility.yul\":804:883   */\n      tag_126\n      tag_79\n      jump\t// in\n    tag_126:\n        /* \"#utility.yul\":766:885   */\n    tag_125:\n        /* \"#utility.yul\":924:925   */\n      0x00\n        /* \"#utility.yul\":949:1002   */\n      tag_127\n        /* \"#utility.yul\":994:1001   */\n      dup5\n        /* \"#utility.yul\":985:991   */\n      dup3\n        /* \"#utility.yul\":974:983   */\n      dup6\n        /* \"#utility.yul\":970:992   */\n      add\n        /* \"#utility.yul\":949:1002   */\n      tag_83\n      jump\t// in\n    tag_127:\n        /* \"#utility.yul\":939:1002   */\n      swap2\n      pop\n        /* \"#utility.yul\":895:1012   */\n      pop\n        /* \"#utility.yul\":690:1019   */\n      swap3\n      swap2\n      pop\n      pop\n      jump\t// out\n        /* \"#utility.yul\":1025:1102   */\n    tag_84:\n        /* \"#utility.yul\":1062:1069   */\n      0x00\n        /* \"#utility.yul\":1091:1096   */\n      dup2\n        /* \"#utility.yul\":1080:1096   */\n      swap1\n      pop\n        /* \"#utility.yul\":1025:1102   */\n      swap2\n      swap1\n      pop\n      jump\t// out\n        /* \"#utility.yul\":1108:1230   */\n    tag_85:\n        /* \"#utility.yul\":1181:1205   */\n      tag_130\n        /* \"#utility.yul\":1199:1204   */\n      dup2\n        /* \"#utility.yul\":1181:1205   */\n      tag_84\n      jump\t// in\n    tag_130:\n        /* \"#utility.yul\":1174:1179   */\n      dup2\n        /* \"#utility.yul\":1171:1206   */\n      eq\n        /* \"#utility.yul\":1161:1224   */\n      tag_131\n      jumpi\n        /* \"#utility.yul\":1220:1221   */\n      0x00\n        /* \"#utility.yul\":1217:1218   */\n      dup1\n        /* \"#utility.yul\":1210:1222   */\n      revert\n        /* \"#utility.yul\":1161:1224   */\n    tag_131:\n        /* \"#utility.yul\":1108:1230   */\n      pop\n      jump\t// out\n        /* \"#utility.yul\":1236:1375   */\n    tag_86:\n        /* \"#utility.yul\":1282:1287   */\n      0x00\n        /* \"#utility.yul\":1320:1326   */\n      dup2\n        /* \"#utility.yul\":1307:1327   */\n      calldataload\n        /* \"#utility.yul\":1298:1327   */\n      swap1\n      pop\n        /* \"#utility.yul\":1336:1369   */\n      tag_133\n        /* \"#utility.yul\":1363:1368   */\n      dup2\n        /* \"#utility.yul\":1336:1369   */\n      tag_85\n      jump\t// in\n    tag_133:\n        /* \"#utility.yul\":1236:1375   */\n      swap3\n      swap2\n      pop\n      pop\n      jump\t// out\n        /* \"#utility.yul\":1381:1710   */\n    tag_21:\n        /* \"#utility.yul\":1440:1446   */\n      0x00\n        /* \"#utility.yul\":1489:1491   */\n      0x20\n        /* \"#utility.yul\":1477:1486   */\n      dup3\n        /* \"#utility.yul\":1468:1475   */\n      dup5\n        /* \"#utility.yul\":1464:1487   */\n      sub\n        /* \"#utility.yul\":1460:1492   */\n      slt\n        /* \"#utility.yul\":1457:1576   */\n      iszero\n      tag_135\n      jumpi\n        /* \"#utility.yul\":1495:1574   */\n      tag_136\n      tag_79\n      jump\t// in\n    tag_136:\n        /* \"#utility.yul\":1457:1576   */\n    tag_135:\n        /* \"#utility.yul\":1615:1616   */\n      0x00\n        /* \"#utility.yul\":1640:1693   */\n      tag_137\n        /* \"#utility.yul\":1685:1692   */\n      dup5\n        /* \"#utility.yul\":1676:1682   */\n      dup3\n        /* \"#utility.yul\":1665:1674   */\n      dup6\n        /* \"#utility.yul\":1661:1683   */\n      add\n        /* \"#utility.yul\":1640:1693   */\n      tag_86\n      jump\t// in\n    tag_137:\n        /* \"#utility.yul\":1630:1693   */\n      swap2\n      pop\n        /* \"#utility.yul\":1586:1703   */\n      pop\n        /* \"#utility.yul\":1381:1710   */\n      swap3\n      swap2\n      pop\n      pop\n      jump\t// out\n        /* \"#utility.yul\":1716:1834   */\n    tag_87:\n        /* \"#utility.yul\":1803:1827   */\n      tag_139\n        /* \"#utility.yul\":1821:1826   */\n      dup2\n        /* \"#utility.yul\":1803:1827   */\n      tag_84\n      jump\t// in\n    tag_139:\n        /* \"#utility.yul\":1798:1801   */\n      dup3\n        /* \"#utility.yul\":1791:1828   */\n      mstore\n        /* \"#utility.yul\":1716:1834   */\n      pop\n      pop\n      jump\t// out\n        /* \"#utility.yul\":1840:2062   */\n    tag_26:\n        /* \"#utility.yul\":1933:1937   */\n      0x00\n        /* \"#utility.yul\":1971:1973   */\n      0x20\n        /* \"#utility.yul\":1960:1969   */\n      dup3\n        /* \"#utility.yul\":1956:1974   */\n      add\n        /* \"#utility.yul\":1948:1974   */\n      swap1\n      pop\n        /* \"#utility.yul\":1984:2055   */\n      tag_141\n        /* \"#utility.yul\":2052:2053   */\n      0x00\n        /* \"#utility.yul\":2041:2050   */\n      dup4\n        /* \"#utility.yul\":2037:2054   */\n      add\n        /* \"#utility.yul\":2028:2034   */\n      dup5\n        /* \"#utility.yul\":1984:2055   */\n      tag_87\n      jump\t// in\n    tag_141:\n        /* \"#utility.yul\":1840:2062   */\n      swap3\n      swap2\n      pop\n      pop\n      jump\t// out\n        /* \"#utility.yul\":2068:2194   */\n    tag_88:\n        /* \"#utility.yul\":2105:2112   */\n      0x00\n        /* \"#utility.yul\":2145:2187   */\n      0xffffffffffffffffffffffffffffffffffffffff\n        /* \"#utility.yul\":2138:2143   */\n      dup3\n        /* \"#utility.yul\":2134:2188   */\n      and\n        /* \"#utility.yul\":2123:2188   */\n      swap1\n      pop\n        /* \"#utility.yul\":2068:2194   */\n      swap2\n      swap1\n      pop\n      jump\t// out\n        /* \"#utility.yul\":2200:2304   */\n    tag_89:\n        /* \"#utility.yul\":2245:2252   */\n      0x00\n        /* \"#utility.yul\":2274:2298   */\n      tag_144\n        /* \"#utility.yul\":2292:2297   */\n      dup3\n        /* \"#utility.yul\":2274:2298   */\n      tag_88\n      jump\t// in\n    tag_144:\n        /* \"#utility.yul\":2263:2298   */\n      swap1\n      pop\n        /* \"#utility.yul\":2200:2304   */\n      swap2\n      swap1\n      pop\n      jump\t// out\n        /* \"#utility.yul\":2310:2452   */\n    tag_90:\n        /* \"#utility.yul\":2413:2445   */\n      tag_146\n        /* \"#utility.yul\":2439:2444   */\n      dup2\n        /* \"#utility.yul\":2413:2445   */\n      tag_89\n      jump\t// in\n    tag_146:\n        /* \"#utility.yul\":2408:2411   */\n      dup3\n        /* \"#utility.yul\":2401:2446   */\n      mstore\n        /* \"#utility.yul\":2310:2452   */\n      pop\n      pop\n      jump\t// out\n        /* \"#utility.yul\":2458:2712   */\n    tag_30:\n        /* \"#utility.yul\":2567:2571   */\n      0x00\n        /* \"#utility.yul\":2605:2607   */\n      0x20\n        /* \"#utility.yul\":2594:2603   */\n      dup3\n        /* \"#utility.yul\":2590:2608   */\n      add\n        /* \"#utility.yul\":2582:2608   */\n      swap1\n      pop\n        /* \"#utility.yul\":2618:2705   */\n      tag_148\n        /* \"#utility.yul\":2702:2703   */\n      0x00\n        /* \"#utility.yul\":2691:2700   */\n      dup4\n        /* \"#utility.yul\":2687:2704   */\n      add\n        /* \"#utility.yul\":2678:2684   */\n      dup5\n        /* \"#utility.yul\":2618:2705   */\n      tag_90\n      jump\t// in\n    tag_148:\n        /* \"#utility.yul\":2458:2712   */\n      swap3\n      swap2\n      pop\n      pop\n      jump\t// out\n        /* \"#utility.yul\":2718:2808   */\n    tag_91:\n        /* \"#utility.yul\":2752:2759   */\n      0x00\n        /* \"#utility.yul\":2795:2800   */\n      dup2\n        /* \"#utility.yul\":2788:2801   */\n      iszero\n        /* \"#utility.yul\":2781:2802   */\n      iszero\n        /* \"#utility.yul\":2770:2802   */\n      swap1\n      pop\n        /* \"#utility.yul\":2718:2808   */\n      swap2\n      swap1\n      pop\n      jump\t// out\n        /* \"#utility.yul\":2814:2923   */\n    tag_92:\n        /* \"#utility.yul\":2895:2916   */\n      tag_151\n        /* \"#utility.yul\":2910:2915   */\n      dup2\n        /* \"#utility.yul\":2895:2916   */\n      tag_91\n      jump\t// in\n    tag_151:\n        /* \"#utility.yul\":2890:2893   */\n      dup3\n        /* \"#utility.yul\":2883:2917   */\n      mstore\n        /* \"#utility.yul\":2814:2923   */\n      pop\n      pop\n      jump\t// out\n        /* \"#utility.yul\":2929:3139   */\n    tag_34:\n        /* \"#utility.yul\":3016:3020   */\n      0x00\n        /* \"#utility.yul\":3054:3056   */\n      0x20\n        /* \"#utility.yul\":3043:3052   */\n      dup3\n        /* \"#utility.yul\":3039:3057   */\n      add\n        /* \"#utility.yul\":3031:3057   */\n      swap1\n      pop\n        /* \"#utility.yul\":3067:3132   */\n      tag_153\n        /* \"#utility.yul\":3129:3130   */\n      0x00\n        /* \"#utility.yul\":3118:3127   */\n      dup4\n        /* \"#utility.yul\":3114:3131   */\n      add\n        /* \"#utility.yul\":3105:3111   */\n      dup5\n        /* \"#utility.yul\":3067:3132   */\n      tag_92\n      jump\t// in\n    tag_153:\n        /* \"#utility.yul\":2929:3139   */\n      swap3\n      swap2\n      pop\n      pop\n      jump\t// out\n        /* \"#utility.yul\":3145:3263   */\n    tag_93:\n        /* \"#utility.yul\":3232:3256   */\n      tag_155\n        /* \"#utility.yul\":3250:3255   */\n      dup2\n        /* \"#utility.yul\":3232:3256   */\n      tag_81\n      jump\t// in\n    tag_155:\n        /* \"#utility.yul\":3227:3230   */\n      dup3\n        /* \"#utility.yul\":3220:3257   */\n      mstore\n        /* \"#utility.yul\":3145:3263   */\n      pop\n      pop\n      jump\t// out\n        /* \"#utility.yul\":3269:3491   */\n    tag_41:\n        /* \"#utility.yul\":3362:3366   */\n      0x00\n        /* \"#utility.yul\":3400:3402   */\n      0x20\n        /* \"#utility.yul\":3389:3398   */\n      dup3\n        /* \"#utility.yul\":3385:3403   */\n      add\n        /* \"#utility.yul\":3377:3403   */\n      swap1\n      pop\n        /* \"#utility.yul\":3413:3484   */\n      tag_157\n        /* \"#utility.yul\":3481:3482   */\n      0x00\n        /* \"#utility.yul\":3470:3479   */\n      dup4\n        /* \"#utility.yul\":3466:3483   */\n      add\n        /* \"#utility.yul\":3457:3463   */\n      dup5\n        /* \"#utility.yul\":3413:3484   */\n      tag_93\n      jump\t// in\n    tag_157:\n        /* \"#utility.yul\":3269:3491   */\n      swap3\n      swap2\n      pop\n      pop\n      jump\t// out\n        /* \"#utility.yul\":3497:3593   */\n    tag_94:\n        /* \"#utility.yul\":3534:3541   */\n      0x00\n        /* \"#utility.yul\":3563:3587   */\n      tag_159\n        /* \"#utility.yul\":3581:3586   */\n      dup3\n        /* \"#utility.yul\":3563:3587   */\n      tag_88\n      jump\t// in\n    tag_159:\n        /* \"#utility.yul\":3552:3587   */\n      swap1\n      pop\n        /* \"#utility.yul\":3497:3593   */\n      swap2\n      swap1\n      pop\n      jump\t// out\n        /* \"#utility.yul\":3599:3721   */\n    tag_95:\n        /* \"#utility.yul\":3672:3696   */\n      tag_161\n        /* \"#utility.yul\":3690:3695   */\n      dup2\n        /* \"#utility.yul\":3672:3696   */\n      tag_94\n      jump\t// in\n    tag_161:\n        /* \"#utility.yul\":3665:3670   */\n      dup2\n        /* \"#utility.yul\":3662:3697   */\n      eq\n        /* \"#utility.yul\":3652:3715   */\n      tag_162\n      jumpi\n        /* \"#utility.yul\":3711:3712   */\n      0x00\n        /* \"#utility.yul\":3708:3709   */\n      dup1\n        /* \"#utility.yul\":3701:3713   */\n      revert\n        /* \"#utility.yul\":3652:3715   */\n    tag_162:\n        /* \"#utility.yul\":3599:3721   */\n      pop\n      jump\t// out\n        /* \"#utility.yul\":3727:3866   */\n    tag_96:\n        /* \"#utility.yul\":3773:3778   */\n      0x00\n        /* \"#utility.yul\":3811:3817   */\n      dup2\n        /* \"#utility.yul\":3798:3818   */\n      calldataload\n        /* \"#utility.yul\":3789:3818   */\n      swap1\n      pop\n        /* \"#utility.yul\":3827:3860   */\n      tag_164\n        /* \"#utility.yul\":3854:3859   */\n      dup2\n        /* \"#utility.yul\":3827:3860   */\n      tag_95\n      jump\t// in\n    tag_164:\n        /* \"#utility.yul\":3727:3866   */\n      swap3\n      swap2\n      pop\n      pop\n      jump\t// out\n        /* \"#utility.yul\":3872:4201   */\n    tag_44:\n        /* \"#utility.yul\":3931:3937   */\n      0x00\n        /* \"#utility.yul\":3980:3982   */\n      0x20\n        /* \"#utility.yul\":3968:3977   */\n      dup3\n        /* \"#utility.yul\":3959:3966   */\n      dup5\n        /* \"#utility.yul\":3955:3978   */\n      sub\n        /* \"#utility.yul\":3951:3983   */\n      slt\n        /* \"#utility.yul\":3948:4067   */\n      iszero\n      tag_166\n      jumpi\n        /* \"#utility.yul\":3986:4065   */\n      tag_167\n      tag_79\n      jump\t// in\n    tag_167:\n        /* \"#utility.yul\":3948:4067   */\n    tag_166:\n        /* \"#utility.yul\":4106:4107   */\n      0x00\n        /* \"#utility.yul\":4131:4184   */\n      tag_168\n        /* \"#utility.yul\":4176:4183   */\n      dup5\n        /* \"#utility.yul\":4167:4173   */\n      dup3\n        /* \"#utility.yul\":4156:4165   */\n      dup6\n        /* \"#utility.yul\":4152:4174   */\n      add\n        /* \"#utility.yul\":4131:4184   */\n      tag_96\n      jump\t// in\n    tag_168:\n        /* \"#utility.yul\":4121:4184   */\n      swap2\n      pop\n        /* \"#utility.yul\":4077:4194   */\n      pop\n        /* \"#utility.yul\":3872:4201   */\n      swap3\n      swap2\n      pop\n      pop\n      jump\t// out\n        /* \"#utility.yul\":4207:4376   */\n    tag_97:\n        /* \"#utility.yul\":4291:4302   */\n      0x00\n        /* \"#utility.yul\":4325:4331   */\n      dup3\n        /* \"#utility.yul\":4320:4323   */\n      dup3\n        /* \"#utility.yul\":4313:4332   */\n      mstore\n        /* \"#utility.yul\":4365:4369   */\n      0x20\n        /* \"#utility.yul\":4360:4363   */\n      dup3\n        /* \"#utility.yul\":4356:4370   */\n      add\n        /* \"#utility.yul\":4341:4370   */\n      swap1\n      pop\n        /* \"#utility.yul\":4207:4376   */\n      swap3\n      swap2\n      pop\n      pop\n      jump\t// out\n        /* \"#utility.yul\":4382:4549   */\n    tag_98:\n        /* \"#utility.yul\":4522:4541   */\n      0x41756374696f6e2068617320656e646564000000000000000000000000000000\n        /* \"#utility.yul\":4518:4519   */\n      0x00\n        /* \"#utility.yul\":4510:4516   */\n      dup3\n        /* \"#utility.yul\":4506:4520   */\n      add\n        /* \"#utility.yul\":4499:4542   */\n      mstore\n        /* \"#utility.yul\":4382:4549   */\n      pop\n      jump\t// out\n        /* \"#utility.yul\":4555:4921   */\n    tag_99:\n        /* \"#utility.yul\":4697:4700   */\n      0x00\n        /* \"#utility.yul\":4718:4785   */\n      tag_172\n        /* \"#utility.yul\":4782:4784   */\n      0x11\n        /* \"#utility.yul\":4777:4780   */\n      dup4\n        /* \"#utility.yul\":4718:4785   */\n      tag_97\n      jump\t// in\n    tag_172:\n        /* \"#utility.yul\":4711:4785   */\n      swap2\n      pop\n        /* \"#utility.yul\":4794:4887   */\n      tag_173\n        /* \"#utility.yul\":4883:4886   */\n      dup3\n        /* \"#utility.yul\":4794:4887   */\n      tag_98\n      jump\t// in\n    tag_173:\n        /* \"#utility.yul\":4912:4914   */\n      0x20\n        /* \"#utility.yul\":4907:4910   */\n      dup3\n        /* \"#utility.yul\":4903:4915   */\n      add\n        /* \"#utility.yul\":4896:4915   */\n      swap1\n      pop\n        /* \"#utility.yul\":4555:4921   */\n      swap2\n      swap1\n      pop\n      jump\t// out\n        /* \"#utility.yul\":4927:5346   */\n    tag_50:\n        /* \"#utility.yul\":5093:5097   */\n      0x00\n        /* \"#utility.yul\":5131:5133   */\n      0x20\n        /* \"#utility.yul\":5120:5129   */\n      dup3\n        /* \"#utility.yul\":5116:5134   */\n      add\n        /* \"#utility.yul\":5108:5134   */\n      swap1\n      pop\n        /* \"#utility.yul\":5180:5189   */\n      dup2\n        /* \"#utility.yul\":5174:5178   */\n      dup2\n        /* \"#utility.yul\":5170:5190   */\n      sub\n        /* \"#utility.yul\":5166:5167   */\n      0x00\n        /* \"#utility.yul\":5155:5164   */\n      dup4\n        /* \"#utility.yul\":5151:5168   */\n      add\n        /* \"#utility.yul\":5144:5191   */\n      mstore\n        /* \"#utility.yul\":5208:5339   */\n      tag_175\n        /* \"#utility.yul\":5334:5338   */\n      dup2\n        /* \"#utility.yul\":5208:5339   */\n      tag_99\n      jump\t// in\n    tag_175:\n        /* \"#utility.yul\":5200:5339   */\n      swap1\n      pop\n        /* \"#utility.yul\":4927:5346   */\n      swap2\n      swap1\n      pop\n      jump\t// out\n        /* \"#utility.yul\":5352:5525   */\n    tag_100:\n        /* \"#utility.yul\":5492:5517   */\n      0x416c7265616479207375626d6974746564206120626964000000000000000000\n        /* \"#utility.yul\":5488:5489   */\n      0x00\n        /* \"#utility.yul\":5480:5486   */\n      dup3\n        /* \"#utility.yul\":5476:5490   */\n      add\n        /* \"#utility.yul\":5469:5518   */\n      mstore\n        /* \"#utility.yul\":5352:5525   */\n      pop\n      jump\t// out\n        /* \"#utility.yul\":5531:5897   */\n    tag_101:\n        /* \"#utility.yul\":5673:5676   */\n      0x00\n        /* \"#utility.yul\":5694:5761   */\n      tag_178\n        /* \"#utility.yul\":5758:5760   */\n      0x17\n        /* \"#utility.yul\":5753:5756   */\n      dup4\n        /* \"#utility.yul\":5694:5761   */\n      tag_97\n      jump\t// in\n    tag_178:\n        /* \"#utility.yul\":5687:5761   */\n      swap2\n      pop\n        /* \"#utility.yul\":5770:5863   */\n      tag_179\n        /* \"#utility.yul\":5859:5862   */\n      dup3\n        /* \"#utility.yul\":5770:5863   */\n      tag_100\n      jump\t// in\n    tag_179:\n        /* \"#utility.yul\":5888:5890   */\n      0x20\n        /* \"#utility.yul\":5883:5886   */\n      dup3\n        /* \"#utility.yul\":5879:5891   */\n      add\n        /* \"#utility.yul\":5872:5891   */\n      swap1\n      pop\n        /* \"#utility.yul\":5531:5897   */\n      swap2\n      swap1\n      pop\n      jump\t// out\n        /* \"#utility.yul\":5903:6322   */\n    tag_53:\n        /* \"#utility.yul\":6069:6073   */\n      0x00\n        /* \"#utility.yul\":6107:6109   */\n      0x20\n        /* \"#utility.yul\":6096:6105   */\n      dup3\n        /* \"#utility.yul\":6092:6110   */\n      add\n        /* \"#utility.yul\":6084:6110   */\n      swap1\n      pop\n        /* \"#utility.yul\":6156:6165   */\n      dup2\n        /* \"#utility.yul\":6150:6154   */\n      dup2\n        /* \"#utility.yul\":6146:6166   */\n      sub\n        /* \"#utility.yul\":6142:6143   */\n      0x00\n        /* \"#utility.yul\":6131:6140   */\n      dup4\n        /* \"#utility.yul\":6127:6144   */\n      add\n        /* \"#utility.yul\":6120:6167   */\n      mstore\n        /* \"#utility.yul\":6184:6315   */\n      tag_181\n        /* \"#utility.yul\":6310:6314   */\n      dup2\n        /* \"#utility.yul\":6184:6315   */\n      tag_101\n      jump\t// in\n    tag_181:\n        /* \"#utility.yul\":6176:6315   */\n      swap1\n      pop\n        /* \"#utility.yul\":5903:6322   */\n      swap2\n      swap1\n      pop\n      jump\t// out\n        /* \"#utility.yul\":6328:6503   */\n    tag_102:\n        /* \"#utility.yul\":6468:6495   */\n      0x41756374696f6e20686173206e6f7420656e6465642079657400000000000000\n        /* \"#utility.yul\":6464:6465   */\n      0x00\n        /* \"#utility.yul\":6456:6462   */\n      dup3\n        /* \"#utility.yul\":6452:6466   */\n      add\n        /* \"#utility.yul\":6445:6496   */\n      mstore\n        /* \"#utility.yul\":6328:6503   */\n      pop\n      jump\t// out\n        /* \"#utility.yul\":6509:6875   */\n    tag_103:\n        /* \"#utility.yul\":6651:6654   */\n      0x00\n        /* \"#utility.yul\":6672:6739   */\n      tag_184\n        /* \"#utility.yul\":6736:6738   */\n      0x19\n        /* \"#utility.yul\":6731:6734   */\n      dup4\n        /* \"#utility.yul\":6672:6739   */\n      tag_97\n      jump\t// in\n    tag_184:\n        /* \"#utility.yul\":6665:6739   */\n      swap2\n      pop\n        /* \"#utility.yul\":6748:6841   */\n      tag_185\n        /* \"#utility.yul\":6837:6840   */\n      dup3\n        /* \"#utility.yul\":6748:6841   */\n      tag_102\n      jump\t// in\n    tag_185:\n        /* \"#utility.yul\":6866:6868   */\n      0x20\n        /* \"#utility.yul\":6861:6864   */\n      dup3\n        /* \"#utility.yul\":6857:6869   */\n      add\n        /* \"#utility.yul\":6850:6869   */\n      swap1\n      pop\n        /* \"#utility.yul\":6509:6875   */\n      swap2\n      swap1\n      pop\n      jump\t// out\n        /* \"#utility.yul\":6881:7300   */\n    tag_57:\n        /* \"#utility.yul\":7047:7051   */\n      0x00\n        /* \"#utility.yul\":7085:7087   */\n      0x20\n        /* \"#utility.yul\":7074:7083   */\n      dup3\n        /* \"#utility.yul\":7070:7088   */\n      add\n        /* \"#utility.yul\":7062:7088   */\n      swap1\n      pop\n        /* \"#utility.yul\":7134:7143   */\n      dup2\n        /* \"#utility.yul\":7128:7132   */\n      dup2\n        /* \"#utility.yul\":7124:7144   */\n      sub\n        /* \"#utility.yul\":7120:7121   */\n      0x00\n        /* \"#utility.yul\":7109:7118   */\n      dup4\n        /* \"#utility.yul\":7105:7122   */\n      add\n        /* \"#utility.yul\":7098:7145   */\n      mstore\n        /* \"#utility.yul\":7162:7293   */\n      tag_187\n        /* \"#utility.yul\":7288:7292   */\n      dup2\n        /* \"#utility.yul\":7162:7293   */\n      tag_103\n      jump\t// in\n    tag_187:\n        /* \"#utility.yul\":7154:7293   */\n      swap1\n      pop\n        /* \"#utility.yul\":6881:7300   */\n      swap2\n      swap1\n      pop\n      jump\t// out\n        /* \"#utility.yul\":7306:7486   */\n    tag_104:\n        /* \"#utility.yul\":7446:7478   */\n      0x596f7520617265206e6f74207468652068696768657374206269646465720000\n        /* \"#utility.yul\":7442:7443   */\n      0x00\n        /* \"#utility.yul\":7434:7440   */\n      dup3\n        /* \"#utility.yul\":7430:7444   */\n      add\n        /* \"#utility.yul\":7423:7479   */\n      mstore\n        /* \"#utility.yul\":7306:7486   */\n      pop\n      jump\t// out\n        /* \"#utility.yul\":7492:7858   */\n    tag_105:\n        /* \"#utility.yul\":7634:7637   */\n      0x00\n        /* \"#utility.yul\":7655:7722   */\n      tag_190\n        /* \"#utility.yul\":7719:7721   */\n      0x1e\n        /* \"#utility.yul\":7714:7717   */\n      dup4\n        /* \"#utility.yul\":7655:7722   */\n      tag_97\n      jump\t// in\n    tag_190:\n        /* \"#utility.yul\":7648:7722   */\n      swap2\n      pop\n        /* \"#utility.yul\":7731:7824   */\n      tag_191\n        /* \"#utility.yul\":7820:7823   */\n      dup3\n        /* \"#utility.yul\":7731:7824   */\n      tag_104\n      jump\t// in\n    tag_191:\n        /* \"#utility.yul\":7849:7851   */\n      0x20\n        /* \"#utility.yul\":7844:7847   */\n      dup3\n        /* \"#utility.yul\":7840:7852   */\n      add\n        /* \"#utility.yul\":7833:7852   */\n      swap1\n      pop\n        /* \"#utility.yul\":7492:7858   */\n      swap2\n      swap1\n      pop\n      jump\t// out\n        /* \"#utility.yul\":7864:8283   */\n    tag_60:\n        /* \"#utility.yul\":8030:8034   */\n      0x00\n        /* \"#utility.yul\":8068:8070   */\n      0x20\n        /* \"#utility.yul\":8057:8066   */\n      dup3\n        /* \"#utility.yul\":8053:8071   */\n      add\n        /* \"#utility.yul\":8045:8071   */\n      swap1\n      pop\n        /* \"#utility.yul\":8117:8126   */\n      dup2\n        /* \"#utility.yul\":8111:8115   */\n      dup2\n        /* \"#utility.yul\":8107:8127   */\n      sub\n        /* \"#utility.yul\":8103:8104   */\n      0x00\n        /* \"#utility.yul\":8092:8101   */\n      dup4\n        /* \"#utility.yul\":8088:8105   */\n      add\n        /* \"#utility.yul\":8081:8128   */\n      mstore\n        /* \"#utility.yul\":8145:8276   */\n      tag_193\n        /* \"#utility.yul\":8271:8275   */\n      dup2\n        /* \"#utility.yul\":8145:8276   */\n      tag_105\n      jump\t// in\n    tag_193:\n        /* \"#utility.yul\":8137:8276   */\n      swap1\n      pop\n        /* \"#utility.yul\":7864:8283   */\n      swap2\n      swap1\n      pop\n      jump\t// out\n        /* \"#utility.yul\":8289:8459   */\n    tag_106:\n        /* \"#utility.yul\":8429:8451   */\n      0x5061796d656e7420616c7265616479206d616465000000000000000000000000\n        /* \"#utility.yul\":8425:8426   */\n      0x00\n        /* \"#utility.yul\":8417:8423   */\n      dup3\n        /* \"#utility.yul\":8413:8427   */\n      add\n        /* \"#utility.yul\":8406:8452   */\n      mstore\n        /* \"#utility.yul\":8289:8459   */\n      pop\n      jump\t// out\n        /* \"#utility.yul\":8465:8831   */\n    tag_107:\n        /* \"#utility.yul\":8607:8610   */\n      0x00\n        /* \"#utility.yul\":8628:8695   */\n      tag_196\n        /* \"#utility.yul\":8692:8694   */\n      0x14\n        /* \"#utility.yul\":8687:8690   */\n      dup4\n        /* \"#utility.yul\":8628:8695   */\n      tag_97\n      jump\t// in\n    tag_196:\n        /* \"#utility.yul\":8621:8695   */\n      swap2\n      pop\n        /* \"#utility.yul\":8704:8797   */\n      tag_197\n        /* \"#utility.yul\":8793:8796   */\n      dup3\n        /* \"#utility.yul\":8704:8797   */\n      tag_106\n      jump\t// in\n    tag_197:\n        /* \"#utility.yul\":8822:8824   */\n      0x20\n        /* \"#utility.yul\":8817:8820   */\n      dup3\n        /* \"#utility.yul\":8813:8825   */\n      add\n        /* \"#utility.yul\":8806:8825   */\n      swap1\n      pop\n        /* \"#utility.yul\":8465:8831   */\n      swap2\n      swap1\n      pop\n      jump\t// out\n        /* \"#utility.yul\":8837:9256   */\n    tag_63:\n        /* \"#utility.yul\":9003:9007   */\n      0x00\n        /* \"#utility.yul\":9041:9043   */\n      0x20\n        /* \"#utility.yul\":9030:9039   */\n      dup3\n        /* \"#utility.yul\":9026:9044   */\n      add\n        /* \"#utility.yul\":9018:9044   */\n      swap1\n      pop\n        /* \"#utility.yul\":9090:9099   */\n      dup2\n        /* \"#utility.yul\":9084:9088   */\n      dup2\n        /* \"#utility.yul\":9080:9100   */\n      sub\n        /* \"#utility.yul\":9076:9077   */\n      0x00\n        /* \"#utility.yul\":9065:9074   */\n      dup4\n        /* \"#utility.yul\":9061:9078   */\n      add\n        /* \"#utility.yul\":9054:9101   */\n      mstore\n        /* \"#utility.yul\":9118:9249   */\n      tag_199\n        /* \"#utility.yul\":9244:9248   */\n      dup2\n        /* \"#utility.yul\":9118:9249   */\n      tag_107\n      jump\t// in\n    tag_199:\n        /* \"#utility.yul\":9110:9249   */\n      swap1\n      pop\n        /* \"#utility.yul\":8837:9256   */\n      swap2\n      swap1\n      pop\n      jump\t// out\n        /* \"#utility.yul\":9262:9428   */\n    tag_108:\n        /* \"#utility.yul\":9402:9420   */\n      0x4e6f20626964207375626d697474656400000000000000000000000000000000\n        /* \"#utility.yul\":9398:9399   */\n      0x00\n        /* \"#utility.yul\":9390:9396   */\n      dup3\n        /* \"#utility.yul\":9386:9400   */\n      add\n        /* \"#utility.yul\":9379:9421   */\n      mstore\n        /* \"#utility.yul\":9262:9428   */\n      pop\n      jump\t// out\n        /* \"#utility.yul\":9434:9800   */\n    tag_109:\n        /* \"#utility.yul\":9576:9579   */\n      0x00\n        /* \"#utility.yul\":9597:9664   */\n      tag_202\n        /* \"#utility.yul\":9661:9663   */\n      0x10\n        /* \"#utility.yul\":9656:9659   */\n      dup4\n        /* \"#utility.yul\":9597:9664   */\n      tag_97\n      jump\t// in\n    tag_202:\n        /* \"#utility.yul\":9590:9664   */\n      swap2\n      pop\n        /* \"#utility.yul\":9673:9766   */\n      tag_203\n        /* \"#utility.yul\":9762:9765   */\n      dup3\n        /* \"#utility.yul\":9673:9766   */\n      tag_108\n      jump\t// in\n    tag_203:\n        /* \"#utility.yul\":9791:9793   */\n      0x20\n        /* \"#utility.yul\":9786:9789   */\n      dup3\n        /* \"#utility.yul\":9782:9794   */\n      add\n        /* \"#utility.yul\":9775:9794   */\n      swap1\n      pop\n        /* \"#utility.yul\":9434:9800   */\n      swap2\n      swap1\n      pop\n      jump\t// out\n        /* \"#utility.yul\":9806:10225   */\n    tag_71:\n        /* \"#utility.yul\":9972:9976   */\n      0x00\n        /* \"#utility.yul\":10010:10012   */\n      0x20\n        /* \"#utility.yul\":9999:10008   */\n      dup3\n        /* \"#utility.yul\":9995:10013   */\n      add\n        /* \"#utility.yul\":9987:10013   */\n      swap1\n      pop\n        /* \"#utility.yul\":10059:10068   */\n      dup2\n        /* \"#utility.yul\":10053:10057   */\n      dup2\n        /* \"#utility.yul\":10049:10069   */\n      sub\n        /* \"#utility.yul\":10045:10046   */\n      0x00\n        /* \"#utility.yul\":10034:10043   */\n      dup4\n        /* \"#utility.yul\":10030:10047   */\n      add\n        /* \"#utility.yul\":10023:10070   */\n      mstore\n        /* \"#utility.yul\":10087:10218   */\n      tag_205\n        /* \"#utility.yul\":10213:10217   */\n      dup2\n        /* \"#utility.yul\":10087:10218   */\n      tag_109\n      jump\t// in\n    tag_205:\n        /* \"#utility.yul\":10079:10218   */\n      swap1\n      pop\n        /* \"#utility.yul\":9806:10225   */\n      swap2\n      swap1\n      pop\n      jump\t// out\n        /* \"#utility.yul\":10231:10310   */\n    tag_110:\n        /* \"#utility.yul\":10270:10277   */\n      0x00\n        /* \"#utility.yul\":10299:10304   */\n      dup2\n        /* \"#utility.yul\":10288:10304   */\n      swap1\n      pop\n        /* \"#utility.yul\":10231:10310   */\n      swap2\n      swap1\n      pop\n      jump\t// out\n        /* \"#utility.yul\":10316:10473   */\n    tag_111:\n        /* \"#utility.yul\":10421:10466   */\n      tag_208\n        /* \"#utility.yul\":10441:10465   */\n      tag_209\n        /* \"#utility.yul\":10459:10464   */\n      dup3\n        /* \"#utility.yul\":10441:10465   */\n      tag_84\n      jump\t// in\n    tag_209:\n        /* \"#utility.yul\":10421:10466   */\n      tag_110\n      jump\t// in\n    tag_208:\n        /* \"#utility.yul\":10416:10419   */\n      dup3\n        /* \"#utility.yul\":10409:10467   */\n      mstore\n        /* \"#utility.yul\":10316:10473   */\n      pop\n      pop\n      jump\t// out\n        /* \"#utility.yul\":10479:10735   */\n    tag_73:\n        /* \"#utility.yul\":10591:10594   */\n      0x00\n        /* \"#utility.yul\":10606:10681   */\n      tag_211\n        /* \"#utility.yul\":10677:10680   */\n      dup3\n        /* \"#utility.yul\":10668:10674   */\n      dup5\n        /* \"#utility.yul\":10606:10681   */\n      tag_111\n      jump\t// in\n    tag_211:\n        /* \"#utility.yul\":10706:10708   */\n      0x20\n        /* \"#utility.yul\":10701:10704   */\n      dup3\n        /* \"#utility.yul\":10697:10709   */\n      add\n        /* \"#utility.yul\":10690:10709   */\n      swap2\n      pop\n        /* \"#utility.yul\":10726:10729   */\n      dup2\n        /* \"#utility.yul\":10719:10729   */\n      swap1\n      pop\n        /* \"#utility.yul\":10479:10735   */\n      swap3\n      swap2\n      pop\n      pop\n      jump\t// out\n        /* \"#utility.yul\":10741:10964   */\n    tag_112:\n        /* \"#utility.yul\":10881:10915   */\n      0x41637475616c2062696420646f6573206e6f74206d6174636820686173686564\n        /* \"#utility.yul\":10877:10878   */\n      0x00\n        /* \"#utility.yul\":10869:10875   */\n      dup3\n        /* \"#utility.yul\":10865:10879   */\n      add\n        /* \"#utility.yul\":10858:10916   */\n      mstore\n        /* \"#utility.yul\":10950:10956   */\n      0x2062696400000000000000000000000000000000000000000000000000000000\n        /* \"#utility.yul\":10945:10947   */\n      0x20\n        /* \"#utility.yul\":10937:10943   */\n      dup3\n        /* \"#utility.yul\":10933:10948   */\n      add\n        /* \"#utility.yul\":10926:10957   */\n      mstore\n        /* \"#utility.yul\":10741:10964   */\n      pop\n      jump\t// out\n        /* \"#utility.yul\":10970:11336   */\n    tag_113:\n        /* \"#utility.yul\":11112:11115   */\n      0x00\n        /* \"#utility.yul\":11133:11200   */\n      tag_214\n        /* \"#utility.yul\":11197:11199   */\n      0x24\n        /* \"#utility.yul\":11192:11195   */\n      dup4\n        /* \"#utility.yul\":11133:11200   */\n      tag_97\n      jump\t// in\n    tag_214:\n        /* \"#utility.yul\":11126:11200   */\n      swap2\n      pop\n        /* \"#utility.yul\":11209:11302   */\n      tag_215\n        /* \"#utility.yul\":11298:11301   */\n      dup3\n        /* \"#utility.yul\":11209:11302   */\n      tag_112\n      jump\t// in\n    tag_215:\n        /* \"#utility.yul\":11327:11329   */\n      0x40\n        /* \"#utility.yul\":11322:11325   */\n      dup3\n        /* \"#utility.yul\":11318:11330   */\n      add\n        /* \"#utility.yul\":11311:11330   */\n      swap1\n      pop\n        /* \"#utility.yul\":10970:11336   */\n      swap2\n      swap1\n      pop\n      jump\t// out\n        /* \"#utility.yul\":11342:11761   */\n    tag_76:\n        /* \"#utility.yul\":11508:11512   */\n      0x00\n        /* \"#utility.yul\":11546:11548   */\n      0x20\n        /* \"#utility.yul\":11535:11544   */\n      dup3\n        /* \"#utility.yul\":11531:11549   */\n      add\n        /* \"#utility.yul\":11523:11549   */\n      swap1\n      pop\n        /* \"#utility.yul\":11595:11604   */\n      dup2\n        /* \"#utility.yul\":11589:11593   */\n      dup2\n        /* \"#utility.yul\":11585:11605   */\n      sub\n        /* \"#utility.yul\":11581:11582   */\n      0x00\n        /* \"#utility.yul\":11570:11579   */\n      dup4\n        /* \"#utility.yul\":11566:11583   */\n      add\n        /* \"#utility.yul\":11559:11606   */\n      mstore\n        /* \"#utility.yul\":11623:11754   */\n      tag_217\n        /* \"#utility.yul\":11749:11753   */\n      dup2\n        /* \"#utility.yul\":11623:11754   */\n      tag_113\n      jump\t// in\n    tag_217:\n        /* \"#utility.yul\":11615:11754   */\n      swap1\n      pop\n        /* \"#utility.yul\":11342:11761   */\n      swap2\n      swap1\n      pop\n      jump\t// out\n\n    auxdata: 0xa2646970667358221220a779199176fc90752c8405ee9bfee135a2e93ade0cf028581f080a1a5650032764736f6c63430008110033\n}\n",
				"bytecode": {
					"linkReferences": {},
					"object": "60806040523480156200001157600080fd5b5060405162000dc038038062000dc08339818101604052810190620000379190620000d2565b336000806101000a81548173ffffffffffffffffffffffffffffffffffffffff021916908373ffffffffffffffffffffffffffffffffffffffff160217905550804262000085919062000133565b600181905550506200016e565b600080fd5b6000819050919050565b620000ac8162000097565b8114620000b857600080fd5b50565b600081519050620000cc81620000a1565b92915050565b600060208284031215620000eb57620000ea62000092565b5b6000620000fb84828501620000bb565b91505092915050565b7f4e487b7100000000000000000000000000000000000000000000000000000000600052601160045260246000fd5b6000620001408262000097565b91506200014d8362000097565b925082820190508082111562000168576200016762000104565b5b92915050565b610c42806200017e6000396000f3fe608060405234801561001057600080fd5b50600436106100935760003560e01c806391f901571161006657806391f90157146100f8578063c810af8114610116578063d3924aaf14610134578063d57bde7914610152578063f4c453731461017057610093565b80631b3fa800146100985780631b9265b8146100b45780633e3b903e146100be5780634b449cba146100da575b600080fd5b6100b260048036038101906100ad91906106c4565b6101a0565b005b6100bc6102b0565b005b6100d860048036038101906100d39190610727565b61043d565b005b6100e2610608565b6040516100ef9190610763565b60405180910390f35b61010061060e565b60405161010d91906107bf565b60405180910390f35b61011e610634565b60405161012b91906107f5565b60405180910390f35b61013c610647565b60405161014991906107bf565b60405180910390f35b61015a61066b565b604051610167919061081f565b60405180910390f35b61018a60048036038101906101859190610878565b610671565b604051610197919061081f565b60405180910390f35b6001544211156101e5576040517f08c379a00000000000000000000000000000000000000000000000000000000081526004016101dc90610902565b60405180910390fd5b6000801b600460003373ffffffffffffffffffffffffffffffffffffffff1673ffffffffffffffffffffffffffffffffffffffff1681526020019081526020016000205414610269576040517f08c379a00000000000000000000000000000000000000000000000000000000081526004016102609061096e565b60405180910390fd5b80600460003373ffffffffffffffffffffffffffffffffffffffff1673ffffffffffffffffffffffffffffffffffffffff1681526020019081526020016000208190555050565b60015442116102f4576040517f08c379a00000000000000000000000000000000000000000000000000000000081526004016102eb906109da565b60405180910390fd5b600360009054906101000a900473ffffffffffffffffffffffffffffffffffffffff1673ffffffffffffffffffffffffffffffffffffffff163373ffffffffffffffffffffffffffffffffffffffff1614610384576040517f08c379a000000000000000000000000000000000000000000000000000000000815260040161037b90610a46565b60405180910390fd5b600360149054906101000a900460ff16156103d4576040517f08c379a00000000000000000000000000000000000000000000000000000000081526004016103cb90610ab2565b60405180910390fd5b6001600360146101000a81548160ff0219169083151502179055503373ffffffffffffffffffffffffffffffffffffffff166108fc60025460001c9081150290604051600060405180830381858888f1935050505015801561043a573d6000803e3d6000fd5b50565b6001544211610481576040517f08c379a0000000000000000000000000000000000000000000000000000000008152600401610478906109da565b60405180910390fd5b6000801b600460003373ffffffffffffffffffffffffffffffffffffffff1673ffffffffffffffffffffffffffffffffffffffff1681526020019081526020016000205403610505576040517f08c379a00000000000000000000000000000000000000000000000000000000081526004016104fc90610b1e565b60405180910390fd5b600460003373ffffffffffffffffffffffffffffffffffffffff1673ffffffffffffffffffffffffffffffffffffffff16815260200190815260200160002054816040516020016105569190610b5f565b60405160208183030381529060405280519060200120146105ac576040517f08c379a00000000000000000000000000000000000000000000000000000000081526004016105a390610bec565b60405180910390fd5b60025460001c811115610605578060001b60028190555033600360006101000a81548173ffffffffffffffffffffffffffffffffffffffff021916908373ffffffffffffffffffffffffffffffffffffffff1602179055505b50565b60015481565b600360009054906101000a900473ffffffffffffffffffffffffffffffffffffffff1681565b600360149054906101000a900460ff1681565b60008054906101000a900473ffffffffffffffffffffffffffffffffffffffff1681565b60025481565b60046020528060005260406000206000915090505481565b600080fd5b6000819050919050565b6106a18161068e565b81146106ac57600080fd5b50565b6000813590506106be81610698565b92915050565b6000602082840312156106da576106d9610689565b5b60006106e8848285016106af565b91505092915050565b6000819050919050565b610704816106f1565b811461070f57600080fd5b50565b600081359050610721816106fb565b92915050565b60006020828403121561073d5761073c610689565b5b600061074b84828501610712565b91505092915050565b61075d816106f1565b82525050565b60006020820190506107786000830184610754565b92915050565b600073ffffffffffffffffffffffffffffffffffffffff82169050919050565b60006107a98261077e565b9050919050565b6107b98161079e565b82525050565b60006020820190506107d460008301846107b0565b92915050565b60008115159050919050565b6107ef816107da565b82525050565b600060208201905061080a60008301846107e6565b92915050565b6108198161068e565b82525050565b60006020820190506108346000830184610810565b92915050565b60006108458261077e565b9050919050565b6108558161083a565b811461086057600080fd5b50565b6000813590506108728161084c565b92915050565b60006020828403121561088e5761088d610689565b5b600061089c84828501610863565b91505092915050565b600082825260208201905092915050565b7f41756374696f6e2068617320656e646564000000000000000000000000000000600082015250565b60006108ec6011836108a5565b91506108f7826108b6565b602082019050919050565b6000602082019050818103600083015261091b816108df565b9050919050565b7f416c7265616479207375626d6974746564206120626964000000000000000000600082015250565b60006109586017836108a5565b915061096382610922565b602082019050919050565b600060208201905081810360008301526109878161094b565b9050919050565b7f41756374696f6e20686173206e6f7420656e6465642079657400000000000000600082015250565b60006109c46019836108a5565b91506109cf8261098e565b602082019050919050565b600060208201905081810360008301526109f3816109b7565b9050919050565b7f596f7520617265206e6f74207468652068696768657374206269646465720000600082015250565b6000610a30601e836108a5565b9150610a3b826109fa565b602082019050919050565b60006020820190508181036000830152610a5f81610a23565b9050919050565b7f5061796d656e7420616c7265616479206d616465000000000000000000000000600082015250565b6000610a9c6014836108a5565b9150610aa782610a66565b602082019050919050565b60006020820190508181036000830152610acb81610a8f565b9050919050565b7f4e6f20626964207375626d697474656400000000000000000000000000000000600082015250565b6000610b086010836108a5565b9150610b1382610ad2565b602082019050919050565b60006020820190508181036000830152610b3781610afb565b9050919050565b6000819050919050565b610b59610b54826106f1565b610b3e565b82525050565b6000610b6b8284610b48565b60208201915081905092915050565b7f41637475616c2062696420646f6573206e6f74206d617463682068617368656460008201527f2062696400000000000000000000000000000000000000000000000000000000602082015250565b6000610bd66024836108a5565b9150610be182610b7a565b604082019050919050565b60006020820190508181036000830152610c0581610bc9565b905091905056fea2646970667358221220a779199176fc90752c8405ee9bfee135a2e93ade0cf028581f080a1a5650032764736f6c63430008110033",
					"opcodes": "PUSH1 0x80 PUSH1 0x40 MSTORE CALLVALUE DUP1 ISZERO PUSH3 0x11 JUMPI PUSH1 0x0 DUP1 REVERT JUMPDEST POP PUSH1 0x40 MLOAD PUSH3 0xDC0 CODESIZE SUB DUP1 PUSH3 0xDC0 DUP4 CODECOPY DUP2 DUP2 ADD PUSH1 0x40 MSTORE DUP2 ADD SWAP1 PUSH3 0x37 SWAP2 SWAP1 PUSH3 0xD2 JUMP JUMPDEST CALLER PUSH1 0x0 DUP1 PUSH2 0x100 EXP DUP2 SLOAD DUP2 PUSH20 0xFFFFFFFFFFFFFFFFFFFFFFFFFFFFFFFFFFFFFFFF MUL NOT AND SWAP1 DUP4 PUSH20 0xFFFFFFFFFFFFFFFFFFFFFFFFFFFFFFFFFFFFFFFF AND MUL OR SWAP1 SSTORE POP DUP1 TIMESTAMP PUSH3 0x85 SWAP2 SWAP1 PUSH3 0x133 JUMP JUMPDEST PUSH1 0x1 DUP2 SWAP1 SSTORE POP POP PUSH3 0x16E JUMP JUMPDEST PUSH1 0x0 DUP1 REVERT JUMPDEST PUSH1 0x0 DUP2 SWAP1 POP SWAP2 SWAP1 POP JUMP JUMPDEST PUSH3 0xAC DUP2 PUSH3 0x97 JUMP JUMPDEST DUP2 EQ PUSH3 0xB8 JUMPI PUSH1 0x0 DUP1 REVERT JUMPDEST POP JUMP JUMPDEST PUSH1 0x0 DUP2 MLOAD SWAP1 POP PUSH3 0xCC DUP2 PUSH3 0xA1 JUMP JUMPDEST SWAP3 SWAP2 POP POP JUMP JUMPDEST PUSH1 0x0 PUSH1 0x20 DUP3 DUP5 SUB SLT ISZERO PUSH3 0xEB JUMPI PUSH3 0xEA PUSH3 0x92 JUMP JUMPDEST JUMPDEST PUSH1 0x0 PUSH3 0xFB DUP5 DUP3 DUP6 ADD PUSH3 0xBB JUMP JUMPDEST SWAP2 POP POP SWAP3 SWAP2 POP POP JUMP JUMPDEST PUSH32 0x4E487B7100000000000000000000000000000000000000000000000000000000 PUSH1 0x0 MSTORE PUSH1 0x11 PUSH1 0x4 MSTORE PUSH1 0x24 PUSH1 0x0 REVERT JUMPDEST PUSH1 0x0 PUSH3 0x140 DUP3 PUSH3 0x97 JUMP JUMPDEST SWAP2 POP PUSH3 0x14D DUP4 PUSH3 0x97 JUMP JUMPDEST SWAP3 POP DUP3 DUP3 ADD SWAP1 POP DUP1 DUP3 GT ISZERO PUSH3 0x168 JUMPI PUSH3 0x167 PUSH3 0x104 JUMP JUMPDEST JUMPDEST SWAP3 SWAP2 POP POP JUMP JUMPDEST PUSH2 0xC42 DUP1 PUSH3 0x17E PUSH1 0x0 CODECOPY PUSH1 0x0 RETURN INVALID PUSH1 0x80 PUSH1 0x40 MSTORE CALLVALUE DUP1 ISZERO PUSH2 0x10 JUMPI PUSH1 0x0 DUP1 REVERT JUMPDEST POP PUSH1 0x4 CALLDATASIZE LT PUSH2 0x93 JUMPI PUSH1 0x0 CALLDATALOAD PUSH1 0xE0 SHR DUP1 PUSH4 0x91F90157 GT PUSH2 0x66 JUMPI DUP1 PUSH4 0x91F90157 EQ PUSH2 0xF8 JUMPI DUP1 PUSH4 0xC810AF81 EQ PUSH2 0x116 JUMPI DUP1 PUSH4 0xD3924AAF EQ PUSH2 0x134 JUMPI DUP1 PUSH4 0xD57BDE79 EQ PUSH2 0x152 JUMPI DUP1 PUSH4 0xF4C45373 EQ PUSH2 0x170 JUMPI PUSH2 0x93 JUMP JUMPDEST DUP1 PUSH4 0x1B3FA800 EQ PUSH2 0x98 JUMPI DUP1 PUSH4 0x1B9265B8 EQ PUSH2 0xB4 JUMPI DUP1 PUSH4 0x3E3B903E EQ PUSH2 0xBE JUMPI DUP1 PUSH4 0x4B449CBA EQ PUSH2 0xDA JUMPI JUMPDEST PUSH1 0x0 DUP1 REVERT JUMPDEST PUSH2 0xB2 PUSH1 0x4 DUP1 CALLDATASIZE SUB DUP2 ADD SWAP1 PUSH2 0xAD SWAP2 SWAP1 PUSH2 0x6C4 JUMP JUMPDEST PUSH2 0x1A0 JUMP JUMPDEST STOP JUMPDEST PUSH2 0xBC PUSH2 0x2B0 JUMP JUMPDEST STOP JUMPDEST PUSH2 0xD8 PUSH1 0x4 DUP1 CALLDATASIZE SUB DUP2 ADD SWAP1 PUSH2 0xD3 SWAP2 SWAP1 PUSH2 0x727 JUMP JUMPDEST PUSH2 0x43D JUMP JUMPDEST STOP JUMPDEST PUSH2 0xE2 PUSH2 0x608 JUMP JUMPDEST PUSH1 0x40 MLOAD PUSH2 0xEF SWAP2 SWAP1 PUSH2 0x763 JUMP JUMPDEST PUSH1 0x40 MLOAD DUP1 SWAP2 SUB SWAP1 RETURN JUMPDEST PUSH2 0x100 PUSH2 0x60E JUMP JUMPDEST PUSH1 0x40 MLOAD PUSH2 0x10D SWAP2 SWAP1 PUSH2 0x7BF JUMP JUMPDEST PUSH1 0x40 MLOAD DUP1 SWAP2 SUB SWAP1 RETURN JUMPDEST PUSH2 0x11E PUSH2 0x634 JUMP JUMPDEST PUSH1 0x40 MLOAD PUSH2 0x12B SWAP2 SWAP1 PUSH2 0x7F5 JUMP JUMPDEST PUSH1 0x40 MLOAD DUP1 SWAP2 SUB SWAP1 RETURN JUMPDEST PUSH2 0x13C PUSH2 0x647 JUMP JUMPDEST PUSH1 0x40 MLOAD PUSH2 0x149 SWAP2 SWAP1 PUSH2 0x7BF JUMP JUMPDEST PUSH1 0x40 MLOAD DUP1 SWAP2 SUB SWAP1 RETURN JUMPDEST PUSH2 0x15A PUSH2 0x66B JUMP JUMPDEST PUSH1 0x40 MLOAD PUSH2 0x167 SWAP2 SWAP1 PUSH2 0x81F JUMP JUMPDEST PUSH1 0x40 MLOAD DUP1 SWAP2 SUB SWAP1 RETURN JUMPDEST PUSH2 0x18A PUSH1 0x4 DUP1 CALLDATASIZE SUB DUP2 ADD SWAP1 PUSH2 0x185 SWAP2 SWAP1 PUSH2 0x878 JUMP JUMPDEST PUSH2 0x671 JUMP JUMPDEST PUSH1 0x40 MLOAD PUSH2 0x197 SWAP2 SWAP1 PUSH2 0x81F JUMP JUMPDEST PUSH1 0x40 MLOAD DUP1 SWAP2 SUB SWAP1 RETURN JUMPDEST PUSH1 0x1 SLOAD TIMESTAMP GT ISZERO PUSH2 0x1E5 JUMPI PUSH1 0x40 MLOAD PUSH32 0x8C379A000000000000000000000000000000000000000000000000000000000 DUP2 MSTORE PUSH1 0x4 ADD PUSH2 0x1DC SWAP1 PUSH2 0x902 JUMP JUMPDEST PUSH1 0x40 MLOAD DUP1 SWAP2 SUB SWAP1 REVERT JUMPDEST PUSH1 0x0 DUP1 SHL PUSH1 0x4 PUSH1 0x0 CALLER PUSH20 0xFFFFFFFFFFFFFFFFFFFFFFFFFFFFFFFFFFFFFFFF AND PUSH20 0xFFFFFFFFFFFFFFFFFFFFFFFFFFFFFFFFFFFFFFFF AND DUP2 MSTORE PUSH1 0x20 ADD SWAP1 DUP2 MSTORE PUSH1 0x20 ADD PUSH1 0x0 KECCAK256 SLOAD EQ PUSH2 0x269 JUMPI PUSH1 0x40 MLOAD PUSH32 0x8C379A000000000000000000000000000000000000000000000000000000000 DUP2 MSTORE PUSH1 0x4 ADD PUSH2 0x260 SWAP1 PUSH2 0x96E JUMP JUMPDEST PUSH1 0x40 MLOAD DUP1 SWAP2 SUB SWAP1 REVERT JUMPDEST DUP1 PUSH1 0x4 PUSH1 0x0 CALLER PUSH20 0xFFFFFFFFFFFFFFFFFFFFFFFFFFFFFFFFFFFFFFFF AND PUSH20 0xFFFFFFFFFFFFFFFFFFFFFFFFFFFFFFFFFFFFFFFF AND DUP2 MSTORE PUSH1 0x20 ADD SWAP1 DUP2 MSTORE PUSH1 0x20 ADD PUSH1 0x0 KECCAK256 DUP2 SWAP1 SSTORE POP POP JUMP JUMPDEST PUSH1 0x1 SLOAD TIMESTAMP GT PUSH2 0x2F4 JUMPI PUSH1 0x40 MLOAD PUSH32 0x8C379A000000000000000000000000000000000000000000000000000000000 DUP2 MSTORE PUSH1 0x4 ADD PUSH2 0x2EB SWAP1 PUSH2 0x9DA JUMP JUMPDEST PUSH1 0x40 MLOAD DUP1 SWAP2 SUB SWAP1 REVERT JUMPDEST PUSH1 0x3 PUSH1 0x0 SWAP1 SLOAD SWAP1 PUSH2 0x100 EXP SWAP1 DIV PUSH20 0xFFFFFFFFFFFFFFFFFFFFFFFFFFFFFFFFFFFFFFFF AND PUSH20 0xFFFFFFFFFFFFFFFFFFFFFFFFFFFFFFFFFFFFFFFF AND CALLER PUSH20 0xFFFFFFFFFFFFFFFFFFFFFFFFFFFFFFFFFFFFFFFF AND EQ PUSH2 0x384 JUMPI PUSH1 0x40 MLOAD PUSH32 0x8C379A000000000000000000000000000000000000000000000000000000000 DUP2 MSTORE PUSH1 0x4 ADD PUSH2 0x37B SWAP1 PUSH2 0xA46 JUMP JUMPDEST PUSH1 0x40 MLOAD DUP1 SWAP2 SUB SWAP1 REVERT JUMPDEST PUSH1 0x3 PUSH1 0x14 SWAP1 SLOAD SWAP1 PUSH2 0x100 EXP SWAP1 DIV PUSH1 0xFF AND ISZERO PUSH2 0x3D4 JUMPI PUSH1 0x40 MLOAD PUSH32 0x8C379A000000000000000000000000000000000000000000000000000000000 DUP2 MSTORE PUSH1 0x4 ADD PUSH2 0x3CB SWAP1 PUSH2 0xAB2 JUMP JUMPDEST PUSH1 0x40 MLOAD DUP1 SWAP2 SUB SWAP1 REVERT JUMPDEST PUSH1 0x1 PUSH1 0x3 PUSH1 0x14 PUSH2 0x100 EXP DUP2 SLOAD DUP2 PUSH1 0xFF MUL NOT AND SWAP1 DUP4 ISZERO ISZERO MUL OR SWAP1 SSTORE POP CALLER PUSH20 0xFFFFFFFFFFFFFFFFFFFFFFFFFFFFFFFFFFFFFFFF AND PUSH2 0x8FC PUSH1 0x2 SLOAD PUSH1 0x0 SHR SWAP1 DUP2 ISZERO MUL SWAP1 PUSH1 0x40 MLOAD PUSH1 0x0 PUSH1 0x40 MLOAD DUP1 DUP4 SUB DUP2 DUP6 DUP9 DUP9 CALL SWAP4 POP POP POP POP ISZERO DUP1 ISZERO PUSH2 0x43A JUMPI RETURNDATASIZE PUSH1 0x0 DUP1 RETURNDATACOPY RETURNDATASIZE PUSH1 0x0 REVERT JUMPDEST POP JUMP JUMPDEST PUSH1 0x1 SLOAD TIMESTAMP GT PUSH2 0x481 JUMPI PUSH1 0x40 MLOAD PUSH32 0x8C379A000000000000000000000000000000000000000000000000000000000 DUP2 MSTORE PUSH1 0x4 ADD PUSH2 0x478 SWAP1 PUSH2 0x9DA JUMP JUMPDEST PUSH1 0x40 MLOAD DUP1 SWAP2 SUB SWAP1 REVERT JUMPDEST PUSH1 0x0 DUP1 SHL PUSH1 0x4 PUSH1 0x0 CALLER PUSH20 0xFFFFFFFFFFFFFFFFFFFFFFFFFFFFFFFFFFFFFFFF AND PUSH20 0xFFFFFFFFFFFFFFFFFFFFFFFFFFFFFFFFFFFFFFFF AND DUP2 MSTORE PUSH1 0x20 ADD SWAP1 DUP2 MSTORE PUSH1 0x20 ADD PUSH1 0x0 KECCAK256 SLOAD SUB PUSH2 0x505 JUMPI PUSH1 0x40 MLOAD PUSH32 0x8C379A000000000000000000000000000000000000000000000000000000000 DUP2 MSTORE PUSH1 0x4 ADD PUSH2 0x4FC SWAP1 PUSH2 0xB1E JUMP JUMPDEST PUSH1 0x40 MLOAD DUP1 SWAP2 SUB SWAP1 REVERT JUMPDEST PUSH1 0x4 PUSH1 0x0 CALLER PUSH20 0xFFFFFFFFFFFFFFFFFFFFFFFFFFFFFFFFFFFFFFFF AND PUSH20 0xFFFFFFFFFFFFFFFFFFFFFFFFFFFFFFFFFFFFFFFF AND DUP2 MSTORE PUSH1 0x20 ADD SWAP1 DUP2 MSTORE PUSH1 0x20 ADD PUSH1 0x0 KECCAK256 SLOAD DUP2 PUSH1 0x40 MLOAD PUSH1 0x20 ADD PUSH2 0x556 SWAP2 SWAP1 PUSH2 0xB5F JUMP JUMPDEST PUSH1 0x40 MLOAD PUSH1 0x20 DUP2 DUP4 SUB SUB DUP2 MSTORE SWAP1 PUSH1 0x40 MSTORE DUP1 MLOAD SWAP1 PUSH1 0x20 ADD KECCAK256 EQ PUSH2 0x5AC JUMPI PUSH1 0x40 MLOAD PUSH32 0x8C379A000000000000000000000000000000000000000000000000000000000 DUP2 MSTORE PUSH1 0x4 ADD PUSH2 0x5A3 SWAP1 PUSH2 0xBEC JUMP JUMPDEST PUSH1 0x40 MLOAD DUP1 SWAP2 SUB SWAP1 REVERT JUMPDEST PUSH1 0x2 SLOAD PUSH1 0x0 SHR DUP2 GT ISZERO PUSH2 0x605 JUMPI DUP1 PUSH1 0x0 SHL PUSH1 0x2 DUP2 SWAP1 SSTORE POP CALLER PUSH1 0x3 PUSH1 0x0 PUSH2 0x100 EXP DUP2 SLOAD DUP2 PUSH20 0xFFFFFFFFFFFFFFFFFFFFFFFFFFFFFFFFFFFFFFFF MUL NOT AND SWAP1 DUP4 PUSH20 0xFFFFFFFFFFFFFFFFFFFFFFFFFFFFFFFFFFFFFFFF AND MUL OR SWAP1 SSTORE POP JUMPDEST POP JUMP JUMPDEST PUSH1 0x1 SLOAD DUP2 JUMP JUMPDEST PUSH1 0x3 PUSH1 0x0 SWAP1 SLOAD SWAP1 PUSH2 0x100 EXP SWAP1 DIV PUSH20 0xFFFFFFFFFFFFFFFFFFFFFFFFFFFFFFFFFFFFFFFF AND DUP2 JUMP JUMPDEST PUSH1 0x3 PUSH1 0x14 SWAP1 SLOAD SWAP1 PUSH2 0x100 EXP SWAP1 DIV PUSH1 0xFF AND DUP2 JUMP JUMPDEST PUSH1 0x0 DUP1 SLOAD SWAP1 PUSH2 0x100 EXP SWAP1 DIV PUSH20 0xFFFFFFFFFFFFFFFFFFFFFFFFFFFFFFFFFFFFFFFF AND DUP2 JUMP JUMPDEST PUSH1 0x2 SLOAD DUP2 JUMP JUMPDEST PUSH1 0x4 PUSH1 0x20 MSTORE DUP1 PUSH1 0x0 MSTORE PUSH1 0x40 PUSH1 0x0 KECCAK256 PUSH1 0x0 SWAP2 POP SWAP1 POP SLOAD DUP2 JUMP JUMPDEST PUSH1 0x0 DUP1 REVERT JUMPDEST PUSH1 0x0 DUP2 SWAP1 POP SWAP2 SWAP1 POP JUMP JUMPDEST PUSH2 0x6A1 DUP2 PUSH2 0x68E JUMP JUMPDEST DUP2 EQ PUSH2 0x6AC JUMPI PUSH1 0x0 DUP1 REVERT JUMPDEST POP JUMP JUMPDEST PUSH1 0x0 DUP2 CALLDATALOAD SWAP1 POP PUSH2 0x6BE DUP2 PUSH2 0x698 JUMP JUMPDEST SWAP3 SWAP2 POP POP JUMP JUMPDEST PUSH1 0x0 PUSH1 0x20 DUP3 DUP5 SUB SLT ISZERO PUSH2 0x6DA JUMPI PUSH2 0x6D9 PUSH2 0x689 JUMP JUMPDEST JUMPDEST PUSH1 0x0 PUSH2 0x6E8 DUP5 DUP3 DUP6 ADD PUSH2 0x6AF JUMP JUMPDEST SWAP2 POP POP SWAP3 SWAP2 POP POP JUMP JUMPDEST PUSH1 0x0 DUP2 SWAP1 POP SWAP2 SWAP1 POP JUMP JUMPDEST PUSH2 0x704 DUP2 PUSH2 0x6F1 JUMP JUMPDEST DUP2 EQ PUSH2 0x70F JUMPI PUSH1 0x0 DUP1 REVERT JUMPDEST POP JUMP JUMPDEST PUSH1 0x0 DUP2 CALLDATALOAD SWAP1 POP PUSH2 0x721 DUP2 PUSH2 0x6FB JUMP JUMPDEST SWAP3 SWAP2 POP POP JUMP JUMPDEST PUSH1 0x0 PUSH1 0x20 DUP3 DUP5 SUB SLT ISZERO PUSH2 0x73D JUMPI PUSH2 0x73C PUSH2 0x689 JUMP JUMPDEST JUMPDEST PUSH1 0x0 PUSH2 0x74B DUP5 DUP3 DUP6 ADD PUSH2 0x712 JUMP JUMPDEST SWAP2 POP POP SWAP3 SWAP2 POP POP JUMP JUMPDEST PUSH2 0x75D DUP2 PUSH2 0x6F1 JUMP JUMPDEST DUP3 MSTORE POP POP JUMP JUMPDEST PUSH1 0x0 PUSH1 0x20 DUP3 ADD SWAP1 POP PUSH2 0x778 PUSH1 0x0 DUP4 ADD DUP5 PUSH2 0x754 JUMP JUMPDEST SWAP3 SWAP2 POP POP JUMP JUMPDEST PUSH1 0x0 PUSH20 0xFFFFFFFFFFFFFFFFFFFFFFFFFFFFFFFFFFFFFFFF DUP3 AND SWAP1 POP SWAP2 SWAP1 POP JUMP JUMPDEST PUSH1 0x0 PUSH2 0x7A9 DUP3 PUSH2 0x77E JUMP JUMPDEST SWAP1 POP SWAP2 SWAP1 POP JUMP JUMPDEST PUSH2 0x7B9 DUP2 PUSH2 0x79E JUMP JUMPDEST DUP3 MSTORE POP POP JUMP JUMPDEST PUSH1 0x0 PUSH1 0x20 DUP3 ADD SWAP1 POP PUSH2 0x7D4 PUSH1 0x0 DUP4 ADD DUP5 PUSH2 0x7B0 JUMP JUMPDEST SWAP3 SWAP2 POP POP JUMP JUMPDEST PUSH1 0x0 DUP2 ISZERO ISZERO SWAP1 POP SWAP2 SWAP1 POP JUMP JUMPDEST PUSH2 0x7EF DUP2 PUSH2 0x7DA JUMP JUMPDEST DUP3 MSTORE POP POP JUMP JUMPDEST PUSH1 0x0 PUSH1 0x20 DUP3 ADD SWAP1 POP PUSH2 0x80A PUSH1 0x0 DUP4 ADD DUP5 PUSH2 0x7E6 JUMP JUMPDEST SWAP3 SWAP2 POP POP JUMP JUMPDEST PUSH2 0x819 DUP2 PUSH2 0x68E JUMP JUMPDEST DUP3 MSTORE POP POP JUMP JUMPDEST PUSH1 0x0 PUSH1 0x20 DUP3 ADD SWAP1 POP PUSH2 0x834 PUSH1 0x0 DUP4 ADD DUP5 PUSH2 0x810 JUMP JUMPDEST SWAP3 SWAP2 POP POP JUMP JUMPDEST PUSH1 0x0 PUSH2 0x845 DUP3 PUSH2 0x77E JUMP JUMPDEST SWAP1 POP SWAP2 SWAP1 POP JUMP JUMPDEST PUSH2 0x855 DUP2 PUSH2 0x83A JUMP JUMPDEST DUP2 EQ PUSH2 0x860 JUMPI PUSH1 0x0 DUP1 REVERT JUMPDEST POP JUMP JUMPDEST PUSH1 0x0 DUP2 CALLDATALOAD SWAP1 POP PUSH2 0x872 DUP2 PUSH2 0x84C JUMP JUMPDEST SWAP3 SWAP2 POP POP JUMP JUMPDEST PUSH1 0x0 PUSH1 0x20 DUP3 DUP5 SUB SLT ISZERO PUSH2 0x88E JUMPI PUSH2 0x88D PUSH2 0x689 JUMP JUMPDEST JUMPDEST PUSH1 0x0 PUSH2 0x89C DUP5 DUP3 DUP6 ADD PUSH2 0x863 JUMP JUMPDEST SWAP2 POP POP SWAP3 SWAP2 POP POP JUMP JUMPDEST PUSH1 0x0 DUP3 DUP3 MSTORE PUSH1 0x20 DUP3 ADD SWAP1 POP SWAP3 SWAP2 POP POP JUMP JUMPDEST PUSH32 0x41756374696F6E2068617320656E646564000000000000000000000000000000 PUSH1 0x0 DUP3 ADD MSTORE POP JUMP JUMPDEST PUSH1 0x0 PUSH2 0x8EC PUSH1 0x11 DUP4 PUSH2 0x8A5 JUMP JUMPDEST SWAP2 POP PUSH2 0x8F7 DUP3 PUSH2 0x8B6 JUMP JUMPDEST PUSH1 0x20 DUP3 ADD SWAP1 POP SWAP2 SWAP1 POP JUMP JUMPDEST PUSH1 0x0 PUSH1 0x20 DUP3 ADD SWAP1 POP DUP2 DUP2 SUB PUSH1 0x0 DUP4 ADD MSTORE PUSH2 0x91B DUP2 PUSH2 0x8DF JUMP JUMPDEST SWAP1 POP SWAP2 SWAP1 POP JUMP JUMPDEST PUSH32 0x416C7265616479207375626D6974746564206120626964000000000000000000 PUSH1 0x0 DUP3 ADD MSTORE POP JUMP JUMPDEST PUSH1 0x0 PUSH2 0x958 PUSH1 0x17 DUP4 PUSH2 0x8A5 JUMP JUMPDEST SWAP2 POP PUSH2 0x963 DUP3 PUSH2 0x922 JUMP JUMPDEST PUSH1 0x20 DUP3 ADD SWAP1 POP SWAP2 SWAP1 POP JUMP JUMPDEST PUSH1 0x0 PUSH1 0x20 DUP3 ADD SWAP1 POP DUP2 DUP2 SUB PUSH1 0x0 DUP4 ADD MSTORE PUSH2 0x987 DUP2 PUSH2 0x94B JUMP JUMPDEST SWAP1 POP SWAP2 SWAP1 POP JUMP JUMPDEST PUSH32 0x41756374696F6E20686173206E6F7420656E6465642079657400000000000000 PUSH1 0x0 DUP3 ADD MSTORE POP JUMP JUMPDEST PUSH1 0x0 PUSH2 0x9C4 PUSH1 0x19 DUP4 PUSH2 0x8A5 JUMP JUMPDEST SWAP2 POP PUSH2 0x9CF DUP3 PUSH2 0x98E JUMP JUMPDEST PUSH1 0x20 DUP3 ADD SWAP1 POP SWAP2 SWAP1 POP JUMP JUMPDEST PUSH1 0x0 PUSH1 0x20 DUP3 ADD SWAP1 POP DUP2 DUP2 SUB PUSH1 0x0 DUP4 ADD MSTORE PUSH2 0x9F3 DUP2 PUSH2 0x9B7 JUMP JUMPDEST SWAP1 POP SWAP2 SWAP1 POP JUMP JUMPDEST PUSH32 0x596F7520617265206E6F74207468652068696768657374206269646465720000 PUSH1 0x0 DUP3 ADD MSTORE POP JUMP JUMPDEST PUSH1 0x0 PUSH2 0xA30 PUSH1 0x1E DUP4 PUSH2 0x8A5 JUMP JUMPDEST SWAP2 POP PUSH2 0xA3B DUP3 PUSH2 0x9FA JUMP JUMPDEST PUSH1 0x20 DUP3 ADD SWAP1 POP SWAP2 SWAP1 POP JUMP JUMPDEST PUSH1 0x0 PUSH1 0x20 DUP3 ADD SWAP1 POP DUP2 DUP2 SUB PUSH1 0x0 DUP4 ADD MSTORE PUSH2 0xA5F DUP2 PUSH2 0xA23 JUMP JUMPDEST SWAP1 POP SWAP2 SWAP1 POP JUMP JUMPDEST PUSH32 0x5061796D656E7420616C7265616479206D616465000000000000000000000000 PUSH1 0x0 DUP3 ADD MSTORE POP JUMP JUMPDEST PUSH1 0x0 PUSH2 0xA9C PUSH1 0x14 DUP4 PUSH2 0x8A5 JUMP JUMPDEST SWAP2 POP PUSH2 0xAA7 DUP3 PUSH2 0xA66 JUMP JUMPDEST PUSH1 0x20 DUP3 ADD SWAP1 POP SWAP2 SWAP1 POP JUMP JUMPDEST PUSH1 0x0 PUSH1 0x20 DUP3 ADD SWAP1 POP DUP2 DUP2 SUB PUSH1 0x0 DUP4 ADD MSTORE PUSH2 0xACB DUP2 PUSH2 0xA8F JUMP JUMPDEST SWAP1 POP SWAP2 SWAP1 POP JUMP JUMPDEST PUSH32 0x4E6F20626964207375626D697474656400000000000000000000000000000000 PUSH1 0x0 DUP3 ADD MSTORE POP JUMP JUMPDEST PUSH1 0x0 PUSH2 0xB08 PUSH1 0x10 DUP4 PUSH2 0x8A5 JUMP JUMPDEST SWAP2 POP PUSH2 0xB13 DUP3 PUSH2 0xAD2 JUMP JUMPDEST PUSH1 0x20 DUP3 ADD SWAP1 POP SWAP2 SWAP1 POP JUMP JUMPDEST PUSH1 0x0 PUSH1 0x20 DUP3 ADD SWAP1 POP DUP2 DUP2 SUB PUSH1 0x0 DUP4 ADD MSTORE PUSH2 0xB37 DUP2 PUSH2 0xAFB JUMP JUMPDEST SWAP1 POP SWAP2 SWAP1 POP JUMP JUMPDEST PUSH1 0x0 DUP2 SWAP1 POP SWAP2 SWAP1 POP JUMP JUMPDEST PUSH2 0xB59 PUSH2 0xB54 DUP3 PUSH2 0x6F1 JUMP JUMPDEST PUSH2 0xB3E JUMP JUMPDEST DUP3 MSTORE POP POP JUMP JUMPDEST PUSH1 0x0 PUSH2 0xB6B DUP3 DUP5 PUSH2 0xB48 JUMP JUMPDEST PUSH1 0x20 DUP3 ADD SWAP2 POP DUP2 SWAP1 POP SWAP3 SWAP2 POP POP JUMP JUMPDEST PUSH32 0x41637475616C2062696420646F6573206E6F74206D6174636820686173686564 PUSH1 0x0 DUP3 ADD MSTORE PUSH32 0x2062696400000000000000000000000000000000000000000000000000000000 PUSH1 0x20 DUP3 ADD MSTORE POP JUMP JUMPDEST PUSH1 0x0 PUSH2 0xBD6 PUSH1 0x24 DUP4 PUSH2 0x8A5 JUMP JUMPDEST SWAP2 POP PUSH2 0xBE1 DUP3 PUSH2 0xB7A JUMP JUMPDEST PUSH1 0x40 DUP3 ADD SWAP1 POP SWAP2 SWAP1 POP JUMP JUMPDEST PUSH1 0x0 PUSH1 0x20 DUP3 ADD SWAP1 POP DUP2 DUP2 SUB PUSH1 0x0 DUP4 ADD MSTORE PUSH2 0xC05 DUP2 PUSH2 0xBC9 JUMP JUMPDEST SWAP1 POP SWAP2 SWAP1 POP JUMP INVALID LOG2 PUSH5 0x6970667358 0x22 SLT KECCAK256 0xA7 PUSH26 0x199176FC90752C8405EE9BFEE135A2E93ADE0CF028581F080A1A JUMP POP SUB 0x27 PUSH5 0x736F6C6343 STOP ADDMOD GT STOP CALLER "
				},
				"gasEstimates": {
					"creation": {
						"codeDepositCost": "627600",
						"executionCost": "infinite",
						"totalCost": "infinite"
					},
					"external": {
						"auctionEndTime()": "2496",
						"auctionOwner()": "2555",
						"hasPaid()": "2543",
						"hashedBids(address)": "2902",
						"highestBid()": "2495",
						"highestBidder()": "2514",
						"pay()": "infinite",
						"revealBid(uint256)": "infinite",
						"submitBid(bytes32)": "26953"
					}
				},
				"methodIdentifiers": {
					"auctionEndTime()": "4b449cba",
					"auctionOwner()": "d3924aaf",
					"hasPaid()": "c810af81",
					"hashedBids(address)": "f4c45373",
					"highestBid()": "d57bde79",
					"highestBidder()": "91f90157",
					"pay()": "1b9265b8",
					"revealBid(uint256)": "3e3b903e",
					"submitBid(bytes32)": "1b3fa800"
				}
			},
			"storageLayout": {
				"storage": [
					{
						"astId": 3,
						"contract": "SealedBidAuction.sol:SealedBidAuction",
						"label": "auctionOwner",
						"offset": 0,
						"slot": "0",
						"type": "t_address_payable"
					},
					{
						"astId": 5,
						"contract": "SealedBidAuction.sol:SealedBidAuction",
						"label": "auctionEndTime",
						"offset": 0,
						"slot": "1",
						"type": "t_uint256"
					},
					{
						"astId": 7,
						"contract": "SealedBidAuction.sol:SealedBidAuction",
						"label": "highestBid",
						"offset": 0,
						"slot": "2",
						"type": "t_bytes32"
					},
					{
						"astId": 9,
						"contract": "SealedBidAuction.sol:SealedBidAuction",
						"label": "highestBidder",
						"offset": 0,
						"slot": "3",
						"type": "t_address_payable"
					},
					{
						"astId": 11,
						"contract": "SealedBidAuction.sol:SealedBidAuction",
						"label": "hasPaid",
						"offset": 20,
						"slot": "3",
						"type": "t_bool"
					},
					{
						"astId": 15,
						"contract": "SealedBidAuction.sol:SealedBidAuction",
						"label": "hashedBids",
						"offset": 0,
						"slot": "4",
						"type": "t_mapping(t_address,t_bytes32)"
					}
				],
				"types": {
					"t_address": {
						"encoding": "inplace",
						"label": "address",
						"numberOfBytes": "20"
					},
					"t_address_payable": {
						"encoding": "inplace",
						"label": "address payable",
						"numberOfBytes": "20"
					},
					"t_bool": {
						"encoding": "inplace",
						"label": "bool",
						"numberOfBytes": "1"
					},
					"t_bytes32": {
						"encoding": "inplace",
						"label": "bytes32",
						"numberOfBytes": "32"
					},
					"t_mapping(t_address,t_bytes32)": {
						"encoding": "mapping",
						"key": "t_address",
						"label": "mapping(address => bytes32)",
						"numberOfBytes": "32",
						"value": "t_bytes32"
					},
					"t_uint256": {
						"encoding": "inplace",
						"label": "uint256",
						"numberOfBytes": "32"
					}
				}
			},
			"userdoc": {
				"kind": "user",
				"methods": {},
				"version": 1
			}
		}
	}
}