{
	"descendingAuction.sol": {
		"DescendingAuction": {
			"abi": [
				{
					"inputs": [
						{
							"internalType": "uint256",
							"name": "ceilingPrice",
							"type": "uint256"
						},
						{
							"internalType": "uint256",
							"name": "decrementValue",
							"type": "uint256"
						}
					],
					"stateMutability": "nonpayable",
					"type": "constructor"
				},
				{
					"anonymous": false,
					"inputs": [
						{
							"indexed": false,
							"internalType": "address",
							"name": "winner",
							"type": "address"
						},
						{
							"indexed": false,
							"internalType": "uint256",
							"name": "amount",
							"type": "uint256"
						}
					],
					"name": "AuctionEnded",
					"type": "event"
				},
				{
					"anonymous": false,
					"inputs": [
						{
							"indexed": false,
							"internalType": "uint256",
							"name": "ceilingPrice",
							"type": "uint256"
						}
					],
					"name": "AuctionStarted",
					"type": "event"
				},
				{
					"anonymous": false,
					"inputs": [
						{
							"indexed": false,
							"internalType": "uint256",
							"name": "newPrice",
							"type": "uint256"
						}
					],
					"name": "PriceLowered",
					"type": "event"
				},
				{
					"inputs": [],
					"name": "auctionOwner",
					"outputs": [
						{
							"internalType": "address payable",
							"name": "",
							"type": "address"
						}
					],
					"stateMutability": "view",
					"type": "function"
				},
				{
					"inputs": [],
					"name": "bid",
					"outputs": [],
					"stateMutability": "payable",
					"type": "function"
				},
				{
					"inputs": [],
					"name": "currentPrice",
					"outputs": [
						{
							"internalType": "uint256",
							"name": "",
							"type": "uint256"
						}
					],
					"stateMutability": "view",
					"type": "function"
				},
				{
					"inputs": [],
					"name": "decrement",
					"outputs": [
						{
							"internalType": "uint256",
							"name": "",
							"type": "uint256"
						}
					],
					"stateMutability": "view",
					"type": "function"
				},
				{
					"inputs": [],
					"name": "lowerPrice",
					"outputs": [],
					"stateMutability": "nonpayable",
					"type": "function"
				},
				{
					"inputs": [],
					"name": "winner",
					"outputs": [
						{
							"internalType": "address payable",
							"name": "",
							"type": "address"
						}
					],
					"stateMutability": "view",
					"type": "function"
				}
			],
			"devdoc": {
				"kind": "dev",
				"methods": {},
				"version": 1
			},
			"evm": {
				"assembly": "    /* \"descendingAuction.sol\":57:1173  contract DescendingAuction {... */\n  mstore(0x40, 0x80)\n    /* \"descendingAuction.sol\":367:586  constructor(uint ceilingPrice, uint decrementValue) {... */\n  callvalue\n  dup1\n  iszero\n  tag_1\n  jumpi\n  0x00\n  dup1\n  revert\ntag_1:\n  pop\n  mload(0x40)\n  sub(codesize, bytecodeSize)\n  dup1\n  bytecodeSize\n  dup4\n  codecopy\n  dup2\n  dup2\n  add\n  0x40\n  mstore\n  dup2\n  add\n  swap1\n  tag_2\n  swap2\n  swap1\n  tag_3\n  jump\t// in\ntag_2:\n    /* \"descendingAuction.sol\":452:462  msg.sender */\n  caller\n    /* \"descendingAuction.sol\":429:441  auctionOwner */\n  0x00\n  dup1\n    /* \"descendingAuction.sol\":429:463  auctionOwner = payable(msg.sender) */\n  0x0100\n  exp\n  dup2\n  sload\n  dup2\n  0xffffffffffffffffffffffffffffffffffffffff\n  mul\n  not\n  and\n  swap1\n  dup4\n  0xffffffffffffffffffffffffffffffffffffffff\n  and\n  mul\n  or\n  swap1\n  sstore\n  pop\n    /* \"descendingAuction.sol\":488:500  ceilingPrice */\n  dup2\n    /* \"descendingAuction.sol\":473:485  currentPrice */\n  0x01\n    /* \"descendingAuction.sol\":473:500  currentPrice = ceilingPrice */\n  dup2\n  swap1\n  sstore\n  pop\n    /* \"descendingAuction.sol\":522:536  decrementValue */\n  dup1\n    /* \"descendingAuction.sol\":510:519  decrement */\n  0x03\n    /* \"descendingAuction.sol\":510:536  decrement = decrementValue */\n  dup2\n  swap1\n  sstore\n  pop\n    /* \"descendingAuction.sol\":551:579  AuctionStarted(currentPrice) */\n  0x1bb96dff6ab5005aff98cdc0cf176bb7d8e0423cb48e02217d35b042cec81e9f\n    /* \"descendingAuction.sol\":566:578  currentPrice */\n  sload(0x01)\n    /* \"descendingAuction.sol\":551:579  AuctionStarted(currentPrice) */\n  mload(0x40)\n  tag_6\n  swap2\n  swap1\n  tag_7\n  jump\t// in\ntag_6:\n  mload(0x40)\n  dup1\n  swap2\n  sub\n  swap1\n  log1\n    /* \"descendingAuction.sol\":367:586  constructor(uint ceilingPrice, uint decrementValue) {... */\n  pop\n  pop\n    /* \"descendingAuction.sol\":57:1173  contract DescendingAuction {... */\n  jump(tag_8)\n    /* \"#utility.yul\":88:205   */\ntag_10:\n    /* \"#utility.yul\":197:198   */\n  0x00\n    /* \"#utility.yul\":194:195   */\n  dup1\n    /* \"#utility.yul\":187:199   */\n  revert\n    /* \"#utility.yul\":334:411   */\ntag_12:\n    /* \"#utility.yul\":371:378   */\n  0x00\n    /* \"#utility.yul\":400:405   */\n  dup2\n    /* \"#utility.yul\":389:405   */\n  swap1\n  pop\n    /* \"#utility.yul\":334:411   */\n  swap2\n  swap1\n  pop\n  jump\t// out\n    /* \"#utility.yul\":417:539   */\ntag_13:\n    /* \"#utility.yul\":490:514   */\n  tag_22\n    /* \"#utility.yul\":508:513   */\n  dup2\n    /* \"#utility.yul\":490:514   */\n  tag_12\n  jump\t// in\ntag_22:\n    /* \"#utility.yul\":483:488   */\n  dup2\n    /* \"#utility.yul\":480:515   */\n  eq\n    /* \"#utility.yul\":470:533   */\n  tag_23\n  jumpi\n    /* \"#utility.yul\":529:530   */\n  0x00\n    /* \"#utility.yul\":526:527   */\n  dup1\n    /* \"#utility.yul\":519:531   */\n  revert\n    /* \"#utility.yul\":470:533   */\ntag_23:\n    /* \"#utility.yul\":417:539   */\n  pop\n  jump\t// out\n    /* \"#utility.yul\":545:688   */\ntag_14:\n    /* \"#utility.yul\":602:607   */\n  0x00\n    /* \"#utility.yul\":633:639   */\n  dup2\n    /* \"#utility.yul\":627:640   */\n  mload\n    /* \"#utility.yul\":618:640   */\n  swap1\n  pop\n    /* \"#utility.yul\":649:682   */\n  tag_25\n    /* \"#utility.yul\":676:681   */\n  dup2\n    /* \"#utility.yul\":649:682   */\n  tag_13\n  jump\t// in\ntag_25:\n    /* \"#utility.yul\":545:688   */\n  swap3\n  swap2\n  pop\n  pop\n  jump\t// out\n    /* \"#utility.yul\":694:1201   */\ntag_3:\n    /* \"#utility.yul\":773:779   */\n  0x00\n    /* \"#utility.yul\":781:787   */\n  dup1\n    /* \"#utility.yul\":830:832   */\n  0x40\n    /* \"#utility.yul\":818:827   */\n  dup4\n    /* \"#utility.yul\":809:816   */\n  dup6\n    /* \"#utility.yul\":805:828   */\n  sub\n    /* \"#utility.yul\":801:833   */\n  slt\n    /* \"#utility.yul\":798:917   */\n  iszero\n  tag_27\n  jumpi\n    /* \"#utility.yul\":836:915   */\n  tag_28\n  tag_10\n  jump\t// in\ntag_28:\n    /* \"#utility.yul\":798:917   */\ntag_27:\n    /* \"#utility.yul\":956:957   */\n  0x00\n    /* \"#utility.yul\":981:1045   */\n  tag_29\n    /* \"#utility.yul\":1037:1044   */\n  dup6\n    /* \"#utility.yul\":1028:1034   */\n  dup3\n    /* \"#utility.yul\":1017:1026   */\n  dup7\n    /* \"#utility.yul\":1013:1035   */\n  add\n    /* \"#utility.yul\":981:1045   */\n  tag_14\n  jump\t// in\ntag_29:\n    /* \"#utility.yul\":971:1045   */\n  swap3\n  pop\n    /* \"#utility.yul\":927:1055   */\n  pop\n    /* \"#utility.yul\":1094:1096   */\n  0x20\n    /* \"#utility.yul\":1120:1184   */\n  tag_30\n    /* \"#utility.yul\":1176:1183   */\n  dup6\n    /* \"#utility.yul\":1167:1173   */\n  dup3\n    /* \"#utility.yul\":1156:1165   */\n  dup7\n    /* \"#utility.yul\":1152:1174   */\n  add\n    /* \"#utility.yul\":1120:1184   */\n  tag_14\n  jump\t// in\ntag_30:\n    /* \"#utility.yul\":1110:1184   */\n  swap2\n  pop\n    /* \"#utility.yul\":1065:1194   */\n  pop\n    /* \"#utility.yul\":694:1201   */\n  swap3\n  pop\n  swap3\n  swap1\n  pop\n  jump\t// out\n    /* \"#utility.yul\":1207:1325   */\ntag_15:\n    /* \"#utility.yul\":1294:1318   */\n  tag_32\n    /* \"#utility.yul\":1312:1317   */\n  dup2\n    /* \"#utility.yul\":1294:1318   */\n  tag_12\n  jump\t// in\ntag_32:\n    /* \"#utility.yul\":1289:1292   */\n  dup3\n    /* \"#utility.yul\":1282:1319   */\n  mstore\n    /* \"#utility.yul\":1207:1325   */\n  pop\n  pop\n  jump\t// out\n    /* \"#utility.yul\":1331:1553   */\ntag_7:\n    /* \"#utility.yul\":1424:1428   */\n  0x00\n    /* \"#utility.yul\":1462:1464   */\n  0x20\n    /* \"#utility.yul\":1451:1460   */\n  dup3\n    /* \"#utility.yul\":1447:1465   */\n  add\n    /* \"#utility.yul\":1439:1465   */\n  swap1\n  pop\n    /* \"#utility.yul\":1475:1546   */\n  tag_34\n    /* \"#utility.yul\":1543:1544   */\n  0x00\n    /* \"#utility.yul\":1532:1541   */\n  dup4\n    /* \"#utility.yul\":1528:1545   */\n  add\n    /* \"#utility.yul\":1519:1525   */\n  dup5\n    /* \"#utility.yul\":1475:1546   */\n  tag_15\n  jump\t// in\ntag_34:\n    /* \"#utility.yul\":1331:1553   */\n  swap3\n  swap2\n  pop\n  pop\n  jump\t// out\n    /* \"descendingAuction.sol\":57:1173  contract DescendingAuction {... */\ntag_8:\n  dataSize(sub_0)\n  dup1\n  dataOffset(sub_0)\n  0x00\n  codecopy\n  0x00\n  return\nstop\n\nsub_0: assembly {\n        /* \"descendingAuction.sol\":57:1173  contract DescendingAuction {... */\n      mstore(0x40, 0x80)\n      jumpi(tag_1, lt(calldatasize, 0x04))\n      shr(0xe0, calldataload(0x00))\n      dup1\n      0x1998aeef\n      eq\n      tag_2\n      jumpi\n      dup1\n      0x2baeceb7\n      eq\n      tag_3\n      jumpi\n      dup1\n      0x9d1b464a\n      eq\n      tag_4\n      jumpi\n      dup1\n      0xc87c0f79\n      eq\n      tag_5\n      jumpi\n      dup1\n      0xd3924aaf\n      eq\n      tag_6\n      jumpi\n      dup1\n      0xdfbf53ae\n      eq\n      tag_7\n      jumpi\n    tag_1:\n      0x00\n      dup1\n      revert\n        /* \"descendingAuction.sol\":592:834  function bid() public payable {... */\n    tag_2:\n      tag_8\n      tag_9\n      jump\t// in\n    tag_8:\n      stop\n        /* \"descendingAuction.sol\":196:217  uint public decrement */\n    tag_3:\n      callvalue\n      dup1\n      iszero\n      tag_10\n      jumpi\n      0x00\n      dup1\n      revert\n    tag_10:\n      pop\n      tag_11\n      tag_12\n      jump\t// in\n    tag_11:\n      mload(0x40)\n      tag_13\n      swap2\n      swap1\n      tag_14\n      jump\t// in\n    tag_13:\n      mload(0x40)\n      dup1\n      swap2\n      sub\n      swap1\n      return\n        /* \"descendingAuction.sol\":131:155  uint public currentPrice */\n    tag_4:\n      callvalue\n      dup1\n      iszero\n      tag_15\n      jumpi\n      0x00\n      dup1\n      revert\n    tag_15:\n      pop\n      tag_16\n      tag_17\n      jump\t// in\n    tag_16:\n      mload(0x40)\n      tag_18\n      swap2\n      swap1\n      tag_14\n      jump\t// in\n    tag_18:\n      mload(0x40)\n      dup1\n      swap2\n      sub\n      swap1\n      return\n        /* \"descendingAuction.sol\":840:1171  function lowerPrice() public {... */\n    tag_5:\n      callvalue\n      dup1\n      iszero\n      tag_19\n      jumpi\n      0x00\n      dup1\n      revert\n    tag_19:\n      pop\n      tag_20\n      tag_21\n      jump\t// in\n    tag_20:\n      stop\n        /* \"descendingAuction.sol\":90:125  address payable public auctionOwner */\n    tag_6:\n      callvalue\n      dup1\n      iszero\n      tag_22\n      jumpi\n      0x00\n      dup1\n      revert\n    tag_22:\n      pop\n      tag_23\n      tag_24\n      jump\t// in\n    tag_23:\n      mload(0x40)\n      tag_25\n      swap2\n      swap1\n      tag_26\n      jump\t// in\n    tag_25:\n      mload(0x40)\n      dup1\n      swap2\n      sub\n      swap1\n      return\n        /* \"descendingAuction.sol\":161:190  address payable public winner */\n    tag_7:\n      callvalue\n      dup1\n      iszero\n      tag_27\n      jumpi\n      0x00\n      dup1\n      revert\n    tag_27:\n      pop\n      tag_28\n      tag_29\n      jump\t// in\n    tag_28:\n      mload(0x40)\n      tag_30\n      swap2\n      swap1\n      tag_26\n      jump\t// in\n    tag_30:\n      mload(0x40)\n      dup1\n      swap2\n      sub\n      swap1\n      return\n        /* \"descendingAuction.sol\":592:834  function bid() public payable {... */\n    tag_9:\n        /* \"descendingAuction.sol\":653:665  currentPrice */\n      sload(0x01)\n        /* \"descendingAuction.sol\":640:649  msg.value */\n      callvalue\n        /* \"descendingAuction.sol\":640:665  msg.value == currentPrice */\n      eq\n        /* \"descendingAuction.sol\":632:700  require(msg.value == currentPrice, \"You must bid the current price\") */\n      tag_32\n      jumpi\n      mload(0x40)\n      0x08c379a000000000000000000000000000000000000000000000000000000000\n      dup2\n      mstore\n      0x04\n      add\n      tag_33\n      swap1\n      tag_34\n      jump\t// in\n    tag_33:\n      mload(0x40)\n      dup1\n      swap2\n      sub\n      swap1\n      revert\n    tag_32:\n        /* \"descendingAuction.sol\":728:738  msg.sender */\n      caller\n        /* \"descendingAuction.sol\":711:717  winner */\n      0x02\n      0x00\n        /* \"descendingAuction.sol\":711:739  winner = payable(msg.sender) */\n      0x0100\n      exp\n      dup2\n      sload\n      dup2\n      0xffffffffffffffffffffffffffffffffffffffff\n      mul\n      not\n      and\n      swap1\n      dup4\n      0xffffffffffffffffffffffffffffffffffffffff\n      and\n      mul\n      or\n      swap1\n      sstore\n      pop\n        /* \"descendingAuction.sol\":749:761  auctionOwner */\n      0x00\n      dup1\n      sload\n      swap1\n      0x0100\n      exp\n      swap1\n      div\n      0xffffffffffffffffffffffffffffffffffffffff\n      and\n        /* \"descendingAuction.sol\":749:770  auctionOwner.transfer */\n      0xffffffffffffffffffffffffffffffffffffffff\n      and\n        /* \"descendingAuction.sol\":749:781  auctionOwner.transfer(msg.value) */\n      0x08fc\n        /* \"descendingAuction.sol\":771:780  msg.value */\n      callvalue\n        /* \"descendingAuction.sol\":749:781  auctionOwner.transfer(msg.value) */\n      swap1\n      dup2\n      iszero\n      mul\n      swap1\n      mload(0x40)\n      0x00\n      mload(0x40)\n      dup1\n      dup4\n      sub\n      dup2\n      dup6\n      dup9\n      dup9\n      call\n      swap4\n      pop\n      pop\n      pop\n      pop\n      iszero\n      dup1\n      iszero\n      tag_36\n      jumpi\n      returndatasize\n      0x00\n      dup1\n      returndatacopy\n      revert(0x00, returndatasize)\n    tag_36:\n      pop\n        /* \"descendingAuction.sol\":796:827  AuctionEnded(winner, msg.value) */\n      0xdaec4582d5d9595688c8c98545fdd1c696d41c6aeaeb636737e84ed2f5c00eda\n        /* \"descendingAuction.sol\":809:815  winner */\n      0x02\n      0x00\n      swap1\n      sload\n      swap1\n      0x0100\n      exp\n      swap1\n      div\n      0xffffffffffffffffffffffffffffffffffffffff\n      and\n        /* \"descendingAuction.sol\":817:826  msg.value */\n      callvalue\n        /* \"descendingAuction.sol\":796:827  AuctionEnded(winner, msg.value) */\n      mload(0x40)\n      tag_37\n      swap3\n      swap2\n      swap1\n      tag_38\n      jump\t// in\n    tag_37:\n      mload(0x40)\n      dup1\n      swap2\n      sub\n      swap1\n      log1\n        /* \"descendingAuction.sol\":592:834  function bid() public payable {... */\n      jump\t// out\n        /* \"descendingAuction.sol\":196:217  uint public decrement */\n    tag_12:\n      sload(0x03)\n      dup2\n      jump\t// out\n        /* \"descendingAuction.sol\":131:155  uint public currentPrice */\n    tag_17:\n      sload(0x01)\n      dup2\n      jump\t// out\n        /* \"descendingAuction.sol\":840:1171  function lowerPrice() public {... */\n    tag_21:\n        /* \"descendingAuction.sol\":901:913  auctionOwner */\n      0x00\n      dup1\n      sload\n      swap1\n      0x0100\n      exp\n      swap1\n      div\n      0xffffffffffffffffffffffffffffffffffffffff\n      and\n        /* \"descendingAuction.sol\":887:913  msg.sender == auctionOwner */\n      0xffffffffffffffffffffffffffffffffffffffff\n      and\n        /* \"descendingAuction.sol\":887:897  msg.sender */\n      caller\n        /* \"descendingAuction.sol\":887:913  msg.sender == auctionOwner */\n      0xffffffffffffffffffffffffffffffffffffffff\n      and\n      eq\n        /* \"descendingAuction.sol\":879:952  require(msg.sender == auctionOwner, \"Only auction owner can lower price\") */\n      tag_40\n      jumpi\n      mload(0x40)\n      0x08c379a000000000000000000000000000000000000000000000000000000000\n      dup2\n      mstore\n      0x04\n      add\n      tag_41\n      swap1\n      tag_42\n      jump\t// in\n    tag_41:\n      mload(0x40)\n      dup1\n      swap2\n      sub\n      swap1\n      revert\n    tag_40:\n        /* \"descendingAuction.sol\":993:1002  decrement */\n      sload(0x03)\n        /* \"descendingAuction.sol\":978:990  currentPrice */\n      sload(0x01)\n        /* \"descendingAuction.sol\":978:1002  currentPrice - decrement */\n      tag_43\n      swap2\n      swap1\n      tag_44\n      jump\t// in\n    tag_43:\n        /* \"descendingAuction.sol\":963:975  currentPrice */\n      0x01\n        /* \"descendingAuction.sol\":963:1002  currentPrice = currentPrice - decrement */\n      dup2\n      swap1\n      sstore\n      pop\n        /* \"descendingAuction.sol\":1017:1043  PriceLowered(currentPrice) */\n      0x12743d2a1dadeba1b5ca0bee15e7d9dc58e588ae493b5f2027a749d5e2af779e\n        /* \"descendingAuction.sol\":1030:1042  currentPrice */\n      sload(0x01)\n        /* \"descendingAuction.sol\":1017:1043  PriceLowered(currentPrice) */\n      mload(0x40)\n      tag_45\n      swap2\n      swap1\n      tag_14\n      jump\t// in\n    tag_45:\n      mload(0x40)\n      dup1\n      swap2\n      sub\n      swap1\n      log1\n        /* \"descendingAuction.sol\":1074:1075  0 */\n      0x00\n        /* \"descendingAuction.sol\":1058:1070  currentPrice */\n      sload(0x01)\n        /* \"descendingAuction.sol\":1058:1075  currentPrice == 0 */\n      sub\n        /* \"descendingAuction.sol\":1054:1165  if (currentPrice == 0) { // auction ends with no buyers... */\n      tag_46\n      jumpi\n        /* \"descendingAuction.sol\":1127:1154  AuctionEnded(address(0), 0) */\n      0xdaec4582d5d9595688c8c98545fdd1c696d41c6aeaeb636737e84ed2f5c00eda\n        /* \"descendingAuction.sol\":1148:1149  0 */\n      0x00\n        /* \"descendingAuction.sol\":1152:1153  0 */\n      dup1\n        /* \"descendingAuction.sol\":1127:1154  AuctionEnded(address(0), 0) */\n      mload(0x40)\n      tag_47\n      swap3\n      swap2\n      swap1\n      tag_48\n      jump\t// in\n    tag_47:\n      mload(0x40)\n      dup1\n      swap2\n      sub\n      swap1\n      log1\n        /* \"descendingAuction.sol\":1054:1165  if (currentPrice == 0) { // auction ends with no buyers... */\n    tag_46:\n        /* \"descendingAuction.sol\":840:1171  function lowerPrice() public {... */\n      jump\t// out\n        /* \"descendingAuction.sol\":90:125  address payable public auctionOwner */\n    tag_24:\n      0x00\n      dup1\n      sload\n      swap1\n      0x0100\n      exp\n      swap1\n      div\n      0xffffffffffffffffffffffffffffffffffffffff\n      and\n      dup2\n      jump\t// out\n        /* \"descendingAuction.sol\":161:190  address payable public winner */\n    tag_29:\n      0x02\n      0x00\n      swap1\n      sload\n      swap1\n      0x0100\n      exp\n      swap1\n      div\n      0xffffffffffffffffffffffffffffffffffffffff\n      and\n      dup2\n      jump\t// out\n        /* \"#utility.yul\":7:84   */\n    tag_49:\n        /* \"#utility.yul\":44:51   */\n      0x00\n        /* \"#utility.yul\":73:78   */\n      dup2\n        /* \"#utility.yul\":62:78   */\n      swap1\n      pop\n        /* \"#utility.yul\":7:84   */\n      swap2\n      swap1\n      pop\n      jump\t// out\n        /* \"#utility.yul\":90:208   */\n    tag_50:\n        /* \"#utility.yul\":177:201   */\n      tag_73\n        /* \"#utility.yul\":195:200   */\n      dup2\n        /* \"#utility.yul\":177:201   */\n      tag_49\n      jump\t// in\n    tag_73:\n        /* \"#utility.yul\":172:175   */\n      dup3\n        /* \"#utility.yul\":165:202   */\n      mstore\n        /* \"#utility.yul\":90:208   */\n      pop\n      pop\n      jump\t// out\n        /* \"#utility.yul\":214:436   */\n    tag_14:\n        /* \"#utility.yul\":307:311   */\n      0x00\n        /* \"#utility.yul\":345:347   */\n      0x20\n        /* \"#utility.yul\":334:343   */\n      dup3\n        /* \"#utility.yul\":330:348   */\n      add\n        /* \"#utility.yul\":322:348   */\n      swap1\n      pop\n        /* \"#utility.yul\":358:429   */\n      tag_75\n        /* \"#utility.yul\":426:427   */\n      0x00\n        /* \"#utility.yul\":415:424   */\n      dup4\n        /* \"#utility.yul\":411:428   */\n      add\n        /* \"#utility.yul\":402:408   */\n      dup5\n        /* \"#utility.yul\":358:429   */\n      tag_50\n      jump\t// in\n    tag_75:\n        /* \"#utility.yul\":214:436   */\n      swap3\n      swap2\n      pop\n      pop\n      jump\t// out\n        /* \"#utility.yul\":442:568   */\n    tag_51:\n        /* \"#utility.yul\":479:486   */\n      0x00\n        /* \"#utility.yul\":519:561   */\n      0xffffffffffffffffffffffffffffffffffffffff\n        /* \"#utility.yul\":512:517   */\n      dup3\n        /* \"#utility.yul\":508:562   */\n      and\n        /* \"#utility.yul\":497:562   */\n      swap1\n      pop\n        /* \"#utility.yul\":442:568   */\n      swap2\n      swap1\n      pop\n      jump\t// out\n        /* \"#utility.yul\":574:678   */\n    tag_52:\n        /* \"#utility.yul\":619:626   */\n      0x00\n        /* \"#utility.yul\":648:672   */\n      tag_78\n        /* \"#utility.yul\":666:671   */\n      dup3\n        /* \"#utility.yul\":648:672   */\n      tag_51\n      jump\t// in\n    tag_78:\n        /* \"#utility.yul\":637:672   */\n      swap1\n      pop\n        /* \"#utility.yul\":574:678   */\n      swap2\n      swap1\n      pop\n      jump\t// out\n        /* \"#utility.yul\":684:826   */\n    tag_53:\n        /* \"#utility.yul\":787:819   */\n      tag_80\n        /* \"#utility.yul\":813:818   */\n      dup2\n        /* \"#utility.yul\":787:819   */\n      tag_52\n      jump\t// in\n    tag_80:\n        /* \"#utility.yul\":782:785   */\n      dup3\n        /* \"#utility.yul\":775:820   */\n      mstore\n        /* \"#utility.yul\":684:826   */\n      pop\n      pop\n      jump\t// out\n        /* \"#utility.yul\":832:1086   */\n    tag_26:\n        /* \"#utility.yul\":941:945   */\n      0x00\n        /* \"#utility.yul\":979:981   */\n      0x20\n        /* \"#utility.yul\":968:977   */\n      dup3\n        /* \"#utility.yul\":964:982   */\n      add\n        /* \"#utility.yul\":956:982   */\n      swap1\n      pop\n        /* \"#utility.yul\":992:1079   */\n      tag_82\n        /* \"#utility.yul\":1076:1077   */\n      0x00\n        /* \"#utility.yul\":1065:1074   */\n      dup4\n        /* \"#utility.yul\":1061:1078   */\n      add\n        /* \"#utility.yul\":1052:1058   */\n      dup5\n        /* \"#utility.yul\":992:1079   */\n      tag_53\n      jump\t// in\n    tag_82:\n        /* \"#utility.yul\":832:1086   */\n      swap3\n      swap2\n      pop\n      pop\n      jump\t// out\n        /* \"#utility.yul\":1092:1261   */\n    tag_54:\n        /* \"#utility.yul\":1176:1187   */\n      0x00\n        /* \"#utility.yul\":1210:1216   */\n      dup3\n        /* \"#utility.yul\":1205:1208   */\n      dup3\n        /* \"#utility.yul\":1198:1217   */\n      mstore\n        /* \"#utility.yul\":1250:1254   */\n      0x20\n        /* \"#utility.yul\":1245:1248   */\n      dup3\n        /* \"#utility.yul\":1241:1255   */\n      add\n        /* \"#utility.yul\":1226:1255   */\n      swap1\n      pop\n        /* \"#utility.yul\":1092:1261   */\n      swap3\n      swap2\n      pop\n      pop\n      jump\t// out\n        /* \"#utility.yul\":1267:1447   */\n    tag_55:\n        /* \"#utility.yul\":1407:1439   */\n      0x596f75206d75737420626964207468652063757272656e742070726963650000\n        /* \"#utility.yul\":1403:1404   */\n      0x00\n        /* \"#utility.yul\":1395:1401   */\n      dup3\n        /* \"#utility.yul\":1391:1405   */\n      add\n        /* \"#utility.yul\":1384:1440   */\n      mstore\n        /* \"#utility.yul\":1267:1447   */\n      pop\n      jump\t// out\n        /* \"#utility.yul\":1453:1819   */\n    tag_56:\n        /* \"#utility.yul\":1595:1598   */\n      0x00\n        /* \"#utility.yul\":1616:1683   */\n      tag_86\n        /* \"#utility.yul\":1680:1682   */\n      0x1e\n        /* \"#utility.yul\":1675:1678   */\n      dup4\n        /* \"#utility.yul\":1616:1683   */\n      tag_54\n      jump\t// in\n    tag_86:\n        /* \"#utility.yul\":1609:1683   */\n      swap2\n      pop\n        /* \"#utility.yul\":1692:1785   */\n      tag_87\n        /* \"#utility.yul\":1781:1784   */\n      dup3\n        /* \"#utility.yul\":1692:1785   */\n      tag_55\n      jump\t// in\n    tag_87:\n        /* \"#utility.yul\":1810:1812   */\n      0x20\n        /* \"#utility.yul\":1805:1808   */\n      dup3\n        /* \"#utility.yul\":1801:1813   */\n      add\n        /* \"#utility.yul\":1794:1813   */\n      swap1\n      pop\n        /* \"#utility.yul\":1453:1819   */\n      swap2\n      swap1\n      pop\n      jump\t// out\n        /* \"#utility.yul\":1825:2244   */\n    tag_34:\n        /* \"#utility.yul\":1991:1995   */\n      0x00\n        /* \"#utility.yul\":2029:2031   */\n      0x20\n        /* \"#utility.yul\":2018:2027   */\n      dup3\n        /* \"#utility.yul\":2014:2032   */\n      add\n        /* \"#utility.yul\":2006:2032   */\n      swap1\n      pop\n        /* \"#utility.yul\":2078:2087   */\n      dup2\n        /* \"#utility.yul\":2072:2076   */\n      dup2\n        /* \"#utility.yul\":2068:2088   */\n      sub\n        /* \"#utility.yul\":2064:2065   */\n      0x00\n        /* \"#utility.yul\":2053:2062   */\n      dup4\n        /* \"#utility.yul\":2049:2066   */\n      add\n        /* \"#utility.yul\":2042:2089   */\n      mstore\n        /* \"#utility.yul\":2106:2237   */\n      tag_89\n        /* \"#utility.yul\":2232:2236   */\n      dup2\n        /* \"#utility.yul\":2106:2237   */\n      tag_56\n      jump\t// in\n    tag_89:\n        /* \"#utility.yul\":2098:2237   */\n      swap1\n      pop\n        /* \"#utility.yul\":1825:2244   */\n      swap2\n      swap1\n      pop\n      jump\t// out\n        /* \"#utility.yul\":2250:2310   */\n    tag_57:\n        /* \"#utility.yul\":2278:2281   */\n      0x00\n        /* \"#utility.yul\":2299:2304   */\n      dup2\n        /* \"#utility.yul\":2292:2304   */\n      swap1\n      pop\n        /* \"#utility.yul\":2250:2310   */\n      swap2\n      swap1\n      pop\n      jump\t// out\n        /* \"#utility.yul\":2316:2458   */\n    tag_58:\n        /* \"#utility.yul\":2366:2375   */\n      0x00\n        /* \"#utility.yul\":2399:2452   */\n      tag_92\n        /* \"#utility.yul\":2417:2451   */\n      tag_93\n        /* \"#utility.yul\":2426:2450   */\n      tag_94\n        /* \"#utility.yul\":2444:2449   */\n      dup5\n        /* \"#utility.yul\":2426:2450   */\n      tag_51\n      jump\t// in\n    tag_94:\n        /* \"#utility.yul\":2417:2451   */\n      tag_57\n      jump\t// in\n    tag_93:\n        /* \"#utility.yul\":2399:2452   */\n      tag_51\n      jump\t// in\n    tag_92:\n        /* \"#utility.yul\":2386:2452   */\n      swap1\n      pop\n        /* \"#utility.yul\":2316:2458   */\n      swap2\n      swap1\n      pop\n      jump\t// out\n        /* \"#utility.yul\":2464:2590   */\n    tag_59:\n        /* \"#utility.yul\":2514:2523   */\n      0x00\n        /* \"#utility.yul\":2547:2584   */\n      tag_96\n        /* \"#utility.yul\":2578:2583   */\n      dup3\n        /* \"#utility.yul\":2547:2584   */\n      tag_58\n      jump\t// in\n    tag_96:\n        /* \"#utility.yul\":2534:2584   */\n      swap1\n      pop\n        /* \"#utility.yul\":2464:2590   */\n      swap2\n      swap1\n      pop\n      jump\t// out\n        /* \"#utility.yul\":2596:2730   */\n    tag_60:\n        /* \"#utility.yul\":2654:2663   */\n      0x00\n        /* \"#utility.yul\":2687:2724   */\n      tag_98\n        /* \"#utility.yul\":2718:2723   */\n      dup3\n        /* \"#utility.yul\":2687:2724   */\n      tag_59\n      jump\t// in\n    tag_98:\n        /* \"#utility.yul\":2674:2724   */\n      swap1\n      pop\n        /* \"#utility.yul\":2596:2730   */\n      swap2\n      swap1\n      pop\n      jump\t// out\n        /* \"#utility.yul\":2736:2883   */\n    tag_61:\n        /* \"#utility.yul\":2831:2876   */\n      tag_100\n        /* \"#utility.yul\":2870:2875   */\n      dup2\n        /* \"#utility.yul\":2831:2876   */\n      tag_60\n      jump\t// in\n    tag_100:\n        /* \"#utility.yul\":2826:2829   */\n      dup3\n        /* \"#utility.yul\":2819:2877   */\n      mstore\n        /* \"#utility.yul\":2736:2883   */\n      pop\n      pop\n      jump\t// out\n        /* \"#utility.yul\":2889:3237   */\n    tag_38:\n        /* \"#utility.yul\":3018:3022   */\n      0x00\n        /* \"#utility.yul\":3056:3058   */\n      0x40\n        /* \"#utility.yul\":3045:3054   */\n      dup3\n        /* \"#utility.yul\":3041:3059   */\n      add\n        /* \"#utility.yul\":3033:3059   */\n      swap1\n      pop\n        /* \"#utility.yul\":3069:3148   */\n      tag_102\n        /* \"#utility.yul\":3145:3146   */\n      0x00\n        /* \"#utility.yul\":3134:3143   */\n      dup4\n        /* \"#utility.yul\":3130:3147   */\n      add\n        /* \"#utility.yul\":3121:3127   */\n      dup6\n        /* \"#utility.yul\":3069:3148   */\n      tag_61\n      jump\t// in\n    tag_102:\n        /* \"#utility.yul\":3158:3230   */\n      tag_103\n        /* \"#utility.yul\":3226:3228   */\n      0x20\n        /* \"#utility.yul\":3215:3224   */\n      dup4\n        /* \"#utility.yul\":3211:3229   */\n      add\n        /* \"#utility.yul\":3202:3208   */\n      dup5\n        /* \"#utility.yul\":3158:3230   */\n      tag_50\n      jump\t// in\n    tag_103:\n        /* \"#utility.yul\":2889:3237   */\n      swap4\n      swap3\n      pop\n      pop\n      pop\n      jump\t// out\n        /* \"#utility.yul\":3243:3464   */\n    tag_62:\n        /* \"#utility.yul\":3383:3417   */\n      0x4f6e6c792061756374696f6e206f776e65722063616e206c6f77657220707269\n        /* \"#utility.yul\":3379:3380   */\n      0x00\n        /* \"#utility.yul\":3371:3377   */\n      dup3\n        /* \"#utility.yul\":3367:3381   */\n      add\n        /* \"#utility.yul\":3360:3418   */\n      mstore\n        /* \"#utility.yul\":3452:3456   */\n      0x6365000000000000000000000000000000000000000000000000000000000000\n        /* \"#utility.yul\":3447:3449   */\n      0x20\n        /* \"#utility.yul\":3439:3445   */\n      dup3\n        /* \"#utility.yul\":3435:3450   */\n      add\n        /* \"#utility.yul\":3428:3457   */\n      mstore\n        /* \"#utility.yul\":3243:3464   */\n      pop\n      jump\t// out\n        /* \"#utility.yul\":3470:3836   */\n    tag_63:\n        /* \"#utility.yul\":3612:3615   */\n      0x00\n        /* \"#utility.yul\":3633:3700   */\n      tag_106\n        /* \"#utility.yul\":3697:3699   */\n      0x22\n        /* \"#utility.yul\":3692:3695   */\n      dup4\n        /* \"#utility.yul\":3633:3700   */\n      tag_54\n      jump\t// in\n    tag_106:\n        /* \"#utility.yul\":3626:3700   */\n      swap2\n      pop\n        /* \"#utility.yul\":3709:3802   */\n      tag_107\n        /* \"#utility.yul\":3798:3801   */\n      dup3\n        /* \"#utility.yul\":3709:3802   */\n      tag_62\n      jump\t// in\n    tag_107:\n        /* \"#utility.yul\":3827:3829   */\n      0x40\n        /* \"#utility.yul\":3822:3825   */\n      dup3\n        /* \"#utility.yul\":3818:3830   */\n      add\n        /* \"#utility.yul\":3811:3830   */\n      swap1\n      pop\n        /* \"#utility.yul\":3470:3836   */\n      swap2\n      swap1\n      pop\n      jump\t// out\n        /* \"#utility.yul\":3842:4261   */\n    tag_42:\n        /* \"#utility.yul\":4008:4012   */\n      0x00\n        /* \"#utility.yul\":4046:4048   */\n      0x20\n        /* \"#utility.yul\":4035:4044   */\n      dup3\n        /* \"#utility.yul\":4031:4049   */\n      add\n        /* \"#utility.yul\":4023:4049   */\n      swap1\n      pop\n        /* \"#utility.yul\":4095:4104   */\n      dup2\n        /* \"#utility.yul\":4089:4093   */\n      dup2\n        /* \"#utility.yul\":4085:4105   */\n      sub\n        /* \"#utility.yul\":4081:4082   */\n      0x00\n        /* \"#utility.yul\":4070:4079   */\n      dup4\n        /* \"#utility.yul\":4066:4083   */\n      add\n        /* \"#utility.yul\":4059:4106   */\n      mstore\n        /* \"#utility.yul\":4123:4254   */\n      tag_109\n        /* \"#utility.yul\":4249:4253   */\n      dup2\n        /* \"#utility.yul\":4123:4254   */\n      tag_63\n      jump\t// in\n    tag_109:\n        /* \"#utility.yul\":4115:4254   */\n      swap1\n      pop\n        /* \"#utility.yul\":3842:4261   */\n      swap2\n      swap1\n      pop\n      jump\t// out\n        /* \"#utility.yul\":4267:4447   */\n    tag_64:\n        /* \"#utility.yul\":4315:4392   */\n      0x4e487b7100000000000000000000000000000000000000000000000000000000\n        /* \"#utility.yul\":4312:4313   */\n      0x00\n        /* \"#utility.yul\":4305:4393   */\n      mstore\n        /* \"#utility.yul\":4412:4416   */\n      0x11\n        /* \"#utility.yul\":4409:4410   */\n      0x04\n        /* \"#utility.yul\":4402:4417   */\n      mstore\n        /* \"#utility.yul\":4436:4440   */\n      0x24\n        /* \"#utility.yul\":4433:4434   */\n      0x00\n        /* \"#utility.yul\":4426:4441   */\n      revert\n        /* \"#utility.yul\":4453:4647   */\n    tag_44:\n        /* \"#utility.yul\":4493:4497   */\n      0x00\n        /* \"#utility.yul\":4513:4533   */\n      tag_112\n        /* \"#utility.yul\":4531:4532   */\n      dup3\n        /* \"#utility.yul\":4513:4533   */\n      tag_49\n      jump\t// in\n    tag_112:\n        /* \"#utility.yul\":4508:4533   */\n      swap2\n      pop\n        /* \"#utility.yul\":4547:4567   */\n      tag_113\n        /* \"#utility.yul\":4565:4566   */\n      dup4\n        /* \"#utility.yul\":4547:4567   */\n      tag_49\n      jump\t// in\n    tag_113:\n        /* \"#utility.yul\":4542:4567   */\n      swap3\n      pop\n        /* \"#utility.yul\":4591:4592   */\n      dup3\n        /* \"#utility.yul\":4588:4589   */\n      dup3\n        /* \"#utility.yul\":4584:4593   */\n      sub\n        /* \"#utility.yul\":4576:4593   */\n      swap1\n      pop\n        /* \"#utility.yul\":4615:4616   */\n      dup2\n        /* \"#utility.yul\":4609:4613   */\n      dup2\n        /* \"#utility.yul\":4606:4617   */\n      gt\n        /* \"#utility.yul\":4603:4640   */\n      iszero\n      tag_114\n      jumpi\n        /* \"#utility.yul\":4620:4638   */\n      tag_115\n      tag_64\n      jump\t// in\n    tag_115:\n        /* \"#utility.yul\":4603:4640   */\n    tag_114:\n        /* \"#utility.yul\":4453:4647   */\n      swap3\n      swap2\n      pop\n      pop\n      jump\t// out\n        /* \"#utility.yul\":4653:4749   */\n    tag_65:\n        /* \"#utility.yul\":4690:4697   */\n      0x00\n        /* \"#utility.yul\":4719:4743   */\n      tag_117\n        /* \"#utility.yul\":4737:4742   */\n      dup3\n        /* \"#utility.yul\":4719:4743   */\n      tag_51\n      jump\t// in\n    tag_117:\n        /* \"#utility.yul\":4708:4743   */\n      swap1\n      pop\n        /* \"#utility.yul\":4653:4749   */\n      swap2\n      swap1\n      pop\n      jump\t// out\n        /* \"#utility.yul\":4755:4873   */\n    tag_66:\n        /* \"#utility.yul\":4842:4866   */\n      tag_119\n        /* \"#utility.yul\":4860:4865   */\n      dup2\n        /* \"#utility.yul\":4842:4866   */\n      tag_65\n      jump\t// in\n    tag_119:\n        /* \"#utility.yul\":4837:4840   */\n      dup3\n        /* \"#utility.yul\":4830:4867   */\n      mstore\n        /* \"#utility.yul\":4755:4873   */\n      pop\n      pop\n      jump\t// out\n        /* \"#utility.yul\":4879:4964   */\n    tag_67:\n        /* \"#utility.yul\":4924:4931   */\n      0x00\n        /* \"#utility.yul\":4953:4958   */\n      dup2\n        /* \"#utility.yul\":4942:4958   */\n      swap1\n      pop\n        /* \"#utility.yul\":4879:4964   */\n      swap2\n      swap1\n      pop\n      jump\t// out\n        /* \"#utility.yul\":4970:5128   */\n    tag_68:\n        /* \"#utility.yul\":5028:5037   */\n      0x00\n        /* \"#utility.yul\":5061:5122   */\n      tag_122\n        /* \"#utility.yul\":5079:5121   */\n      tag_123\n        /* \"#utility.yul\":5088:5120   */\n      tag_124\n        /* \"#utility.yul\":5114:5119   */\n      dup5\n        /* \"#utility.yul\":5088:5120   */\n      tag_67\n      jump\t// in\n    tag_124:\n        /* \"#utility.yul\":5079:5121   */\n      tag_57\n      jump\t// in\n    tag_123:\n        /* \"#utility.yul\":5061:5122   */\n      tag_49\n      jump\t// in\n    tag_122:\n        /* \"#utility.yul\":5048:5122   */\n      swap1\n      pop\n        /* \"#utility.yul\":4970:5128   */\n      swap2\n      swap1\n      pop\n      jump\t// out\n        /* \"#utility.yul\":5134:5281   */\n    tag_69:\n        /* \"#utility.yul\":5229:5274   */\n      tag_126\n        /* \"#utility.yul\":5268:5273   */\n      dup2\n        /* \"#utility.yul\":5229:5274   */\n      tag_68\n      jump\t// in\n    tag_126:\n        /* \"#utility.yul\":5224:5227   */\n      dup3\n        /* \"#utility.yul\":5217:5275   */\n      mstore\n        /* \"#utility.yul\":5134:5281   */\n      pop\n      pop\n      jump\t// out\n        /* \"#utility.yul\":5287:5635   */\n    tag_48:\n        /* \"#utility.yul\":5416:5420   */\n      0x00\n        /* \"#utility.yul\":5454:5456   */\n      0x40\n        /* \"#utility.yul\":5443:5452   */\n      dup3\n        /* \"#utility.yul\":5439:5457   */\n      add\n        /* \"#utility.yul\":5431:5457   */\n      swap1\n      pop\n        /* \"#utility.yul\":5467:5538   */\n      tag_128\n        /* \"#utility.yul\":5535:5536   */\n      0x00\n        /* \"#utility.yul\":5524:5533   */\n      dup4\n        /* \"#utility.yul\":5520:5537   */\n      add\n        /* \"#utility.yul\":5511:5517   */\n      dup6\n        /* \"#utility.yul\":5467:5538   */\n      tag_66\n      jump\t// in\n    tag_128:\n        /* \"#utility.yul\":5548:5628   */\n      tag_129\n        /* \"#utility.yul\":5624:5626   */\n      0x20\n        /* \"#utility.yul\":5613:5622   */\n      dup4\n        /* \"#utility.yul\":5609:5627   */\n      add\n        /* \"#utility.yul\":5600:5606   */\n      dup5\n        /* \"#utility.yul\":5548:5628   */\n      tag_69\n      jump\t// in\n    tag_129:\n        /* \"#utility.yul\":5287:5635   */\n      swap4\n      swap3\n      pop\n      pop\n      pop\n      jump\t// out\n\n    auxdata: 0xa26469706673582212200a1c94f238f64a14c095fcfa5a3db952175d253e6cca20a9e66b8e0a656d2d7564736f6c63430008110033\n}\n",
				"bytecode": {
					"linkReferences": {},
					"object": "608060405234801561001057600080fd5b506040516108a33803806108a3833981810160405281019061003291906100fb565b336000806101000a81548173ffffffffffffffffffffffffffffffffffffffff021916908373ffffffffffffffffffffffffffffffffffffffff16021790555081600181905550806003819055507f1bb96dff6ab5005aff98cdc0cf176bb7d8e0423cb48e02217d35b042cec81e9f6001546040516100b1919061014a565b60405180910390a15050610165565b600080fd5b6000819050919050565b6100d8816100c5565b81146100e357600080fd5b50565b6000815190506100f5816100cf565b92915050565b60008060408385031215610112576101116100c0565b5b6000610120858286016100e6565b9250506020610131858286016100e6565b9150509250929050565b610144816100c5565b82525050565b600060208201905061015f600083018461013b565b92915050565b61072f806101746000396000f3fe6080604052600436106100555760003560e01c80631998aeef1461005a5780632baeceb7146100645780639d1b464a1461008f578063c87c0f79146100ba578063d3924aaf146100d1578063dfbf53ae146100fc575b600080fd5b610062610127565b005b34801561007057600080fd5b50610079610270565b6040516100869190610403565b60405180910390f35b34801561009b57600080fd5b506100a4610276565b6040516100b19190610403565b60405180910390f35b3480156100c657600080fd5b506100cf61027c565b005b3480156100dd57600080fd5b506100e66103a0565b6040516100f3919061045f565b60405180910390f35b34801561010857600080fd5b506101116103c4565b60405161011e919061045f565b60405180910390f35b600154341461016b576040517f08c379a0000000000000000000000000000000000000000000000000000000008152600401610162906104d7565b60405180910390fd5b33600260006101000a81548173ffffffffffffffffffffffffffffffffffffffff021916908373ffffffffffffffffffffffffffffffffffffffff16021790555060008054906101000a900473ffffffffffffffffffffffffffffffffffffffff1673ffffffffffffffffffffffffffffffffffffffff166108fc349081150290604051600060405180830381858888f19350505050158015610212573d6000803e3d6000fd5b507fdaec4582d5d9595688c8c98545fdd1c696d41c6aeaeb636737e84ed2f5c00eda600260009054906101000a900473ffffffffffffffffffffffffffffffffffffffff1634604051610266929190610556565b60405180910390a1565b60035481565b60015481565b60008054906101000a900473ffffffffffffffffffffffffffffffffffffffff1673ffffffffffffffffffffffffffffffffffffffff163373ffffffffffffffffffffffffffffffffffffffff161461030a576040517f08c379a0000000000000000000000000000000000000000000000000000000008152600401610301906105f1565b60405180910390fd5b60035460015461031a9190610640565b6001819055507f12743d2a1dadeba1b5ca0bee15e7d9dc58e588ae493b5f2027a749d5e2af779e6001546040516103519190610403565b60405180910390a160006001540361039e577fdaec4582d5d9595688c8c98545fdd1c696d41c6aeaeb636737e84ed2f5c00eda6000806040516103959291906106d0565b60405180910390a15b565b60008054906101000a900473ffffffffffffffffffffffffffffffffffffffff1681565b600260009054906101000a900473ffffffffffffffffffffffffffffffffffffffff1681565b6000819050919050565b6103fd816103ea565b82525050565b600060208201905061041860008301846103f4565b92915050565b600073ffffffffffffffffffffffffffffffffffffffff82169050919050565b60006104498261041e565b9050919050565b6104598161043e565b82525050565b60006020820190506104746000830184610450565b92915050565b600082825260208201905092915050565b7f596f75206d75737420626964207468652063757272656e742070726963650000600082015250565b60006104c1601e8361047a565b91506104cc8261048b565b602082019050919050565b600060208201905081810360008301526104f0816104b4565b9050919050565b6000819050919050565b600061051c6105176105128461041e565b6104f7565b61041e565b9050919050565b600061052e82610501565b9050919050565b600061054082610523565b9050919050565b61055081610535565b82525050565b600060408201905061056b6000830185610547565b61057860208301846103f4565b9392505050565b7f4f6e6c792061756374696f6e206f776e65722063616e206c6f7765722070726960008201527f6365000000000000000000000000000000000000000000000000000000000000602082015250565b60006105db60228361047a565b91506105e68261057f565b604082019050919050565b6000602082019050818103600083015261060a816105ce565b9050919050565b7f4e487b7100000000000000000000000000000000000000000000000000000000600052601160045260246000fd5b600061064b826103ea565b9150610656836103ea565b925082820390508181111561066e5761066d610611565b5b92915050565b600061067f8261041e565b9050919050565b61068f81610674565b82525050565b6000819050919050565b60006106ba6106b56106b084610695565b6104f7565b6103ea565b9050919050565b6106ca8161069f565b82525050565b60006040820190506106e56000830185610686565b6106f260208301846106c1565b939250505056fea26469706673582212200a1c94f238f64a14c095fcfa5a3db952175d253e6cca20a9e66b8e0a656d2d7564736f6c63430008110033",
					"opcodes": "PUSH1 0x80 PUSH1 0x40 MSTORE CALLVALUE DUP1 ISZERO PUSH2 0x10 JUMPI PUSH1 0x0 DUP1 REVERT JUMPDEST POP PUSH1 0x40 MLOAD PUSH2 0x8A3 CODESIZE SUB DUP1 PUSH2 0x8A3 DUP4 CODECOPY DUP2 DUP2 ADD PUSH1 0x40 MSTORE DUP2 ADD SWAP1 PUSH2 0x32 SWAP2 SWAP1 PUSH2 0xFB JUMP JUMPDEST CALLER PUSH1 0x0 DUP1 PUSH2 0x100 EXP DUP2 SLOAD DUP2 PUSH20 0xFFFFFFFFFFFFFFFFFFFFFFFFFFFFFFFFFFFFFFFF MUL NOT AND SWAP1 DUP4 PUSH20 0xFFFFFFFFFFFFFFFFFFFFFFFFFFFFFFFFFFFFFFFF AND MUL OR SWAP1 SSTORE POP DUP2 PUSH1 0x1 DUP2 SWAP1 SSTORE POP DUP1 PUSH1 0x3 DUP2 SWAP1 SSTORE POP PUSH32 0x1BB96DFF6AB5005AFF98CDC0CF176BB7D8E0423CB48E02217D35B042CEC81E9F PUSH1 0x1 SLOAD PUSH1 0x40 MLOAD PUSH2 0xB1 SWAP2 SWAP1 PUSH2 0x14A JUMP JUMPDEST PUSH1 0x40 MLOAD DUP1 SWAP2 SUB SWAP1 LOG1 POP POP PUSH2 0x165 JUMP JUMPDEST PUSH1 0x0 DUP1 REVERT JUMPDEST PUSH1 0x0 DUP2 SWAP1 POP SWAP2 SWAP1 POP JUMP JUMPDEST PUSH2 0xD8 DUP2 PUSH2 0xC5 JUMP JUMPDEST DUP2 EQ PUSH2 0xE3 JUMPI PUSH1 0x0 DUP1 REVERT JUMPDEST POP JUMP JUMPDEST PUSH1 0x0 DUP2 MLOAD SWAP1 POP PUSH2 0xF5 DUP2 PUSH2 0xCF JUMP JUMPDEST SWAP3 SWAP2 POP POP JUMP JUMPDEST PUSH1 0x0 DUP1 PUSH1 0x40 DUP4 DUP6 SUB SLT ISZERO PUSH2 0x112 JUMPI PUSH2 0x111 PUSH2 0xC0 JUMP JUMPDEST JUMPDEST PUSH1 0x0 PUSH2 0x120 DUP6 DUP3 DUP7 ADD PUSH2 0xE6 JUMP JUMPDEST SWAP3 POP POP PUSH1 0x20 PUSH2 0x131 DUP6 DUP3 DUP7 ADD PUSH2 0xE6 JUMP JUMPDEST SWAP2 POP POP SWAP3 POP SWAP3 SWAP1 POP JUMP JUMPDEST PUSH2 0x144 DUP2 PUSH2 0xC5 JUMP JUMPDEST DUP3 MSTORE POP POP JUMP JUMPDEST PUSH1 0x0 PUSH1 0x20 DUP3 ADD SWAP1 POP PUSH2 0x15F PUSH1 0x0 DUP4 ADD DUP5 PUSH2 0x13B JUMP JUMPDEST SWAP3 SWAP2 POP POP JUMP JUMPDEST PUSH2 0x72F DUP1 PUSH2 0x174 PUSH1 0x0 CODECOPY PUSH1 0x0 RETURN INVALID PUSH1 0x80 PUSH1 0x40 MSTORE PUSH1 0x4 CALLDATASIZE LT PUSH2 0x55 JUMPI PUSH1 0x0 CALLDATALOAD PUSH1 0xE0 SHR DUP1 PUSH4 0x1998AEEF EQ PUSH2 0x5A JUMPI DUP1 PUSH4 0x2BAECEB7 EQ PUSH2 0x64 JUMPI DUP1 PUSH4 0x9D1B464A EQ PUSH2 0x8F JUMPI DUP1 PUSH4 0xC87C0F79 EQ PUSH2 0xBA JUMPI DUP1 PUSH4 0xD3924AAF EQ PUSH2 0xD1 JUMPI DUP1 PUSH4 0xDFBF53AE EQ PUSH2 0xFC JUMPI JUMPDEST PUSH1 0x0 DUP1 REVERT JUMPDEST PUSH2 0x62 PUSH2 0x127 JUMP JUMPDEST STOP JUMPDEST CALLVALUE DUP1 ISZERO PUSH2 0x70 JUMPI PUSH1 0x0 DUP1 REVERT JUMPDEST POP PUSH2 0x79 PUSH2 0x270 JUMP JUMPDEST PUSH1 0x40 MLOAD PUSH2 0x86 SWAP2 SWAP1 PUSH2 0x403 JUMP JUMPDEST PUSH1 0x40 MLOAD DUP1 SWAP2 SUB SWAP1 RETURN JUMPDEST CALLVALUE DUP1 ISZERO PUSH2 0x9B JUMPI PUSH1 0x0 DUP1 REVERT JUMPDEST POP PUSH2 0xA4 PUSH2 0x276 JUMP JUMPDEST PUSH1 0x40 MLOAD PUSH2 0xB1 SWAP2 SWAP1 PUSH2 0x403 JUMP JUMPDEST PUSH1 0x40 MLOAD DUP1 SWAP2 SUB SWAP1 RETURN JUMPDEST CALLVALUE DUP1 ISZERO PUSH2 0xC6 JUMPI PUSH1 0x0 DUP1 REVERT JUMPDEST POP PUSH2 0xCF PUSH2 0x27C JUMP JUMPDEST STOP JUMPDEST CALLVALUE DUP1 ISZERO PUSH2 0xDD JUMPI PUSH1 0x0 DUP1 REVERT JUMPDEST POP PUSH2 0xE6 PUSH2 0x3A0 JUMP JUMPDEST PUSH1 0x40 MLOAD PUSH2 0xF3 SWAP2 SWAP1 PUSH2 0x45F JUMP JUMPDEST PUSH1 0x40 MLOAD DUP1 SWAP2 SUB SWAP1 RETURN JUMPDEST CALLVALUE DUP1 ISZERO PUSH2 0x108 JUMPI PUSH1 0x0 DUP1 REVERT JUMPDEST POP PUSH2 0x111 PUSH2 0x3C4 JUMP JUMPDEST PUSH1 0x40 MLOAD PUSH2 0x11E SWAP2 SWAP1 PUSH2 0x45F JUMP JUMPDEST PUSH1 0x40 MLOAD DUP1 SWAP2 SUB SWAP1 RETURN JUMPDEST PUSH1 0x1 SLOAD CALLVALUE EQ PUSH2 0x16B JUMPI PUSH1 0x40 MLOAD PUSH32 0x8C379A000000000000000000000000000000000000000000000000000000000 DUP2 MSTORE PUSH1 0x4 ADD PUSH2 0x162 SWAP1 PUSH2 0x4D7 JUMP JUMPDEST PUSH1 0x40 MLOAD DUP1 SWAP2 SUB SWAP1 REVERT JUMPDEST CALLER PUSH1 0x2 PUSH1 0x0 PUSH2 0x100 EXP DUP2 SLOAD DUP2 PUSH20 0xFFFFFFFFFFFFFFFFFFFFFFFFFFFFFFFFFFFFFFFF MUL NOT AND SWAP1 DUP4 PUSH20 0xFFFFFFFFFFFFFFFFFFFFFFFFFFFFFFFFFFFFFFFF AND MUL OR SWAP1 SSTORE POP PUSH1 0x0 DUP1 SLOAD SWAP1 PUSH2 0x100 EXP SWAP1 DIV PUSH20 0xFFFFFFFFFFFFFFFFFFFFFFFFFFFFFFFFFFFFFFFF AND PUSH20 0xFFFFFFFFFFFFFFFFFFFFFFFFFFFFFFFFFFFFFFFF AND PUSH2 0x8FC CALLVALUE SWAP1 DUP2 ISZERO MUL SWAP1 PUSH1 0x40 MLOAD PUSH1 0x0 PUSH1 0x40 MLOAD DUP1 DUP4 SUB DUP2 DUP6 DUP9 DUP9 CALL SWAP4 POP POP POP POP ISZERO DUP1 ISZERO PUSH2 0x212 JUMPI RETURNDATASIZE PUSH1 0x0 DUP1 RETURNDATACOPY RETURNDATASIZE PUSH1 0x0 REVERT JUMPDEST POP PUSH32 0xDAEC4582D5D9595688C8C98545FDD1C696D41C6AEAEB636737E84ED2F5C00EDA PUSH1 0x2 PUSH1 0x0 SWAP1 SLOAD SWAP1 PUSH2 0x100 EXP SWAP1 DIV PUSH20 0xFFFFFFFFFFFFFFFFFFFFFFFFFFFFFFFFFFFFFFFF AND CALLVALUE PUSH1 0x40 MLOAD PUSH2 0x266 SWAP3 SWAP2 SWAP1 PUSH2 0x556 JUMP JUMPDEST PUSH1 0x40 MLOAD DUP1 SWAP2 SUB SWAP1 LOG1 JUMP JUMPDEST PUSH1 0x3 SLOAD DUP2 JUMP JUMPDEST PUSH1 0x1 SLOAD DUP2 JUMP JUMPDEST PUSH1 0x0 DUP1 SLOAD SWAP1 PUSH2 0x100 EXP SWAP1 DIV PUSH20 0xFFFFFFFFFFFFFFFFFFFFFFFFFFFFFFFFFFFFFFFF AND PUSH20 0xFFFFFFFFFFFFFFFFFFFFFFFFFFFFFFFFFFFFFFFF AND CALLER PUSH20 0xFFFFFFFFFFFFFFFFFFFFFFFFFFFFFFFFFFFFFFFF AND EQ PUSH2 0x30A JUMPI PUSH1 0x40 MLOAD PUSH32 0x8C379A000000000000000000000000000000000000000000000000000000000 DUP2 MSTORE PUSH1 0x4 ADD PUSH2 0x301 SWAP1 PUSH2 0x5F1 JUMP JUMPDEST PUSH1 0x40 MLOAD DUP1 SWAP2 SUB SWAP1 REVERT JUMPDEST PUSH1 0x3 SLOAD PUSH1 0x1 SLOAD PUSH2 0x31A SWAP2 SWAP1 PUSH2 0x640 JUMP JUMPDEST PUSH1 0x1 DUP2 SWAP1 SSTORE POP PUSH32 0x12743D2A1DADEBA1B5CA0BEE15E7D9DC58E588AE493B5F2027A749D5E2AF779E PUSH1 0x1 SLOAD PUSH1 0x40 MLOAD PUSH2 0x351 SWAP2 SWAP1 PUSH2 0x403 JUMP JUMPDEST PUSH1 0x40 MLOAD DUP1 SWAP2 SUB SWAP1 LOG1 PUSH1 0x0 PUSH1 0x1 SLOAD SUB PUSH2 0x39E JUMPI PUSH32 0xDAEC4582D5D9595688C8C98545FDD1C696D41C6AEAEB636737E84ED2F5C00EDA PUSH1 0x0 DUP1 PUSH1 0x40 MLOAD PUSH2 0x395 SWAP3 SWAP2 SWAP1 PUSH2 0x6D0 JUMP JUMPDEST PUSH1 0x40 MLOAD DUP1 SWAP2 SUB SWAP1 LOG1 JUMPDEST JUMP JUMPDEST PUSH1 0x0 DUP1 SLOAD SWAP1 PUSH2 0x100 EXP SWAP1 DIV PUSH20 0xFFFFFFFFFFFFFFFFFFFFFFFFFFFFFFFFFFFFFFFF AND DUP2 JUMP JUMPDEST PUSH1 0x2 PUSH1 0x0 SWAP1 SLOAD SWAP1 PUSH2 0x100 EXP SWAP1 DIV PUSH20 0xFFFFFFFFFFFFFFFFFFFFFFFFFFFFFFFFFFFFFFFF AND DUP2 JUMP JUMPDEST PUSH1 0x0 DUP2 SWAP1 POP SWAP2 SWAP1 POP JUMP JUMPDEST PUSH2 0x3FD DUP2 PUSH2 0x3EA JUMP JUMPDEST DUP3 MSTORE POP POP JUMP JUMPDEST PUSH1 0x0 PUSH1 0x20 DUP3 ADD SWAP1 POP PUSH2 0x418 PUSH1 0x0 DUP4 ADD DUP5 PUSH2 0x3F4 JUMP JUMPDEST SWAP3 SWAP2 POP POP JUMP JUMPDEST PUSH1 0x0 PUSH20 0xFFFFFFFFFFFFFFFFFFFFFFFFFFFFFFFFFFFFFFFF DUP3 AND SWAP1 POP SWAP2 SWAP1 POP JUMP JUMPDEST PUSH1 0x0 PUSH2 0x449 DUP3 PUSH2 0x41E JUMP JUMPDEST SWAP1 POP SWAP2 SWAP1 POP JUMP JUMPDEST PUSH2 0x459 DUP2 PUSH2 0x43E JUMP JUMPDEST DUP3 MSTORE POP POP JUMP JUMPDEST PUSH1 0x0 PUSH1 0x20 DUP3 ADD SWAP1 POP PUSH2 0x474 PUSH1 0x0 DUP4 ADD DUP5 PUSH2 0x450 JUMP JUMPDEST SWAP3 SWAP2 POP POP JUMP JUMPDEST PUSH1 0x0 DUP3 DUP3 MSTORE PUSH1 0x20 DUP3 ADD SWAP1 POP SWAP3 SWAP2 POP POP JUMP JUMPDEST PUSH32 0x596F75206D75737420626964207468652063757272656E742070726963650000 PUSH1 0x0 DUP3 ADD MSTORE POP JUMP JUMPDEST PUSH1 0x0 PUSH2 0x4C1 PUSH1 0x1E DUP4 PUSH2 0x47A JUMP JUMPDEST SWAP2 POP PUSH2 0x4CC DUP3 PUSH2 0x48B JUMP JUMPDEST PUSH1 0x20 DUP3 ADD SWAP1 POP SWAP2 SWAP1 POP JUMP JUMPDEST PUSH1 0x0 PUSH1 0x20 DUP3 ADD SWAP1 POP DUP2 DUP2 SUB PUSH1 0x0 DUP4 ADD MSTORE PUSH2 0x4F0 DUP2 PUSH2 0x4B4 JUMP JUMPDEST SWAP1 POP SWAP2 SWAP1 POP JUMP JUMPDEST PUSH1 0x0 DUP2 SWAP1 POP SWAP2 SWAP1 POP JUMP JUMPDEST PUSH1 0x0 PUSH2 0x51C PUSH2 0x517 PUSH2 0x512 DUP5 PUSH2 0x41E JUMP JUMPDEST PUSH2 0x4F7 JUMP JUMPDEST PUSH2 0x41E JUMP JUMPDEST SWAP1 POP SWAP2 SWAP1 POP JUMP JUMPDEST PUSH1 0x0 PUSH2 0x52E DUP3 PUSH2 0x501 JUMP JUMPDEST SWAP1 POP SWAP2 SWAP1 POP JUMP JUMPDEST PUSH1 0x0 PUSH2 0x540 DUP3 PUSH2 0x523 JUMP JUMPDEST SWAP1 POP SWAP2 SWAP1 POP JUMP JUMPDEST PUSH2 0x550 DUP2 PUSH2 0x535 JUMP JUMPDEST DUP3 MSTORE POP POP JUMP JUMPDEST PUSH1 0x0 PUSH1 0x40 DUP3 ADD SWAP1 POP PUSH2 0x56B PUSH1 0x0 DUP4 ADD DUP6 PUSH2 0x547 JUMP JUMPDEST PUSH2 0x578 PUSH1 0x20 DUP4 ADD DUP5 PUSH2 0x3F4 JUMP JUMPDEST SWAP4 SWAP3 POP POP POP JUMP JUMPDEST PUSH32 0x4F6E6C792061756374696F6E206F776E65722063616E206C6F77657220707269 PUSH1 0x0 DUP3 ADD MSTORE PUSH32 0x6365000000000000000000000000000000000000000000000000000000000000 PUSH1 0x20 DUP3 ADD MSTORE POP JUMP JUMPDEST PUSH1 0x0 PUSH2 0x5DB PUSH1 0x22 DUP4 PUSH2 0x47A JUMP JUMPDEST SWAP2 POP PUSH2 0x5E6 DUP3 PUSH2 0x57F JUMP JUMPDEST PUSH1 0x40 DUP3 ADD SWAP1 POP SWAP2 SWAP1 POP JUMP JUMPDEST PUSH1 0x0 PUSH1 0x20 DUP3 ADD SWAP1 POP DUP2 DUP2 SUB PUSH1 0x0 DUP4 ADD MSTORE PUSH2 0x60A DUP2 PUSH2 0x5CE JUMP JUMPDEST SWAP1 POP SWAP2 SWAP1 POP JUMP JUMPDEST PUSH32 0x4E487B7100000000000000000000000000000000000000000000000000000000 PUSH1 0x0 MSTORE PUSH1 0x11 PUSH1 0x4 MSTORE PUSH1 0x24 PUSH1 0x0 REVERT JUMPDEST PUSH1 0x0 PUSH2 0x64B DUP3 PUSH2 0x3EA JUMP JUMPDEST SWAP2 POP PUSH2 0x656 DUP4 PUSH2 0x3EA JUMP JUMPDEST SWAP3 POP DUP3 DUP3 SUB SWAP1 POP DUP2 DUP2 GT ISZERO PUSH2 0x66E JUMPI PUSH2 0x66D PUSH2 0x611 JUMP JUMPDEST JUMPDEST SWAP3 SWAP2 POP POP JUMP JUMPDEST PUSH1 0x0 PUSH2 0x67F DUP3 PUSH2 0x41E JUMP JUMPDEST SWAP1 POP SWAP2 SWAP1 POP JUMP JUMPDEST PUSH2 0x68F DUP2 PUSH2 0x674 JUMP JUMPDEST DUP3 MSTORE POP POP JUMP JUMPDEST PUSH1 0x0 DUP2 SWAP1 POP SWAP2 SWAP1 POP JUMP JUMPDEST PUSH1 0x0 PUSH2 0x6BA PUSH2 0x6B5 PUSH2 0x6B0 DUP5 PUSH2 0x695 JUMP JUMPDEST PUSH2 0x4F7 JUMP JUMPDEST PUSH2 0x3EA JUMP JUMPDEST SWAP1 POP SWAP2 SWAP1 POP JUMP JUMPDEST PUSH2 0x6CA DUP2 PUSH2 0x69F JUMP JUMPDEST DUP3 MSTORE POP POP JUMP JUMPDEST PUSH1 0x0 PUSH1 0x40 DUP3 ADD SWAP1 POP PUSH2 0x6E5 PUSH1 0x0 DUP4 ADD DUP6 PUSH2 0x686 JUMP JUMPDEST PUSH2 0x6F2 PUSH1 0x20 DUP4 ADD DUP5 PUSH2 0x6C1 JUMP JUMPDEST SWAP4 SWAP3 POP POP POP JUMP INVALID LOG2 PUSH5 0x6970667358 0x22 SLT KECCAK256 EXP SHR SWAP5 CALLCODE CODESIZE 0xF6 0x4A EQ 0xC0 SWAP6 0xFC STATICCALL GAS RETURNDATASIZE 0xB9 MSTORE OR 0x5D 0x25 RETURNDATACOPY PUSH13 0xCA20A9E66B8E0A656D2D756473 PUSH16 0x6C634300081100330000000000000000 "
				},
				"gasEstimates": {
					"creation": {
						"codeDepositCost": "367800",
						"executionCost": "infinite",
						"totalCost": "infinite"
					},
					"external": {
						"auctionOwner()": "2577",
						"bid()": "infinite",
						"currentPrice()": "2451",
						"decrement()": "2429",
						"lowerPrice()": "infinite",
						"winner()": "2602"
					}
				},
				"methodIdentifiers": {
					"auctionOwner()": "d3924aaf",
					"bid()": "1998aeef",
					"currentPrice()": "9d1b464a",
					"decrement()": "2baeceb7",
					"lowerPrice()": "c87c0f79",
					"winner()": "dfbf53ae"
				}
			},
			"storageLayout": {
				"storage": [
					{
						"astId": 3,
						"contract": "descendingAuction.sol:DescendingAuction",
						"label": "auctionOwner",
						"offset": 0,
						"slot": "0",
						"type": "t_address_payable"
					},
					{
						"astId": 5,
						"contract": "descendingAuction.sol:DescendingAuction",
						"label": "currentPrice",
						"offset": 0,
						"slot": "1",
						"type": "t_uint256"
					},
					{
						"astId": 7,
						"contract": "descendingAuction.sol:DescendingAuction",
						"label": "winner",
						"offset": 0,
						"slot": "2",
						"type": "t_address_payable"
					},
					{
						"astId": 9,
						"contract": "descendingAuction.sol:DescendingAuction",
						"label": "decrement",
						"offset": 0,
						"slot": "3",
						"type": "t_uint256"
					}
				],
				"types": {
					"t_address_payable": {
						"encoding": "inplace",
						"label": "address payable",
						"numberOfBytes": "20"
					},
					"t_uint256": {
						"encoding": "inplace",
						"label": "uint256",
						"numberOfBytes": "32"
					}
				}
			},
			"userdoc": {
				"kind": "user",
				"methods": {},
				"version": 1
			}
		}
	}
}