{
	"firstPriceAuction.sol": {
		"Auction": {
			"abi": [
				{
					"inputs": [
						{
							"internalType": "uint256",
							"name": "biddingTime",
							"type": "uint256"
						}
					],
					"stateMutability": "nonpayable",
					"type": "constructor"
				},
				{
					"inputs": [],
					"name": "auctionEndTime",
					"outputs": [
						{
							"internalType": "uint256",
							"name": "",
							"type": "uint256"
						}
					],
					"stateMutability": "view",
					"type": "function"
				},
				{
					"inputs": [],
					"name": "auctionOwner",
					"outputs": [
						{
							"internalType": "address payable",
							"name": "",
							"type": "address"
						}
					],
					"stateMutability": "view",
					"type": "function"
				},
				{
					"inputs": [],
					"name": "bid",
					"outputs": [],
					"stateMutability": "payable",
					"type": "function"
				},
				{
					"inputs": [
						{
							"internalType": "address",
							"name": "",
							"type": "address"
						}
					],
					"name": "hasBid",
					"outputs": [
						{
							"internalType": "bool",
							"name": "",
							"type": "bool"
						}
					],
					"stateMutability": "view",
					"type": "function"
				},
				{
					"inputs": [],
					"name": "hasPaid",
					"outputs": [
						{
							"internalType": "bool",
							"name": "",
							"type": "bool"
						}
					],
					"stateMutability": "view",
					"type": "function"
				},
				{
					"inputs": [],
					"name": "highestBid",
					"outputs": [
						{
							"internalType": "uint256",
							"name": "",
							"type": "uint256"
						}
					],
					"stateMutability": "view",
					"type": "function"
				},
				{
					"inputs": [],
					"name": "highestBidder",
					"outputs": [
						{
							"internalType": "address payable",
							"name": "",
							"type": "address"
						}
					],
					"stateMutability": "view",
					"type": "function"
				},
				{
					"inputs": [],
					"name": "pay",
					"outputs": [],
					"stateMutability": "nonpayable",
					"type": "function"
				}
			],
			"devdoc": {
				"kind": "dev",
				"methods": {},
				"version": 1
			},
			"evm": {
				"assembly": "    /* \"firstPriceAuction.sol\":57:1335  contract Auction {... */\n  mstore(0x40, 0x80)\n    /* \"firstPriceAuction.sol\":497:634  constructor(uint biddingTime) {... */\n  callvalue\n  dup1\n  iszero\n  tag_1\n  jumpi\n  0x00\n  dup1\n  revert\ntag_1:\n  pop\n  mload(0x40)\n  sub(codesize, bytecodeSize)\n  dup1\n  bytecodeSize\n  dup4\n  codecopy\n  dup2\n  dup2\n  add\n  0x40\n  mstore\n  dup2\n  add\n  swap1\n  tag_2\n  swap2\n  swap1\n  tag_3\n  jump\t// in\ntag_2:\n    /* \"firstPriceAuction.sol\":560:570  msg.sender */\n  caller\n    /* \"firstPriceAuction.sol\":537:549  auctionOwner */\n  0x00\n  dup1\n    /* \"firstPriceAuction.sol\":537:571  auctionOwner = payable(msg.sender) */\n  0x0100\n  exp\n  dup2\n  sload\n  dup2\n  0xffffffffffffffffffffffffffffffffffffffff\n  mul\n  not\n  and\n  swap1\n  dup4\n  0xffffffffffffffffffffffffffffffffffffffff\n  and\n  mul\n  or\n  swap1\n  sstore\n  pop\n    /* \"firstPriceAuction.sol\":616:627  biddingTime */\n  dup1\n    /* \"firstPriceAuction.sol\":598:613  block.timestamp */\n  timestamp\n    /* \"firstPriceAuction.sol\":598:627  block.timestamp + biddingTime */\n  tag_6\n  swap2\n  swap1\n  tag_7\n  jump\t// in\ntag_6:\n    /* \"firstPriceAuction.sol\":581:595  auctionEndTime */\n  0x01\n    /* \"firstPriceAuction.sol\":581:627  auctionEndTime = block.timestamp + biddingTime */\n  dup2\n  swap1\n  sstore\n  pop\n    /* \"firstPriceAuction.sol\":497:634  constructor(uint biddingTime) {... */\n  pop\n    /* \"firstPriceAuction.sol\":57:1335  contract Auction {... */\n  jump(tag_8)\n    /* \"#utility.yul\":88:205   */\ntag_10:\n    /* \"#utility.yul\":197:198   */\n  0x00\n    /* \"#utility.yul\":194:195   */\n  dup1\n    /* \"#utility.yul\":187:199   */\n  revert\n    /* \"#utility.yul\":334:411   */\ntag_12:\n    /* \"#utility.yul\":371:378   */\n  0x00\n    /* \"#utility.yul\":400:405   */\n  dup2\n    /* \"#utility.yul\":389:405   */\n  swap1\n  pop\n    /* \"#utility.yul\":334:411   */\n  swap2\n  swap1\n  pop\n  jump\t// out\n    /* \"#utility.yul\":417:539   */\ntag_13:\n    /* \"#utility.yul\":490:514   */\n  tag_22\n    /* \"#utility.yul\":508:513   */\n  dup2\n    /* \"#utility.yul\":490:514   */\n  tag_12\n  jump\t// in\ntag_22:\n    /* \"#utility.yul\":483:488   */\n  dup2\n    /* \"#utility.yul\":480:515   */\n  eq\n    /* \"#utility.yul\":470:533   */\n  tag_23\n  jumpi\n    /* \"#utility.yul\":529:530   */\n  0x00\n    /* \"#utility.yul\":526:527   */\n  dup1\n    /* \"#utility.yul\":519:531   */\n  revert\n    /* \"#utility.yul\":470:533   */\ntag_23:\n    /* \"#utility.yul\":417:539   */\n  pop\n  jump\t// out\n    /* \"#utility.yul\":545:688   */\ntag_14:\n    /* \"#utility.yul\":602:607   */\n  0x00\n    /* \"#utility.yul\":633:639   */\n  dup2\n    /* \"#utility.yul\":627:640   */\n  mload\n    /* \"#utility.yul\":618:640   */\n  swap1\n  pop\n    /* \"#utility.yul\":649:682   */\n  tag_25\n    /* \"#utility.yul\":676:681   */\n  dup2\n    /* \"#utility.yul\":649:682   */\n  tag_13\n  jump\t// in\ntag_25:\n    /* \"#utility.yul\":545:688   */\n  swap3\n  swap2\n  pop\n  pop\n  jump\t// out\n    /* \"#utility.yul\":694:1045   */\ntag_3:\n    /* \"#utility.yul\":764:770   */\n  0x00\n    /* \"#utility.yul\":813:815   */\n  0x20\n    /* \"#utility.yul\":801:810   */\n  dup3\n    /* \"#utility.yul\":792:799   */\n  dup5\n    /* \"#utility.yul\":788:811   */\n  sub\n    /* \"#utility.yul\":784:816   */\n  slt\n    /* \"#utility.yul\":781:900   */\n  iszero\n  tag_27\n  jumpi\n    /* \"#utility.yul\":819:898   */\n  tag_28\n  tag_10\n  jump\t// in\ntag_28:\n    /* \"#utility.yul\":781:900   */\ntag_27:\n    /* \"#utility.yul\":939:940   */\n  0x00\n    /* \"#utility.yul\":964:1028   */\n  tag_29\n    /* \"#utility.yul\":1020:1027   */\n  dup5\n    /* \"#utility.yul\":1011:1017   */\n  dup3\n    /* \"#utility.yul\":1000:1009   */\n  dup6\n    /* \"#utility.yul\":996:1018   */\n  add\n    /* \"#utility.yul\":964:1028   */\n  tag_14\n  jump\t// in\ntag_29:\n    /* \"#utility.yul\":954:1028   */\n  swap2\n  pop\n    /* \"#utility.yul\":910:1038   */\n  pop\n    /* \"#utility.yul\":694:1045   */\n  swap3\n  swap2\n  pop\n  pop\n  jump\t// out\n    /* \"#utility.yul\":1051:1231   */\ntag_15:\n    /* \"#utility.yul\":1099:1176   */\n  0x4e487b7100000000000000000000000000000000000000000000000000000000\n    /* \"#utility.yul\":1096:1097   */\n  0x00\n    /* \"#utility.yul\":1089:1177   */\n  mstore\n    /* \"#utility.yul\":1196:1200   */\n  0x11\n    /* \"#utility.yul\":1193:1194   */\n  0x04\n    /* \"#utility.yul\":1186:1201   */\n  mstore\n    /* \"#utility.yul\":1220:1224   */\n  0x24\n    /* \"#utility.yul\":1217:1218   */\n  0x00\n    /* \"#utility.yul\":1210:1225   */\n  revert\n    /* \"#utility.yul\":1237:1428   */\ntag_7:\n    /* \"#utility.yul\":1277:1280   */\n  0x00\n    /* \"#utility.yul\":1296:1316   */\n  tag_32\n    /* \"#utility.yul\":1314:1315   */\n  dup3\n    /* \"#utility.yul\":1296:1316   */\n  tag_12\n  jump\t// in\ntag_32:\n    /* \"#utility.yul\":1291:1316   */\n  swap2\n  pop\n    /* \"#utility.yul\":1330:1350   */\n  tag_33\n    /* \"#utility.yul\":1348:1349   */\n  dup4\n    /* \"#utility.yul\":1330:1350   */\n  tag_12\n  jump\t// in\ntag_33:\n    /* \"#utility.yul\":1325:1350   */\n  swap3\n  pop\n    /* \"#utility.yul\":1373:1374   */\n  dup3\n    /* \"#utility.yul\":1370:1371   */\n  dup3\n    /* \"#utility.yul\":1366:1375   */\n  add\n    /* \"#utility.yul\":1359:1375   */\n  swap1\n  pop\n    /* \"#utility.yul\":1394:1397   */\n  dup1\n    /* \"#utility.yul\":1391:1392   */\n  dup3\n    /* \"#utility.yul\":1388:1398   */\n  gt\n    /* \"#utility.yul\":1385:1421   */\n  iszero\n  tag_34\n  jumpi\n    /* \"#utility.yul\":1401:1419   */\n  tag_35\n  tag_15\n  jump\t// in\ntag_35:\n    /* \"#utility.yul\":1385:1421   */\ntag_34:\n    /* \"#utility.yul\":1237:1428   */\n  swap3\n  swap2\n  pop\n  pop\n  jump\t// out\n    /* \"firstPriceAuction.sol\":57:1335  contract Auction {... */\ntag_8:\n  dataSize(sub_0)\n  dup1\n  dataOffset(sub_0)\n  0x00\n  codecopy\n  0x00\n  return\nstop\n\nsub_0: assembly {\n        /* \"firstPriceAuction.sol\":57:1335  contract Auction {... */\n      mstore(0x40, 0x80)\n      jumpi(tag_1, lt(calldatasize, 0x04))\n      shr(0xe0, calldataload(0x00))\n      dup1\n      0xc810af81\n      gt\n      tag_10\n      jumpi\n      dup1\n      0xc810af81\n      eq\n      tag_6\n      jumpi\n      dup1\n      0xd2639dbf\n      eq\n      tag_7\n      jumpi\n      dup1\n      0xd3924aaf\n      eq\n      tag_8\n      jumpi\n      dup1\n      0xd57bde79\n      eq\n      tag_9\n      jumpi\n      jump(tag_1)\n    tag_10:\n      dup1\n      0x1998aeef\n      eq\n      tag_2\n      jumpi\n      dup1\n      0x1b9265b8\n      eq\n      tag_3\n      jumpi\n      dup1\n      0x4b449cba\n      eq\n      tag_4\n      jumpi\n      dup1\n      0x91f90157\n      eq\n      tag_5\n      jumpi\n    tag_1:\n      0x00\n      dup1\n      revert\n        /* \"firstPriceAuction.sol\":640:1012  function bid() public payable {... */\n    tag_2:\n      tag_11\n      tag_12\n      jump\t// in\n    tag_11:\n      stop\n        /* \"firstPriceAuction.sol\":1018:1333  function pay() public {... */\n    tag_3:\n      callvalue\n      dup1\n      iszero\n      tag_13\n      jumpi\n      0x00\n      dup1\n      revert\n    tag_13:\n      pop\n      tag_14\n      tag_15\n      jump\t// in\n    tag_14:\n      stop\n        /* \"firstPriceAuction.sol\":121:147  uint public auctionEndTime */\n    tag_4:\n      callvalue\n      dup1\n      iszero\n      tag_16\n      jumpi\n      0x00\n      dup1\n      revert\n    tag_16:\n      pop\n      tag_17\n      tag_18\n      jump\t// in\n    tag_17:\n      mload(0x40)\n      tag_19\n      swap2\n      swap1\n      tag_20\n      jump\t// in\n    tag_19:\n      mload(0x40)\n      dup1\n      swap2\n      sub\n      swap1\n      return\n        /* \"firstPriceAuction.sol\":246:282  address payable public highestBidder */\n    tag_5:\n      callvalue\n      dup1\n      iszero\n      tag_21\n      jumpi\n      0x00\n      dup1\n      revert\n    tag_21:\n      pop\n      tag_22\n      tag_23\n      jump\t// in\n    tag_22:\n      mload(0x40)\n      tag_24\n      swap2\n      swap1\n      tag_25\n      jump\t// in\n    tag_24:\n      mload(0x40)\n      dup1\n      swap2\n      sub\n      swap1\n      return\n        /* \"firstPriceAuction.sol\":288:307  bool public hasPaid */\n    tag_6:\n      callvalue\n      dup1\n      iszero\n      tag_26\n      jumpi\n      0x00\n      dup1\n      revert\n    tag_26:\n      pop\n      tag_27\n      tag_28\n      jump\t// in\n    tag_27:\n      mload(0x40)\n      tag_29\n      swap2\n      swap1\n      tag_30\n      jump\t// in\n    tag_29:\n      mload(0x40)\n      dup1\n      swap2\n      sub\n      swap1\n      return\n        /* \"firstPriceAuction.sol\":384:422  mapping(address => bool) public hasBid */\n    tag_7:\n      callvalue\n      dup1\n      iszero\n      tag_31\n      jumpi\n      0x00\n      dup1\n      revert\n    tag_31:\n      pop\n      tag_32\n      0x04\n      dup1\n      calldatasize\n      sub\n      dup2\n      add\n      swap1\n      tag_33\n      swap2\n      swap1\n      tag_34\n      jump\t// in\n    tag_33:\n      tag_35\n      jump\t// in\n    tag_32:\n      mload(0x40)\n      tag_36\n      swap2\n      swap1\n      tag_30\n      jump\t// in\n    tag_36:\n      mload(0x40)\n      dup1\n      swap2\n      sub\n      swap1\n      return\n        /* \"firstPriceAuction.sol\":80:115  address payable public auctionOwner */\n    tag_8:\n      callvalue\n      dup1\n      iszero\n      tag_37\n      jumpi\n      0x00\n      dup1\n      revert\n    tag_37:\n      pop\n      tag_38\n      tag_39\n      jump\t// in\n    tag_38:\n      mload(0x40)\n      tag_40\n      swap2\n      swap1\n      tag_25\n      jump\t// in\n    tag_40:\n      mload(0x40)\n      dup1\n      swap2\n      sub\n      swap1\n      return\n        /* \"firstPriceAuction.sol\":153:175  uint public highestBid */\n    tag_9:\n      callvalue\n      dup1\n      iszero\n      tag_41\n      jumpi\n      0x00\n      dup1\n      revert\n    tag_41:\n      pop\n      tag_42\n      tag_43\n      jump\t// in\n    tag_42:\n      mload(0x40)\n      tag_44\n      swap2\n      swap1\n      tag_20\n      jump\t// in\n    tag_44:\n      mload(0x40)\n      dup1\n      swap2\n      sub\n      swap1\n      return\n        /* \"firstPriceAuction.sol\":640:1012  function bid() public payable {... */\n    tag_12:\n        /* \"firstPriceAuction.sol\":707:721  auctionEndTime */\n      sload(0x01)\n        /* \"firstPriceAuction.sol\":688:703  block.timestamp */\n      timestamp\n        /* \"firstPriceAuction.sol\":688:721  block.timestamp <= auctionEndTime */\n      gt\n      iszero\n        /* \"firstPriceAuction.sol\":680:743  require(block.timestamp <= auctionEndTime, \"Auction has ended\") */\n      tag_46\n      jumpi\n      mload(0x40)\n      0x08c379a000000000000000000000000000000000000000000000000000000000\n      dup2\n      mstore\n      0x04\n      add\n      tag_47\n      swap1\n      tag_48\n      jump\t// in\n    tag_47:\n      mload(0x40)\n      dup1\n      swap2\n      sub\n      swap1\n      revert\n    tag_46:\n        /* \"firstPriceAuction.sol\":838:844  hasBid */\n      0x04\n        /* \"firstPriceAuction.sol\":838:856  hasBid[msg.sender] */\n      0x00\n        /* \"firstPriceAuction.sol\":845:855  msg.sender */\n      caller\n        /* \"firstPriceAuction.sol\":838:856  hasBid[msg.sender] */\n      0xffffffffffffffffffffffffffffffffffffffff\n      and\n      0xffffffffffffffffffffffffffffffffffffffff\n      and\n      dup2\n      mstore\n      0x20\n      add\n      swap1\n      dup2\n      mstore\n      0x20\n      add\n      0x00\n      keccak256\n      0x00\n      swap1\n      sload\n      swap1\n      0x0100\n      exp\n      swap1\n      div\n      0xff\n      and\n        /* \"firstPriceAuction.sol\":837:856  !hasBid[msg.sender] */\n      iszero\n        /* \"firstPriceAuction.sol\":829:872  require(!hasBid[msg.sender], \"Already Bid\") */\n      tag_49\n      jumpi\n      mload(0x40)\n      0x08c379a000000000000000000000000000000000000000000000000000000000\n      dup2\n      mstore\n      0x04\n      add\n      tag_50\n      swap1\n      tag_51\n      jump\t// in\n    tag_50:\n      mload(0x40)\n      dup1\n      swap2\n      sub\n      swap1\n      revert\n    tag_49:\n        /* \"firstPriceAuction.sol\":898:908  highestBid */\n      sload(0x02)\n        /* \"firstPriceAuction.sol\":886:895  msg.value */\n      callvalue\n        /* \"firstPriceAuction.sol\":886:908  msg.value > highestBid */\n      gt\n        /* \"firstPriceAuction.sol\":882:1006  if (msg.value > highestBid) {... */\n      iszero\n      tag_52\n      jumpi\n        /* \"firstPriceAuction.sol\":937:946  msg.value */\n      callvalue\n        /* \"firstPriceAuction.sol\":924:934  highestBid */\n      0x02\n        /* \"firstPriceAuction.sol\":924:946  highestBid = msg.value */\n      dup2\n      swap1\n      sstore\n      pop\n        /* \"firstPriceAuction.sol\":984:994  msg.sender */\n      caller\n        /* \"firstPriceAuction.sol\":960:973  highestBidder */\n      0x03\n      0x00\n        /* \"firstPriceAuction.sol\":960:995  highestBidder = payable(msg.sender) */\n      0x0100\n      exp\n      dup2\n      sload\n      dup2\n      0xffffffffffffffffffffffffffffffffffffffff\n      mul\n      not\n      and\n      swap1\n      dup4\n      0xffffffffffffffffffffffffffffffffffffffff\n      and\n      mul\n      or\n      swap1\n      sstore\n      pop\n        /* \"firstPriceAuction.sol\":882:1006  if (msg.value > highestBid) {... */\n    tag_52:\n        /* \"firstPriceAuction.sol\":640:1012  function bid() public payable {... */\n      jump\t// out\n        /* \"firstPriceAuction.sol\":1018:1333  function pay() public {... */\n    tag_15:\n        /* \"firstPriceAuction.sol\":1077:1091  auctionEndTime */\n      sload(0x01)\n        /* \"firstPriceAuction.sol\":1058:1073  block.timestamp */\n      timestamp\n        /* \"firstPriceAuction.sol\":1058:1091  block.timestamp >= auctionEndTime */\n      lt\n      iszero\n        /* \"firstPriceAuction.sol\":1050:1121  require(block.timestamp >= auctionEndTime, \"Auction has not ended yet\") */\n      tag_54\n      jumpi\n      mload(0x40)\n      0x08c379a000000000000000000000000000000000000000000000000000000000\n      dup2\n      mstore\n      0x04\n      add\n      tag_55\n      swap1\n      tag_56\n      jump\t// in\n    tag_55:\n      mload(0x40)\n      dup1\n      swap2\n      sub\n      swap1\n      revert\n    tag_54:\n        /* \"firstPriceAuction.sol\":1153:1166  highestBidder */\n      0x03\n      0x00\n      swap1\n      sload\n      swap1\n      0x0100\n      exp\n      swap1\n      div\n      0xffffffffffffffffffffffffffffffffffffffff\n      and\n        /* \"firstPriceAuction.sol\":1139:1166  msg.sender == highestBidder */\n      0xffffffffffffffffffffffffffffffffffffffff\n      and\n        /* \"firstPriceAuction.sol\":1139:1149  msg.sender */\n      caller\n        /* \"firstPriceAuction.sol\":1139:1166  msg.sender == highestBidder */\n      0xffffffffffffffffffffffffffffffffffffffff\n      and\n      eq\n        /* \"firstPriceAuction.sol\":1131:1201  require(msg.sender == highestBidder, \"You are not the highest bidder\") */\n      tag_57\n      jumpi\n      mload(0x40)\n      0x08c379a000000000000000000000000000000000000000000000000000000000\n      dup2\n      mstore\n      0x04\n      add\n      tag_58\n      swap1\n      tag_59\n      jump\t// in\n    tag_58:\n      mload(0x40)\n      dup1\n      swap2\n      sub\n      swap1\n      revert\n    tag_57:\n        /* \"firstPriceAuction.sol\":1220:1227  hasPaid */\n      0x03\n      0x14\n      swap1\n      sload\n      swap1\n      0x0100\n      exp\n      swap1\n      div\n      0xff\n      and\n        /* \"firstPriceAuction.sol\":1219:1227  !hasPaid */\n      iszero\n        /* \"firstPriceAuction.sol\":1211:1252  require(!hasPaid, \"Payment already made\") */\n      tag_60\n      jumpi\n      mload(0x40)\n      0x08c379a000000000000000000000000000000000000000000000000000000000\n      dup2\n      mstore\n      0x04\n      add\n      tag_61\n      swap1\n      tag_62\n      jump\t// in\n    tag_61:\n      mload(0x40)\n      dup1\n      swap2\n      sub\n      swap1\n      revert\n    tag_60:\n        /* \"firstPriceAuction.sol\":1272:1276  true */\n      0x01\n        /* \"firstPriceAuction.sol\":1262:1269  hasPaid */\n      0x03\n      0x14\n        /* \"firstPriceAuction.sol\":1262:1276  hasPaid = true */\n      0x0100\n      exp\n      dup2\n      sload\n      dup2\n      0xff\n      mul\n      not\n      and\n      swap1\n      dup4\n      iszero\n      iszero\n      mul\n      or\n      swap1\n      sstore\n      pop\n        /* \"firstPriceAuction.sol\":1294:1304  msg.sender */\n      caller\n        /* \"firstPriceAuction.sol\":1286:1314  payable(msg.sender).transfer */\n      0xffffffffffffffffffffffffffffffffffffffff\n      and\n        /* \"firstPriceAuction.sol\":1286:1326  payable(msg.sender).transfer(highestBid) */\n      0x08fc\n        /* \"firstPriceAuction.sol\":1315:1325  highestBid */\n      sload(0x02)\n        /* \"firstPriceAuction.sol\":1286:1326  payable(msg.sender).transfer(highestBid) */\n      swap1\n      dup2\n      iszero\n      mul\n      swap1\n      mload(0x40)\n      0x00\n      mload(0x40)\n      dup1\n      dup4\n      sub\n      dup2\n      dup6\n      dup9\n      dup9\n      call\n      swap4\n      pop\n      pop\n      pop\n      pop\n      iszero\n      dup1\n      iszero\n      tag_64\n      jumpi\n      returndatasize\n      0x00\n      dup1\n      returndatacopy\n      revert(0x00, returndatasize)\n    tag_64:\n      pop\n        /* \"firstPriceAuction.sol\":1018:1333  function pay() public {... */\n      jump\t// out\n        /* \"firstPriceAuction.sol\":121:147  uint public auctionEndTime */\n    tag_18:\n      sload(0x01)\n      dup2\n      jump\t// out\n        /* \"firstPriceAuction.sol\":246:282  address payable public highestBidder */\n    tag_23:\n      0x03\n      0x00\n      swap1\n      sload\n      swap1\n      0x0100\n      exp\n      swap1\n      div\n      0xffffffffffffffffffffffffffffffffffffffff\n      and\n      dup2\n      jump\t// out\n        /* \"firstPriceAuction.sol\":288:307  bool public hasPaid */\n    tag_28:\n      0x03\n      0x14\n      swap1\n      sload\n      swap1\n      0x0100\n      exp\n      swap1\n      div\n      0xff\n      and\n      dup2\n      jump\t// out\n        /* \"firstPriceAuction.sol\":384:422  mapping(address => bool) public hasBid */\n    tag_35:\n      mstore(0x20, 0x04)\n      dup1\n      0x00\n      mstore\n      keccak256(0x00, 0x40)\n      0x00\n      swap2\n      pop\n      sload\n      swap1\n      0x0100\n      exp\n      swap1\n      div\n      0xff\n      and\n      dup2\n      jump\t// out\n        /* \"firstPriceAuction.sol\":80:115  address payable public auctionOwner */\n    tag_39:\n      0x00\n      dup1\n      sload\n      swap1\n      0x0100\n      exp\n      swap1\n      div\n      0xffffffffffffffffffffffffffffffffffffffff\n      and\n      dup2\n      jump\t// out\n        /* \"firstPriceAuction.sol\":153:175  uint public highestBid */\n    tag_43:\n      sload(0x02)\n      dup2\n      jump\t// out\n        /* \"#utility.yul\":7:84   */\n    tag_65:\n        /* \"#utility.yul\":44:51   */\n      0x00\n        /* \"#utility.yul\":73:78   */\n      dup2\n        /* \"#utility.yul\":62:78   */\n      swap1\n      pop\n        /* \"#utility.yul\":7:84   */\n      swap2\n      swap1\n      pop\n      jump\t// out\n        /* \"#utility.yul\":90:208   */\n    tag_66:\n        /* \"#utility.yul\":177:201   */\n      tag_92\n        /* \"#utility.yul\":195:200   */\n      dup2\n        /* \"#utility.yul\":177:201   */\n      tag_65\n      jump\t// in\n    tag_92:\n        /* \"#utility.yul\":172:175   */\n      dup3\n        /* \"#utility.yul\":165:202   */\n      mstore\n        /* \"#utility.yul\":90:208   */\n      pop\n      pop\n      jump\t// out\n        /* \"#utility.yul\":214:436   */\n    tag_20:\n        /* \"#utility.yul\":307:311   */\n      0x00\n        /* \"#utility.yul\":345:347   */\n      0x20\n        /* \"#utility.yul\":334:343   */\n      dup3\n        /* \"#utility.yul\":330:348   */\n      add\n        /* \"#utility.yul\":322:348   */\n      swap1\n      pop\n        /* \"#utility.yul\":358:429   */\n      tag_94\n        /* \"#utility.yul\":426:427   */\n      0x00\n        /* \"#utility.yul\":415:424   */\n      dup4\n        /* \"#utility.yul\":411:428   */\n      add\n        /* \"#utility.yul\":402:408   */\n      dup5\n        /* \"#utility.yul\":358:429   */\n      tag_66\n      jump\t// in\n    tag_94:\n        /* \"#utility.yul\":214:436   */\n      swap3\n      swap2\n      pop\n      pop\n      jump\t// out\n        /* \"#utility.yul\":442:568   */\n    tag_67:\n        /* \"#utility.yul\":479:486   */\n      0x00\n        /* \"#utility.yul\":519:561   */\n      0xffffffffffffffffffffffffffffffffffffffff\n        /* \"#utility.yul\":512:517   */\n      dup3\n        /* \"#utility.yul\":508:562   */\n      and\n        /* \"#utility.yul\":497:562   */\n      swap1\n      pop\n        /* \"#utility.yul\":442:568   */\n      swap2\n      swap1\n      pop\n      jump\t// out\n        /* \"#utility.yul\":574:678   */\n    tag_68:\n        /* \"#utility.yul\":619:626   */\n      0x00\n        /* \"#utility.yul\":648:672   */\n      tag_97\n        /* \"#utility.yul\":666:671   */\n      dup3\n        /* \"#utility.yul\":648:672   */\n      tag_67\n      jump\t// in\n    tag_97:\n        /* \"#utility.yul\":637:672   */\n      swap1\n      pop\n        /* \"#utility.yul\":574:678   */\n      swap2\n      swap1\n      pop\n      jump\t// out\n        /* \"#utility.yul\":684:826   */\n    tag_69:\n        /* \"#utility.yul\":787:819   */\n      tag_99\n        /* \"#utility.yul\":813:818   */\n      dup2\n        /* \"#utility.yul\":787:819   */\n      tag_68\n      jump\t// in\n    tag_99:\n        /* \"#utility.yul\":782:785   */\n      dup3\n        /* \"#utility.yul\":775:820   */\n      mstore\n        /* \"#utility.yul\":684:826   */\n      pop\n      pop\n      jump\t// out\n        /* \"#utility.yul\":832:1086   */\n    tag_25:\n        /* \"#utility.yul\":941:945   */\n      0x00\n        /* \"#utility.yul\":979:981   */\n      0x20\n        /* \"#utility.yul\":968:977   */\n      dup3\n        /* \"#utility.yul\":964:982   */\n      add\n        /* \"#utility.yul\":956:982   */\n      swap1\n      pop\n        /* \"#utility.yul\":992:1079   */\n      tag_101\n        /* \"#utility.yul\":1076:1077   */\n      0x00\n        /* \"#utility.yul\":1065:1074   */\n      dup4\n        /* \"#utility.yul\":1061:1078   */\n      add\n        /* \"#utility.yul\":1052:1058   */\n      dup5\n        /* \"#utility.yul\":992:1079   */\n      tag_69\n      jump\t// in\n    tag_101:\n        /* \"#utility.yul\":832:1086   */\n      swap3\n      swap2\n      pop\n      pop\n      jump\t// out\n        /* \"#utility.yul\":1092:1182   */\n    tag_70:\n        /* \"#utility.yul\":1126:1133   */\n      0x00\n        /* \"#utility.yul\":1169:1174   */\n      dup2\n        /* \"#utility.yul\":1162:1175   */\n      iszero\n        /* \"#utility.yul\":1155:1176   */\n      iszero\n        /* \"#utility.yul\":1144:1176   */\n      swap1\n      pop\n        /* \"#utility.yul\":1092:1182   */\n      swap2\n      swap1\n      pop\n      jump\t// out\n        /* \"#utility.yul\":1188:1297   */\n    tag_71:\n        /* \"#utility.yul\":1269:1290   */\n      tag_104\n        /* \"#utility.yul\":1284:1289   */\n      dup2\n        /* \"#utility.yul\":1269:1290   */\n      tag_70\n      jump\t// in\n    tag_104:\n        /* \"#utility.yul\":1264:1267   */\n      dup3\n        /* \"#utility.yul\":1257:1291   */\n      mstore\n        /* \"#utility.yul\":1188:1297   */\n      pop\n      pop\n      jump\t// out\n        /* \"#utility.yul\":1303:1513   */\n    tag_30:\n        /* \"#utility.yul\":1390:1394   */\n      0x00\n        /* \"#utility.yul\":1428:1430   */\n      0x20\n        /* \"#utility.yul\":1417:1426   */\n      dup3\n        /* \"#utility.yul\":1413:1431   */\n      add\n        /* \"#utility.yul\":1405:1431   */\n      swap1\n      pop\n        /* \"#utility.yul\":1441:1506   */\n      tag_106\n        /* \"#utility.yul\":1503:1504   */\n      0x00\n        /* \"#utility.yul\":1492:1501   */\n      dup4\n        /* \"#utility.yul\":1488:1505   */\n      add\n        /* \"#utility.yul\":1479:1485   */\n      dup5\n        /* \"#utility.yul\":1441:1506   */\n      tag_71\n      jump\t// in\n    tag_106:\n        /* \"#utility.yul\":1303:1513   */\n      swap3\n      swap2\n      pop\n      pop\n      jump\t// out\n        /* \"#utility.yul\":1600:1717   */\n    tag_73:\n        /* \"#utility.yul\":1709:1710   */\n      0x00\n        /* \"#utility.yul\":1706:1707   */\n      dup1\n        /* \"#utility.yul\":1699:1711   */\n      revert\n        /* \"#utility.yul\":1846:1942   */\n    tag_75:\n        /* \"#utility.yul\":1883:1890   */\n      0x00\n        /* \"#utility.yul\":1912:1936   */\n      tag_111\n        /* \"#utility.yul\":1930:1935   */\n      dup3\n        /* \"#utility.yul\":1912:1936   */\n      tag_67\n      jump\t// in\n    tag_111:\n        /* \"#utility.yul\":1901:1936   */\n      swap1\n      pop\n        /* \"#utility.yul\":1846:1942   */\n      swap2\n      swap1\n      pop\n      jump\t// out\n        /* \"#utility.yul\":1948:2070   */\n    tag_76:\n        /* \"#utility.yul\":2021:2045   */\n      tag_113\n        /* \"#utility.yul\":2039:2044   */\n      dup2\n        /* \"#utility.yul\":2021:2045   */\n      tag_75\n      jump\t// in\n    tag_113:\n        /* \"#utility.yul\":2014:2019   */\n      dup2\n        /* \"#utility.yul\":2011:2046   */\n      eq\n        /* \"#utility.yul\":2001:2064   */\n      tag_114\n      jumpi\n        /* \"#utility.yul\":2060:2061   */\n      0x00\n        /* \"#utility.yul\":2057:2058   */\n      dup1\n        /* \"#utility.yul\":2050:2062   */\n      revert\n        /* \"#utility.yul\":2001:2064   */\n    tag_114:\n        /* \"#utility.yul\":1948:2070   */\n      pop\n      jump\t// out\n        /* \"#utility.yul\":2076:2215   */\n    tag_77:\n        /* \"#utility.yul\":2122:2127   */\n      0x00\n        /* \"#utility.yul\":2160:2166   */\n      dup2\n        /* \"#utility.yul\":2147:2167   */\n      calldataload\n        /* \"#utility.yul\":2138:2167   */\n      swap1\n      pop\n        /* \"#utility.yul\":2176:2209   */\n      tag_116\n        /* \"#utility.yul\":2203:2208   */\n      dup2\n        /* \"#utility.yul\":2176:2209   */\n      tag_76\n      jump\t// in\n    tag_116:\n        /* \"#utility.yul\":2076:2215   */\n      swap3\n      swap2\n      pop\n      pop\n      jump\t// out\n        /* \"#utility.yul\":2221:2550   */\n    tag_34:\n        /* \"#utility.yul\":2280:2286   */\n      0x00\n        /* \"#utility.yul\":2329:2331   */\n      0x20\n        /* \"#utility.yul\":2317:2326   */\n      dup3\n        /* \"#utility.yul\":2308:2315   */\n      dup5\n        /* \"#utility.yul\":2304:2327   */\n      sub\n        /* \"#utility.yul\":2300:2332   */\n      slt\n        /* \"#utility.yul\":2297:2416   */\n      iszero\n      tag_118\n      jumpi\n        /* \"#utility.yul\":2335:2414   */\n      tag_119\n      tag_73\n      jump\t// in\n    tag_119:\n        /* \"#utility.yul\":2297:2416   */\n    tag_118:\n        /* \"#utility.yul\":2455:2456   */\n      0x00\n        /* \"#utility.yul\":2480:2533   */\n      tag_120\n        /* \"#utility.yul\":2525:2532   */\n      dup5\n        /* \"#utility.yul\":2516:2522   */\n      dup3\n        /* \"#utility.yul\":2505:2514   */\n      dup6\n        /* \"#utility.yul\":2501:2523   */\n      add\n        /* \"#utility.yul\":2480:2533   */\n      tag_77\n      jump\t// in\n    tag_120:\n        /* \"#utility.yul\":2470:2533   */\n      swap2\n      pop\n        /* \"#utility.yul\":2426:2543   */\n      pop\n        /* \"#utility.yul\":2221:2550   */\n      swap3\n      swap2\n      pop\n      pop\n      jump\t// out\n        /* \"#utility.yul\":2556:2725   */\n    tag_78:\n        /* \"#utility.yul\":2640:2651   */\n      0x00\n        /* \"#utility.yul\":2674:2680   */\n      dup3\n        /* \"#utility.yul\":2669:2672   */\n      dup3\n        /* \"#utility.yul\":2662:2681   */\n      mstore\n        /* \"#utility.yul\":2714:2718   */\n      0x20\n        /* \"#utility.yul\":2709:2712   */\n      dup3\n        /* \"#utility.yul\":2705:2719   */\n      add\n        /* \"#utility.yul\":2690:2719   */\n      swap1\n      pop\n        /* \"#utility.yul\":2556:2725   */\n      swap3\n      swap2\n      pop\n      pop\n      jump\t// out\n        /* \"#utility.yul\":2731:2898   */\n    tag_79:\n        /* \"#utility.yul\":2871:2890   */\n      0x41756374696f6e2068617320656e646564000000000000000000000000000000\n        /* \"#utility.yul\":2867:2868   */\n      0x00\n        /* \"#utility.yul\":2859:2865   */\n      dup3\n        /* \"#utility.yul\":2855:2869   */\n      add\n        /* \"#utility.yul\":2848:2891   */\n      mstore\n        /* \"#utility.yul\":2731:2898   */\n      pop\n      jump\t// out\n        /* \"#utility.yul\":2904:3270   */\n    tag_80:\n        /* \"#utility.yul\":3046:3049   */\n      0x00\n        /* \"#utility.yul\":3067:3134   */\n      tag_124\n        /* \"#utility.yul\":3131:3133   */\n      0x11\n        /* \"#utility.yul\":3126:3129   */\n      dup4\n        /* \"#utility.yul\":3067:3134   */\n      tag_78\n      jump\t// in\n    tag_124:\n        /* \"#utility.yul\":3060:3134   */\n      swap2\n      pop\n        /* \"#utility.yul\":3143:3236   */\n      tag_125\n        /* \"#utility.yul\":3232:3235   */\n      dup3\n        /* \"#utility.yul\":3143:3236   */\n      tag_79\n      jump\t// in\n    tag_125:\n        /* \"#utility.yul\":3261:3263   */\n      0x20\n        /* \"#utility.yul\":3256:3259   */\n      dup3\n        /* \"#utility.yul\":3252:3264   */\n      add\n        /* \"#utility.yul\":3245:3264   */\n      swap1\n      pop\n        /* \"#utility.yul\":2904:3270   */\n      swap2\n      swap1\n      pop\n      jump\t// out\n        /* \"#utility.yul\":3276:3695   */\n    tag_48:\n        /* \"#utility.yul\":3442:3446   */\n      0x00\n        /* \"#utility.yul\":3480:3482   */\n      0x20\n        /* \"#utility.yul\":3469:3478   */\n      dup3\n        /* \"#utility.yul\":3465:3483   */\n      add\n        /* \"#utility.yul\":3457:3483   */\n      swap1\n      pop\n        /* \"#utility.yul\":3529:3538   */\n      dup2\n        /* \"#utility.yul\":3523:3527   */\n      dup2\n        /* \"#utility.yul\":3519:3539   */\n      sub\n        /* \"#utility.yul\":3515:3516   */\n      0x00\n        /* \"#utility.yul\":3504:3513   */\n      dup4\n        /* \"#utility.yul\":3500:3517   */\n      add\n        /* \"#utility.yul\":3493:3540   */\n      mstore\n        /* \"#utility.yul\":3557:3688   */\n      tag_127\n        /* \"#utility.yul\":3683:3687   */\n      dup2\n        /* \"#utility.yul\":3557:3688   */\n      tag_80\n      jump\t// in\n    tag_127:\n        /* \"#utility.yul\":3549:3688   */\n      swap1\n      pop\n        /* \"#utility.yul\":3276:3695   */\n      swap2\n      swap1\n      pop\n      jump\t// out\n        /* \"#utility.yul\":3701:3862   */\n    tag_81:\n        /* \"#utility.yul\":3841:3854   */\n      0x416c726561647920426964000000000000000000000000000000000000000000\n        /* \"#utility.yul\":3837:3838   */\n      0x00\n        /* \"#utility.yul\":3829:3835   */\n      dup3\n        /* \"#utility.yul\":3825:3839   */\n      add\n        /* \"#utility.yul\":3818:3855   */\n      mstore\n        /* \"#utility.yul\":3701:3862   */\n      pop\n      jump\t// out\n        /* \"#utility.yul\":3868:4234   */\n    tag_82:\n        /* \"#utility.yul\":4010:4013   */\n      0x00\n        /* \"#utility.yul\":4031:4098   */\n      tag_130\n        /* \"#utility.yul\":4095:4097   */\n      0x0b\n        /* \"#utility.yul\":4090:4093   */\n      dup4\n        /* \"#utility.yul\":4031:4098   */\n      tag_78\n      jump\t// in\n    tag_130:\n        /* \"#utility.yul\":4024:4098   */\n      swap2\n      pop\n        /* \"#utility.yul\":4107:4200   */\n      tag_131\n        /* \"#utility.yul\":4196:4199   */\n      dup3\n        /* \"#utility.yul\":4107:4200   */\n      tag_81\n      jump\t// in\n    tag_131:\n        /* \"#utility.yul\":4225:4227   */\n      0x20\n        /* \"#utility.yul\":4220:4223   */\n      dup3\n        /* \"#utility.yul\":4216:4228   */\n      add\n        /* \"#utility.yul\":4209:4228   */\n      swap1\n      pop\n        /* \"#utility.yul\":3868:4234   */\n      swap2\n      swap1\n      pop\n      jump\t// out\n        /* \"#utility.yul\":4240:4659   */\n    tag_51:\n        /* \"#utility.yul\":4406:4410   */\n      0x00\n        /* \"#utility.yul\":4444:4446   */\n      0x20\n        /* \"#utility.yul\":4433:4442   */\n      dup3\n        /* \"#utility.yul\":4429:4447   */\n      add\n        /* \"#utility.yul\":4421:4447   */\n      swap1\n      pop\n        /* \"#utility.yul\":4493:4502   */\n      dup2\n        /* \"#utility.yul\":4487:4491   */\n      dup2\n        /* \"#utility.yul\":4483:4503   */\n      sub\n        /* \"#utility.yul\":4479:4480   */\n      0x00\n        /* \"#utility.yul\":4468:4477   */\n      dup4\n        /* \"#utility.yul\":4464:4481   */\n      add\n        /* \"#utility.yul\":4457:4504   */\n      mstore\n        /* \"#utility.yul\":4521:4652   */\n      tag_133\n        /* \"#utility.yul\":4647:4651   */\n      dup2\n        /* \"#utility.yul\":4521:4652   */\n      tag_82\n      jump\t// in\n    tag_133:\n        /* \"#utility.yul\":4513:4652   */\n      swap1\n      pop\n        /* \"#utility.yul\":4240:4659   */\n      swap2\n      swap1\n      pop\n      jump\t// out\n        /* \"#utility.yul\":4665:4840   */\n    tag_83:\n        /* \"#utility.yul\":4805:4832   */\n      0x41756374696f6e20686173206e6f7420656e6465642079657400000000000000\n        /* \"#utility.yul\":4801:4802   */\n      0x00\n        /* \"#utility.yul\":4793:4799   */\n      dup3\n        /* \"#utility.yul\":4789:4803   */\n      add\n        /* \"#utility.yul\":4782:4833   */\n      mstore\n        /* \"#utility.yul\":4665:4840   */\n      pop\n      jump\t// out\n        /* \"#utility.yul\":4846:5212   */\n    tag_84:\n        /* \"#utility.yul\":4988:4991   */\n      0x00\n        /* \"#utility.yul\":5009:5076   */\n      tag_136\n        /* \"#utility.yul\":5073:5075   */\n      0x19\n        /* \"#utility.yul\":5068:5071   */\n      dup4\n        /* \"#utility.yul\":5009:5076   */\n      tag_78\n      jump\t// in\n    tag_136:\n        /* \"#utility.yul\":5002:5076   */\n      swap2\n      pop\n        /* \"#utility.yul\":5085:5178   */\n      tag_137\n        /* \"#utility.yul\":5174:5177   */\n      dup3\n        /* \"#utility.yul\":5085:5178   */\n      tag_83\n      jump\t// in\n    tag_137:\n        /* \"#utility.yul\":5203:5205   */\n      0x20\n        /* \"#utility.yul\":5198:5201   */\n      dup3\n        /* \"#utility.yul\":5194:5206   */\n      add\n        /* \"#utility.yul\":5187:5206   */\n      swap1\n      pop\n        /* \"#utility.yul\":4846:5212   */\n      swap2\n      swap1\n      pop\n      jump\t// out\n        /* \"#utility.yul\":5218:5637   */\n    tag_56:\n        /* \"#utility.yul\":5384:5388   */\n      0x00\n        /* \"#utility.yul\":5422:5424   */\n      0x20\n        /* \"#utility.yul\":5411:5420   */\n      dup3\n        /* \"#utility.yul\":5407:5425   */\n      add\n        /* \"#utility.yul\":5399:5425   */\n      swap1\n      pop\n        /* \"#utility.yul\":5471:5480   */\n      dup2\n        /* \"#utility.yul\":5465:5469   */\n      dup2\n        /* \"#utility.yul\":5461:5481   */\n      sub\n        /* \"#utility.yul\":5457:5458   */\n      0x00\n        /* \"#utility.yul\":5446:5455   */\n      dup4\n        /* \"#utility.yul\":5442:5459   */\n      add\n        /* \"#utility.yul\":5435:5482   */\n      mstore\n        /* \"#utility.yul\":5499:5630   */\n      tag_139\n        /* \"#utility.yul\":5625:5629   */\n      dup2\n        /* \"#utility.yul\":5499:5630   */\n      tag_84\n      jump\t// in\n    tag_139:\n        /* \"#utility.yul\":5491:5630   */\n      swap1\n      pop\n        /* \"#utility.yul\":5218:5637   */\n      swap2\n      swap1\n      pop\n      jump\t// out\n        /* \"#utility.yul\":5643:5823   */\n    tag_85:\n        /* \"#utility.yul\":5783:5815   */\n      0x596f7520617265206e6f74207468652068696768657374206269646465720000\n        /* \"#utility.yul\":5779:5780   */\n      0x00\n        /* \"#utility.yul\":5771:5777   */\n      dup3\n        /* \"#utility.yul\":5767:5781   */\n      add\n        /* \"#utility.yul\":5760:5816   */\n      mstore\n        /* \"#utility.yul\":5643:5823   */\n      pop\n      jump\t// out\n        /* \"#utility.yul\":5829:6195   */\n    tag_86:\n        /* \"#utility.yul\":5971:5974   */\n      0x00\n        /* \"#utility.yul\":5992:6059   */\n      tag_142\n        /* \"#utility.yul\":6056:6058   */\n      0x1e\n        /* \"#utility.yul\":6051:6054   */\n      dup4\n        /* \"#utility.yul\":5992:6059   */\n      tag_78\n      jump\t// in\n    tag_142:\n        /* \"#utility.yul\":5985:6059   */\n      swap2\n      pop\n        /* \"#utility.yul\":6068:6161   */\n      tag_143\n        /* \"#utility.yul\":6157:6160   */\n      dup3\n        /* \"#utility.yul\":6068:6161   */\n      tag_85\n      jump\t// in\n    tag_143:\n        /* \"#utility.yul\":6186:6188   */\n      0x20\n        /* \"#utility.yul\":6181:6184   */\n      dup3\n        /* \"#utility.yul\":6177:6189   */\n      add\n        /* \"#utility.yul\":6170:6189   */\n      swap1\n      pop\n        /* \"#utility.yul\":5829:6195   */\n      swap2\n      swap1\n      pop\n      jump\t// out\n        /* \"#utility.yul\":6201:6620   */\n    tag_59:\n        /* \"#utility.yul\":6367:6371   */\n      0x00\n        /* \"#utility.yul\":6405:6407   */\n      0x20\n        /* \"#utility.yul\":6394:6403   */\n      dup3\n        /* \"#utility.yul\":6390:6408   */\n      add\n        /* \"#utility.yul\":6382:6408   */\n      swap1\n      pop\n        /* \"#utility.yul\":6454:6463   */\n      dup2\n        /* \"#utility.yul\":6448:6452   */\n      dup2\n        /* \"#utility.yul\":6444:6464   */\n      sub\n        /* \"#utility.yul\":6440:6441   */\n      0x00\n        /* \"#utility.yul\":6429:6438   */\n      dup4\n        /* \"#utility.yul\":6425:6442   */\n      add\n        /* \"#utility.yul\":6418:6465   */\n      mstore\n        /* \"#utility.yul\":6482:6613   */\n      tag_145\n        /* \"#utility.yul\":6608:6612   */\n      dup2\n        /* \"#utility.yul\":6482:6613   */\n      tag_86\n      jump\t// in\n    tag_145:\n        /* \"#utility.yul\":6474:6613   */\n      swap1\n      pop\n        /* \"#utility.yul\":6201:6620   */\n      swap2\n      swap1\n      pop\n      jump\t// out\n        /* \"#utility.yul\":6626:6796   */\n    tag_87:\n        /* \"#utility.yul\":6766:6788   */\n      0x5061796d656e7420616c7265616479206d616465000000000000000000000000\n        /* \"#utility.yul\":6762:6763   */\n      0x00\n        /* \"#utility.yul\":6754:6760   */\n      dup3\n        /* \"#utility.yul\":6750:6764   */\n      add\n        /* \"#utility.yul\":6743:6789   */\n      mstore\n        /* \"#utility.yul\":6626:6796   */\n      pop\n      jump\t// out\n        /* \"#utility.yul\":6802:7168   */\n    tag_88:\n        /* \"#utility.yul\":6944:6947   */\n      0x00\n        /* \"#utility.yul\":6965:7032   */\n      tag_148\n        /* \"#utility.yul\":7029:7031   */\n      0x14\n        /* \"#utility.yul\":7024:7027   */\n      dup4\n        /* \"#utility.yul\":6965:7032   */\n      tag_78\n      jump\t// in\n    tag_148:\n        /* \"#utility.yul\":6958:7032   */\n      swap2\n      pop\n        /* \"#utility.yul\":7041:7134   */\n      tag_149\n        /* \"#utility.yul\":7130:7133   */\n      dup3\n        /* \"#utility.yul\":7041:7134   */\n      tag_87\n      jump\t// in\n    tag_149:\n        /* \"#utility.yul\":7159:7161   */\n      0x20\n        /* \"#utility.yul\":7154:7157   */\n      dup3\n        /* \"#utility.yul\":7150:7162   */\n      add\n        /* \"#utility.yul\":7143:7162   */\n      swap1\n      pop\n        /* \"#utility.yul\":6802:7168   */\n      swap2\n      swap1\n      pop\n      jump\t// out\n        /* \"#utility.yul\":7174:7593   */\n    tag_62:\n        /* \"#utility.yul\":7340:7344   */\n      0x00\n        /* \"#utility.yul\":7378:7380   */\n      0x20\n        /* \"#utility.yul\":7367:7376   */\n      dup3\n        /* \"#utility.yul\":7363:7381   */\n      add\n        /* \"#utility.yul\":7355:7381   */\n      swap1\n      pop\n        /* \"#utility.yul\":7427:7436   */\n      dup2\n        /* \"#utility.yul\":7421:7425   */\n      dup2\n        /* \"#utility.yul\":7417:7437   */\n      sub\n        /* \"#utility.yul\":7413:7414   */\n      0x00\n        /* \"#utility.yul\":7402:7411   */\n      dup4\n        /* \"#utility.yul\":7398:7415   */\n      add\n        /* \"#utility.yul\":7391:7438   */\n      mstore\n        /* \"#utility.yul\":7455:7586   */\n      tag_151\n        /* \"#utility.yul\":7581:7585   */\n      dup2\n        /* \"#utility.yul\":7455:7586   */\n      tag_88\n      jump\t// in\n    tag_151:\n        /* \"#utility.yul\":7447:7586   */\n      swap1\n      pop\n        /* \"#utility.yul\":7174:7593   */\n      swap2\n      swap1\n      pop\n      jump\t// out\n\n    auxdata: 0xa2646970667358221220ddc55de1305c856d56d80d0d7ff0d7c50e570b566b2c65b17f31801dafa0b2da64736f6c63430008110033\n}\n",
				"bytecode": {
					"linkReferences": {},
					"object": "608060405234801561001057600080fd5b506040516109ed3803806109ed833981810160405281019061003291906100c5565b336000806101000a81548173ffffffffffffffffffffffffffffffffffffffff021916908373ffffffffffffffffffffffffffffffffffffffff160217905550804261007e9190610121565b60018190555050610155565b600080fd5b6000819050919050565b6100a28161008f565b81146100ad57600080fd5b50565b6000815190506100bf81610099565b92915050565b6000602082840312156100db576100da61008a565b5b60006100e9848285016100b0565b91505092915050565b7f4e487b7100000000000000000000000000000000000000000000000000000000600052601160045260246000fd5b600061012c8261008f565b91506101378361008f565b925082820190508082111561014f5761014e6100f2565b5b92915050565b610889806101646000396000f3fe60806040526004361061007b5760003560e01c8063c810af811161004e578063c810af81146100f7578063d2639dbf14610122578063d3924aaf1461015f578063d57bde791461018a5761007b565b80631998aeef146100805780631b9265b81461008a5780634b449cba146100a157806391f90157146100cc575b600080fd5b6100886101b5565b005b34801561009657600080fd5b5061009f6102dc565b005b3480156100ad57600080fd5b506100b6610467565b6040516100c39190610509565b60405180910390f35b3480156100d857600080fd5b506100e161046d565b6040516100ee9190610565565b60405180910390f35b34801561010357600080fd5b5061010c610493565b604051610119919061059b565b60405180910390f35b34801561012e57600080fd5b50610149600480360381019061014491906105f9565b6104a6565b604051610156919061059b565b60405180910390f35b34801561016b57600080fd5b506101746104c6565b6040516101819190610565565b60405180910390f35b34801561019657600080fd5b5061019f6104ea565b6040516101ac9190610509565b60405180910390f35b6001544211156101fa576040517f08c379a00000000000000000000000000000000000000000000000000000000081526004016101f190610683565b60405180910390fd5b600460003373ffffffffffffffffffffffffffffffffffffffff1673ffffffffffffffffffffffffffffffffffffffff16815260200190815260200160002060009054906101000a900460ff1615610287576040517f08c379a000000000000000000000000000000000000000000000000000000000815260040161027e906106ef565b60405180910390fd5b6002543411156102da573460028190555033600360006101000a81548173ffffffffffffffffffffffffffffffffffffffff021916908373ffffffffffffffffffffffffffffffffffffffff1602179055505b565b600154421015610321576040517f08c379a00000000000000000000000000000000000000000000000000000000081526004016103189061075b565b60405180910390fd5b600360009054906101000a900473ffffffffffffffffffffffffffffffffffffffff1673ffffffffffffffffffffffffffffffffffffffff163373ffffffffffffffffffffffffffffffffffffffff16146103b1576040517f08c379a00000000000000000000000000000000000000000000000000000000081526004016103a8906107c7565b60405180910390fd5b600360149054906101000a900460ff1615610401576040517f08c379a00000000000000000000000000000000000000000000000000000000081526004016103f890610833565b60405180910390fd5b6001600360146101000a81548160ff0219169083151502179055503373ffffffffffffffffffffffffffffffffffffffff166108fc6002549081150290604051600060405180830381858888f19350505050158015610464573d6000803e3d6000fd5b50565b60015481565b600360009054906101000a900473ffffffffffffffffffffffffffffffffffffffff1681565b600360149054906101000a900460ff1681565b60046020528060005260406000206000915054906101000a900460ff1681565b60008054906101000a900473ffffffffffffffffffffffffffffffffffffffff1681565b60025481565b6000819050919050565b610503816104f0565b82525050565b600060208201905061051e60008301846104fa565b92915050565b600073ffffffffffffffffffffffffffffffffffffffff82169050919050565b600061054f82610524565b9050919050565b61055f81610544565b82525050565b600060208201905061057a6000830184610556565b92915050565b60008115159050919050565b61059581610580565b82525050565b60006020820190506105b0600083018461058c565b92915050565b600080fd5b60006105c682610524565b9050919050565b6105d6816105bb565b81146105e157600080fd5b50565b6000813590506105f3816105cd565b92915050565b60006020828403121561060f5761060e6105b6565b5b600061061d848285016105e4565b91505092915050565b600082825260208201905092915050565b7f41756374696f6e2068617320656e646564000000000000000000000000000000600082015250565b600061066d601183610626565b915061067882610637565b602082019050919050565b6000602082019050818103600083015261069c81610660565b9050919050565b7f416c726561647920426964000000000000000000000000000000000000000000600082015250565b60006106d9600b83610626565b91506106e4826106a3565b602082019050919050565b60006020820190508181036000830152610708816106cc565b9050919050565b7f41756374696f6e20686173206e6f7420656e6465642079657400000000000000600082015250565b6000610745601983610626565b91506107508261070f565b602082019050919050565b6000602082019050818103600083015261077481610738565b9050919050565b7f596f7520617265206e6f74207468652068696768657374206269646465720000600082015250565b60006107b1601e83610626565b91506107bc8261077b565b602082019050919050565b600060208201905081810360008301526107e0816107a4565b9050919050565b7f5061796d656e7420616c7265616479206d616465000000000000000000000000600082015250565b600061081d601483610626565b9150610828826107e7565b602082019050919050565b6000602082019050818103600083015261084c81610810565b905091905056fea2646970667358221220ddc55de1305c856d56d80d0d7ff0d7c50e570b566b2c65b17f31801dafa0b2da64736f6c63430008110033",
					"opcodes": "PUSH1 0x80 PUSH1 0x40 MSTORE CALLVALUE DUP1 ISZERO PUSH2 0x10 JUMPI PUSH1 0x0 DUP1 REVERT JUMPDEST POP PUSH1 0x40 MLOAD PUSH2 0x9ED CODESIZE SUB DUP1 PUSH2 0x9ED DUP4 CODECOPY DUP2 DUP2 ADD PUSH1 0x40 MSTORE DUP2 ADD SWAP1 PUSH2 0x32 SWAP2 SWAP1 PUSH2 0xC5 JUMP JUMPDEST CALLER PUSH1 0x0 DUP1 PUSH2 0x100 EXP DUP2 SLOAD DUP2 PUSH20 0xFFFFFFFFFFFFFFFFFFFFFFFFFFFFFFFFFFFFFFFF MUL NOT AND SWAP1 DUP4 PUSH20 0xFFFFFFFFFFFFFFFFFFFFFFFFFFFFFFFFFFFFFFFF AND MUL OR SWAP1 SSTORE POP DUP1 TIMESTAMP PUSH2 0x7E SWAP2 SWAP1 PUSH2 0x121 JUMP JUMPDEST PUSH1 0x1 DUP2 SWAP1 SSTORE POP POP PUSH2 0x155 JUMP JUMPDEST PUSH1 0x0 DUP1 REVERT JUMPDEST PUSH1 0x0 DUP2 SWAP1 POP SWAP2 SWAP1 POP JUMP JUMPDEST PUSH2 0xA2 DUP2 PUSH2 0x8F JUMP JUMPDEST DUP2 EQ PUSH2 0xAD JUMPI PUSH1 0x0 DUP1 REVERT JUMPDEST POP JUMP JUMPDEST PUSH1 0x0 DUP2 MLOAD SWAP1 POP PUSH2 0xBF DUP2 PUSH2 0x99 JUMP JUMPDEST SWAP3 SWAP2 POP POP JUMP JUMPDEST PUSH1 0x0 PUSH1 0x20 DUP3 DUP5 SUB SLT ISZERO PUSH2 0xDB JUMPI PUSH2 0xDA PUSH2 0x8A JUMP JUMPDEST JUMPDEST PUSH1 0x0 PUSH2 0xE9 DUP5 DUP3 DUP6 ADD PUSH2 0xB0 JUMP JUMPDEST SWAP2 POP POP SWAP3 SWAP2 POP POP JUMP JUMPDEST PUSH32 0x4E487B7100000000000000000000000000000000000000000000000000000000 PUSH1 0x0 MSTORE PUSH1 0x11 PUSH1 0x4 MSTORE PUSH1 0x24 PUSH1 0x0 REVERT JUMPDEST PUSH1 0x0 PUSH2 0x12C DUP3 PUSH2 0x8F JUMP JUMPDEST SWAP2 POP PUSH2 0x137 DUP4 PUSH2 0x8F JUMP JUMPDEST SWAP3 POP DUP3 DUP3 ADD SWAP1 POP DUP1 DUP3 GT ISZERO PUSH2 0x14F JUMPI PUSH2 0x14E PUSH2 0xF2 JUMP JUMPDEST JUMPDEST SWAP3 SWAP2 POP POP JUMP JUMPDEST PUSH2 0x889 DUP1 PUSH2 0x164 PUSH1 0x0 CODECOPY PUSH1 0x0 RETURN INVALID PUSH1 0x80 PUSH1 0x40 MSTORE PUSH1 0x4 CALLDATASIZE LT PUSH2 0x7B JUMPI PUSH1 0x0 CALLDATALOAD PUSH1 0xE0 SHR DUP1 PUSH4 0xC810AF81 GT PUSH2 0x4E JUMPI DUP1 PUSH4 0xC810AF81 EQ PUSH2 0xF7 JUMPI DUP1 PUSH4 0xD2639DBF EQ PUSH2 0x122 JUMPI DUP1 PUSH4 0xD3924AAF EQ PUSH2 0x15F JUMPI DUP1 PUSH4 0xD57BDE79 EQ PUSH2 0x18A JUMPI PUSH2 0x7B JUMP JUMPDEST DUP1 PUSH4 0x1998AEEF EQ PUSH2 0x80 JUMPI DUP1 PUSH4 0x1B9265B8 EQ PUSH2 0x8A JUMPI DUP1 PUSH4 0x4B449CBA EQ PUSH2 0xA1 JUMPI DUP1 PUSH4 0x91F90157 EQ PUSH2 0xCC JUMPI JUMPDEST PUSH1 0x0 DUP1 REVERT JUMPDEST PUSH2 0x88 PUSH2 0x1B5 JUMP JUMPDEST STOP JUMPDEST CALLVALUE DUP1 ISZERO PUSH2 0x96 JUMPI PUSH1 0x0 DUP1 REVERT JUMPDEST POP PUSH2 0x9F PUSH2 0x2DC JUMP JUMPDEST STOP JUMPDEST CALLVALUE DUP1 ISZERO PUSH2 0xAD JUMPI PUSH1 0x0 DUP1 REVERT JUMPDEST POP PUSH2 0xB6 PUSH2 0x467 JUMP JUMPDEST PUSH1 0x40 MLOAD PUSH2 0xC3 SWAP2 SWAP1 PUSH2 0x509 JUMP JUMPDEST PUSH1 0x40 MLOAD DUP1 SWAP2 SUB SWAP1 RETURN JUMPDEST CALLVALUE DUP1 ISZERO PUSH2 0xD8 JUMPI PUSH1 0x0 DUP1 REVERT JUMPDEST POP PUSH2 0xE1 PUSH2 0x46D JUMP JUMPDEST PUSH1 0x40 MLOAD PUSH2 0xEE SWAP2 SWAP1 PUSH2 0x565 JUMP JUMPDEST PUSH1 0x40 MLOAD DUP1 SWAP2 SUB SWAP1 RETURN JUMPDEST CALLVALUE DUP1 ISZERO PUSH2 0x103 JUMPI PUSH1 0x0 DUP1 REVERT JUMPDEST POP PUSH2 0x10C PUSH2 0x493 JUMP JUMPDEST PUSH1 0x40 MLOAD PUSH2 0x119 SWAP2 SWAP1 PUSH2 0x59B JUMP JUMPDEST PUSH1 0x40 MLOAD DUP1 SWAP2 SUB SWAP1 RETURN JUMPDEST CALLVALUE DUP1 ISZERO PUSH2 0x12E JUMPI PUSH1 0x0 DUP1 REVERT JUMPDEST POP PUSH2 0x149 PUSH1 0x4 DUP1 CALLDATASIZE SUB DUP2 ADD SWAP1 PUSH2 0x144 SWAP2 SWAP1 PUSH2 0x5F9 JUMP JUMPDEST PUSH2 0x4A6 JUMP JUMPDEST PUSH1 0x40 MLOAD PUSH2 0x156 SWAP2 SWAP1 PUSH2 0x59B JUMP JUMPDEST PUSH1 0x40 MLOAD DUP1 SWAP2 SUB SWAP1 RETURN JUMPDEST CALLVALUE DUP1 ISZERO PUSH2 0x16B JUMPI PUSH1 0x0 DUP1 REVERT JUMPDEST POP PUSH2 0x174 PUSH2 0x4C6 JUMP JUMPDEST PUSH1 0x40 MLOAD PUSH2 0x181 SWAP2 SWAP1 PUSH2 0x565 JUMP JUMPDEST PUSH1 0x40 MLOAD DUP1 SWAP2 SUB SWAP1 RETURN JUMPDEST CALLVALUE DUP1 ISZERO PUSH2 0x196 JUMPI PUSH1 0x0 DUP1 REVERT JUMPDEST POP PUSH2 0x19F PUSH2 0x4EA JUMP JUMPDEST PUSH1 0x40 MLOAD PUSH2 0x1AC SWAP2 SWAP1 PUSH2 0x509 JUMP JUMPDEST PUSH1 0x40 MLOAD DUP1 SWAP2 SUB SWAP1 RETURN JUMPDEST PUSH1 0x1 SLOAD TIMESTAMP GT ISZERO PUSH2 0x1FA JUMPI PUSH1 0x40 MLOAD PUSH32 0x8C379A000000000000000000000000000000000000000000000000000000000 DUP2 MSTORE PUSH1 0x4 ADD PUSH2 0x1F1 SWAP1 PUSH2 0x683 JUMP JUMPDEST PUSH1 0x40 MLOAD DUP1 SWAP2 SUB SWAP1 REVERT JUMPDEST PUSH1 0x4 PUSH1 0x0 CALLER PUSH20 0xFFFFFFFFFFFFFFFFFFFFFFFFFFFFFFFFFFFFFFFF AND PUSH20 0xFFFFFFFFFFFFFFFFFFFFFFFFFFFFFFFFFFFFFFFF AND DUP2 MSTORE PUSH1 0x20 ADD SWAP1 DUP2 MSTORE PUSH1 0x20 ADD PUSH1 0x0 KECCAK256 PUSH1 0x0 SWAP1 SLOAD SWAP1 PUSH2 0x100 EXP SWAP1 DIV PUSH1 0xFF AND ISZERO PUSH2 0x287 JUMPI PUSH1 0x40 MLOAD PUSH32 0x8C379A000000000000000000000000000000000000000000000000000000000 DUP2 MSTORE PUSH1 0x4 ADD PUSH2 0x27E SWAP1 PUSH2 0x6EF JUMP JUMPDEST PUSH1 0x40 MLOAD DUP1 SWAP2 SUB SWAP1 REVERT JUMPDEST PUSH1 0x2 SLOAD CALLVALUE GT ISZERO PUSH2 0x2DA JUMPI CALLVALUE PUSH1 0x2 DUP2 SWAP1 SSTORE POP CALLER PUSH1 0x3 PUSH1 0x0 PUSH2 0x100 EXP DUP2 SLOAD DUP2 PUSH20 0xFFFFFFFFFFFFFFFFFFFFFFFFFFFFFFFFFFFFFFFF MUL NOT AND SWAP1 DUP4 PUSH20 0xFFFFFFFFFFFFFFFFFFFFFFFFFFFFFFFFFFFFFFFF AND MUL OR SWAP1 SSTORE POP JUMPDEST JUMP JUMPDEST PUSH1 0x1 SLOAD TIMESTAMP LT ISZERO PUSH2 0x321 JUMPI PUSH1 0x40 MLOAD PUSH32 0x8C379A000000000000000000000000000000000000000000000000000000000 DUP2 MSTORE PUSH1 0x4 ADD PUSH2 0x318 SWAP1 PUSH2 0x75B JUMP JUMPDEST PUSH1 0x40 MLOAD DUP1 SWAP2 SUB SWAP1 REVERT JUMPDEST PUSH1 0x3 PUSH1 0x0 SWAP1 SLOAD SWAP1 PUSH2 0x100 EXP SWAP1 DIV PUSH20 0xFFFFFFFFFFFFFFFFFFFFFFFFFFFFFFFFFFFFFFFF AND PUSH20 0xFFFFFFFFFFFFFFFFFFFFFFFFFFFFFFFFFFFFFFFF AND CALLER PUSH20 0xFFFFFFFFFFFFFFFFFFFFFFFFFFFFFFFFFFFFFFFF AND EQ PUSH2 0x3B1 JUMPI PUSH1 0x40 MLOAD PUSH32 0x8C379A000000000000000000000000000000000000000000000000000000000 DUP2 MSTORE PUSH1 0x4 ADD PUSH2 0x3A8 SWAP1 PUSH2 0x7C7 JUMP JUMPDEST PUSH1 0x40 MLOAD DUP1 SWAP2 SUB SWAP1 REVERT JUMPDEST PUSH1 0x3 PUSH1 0x14 SWAP1 SLOAD SWAP1 PUSH2 0x100 EXP SWAP1 DIV PUSH1 0xFF AND ISZERO PUSH2 0x401 JUMPI PUSH1 0x40 MLOAD PUSH32 0x8C379A000000000000000000000000000000000000000000000000000000000 DUP2 MSTORE PUSH1 0x4 ADD PUSH2 0x3F8 SWAP1 PUSH2 0x833 JUMP JUMPDEST PUSH1 0x40 MLOAD DUP1 SWAP2 SUB SWAP1 REVERT JUMPDEST PUSH1 0x1 PUSH1 0x3 PUSH1 0x14 PUSH2 0x100 EXP DUP2 SLOAD DUP2 PUSH1 0xFF MUL NOT AND SWAP1 DUP4 ISZERO ISZERO MUL OR SWAP1 SSTORE POP CALLER PUSH20 0xFFFFFFFFFFFFFFFFFFFFFFFFFFFFFFFFFFFFFFFF AND PUSH2 0x8FC PUSH1 0x2 SLOAD SWAP1 DUP2 ISZERO MUL SWAP1 PUSH1 0x40 MLOAD PUSH1 0x0 PUSH1 0x40 MLOAD DUP1 DUP4 SUB DUP2 DUP6 DUP9 DUP9 CALL SWAP4 POP POP POP POP ISZERO DUP1 ISZERO PUSH2 0x464 JUMPI RETURNDATASIZE PUSH1 0x0 DUP1 RETURNDATACOPY RETURNDATASIZE PUSH1 0x0 REVERT JUMPDEST POP JUMP JUMPDEST PUSH1 0x1 SLOAD DUP2 JUMP JUMPDEST PUSH1 0x3 PUSH1 0x0 SWAP1 SLOAD SWAP1 PUSH2 0x100 EXP SWAP1 DIV PUSH20 0xFFFFFFFFFFFFFFFFFFFFFFFFFFFFFFFFFFFFFFFF AND DUP2 JUMP JUMPDEST PUSH1 0x3 PUSH1 0x14 SWAP1 SLOAD SWAP1 PUSH2 0x100 EXP SWAP1 DIV PUSH1 0xFF AND DUP2 JUMP JUMPDEST PUSH1 0x4 PUSH1 0x20 MSTORE DUP1 PUSH1 0x0 MSTORE PUSH1 0x40 PUSH1 0x0 KECCAK256 PUSH1 0x0 SWAP2 POP SLOAD SWAP1 PUSH2 0x100 EXP SWAP1 DIV PUSH1 0xFF AND DUP2 JUMP JUMPDEST PUSH1 0x0 DUP1 SLOAD SWAP1 PUSH2 0x100 EXP SWAP1 DIV PUSH20 0xFFFFFFFFFFFFFFFFFFFFFFFFFFFFFFFFFFFFFFFF AND DUP2 JUMP JUMPDEST PUSH1 0x2 SLOAD DUP2 JUMP JUMPDEST PUSH1 0x0 DUP2 SWAP1 POP SWAP2 SWAP1 POP JUMP JUMPDEST PUSH2 0x503 DUP2 PUSH2 0x4F0 JUMP JUMPDEST DUP3 MSTORE POP POP JUMP JUMPDEST PUSH1 0x0 PUSH1 0x20 DUP3 ADD SWAP1 POP PUSH2 0x51E PUSH1 0x0 DUP4 ADD DUP5 PUSH2 0x4FA JUMP JUMPDEST SWAP3 SWAP2 POP POP JUMP JUMPDEST PUSH1 0x0 PUSH20 0xFFFFFFFFFFFFFFFFFFFFFFFFFFFFFFFFFFFFFFFF DUP3 AND SWAP1 POP SWAP2 SWAP1 POP JUMP JUMPDEST PUSH1 0x0 PUSH2 0x54F DUP3 PUSH2 0x524 JUMP JUMPDEST SWAP1 POP SWAP2 SWAP1 POP JUMP JUMPDEST PUSH2 0x55F DUP2 PUSH2 0x544 JUMP JUMPDEST DUP3 MSTORE POP POP JUMP JUMPDEST PUSH1 0x0 PUSH1 0x20 DUP3 ADD SWAP1 POP PUSH2 0x57A PUSH1 0x0 DUP4 ADD DUP5 PUSH2 0x556 JUMP JUMPDEST SWAP3 SWAP2 POP POP JUMP JUMPDEST PUSH1 0x0 DUP2 ISZERO ISZERO SWAP1 POP SWAP2 SWAP1 POP JUMP JUMPDEST PUSH2 0x595 DUP2 PUSH2 0x580 JUMP JUMPDEST DUP3 MSTORE POP POP JUMP JUMPDEST PUSH1 0x0 PUSH1 0x20 DUP3 ADD SWAP1 POP PUSH2 0x5B0 PUSH1 0x0 DUP4 ADD DUP5 PUSH2 0x58C JUMP JUMPDEST SWAP3 SWAP2 POP POP JUMP JUMPDEST PUSH1 0x0 DUP1 REVERT JUMPDEST PUSH1 0x0 PUSH2 0x5C6 DUP3 PUSH2 0x524 JUMP JUMPDEST SWAP1 POP SWAP2 SWAP1 POP JUMP JUMPDEST PUSH2 0x5D6 DUP2 PUSH2 0x5BB JUMP JUMPDEST DUP2 EQ PUSH2 0x5E1 JUMPI PUSH1 0x0 DUP1 REVERT JUMPDEST POP JUMP JUMPDEST PUSH1 0x0 DUP2 CALLDATALOAD SWAP1 POP PUSH2 0x5F3 DUP2 PUSH2 0x5CD JUMP JUMPDEST SWAP3 SWAP2 POP POP JUMP JUMPDEST PUSH1 0x0 PUSH1 0x20 DUP3 DUP5 SUB SLT ISZERO PUSH2 0x60F JUMPI PUSH2 0x60E PUSH2 0x5B6 JUMP JUMPDEST JUMPDEST PUSH1 0x0 PUSH2 0x61D DUP5 DUP3 DUP6 ADD PUSH2 0x5E4 JUMP JUMPDEST SWAP2 POP POP SWAP3 SWAP2 POP POP JUMP JUMPDEST PUSH1 0x0 DUP3 DUP3 MSTORE PUSH1 0x20 DUP3 ADD SWAP1 POP SWAP3 SWAP2 POP POP JUMP JUMPDEST PUSH32 0x41756374696F6E2068617320656E646564000000000000000000000000000000 PUSH1 0x0 DUP3 ADD MSTORE POP JUMP JUMPDEST PUSH1 0x0 PUSH2 0x66D PUSH1 0x11 DUP4 PUSH2 0x626 JUMP JUMPDEST SWAP2 POP PUSH2 0x678 DUP3 PUSH2 0x637 JUMP JUMPDEST PUSH1 0x20 DUP3 ADD SWAP1 POP SWAP2 SWAP1 POP JUMP JUMPDEST PUSH1 0x0 PUSH1 0x20 DUP3 ADD SWAP1 POP DUP2 DUP2 SUB PUSH1 0x0 DUP4 ADD MSTORE PUSH2 0x69C DUP2 PUSH2 0x660 JUMP JUMPDEST SWAP1 POP SWAP2 SWAP1 POP JUMP JUMPDEST PUSH32 0x416C726561647920426964000000000000000000000000000000000000000000 PUSH1 0x0 DUP3 ADD MSTORE POP JUMP JUMPDEST PUSH1 0x0 PUSH2 0x6D9 PUSH1 0xB DUP4 PUSH2 0x626 JUMP JUMPDEST SWAP2 POP PUSH2 0x6E4 DUP3 PUSH2 0x6A3 JUMP JUMPDEST PUSH1 0x20 DUP3 ADD SWAP1 POP SWAP2 SWAP1 POP JUMP JUMPDEST PUSH1 0x0 PUSH1 0x20 DUP3 ADD SWAP1 POP DUP2 DUP2 SUB PUSH1 0x0 DUP4 ADD MSTORE PUSH2 0x708 DUP2 PUSH2 0x6CC JUMP JUMPDEST SWAP1 POP SWAP2 SWAP1 POP JUMP JUMPDEST PUSH32 0x41756374696F6E20686173206E6F7420656E6465642079657400000000000000 PUSH1 0x0 DUP3 ADD MSTORE POP JUMP JUMPDEST PUSH1 0x0 PUSH2 0x745 PUSH1 0x19 DUP4 PUSH2 0x626 JUMP JUMPDEST SWAP2 POP PUSH2 0x750 DUP3 PUSH2 0x70F JUMP JUMPDEST PUSH1 0x20 DUP3 ADD SWAP1 POP SWAP2 SWAP1 POP JUMP JUMPDEST PUSH1 0x0 PUSH1 0x20 DUP3 ADD SWAP1 POP DUP2 DUP2 SUB PUSH1 0x0 DUP4 ADD MSTORE PUSH2 0x774 DUP2 PUSH2 0x738 JUMP JUMPDEST SWAP1 POP SWAP2 SWAP1 POP JUMP JUMPDEST PUSH32 0x596F7520617265206E6F74207468652068696768657374206269646465720000 PUSH1 0x0 DUP3 ADD MSTORE POP JUMP JUMPDEST PUSH1 0x0 PUSH2 0x7B1 PUSH1 0x1E DUP4 PUSH2 0x626 JUMP JUMPDEST SWAP2 POP PUSH2 0x7BC DUP3 PUSH2 0x77B JUMP JUMPDEST PUSH1 0x20 DUP3 ADD SWAP1 POP SWAP2 SWAP1 POP JUMP JUMPDEST PUSH1 0x0 PUSH1 0x20 DUP3 ADD SWAP1 POP DUP2 DUP2 SUB PUSH1 0x0 DUP4 ADD MSTORE PUSH2 0x7E0 DUP2 PUSH2 0x7A4 JUMP JUMPDEST SWAP1 POP SWAP2 SWAP1 POP JUMP JUMPDEST PUSH32 0x5061796D656E7420616C7265616479206D616465000000000000000000000000 PUSH1 0x0 DUP3 ADD MSTORE POP JUMP JUMPDEST PUSH1 0x0 PUSH2 0x81D PUSH1 0x14 DUP4 PUSH2 0x626 JUMP JUMPDEST SWAP2 POP PUSH2 0x828 DUP3 PUSH2 0x7E7 JUMP JUMPDEST PUSH1 0x20 DUP3 ADD SWAP1 POP SWAP2 SWAP1 POP JUMP JUMPDEST PUSH1 0x0 PUSH1 0x20 DUP3 ADD SWAP1 POP DUP2 DUP2 SUB PUSH1 0x0 DUP4 ADD MSTORE PUSH2 0x84C DUP2 PUSH2 0x810 JUMP JUMPDEST SWAP1 POP SWAP2 SWAP1 POP JUMP INVALID LOG2 PUSH5 0x6970667358 0x22 SLT KECCAK256 0xDD 0xC5 0x5D 0xE1 ADDRESS 0x5C DUP6 PUSH14 0x56D80D0D7FF0D7C50E570B566B2C PUSH6 0xB17F31801DAF LOG0 0xB2 0xDA PUSH5 0x736F6C6343 STOP ADDMOD GT STOP CALLER "
				},
				"gasEstimates": {
					"creation": {
						"codeDepositCost": "437000",
						"executionCost": "infinite",
						"totalCost": "infinite"
					},
					"external": {
						"auctionEndTime()": "2474",
						"auctionOwner()": "2555",
						"bid()": "52995",
						"hasBid(address)": "2867",
						"hasPaid()": "2521",
						"highestBid()": "2495",
						"highestBidder()": "2581",
						"pay()": "infinite"
					}
				},
				"methodIdentifiers": {
					"auctionEndTime()": "4b449cba",
					"auctionOwner()": "d3924aaf",
					"bid()": "1998aeef",
					"hasBid(address)": "d2639dbf",
					"hasPaid()": "c810af81",
					"highestBid()": "d57bde79",
					"highestBidder()": "91f90157",
					"pay()": "1b9265b8"
				}
			},
			"storageLayout": {
				"storage": [
					{
						"astId": 3,
						"contract": "firstPriceAuction.sol:Auction",
						"label": "auctionOwner",
						"offset": 0,
						"slot": "0",
						"type": "t_address_payable"
					},
					{
						"astId": 5,
						"contract": "firstPriceAuction.sol:Auction",
						"label": "auctionEndTime",
						"offset": 0,
						"slot": "1",
						"type": "t_uint256"
					},
					{
						"astId": 7,
						"contract": "firstPriceAuction.sol:Auction",
						"label": "highestBid",
						"offset": 0,
						"slot": "2",
						"type": "t_uint256"
					},
					{
						"astId": 9,
						"contract": "firstPriceAuction.sol:Auction",
						"label": "highestBidder",
						"offset": 0,
						"slot": "3",
						"type": "t_address_payable"
					},
					{
						"astId": 11,
						"contract": "firstPriceAuction.sol:Auction",
						"label": "hasPaid",
						"offset": 20,
						"slot": "3",
						"type": "t_bool"
					},
					{
						"astId": 15,
						"contract": "firstPriceAuction.sol:Auction",
						"label": "hasBid",
						"offset": 0,
						"slot": "4",
						"type": "t_mapping(t_address,t_bool)"
					}
				],
				"types": {
					"t_address": {
						"encoding": "inplace",
						"label": "address",
						"numberOfBytes": "20"
					},
					"t_address_payable": {
						"encoding": "inplace",
						"label": "address payable",
						"numberOfBytes": "20"
					},
					"t_bool": {
						"encoding": "inplace",
						"label": "bool",
						"numberOfBytes": "1"
					},
					"t_mapping(t_address,t_bool)": {
						"encoding": "mapping",
						"key": "t_address",
						"label": "mapping(address => bool)",
						"numberOfBytes": "32",
						"value": "t_bool"
					},
					"t_uint256": {
						"encoding": "inplace",
						"label": "uint256",
						"numberOfBytes": "32"
					}
				}
			},
			"userdoc": {
				"kind": "user",
				"methods": {},
				"version": 1
			}
		}
	}
}